{
  "contractName": "Bankroll",
  "abi": [
    {
      "inputs": [
        {
          "internalType": "contract IERC20",
          "name": "XYA_",
          "type": "address"
        }
      ],
      "stateMutability": "nonpayable",
      "type": "constructor"
    },
    {
      "anonymous": false,
      "inputs": [
        {
          "indexed": true,
          "internalType": "address",
          "name": "from",
          "type": "address"
        },
        {
          "indexed": false,
          "internalType": "uint256",
          "name": "amount",
          "type": "uint256"
        }
      ],
      "name": "Deposit",
      "type": "event"
    },
    {
      "anonymous": false,
      "inputs": [
        {
          "indexed": false,
          "internalType": "address",
          "name": "to",
          "type": "address"
        },
        {
          "indexed": false,
          "internalType": "uint256",
          "name": "amount",
          "type": "uint256"
        }
      ],
      "name": "FeeSent",
      "type": "event"
    },
    {
      "anonymous": false,
      "inputs": [
        {
          "indexed": true,
          "internalType": "address",
          "name": "previousOwner",
          "type": "address"
        },
        {
          "indexed": true,
          "internalType": "address",
          "name": "newOwner",
          "type": "address"
        }
      ],
      "name": "OwnershipTransferred",
      "type": "event"
    },
    {
      "anonymous": false,
      "inputs": [
        {
          "indexed": false,
          "internalType": "uint256",
          "name": "amount",
          "type": "uint256"
        }
      ],
      "name": "ProfitTaken",
      "type": "event"
    },
    {
      "anonymous": false,
      "inputs": [
        {
          "indexed": true,
          "internalType": "address",
          "name": "from",
          "type": "address"
        },
        {
          "indexed": false,
          "internalType": "uint256",
          "name": "amount",
          "type": "uint256"
        }
      ],
      "name": "Spent",
      "type": "event"
    },
    {
      "anonymous": false,
      "inputs": [
        {
          "indexed": true,
          "internalType": "address",
          "name": "to",
          "type": "address"
        },
        {
          "indexed": false,
          "internalType": "uint256",
          "name": "amount",
          "type": "uint256"
        }
      ],
      "name": "Withdraw",
      "type": "event"
    },
    {
      "anonymous": false,
      "inputs": [
        {
          "indexed": true,
          "internalType": "address",
          "name": "to",
          "type": "address"
        },
        {
          "indexed": false,
          "internalType": "uint256",
          "name": "amount",
          "type": "uint256"
        }
      ],
      "name": "Won",
      "type": "event"
    },
    {
      "inputs": [
        {
          "internalType": "address",
          "name": "addr",
          "type": "address"
        },
        {
          "internalType": "uint256",
          "name": "points",
          "type": "uint256"
        }
      ],
      "name": "addToFeeTakers",
      "outputs": [],
      "stateMutability": "nonpayable",
      "type": "function"
    },
    {
      "inputs": [
        {
          "internalType": "uint256",
          "name": "index",
          "type": "uint256"
        }
      ],
      "name": "getFeeTakerAt",
      "outputs": [
        {
          "components": [
            {
              "internalType": "address",
              "name": "addr",
              "type": "address"
            },
            {
              "internalType": "uint256",
              "name": "points",
              "type": "uint256"
            }
          ],
          "internalType": "struct FeeTakers.FeeTaker",
          "name": "",
          "type": "tuple"
        }
      ],
      "stateMutability": "view",
      "type": "function"
    },
    {
      "inputs": [],
      "name": "getFeeTakersLength",
      "outputs": [
        {
          "internalType": "uint256",
          "name": "",
          "type": "uint256"
        }
      ],
      "stateMutability": "view",
      "type": "function"
    },
    {
      "inputs": [],
      "name": "owner",
      "outputs": [
        {
          "internalType": "address",
          "name": "",
          "type": "address"
        }
      ],
      "stateMutability": "view",
      "type": "function"
    },
    {
      "inputs": [
        {
          "internalType": "uint256",
          "name": "index",
          "type": "uint256"
        }
      ],
      "name": "removeFromFeeTakers",
      "outputs": [],
      "stateMutability": "nonpayable",
      "type": "function"
    },
    {
      "inputs": [],
      "name": "renounceOwnership",
      "outputs": [],
      "stateMutability": "nonpayable",
      "type": "function"
    },
    {
      "inputs": [
        {
          "internalType": "contract IERC20",
          "name": "Token_",
          "type": "address"
        }
      ],
      "name": "setToken",
      "outputs": [],
      "stateMutability": "nonpayable",
      "type": "function"
    },
    {
      "inputs": [
        {
          "internalType": "address",
          "name": "newOwner",
          "type": "address"
        }
      ],
      "name": "transferOwnership",
      "outputs": [],
      "stateMutability": "nonpayable",
      "type": "function"
    },
    {
      "inputs": [
        {
          "internalType": "uint256",
          "name": "amount",
          "type": "uint256"
        }
      ],
      "name": "deposit",
      "outputs": [],
      "stateMutability": "nonpayable",
      "type": "function"
    },
    {
      "inputs": [
        {
          "internalType": "uint256",
          "name": "amount",
          "type": "uint256"
        }
      ],
      "name": "withdraw",
      "outputs": [],
      "stateMutability": "nonpayable",
      "type": "function"
    },
    {
      "inputs": [
        {
          "internalType": "address",
          "name": "player",
          "type": "address"
        }
      ],
      "name": "getPlayerData",
      "outputs": [
        {
          "components": [
            {
              "internalType": "uint256",
              "name": "credit",
              "type": "uint256"
            },
            {
              "internalType": "uint256",
              "name": "bank",
              "type": "uint256"
            },
            {
              "internalType": "uint256",
              "name": "totalSpent",
              "type": "uint256"
            },
            {
              "internalType": "uint256",
              "name": "totalWon",
              "type": "uint256"
            }
          ],
          "internalType": "struct Bankroll.PlayerData",
          "name": "",
          "type": "tuple"
        }
      ],
      "stateMutability": "view",
      "type": "function"
    },
    {
      "inputs": [
        {
          "internalType": "address",
          "name": "player",
          "type": "address"
        },
        {
          "internalType": "uint256",
          "name": "amount",
          "type": "uint256"
        }
      ],
      "name": "playFrom",
      "outputs": [],
      "stateMutability": "nonpayable",
      "type": "function"
    },
    {
      "inputs": [
        {
          "internalType": "address",
          "name": "player",
          "type": "address"
        },
        {
          "internalType": "uint256",
          "name": "amount",
          "type": "uint256"
        }
      ],
      "name": "winTo",
      "outputs": [],
      "stateMutability": "nonpayable",
      "type": "function"
    },
    {
      "inputs": [
        {
          "internalType": "address",
          "name": "addr",
          "type": "address"
        },
        {
          "internalType": "bool",
          "name": "approval",
          "type": "bool"
        }
      ],
      "name": "setApproval",
      "outputs": [],
      "stateMutability": "nonpayable",
      "type": "function"
    }
  ],
  "bytecode": "0x60806040523480156200001157600080fd5b5060405162001e3438038062001e34833981810160405281019062000037919062000254565b80620000586200004c6200008260201b60201c565b6200008a60201b60201c565b62000069816200014e60201b60201c565b506200007b816200019260201b60201c565b5062000286565b600033905090565b60008060009054906101000a900473ffffffffffffffffffffffffffffffffffffffff169050816000806101000a81548173ffffffffffffffffffffffffffffffffffffffff021916908373ffffffffffffffffffffffffffffffffffffffff1602179055508173ffffffffffffffffffffffffffffffffffffffff168173ffffffffffffffffffffffffffffffffffffffff167f8be0079c531659141344cd1fd0a4f28419497f9722a3daafe3b4186f6b6457e060405160405180910390a35050565b80600160006101000a81548173ffffffffffffffffffffffffffffffffffffffff021916908373ffffffffffffffffffffffffffffffffffffffff16021790555050565b80600360006101000a81548173ffffffffffffffffffffffffffffffffffffffff021916908373ffffffffffffffffffffffffffffffffffffffff16021790555050565b600080fd5b600073ffffffffffffffffffffffffffffffffffffffff82169050919050565b60006200020882620001db565b9050919050565b60006200021c82620001fb565b9050919050565b6200022e816200020f565b81146200023a57600080fd5b50565b6000815190506200024e8162000223565b92915050565b6000602082840312156200026d576200026c620001d6565b5b60006200027d848285016200023d565b91505092915050565b611b9e80620002966000396000f3fe608060405234801561001057600080fd5b50600436106100ea5760003560e01c8063a19ab0e01161008c578063b6b55f2511610066578063b6b55f2514610221578063db9b71701461023d578063e41515c614610259578063f2fde38b14610275576100ea565b8063a19ab0e0146101cb578063a6bb4664146101e9578063ad3be30114610205576100ea565b8063715018a6116100c8578063715018a61461015757806387bca547146101615780638d0c3bd4146101915780638da5cb5b146101ad576100ea565b8063144fa6d7146100ef5780632aa531d91461010b5780632e1a7d4d1461013b575b600080fd5b610109600480360381019061010491906113c6565b610291565b005b6101256004803603810190610120919061141f565b610319565b60405161013291906114ba565b60405180910390f35b61015560048036038101906101509190611501565b610364565b005b61015f610378565b005b61017b60048036038101906101769190611501565b610400565b604051610188919061156c565b60405180910390f35b6101ab60048036038101906101a69190611587565b6104ff565b005b6101b56105a0565b6040516101c291906115d6565b60405180910390f35b6101d36105c9565b6040516101e09190611600565b60405180910390f35b61020360048036038101906101fe9190611587565b610654565b005b61021f600480360381019061021a9190611587565b6106f5565b005b61023b60048036038101906102369190611501565b61077f565b005b61025760048036038101906102529190611653565b610793565b005b610273600480360381019061026e9190611501565b61081d565b005b61028f600480360381019061028a919061141f565b6108a5565b005b61029961099d565b73ffffffffffffffffffffffffffffffffffffffff166102b76105a0565b73ffffffffffffffffffffffffffffffffffffffff161461030d576040517f08c379a0000000000000000000000000000000000000000000000000000000008152600401610304906116f0565b60405180910390fd5b610316816109a5565b50565b6103216112f9565b61032a826109e9565b6040518060800160405290816000820154815260200160018201548152602001600282015481526020016003820154815250509050919050565b61037561036f61099d565b82610a31565b50565b61038061099d565b73ffffffffffffffffffffffffffffffffffffffff1661039e6105a0565b73ffffffffffffffffffffffffffffffffffffffff16146103f4576040517f08c379a00000000000000000000000000000000000000000000000000000000081526004016103eb906116f0565b60405180910390fd5b6103fe6000610b4f565b565b610408611321565b61041061099d565b73ffffffffffffffffffffffffffffffffffffffff1661042e6105a0565b73ffffffffffffffffffffffffffffffffffffffff1614610484576040517f08c379a000000000000000000000000000000000000000000000000000000000815260040161047b906116f0565b60405180910390fd5b61048d82610c13565b6040518060400160405290816000820160009054906101000a900473ffffffffffffffffffffffffffffffffffffffff1673ffffffffffffffffffffffffffffffffffffffff1673ffffffffffffffffffffffffffffffffffffffff1681526020016001820154815250509050919050565b6006600061050b61099d565b73ffffffffffffffffffffffffffffffffffffffff1673ffffffffffffffffffffffffffffffffffffffff16815260200190815260200160002060009054906101000a900460ff16610592576040517f08c379a00000000000000000000000000000000000000000000000000000000081526004016105899061175c565b60405180910390fd5b61059c8282610c3e565b5050565b60008060009054906101000a900473ffffffffffffffffffffffffffffffffffffffff16905090565b60006105d361099d565b73ffffffffffffffffffffffffffffffffffffffff166105f16105a0565b73ffffffffffffffffffffffffffffffffffffffff1614610647576040517f08c379a000000000000000000000000000000000000000000000000000000000815260040161063e906116f0565b60405180910390fd5b61064f610cda565b905090565b6006600061066061099d565b73ffffffffffffffffffffffffffffffffffffffff1673ffffffffffffffffffffffffffffffffffffffff16815260200190815260200160002060009054906101000a900460ff166106e7576040517f08c379a00000000000000000000000000000000000000000000000000000000081526004016106de9061175c565b60405180910390fd5b6106f18282610ce7565b5050565b6106fd61099d565b73ffffffffffffffffffffffffffffffffffffffff1661071b6105a0565b73ffffffffffffffffffffffffffffffffffffffff1614610771576040517f08c379a0000000000000000000000000000000000000000000000000000000008152600401610768906116f0565b60405180910390fd5b61077b8282610d7b565b5050565b61079061078a61099d565b82610e28565b50565b61079b61099d565b73ffffffffffffffffffffffffffffffffffffffff166107b96105a0565b73ffffffffffffffffffffffffffffffffffffffff161461080f576040517f08c379a0000000000000000000000000000000000000000000000000000000008152600401610806906116f0565b60405180910390fd5b6108198282610f46565b5050565b61082561099d565b73ffffffffffffffffffffffffffffffffffffffff166108436105a0565b73ffffffffffffffffffffffffffffffffffffffff1614610899576040517f08c379a0000000000000000000000000000000000000000000000000000000008152600401610890906116f0565b60405180910390fd5b6108a281610fa1565b50565b6108ad61099d565b73ffffffffffffffffffffffffffffffffffffffff166108cb6105a0565b73ffffffffffffffffffffffffffffffffffffffff1614610921576040517f08c379a0000000000000000000000000000000000000000000000000000000008152600401610918906116f0565b60405180910390fd5b600073ffffffffffffffffffffffffffffffffffffffff168173ffffffffffffffffffffffffffffffffffffffff161415610991576040517f08c379a0000000000000000000000000000000000000000000000000000000008152600401610988906117ee565b60405180910390fd5b61099a81610b4f565b50565b600033905090565b80600160006101000a81548173ffffffffffffffffffffffffffffffffffffffff021916908373ffffffffffffffffffffffffffffffffffffffff16021790555050565b6000600760008373ffffffffffffffffffffffffffffffffffffffff1673ffffffffffffffffffffffffffffffffffffffff1681526020019081526020016000209050919050565b6000610a3c836109e9565b905081816001016000828254610a52919061183d565b92505081905550600360009054906101000a900473ffffffffffffffffffffffffffffffffffffffff1673ffffffffffffffffffffffffffffffffffffffff166323b872dd3085856040518463ffffffff1660e01b8152600401610ab893929190611871565b6020604051808303816000875af1158015610ad7573d6000803e3d6000fd5b505050506040513d601f19601f82011682018060405250810190610afb91906118bd565b508273ffffffffffffffffffffffffffffffffffffffff167f884edad9ce6fa2440d8a54cc123490eb96d2768479d49ff9c7366125a942436483604051610b429190611600565b60405180910390a2505050565b60008060009054906101000a900473ffffffffffffffffffffffffffffffffffffffff169050816000806101000a81548173ffffffffffffffffffffffffffffffffffffffff021916908373ffffffffffffffffffffffffffffffffffffffff1602179055508173ffffffffffffffffffffffffffffffffffffffff168173ffffffffffffffffffffffffffffffffffffffff167f8be0079c531659141344cd1fd0a4f28419497f9722a3daafe3b4186f6b6457e060405160405180910390a35050565b600060028281548110610c2957610c286118ea565b5b90600052602060002090600202019050919050565b6000610c49836109e9565b90508160056000828254610c5d9190611919565b9250508190555081816001016000828254610c789190611919565b925050819055508273ffffffffffffffffffffffffffffffffffffffff167f8b01f9dd0400d6a1e84369a5fb8f6033934856ffa8ebadd707dca302ab55169583604051610cc59190611600565b60405180910390a2610cd56110c7565b505050565b6000600280549050905090565b6000610cf2836109e9565b90508160046000828254610d069190611919565b9250508190555081816000016000828254610d21919061183d565b925050819055508273ffffffffffffffffffffffffffffffffffffffff167fd3eec71143c45f28685b24760ea218d476917aa0ac0392a55e5304cef40bd2b683604051610d6e9190611600565b60405180910390a2505050565b600260405180604001604052808473ffffffffffffffffffffffffffffffffffffffff16815260200183815250908060018154018082558091505060019003906000526020600020906002020160009091909190915060008201518160000160006101000a81548173ffffffffffffffffffffffffffffffffffffffff021916908373ffffffffffffffffffffffffffffffffffffffff1602179055506020820151816001015550505050565b6000610e33836109e9565b905081816000016000828254610e499190611919565b92505081905550600360009054906101000a900473ffffffffffffffffffffffffffffffffffffffff1673ffffffffffffffffffffffffffffffffffffffff166323b872dd8430856040518463ffffffff1660e01b8152600401610eaf93929190611871565b6020604051808303816000875af1158015610ece573d6000803e3d6000fd5b505050506040513d601f19601f82011682018060405250810190610ef291906118bd565b508273ffffffffffffffffffffffffffffffffffffffff167fe1fffcc4923d04b559f4d29a8bfc6cda04eb5b0d3c460751c2402c5c5cc9109c83604051610f399190611600565b60405180910390a2505050565b80600660008473ffffffffffffffffffffffffffffffffffffffff1673ffffffffffffffffffffffffffffffffffffffff16815260200190815260200160002060006101000a81548160ff0219169083151502179055505050565b60026001600280549050610fb5919061183d565b81548110610fc657610fc56118ea565b5b906000526020600020906002020160028281548110610fe857610fe76118ea565b5b90600052602060002090600202016000820160009054906101000a900473ffffffffffffffffffffffffffffffffffffffff168160000160006101000a81548173ffffffffffffffffffffffffffffffffffffffff021916908373ffffffffffffffffffffffffffffffffffffffff16021790555060018201548160010155905050600280548061107c5761107b61196f565b5b6001900381819060005260206000209060020201600080820160006101000a81549073ffffffffffffffffffffffffffffffffffffffff021916905560018201600090555050905550565b60006110d161113f565b9050600081131561113c57600081905080600560008282546110f39190611919565b9250508190555061110381611156565b7f949da057e0c10ac8c590fc56cf17f0a7f8a424d6f373268e7fc205c8dcbc7bb4816040516111329190611600565b60405180910390a1505b50565b600060055460045461115191906119a8565b905090565b60008060005b611164610cda565b8110156111985761117481610c13565b60010154836111839190611919565b9250808061119090611a3c565b91505061115c565b5081836111a59190611ab4565b905060005b6111b2610cda565b8110156112f35760006111c482610c13565b905060008160000160009054906101000a900473ffffffffffffffffffffffffffffffffffffffff16905060008483600101546112019190611ae5565b9050600160009054906101000a900473ffffffffffffffffffffffffffffffffffffffff1673ffffffffffffffffffffffffffffffffffffffff1663a9059cbb83836040518363ffffffff1660e01b8152600401611260929190611b3f565b6020604051808303816000875af115801561127f573d6000803e3d6000fd5b505050506040513d601f19601f820116820180604052508101906112a391906118bd565b507f58793df5f4d270351f09efd433db93c69432142b69dc7ee38195fc630478c79f82826040516112d5929190611b3f565b60405180910390a150505080806112eb90611a3c565b9150506111aa565b50505050565b6040518060800160405280600081526020016000815260200160008152602001600081525090565b6040518060400160405280600073ffffffffffffffffffffffffffffffffffffffff168152602001600081525090565b600080fd5b600073ffffffffffffffffffffffffffffffffffffffff82169050919050565b600061138182611356565b9050919050565b600061139382611376565b9050919050565b6113a381611388565b81146113ae57600080fd5b50565b6000813590506113c08161139a565b92915050565b6000602082840312156113dc576113db611351565b5b60006113ea848285016113b1565b91505092915050565b6113fc81611376565b811461140757600080fd5b50565b600081359050611419816113f3565b92915050565b60006020828403121561143557611434611351565b5b60006114438482850161140a565b91505092915050565b6000819050919050565b61145f8161144c565b82525050565b60808201600082015161147b6000850182611456565b50602082015161148e6020850182611456565b5060408201516114a16040850182611456565b5060608201516114b46060850182611456565b50505050565b60006080820190506114cf6000830184611465565b92915050565b6114de8161144c565b81146114e957600080fd5b50565b6000813590506114fb816114d5565b92915050565b60006020828403121561151757611516611351565b5b6000611525848285016114ec565b91505092915050565b61153781611376565b82525050565b604082016000820151611553600085018261152e565b5060208201516115666020850182611456565b50505050565b6000604082019050611581600083018461153d565b92915050565b6000806040838503121561159e5761159d611351565b5b60006115ac8582860161140a565b92505060206115bd858286016114ec565b9150509250929050565b6115d081611376565b82525050565b60006020820190506115eb60008301846115c7565b92915050565b6115fa8161144c565b82525050565b600060208201905061161560008301846115f1565b92915050565b60008115159050919050565b6116308161161b565b811461163b57600080fd5b50565b60008135905061164d81611627565b92915050565b6000806040838503121561166a57611669611351565b5b60006116788582860161140a565b92505060206116898582860161163e565b9150509250929050565b600082825260208201905092915050565b7f4f776e61626c653a2063616c6c6572206973206e6f7420746865206f776e6572600082015250565b60006116da602083611693565b91506116e5826116a4565b602082019050919050565b60006020820190508181036000830152611709816116cd565b9050919050565b7f596f75206172656e277420616c6c6f77656420746f20646f20746861742e0000600082015250565b6000611746601e83611693565b915061175182611710565b602082019050919050565b6000602082019050818103600083015261177581611739565b9050919050565b7f4f776e61626c653a206e6577206f776e657220697320746865207a65726f206160008201527f6464726573730000000000000000000000000000000000000000000000000000602082015250565b60006117d8602683611693565b91506117e38261177c565b604082019050919050565b60006020820190508181036000830152611807816117cb565b9050919050565b7f4e487b7100000000000000000000000000000000000000000000000000000000600052601160045260246000fd5b60006118488261144c565b91506118538361144c565b9250828210156118665761186561180e565b5b828203905092915050565b600060608201905061188660008301866115c7565b61189360208301856115c7565b6118a060408301846115f1565b949350505050565b6000815190506118b781611627565b92915050565b6000602082840312156118d3576118d2611351565b5b60006118e1848285016118a8565b91505092915050565b7f4e487b7100000000000000000000000000000000000000000000000000000000600052603260045260246000fd5b60006119248261144c565b915061192f8361144c565b9250827fffffffffffffffffffffffffffffffffffffffffffffffffffffffffffffffff038211156119645761196361180e565b5b828201905092915050565b7f4e487b7100000000000000000000000000000000000000000000000000000000600052603160045260246000fd5b6000819050919050565b60006119b38261199e565b91506119be8361199e565b9250827f8000000000000000000000000000000000000000000000000000000000000000018212600084121516156119f9576119f861180e565b5b827f7fffffffffffffffffffffffffffffffffffffffffffffffffffffffffffffff018213600084121615611a3157611a3061180e565b5b828203905092915050565b6000611a478261144c565b91507fffffffffffffffffffffffffffffffffffffffffffffffffffffffffffffffff821415611a7a57611a7961180e565b5b600182019050919050565b7f4e487b7100000000000000000000000000000000000000000000000000000000600052601260045260246000fd5b6000611abf8261144c565b9150611aca8361144c565b925082611ada57611ad9611a85565b5b828204905092915050565b6000611af08261144c565b9150611afb8361144c565b9250817fffffffffffffffffffffffffffffffffffffffffffffffffffffffffffffffff0483118215151615611b3457611b3361180e565b5b828202905092915050565b6000604082019050611b5460008301856115c7565b611b6160208301846115f1565b939250505056fea2646970667358221220794da4d88dae18df2016df0f486a96f849d3abf6ad75f9b0e6e938ceb134c3c464736f6c634300080a0033",
  "immutableReferences": {},
  "source": "//SPDX-License-Identifier: MIT\r\n\r\npragma solidity ^0.8.0;\r\nimport \"@openzeppelin/contracts/token/ERC20/IERC20.sol\";\r\nimport \"@openzeppelin/contracts/utils/Context.sol\";\r\nimport \"@openzeppelin/contracts/access/Ownable.sol\";\r\nimport \"luk1529_solidity/contracts/fee/FeeTakersERC20.sol\";\r\n\r\ncontract Bankroll is Context, Ownable, FeeTakers {\r\n    IERC20 _XYA;\r\n    \r\n    \r\n    uint _totalInflow;\r\n    uint _totalOutflow;\r\n\r\n\r\n    constructor(IERC20 XYA_) FeeTakers(XYA_) {\r\n        _setXYA(XYA_);\r\n    }\r\n\r\n    struct PlayerData {\r\n        uint credit;\r\n        uint bank; \r\n        uint totalSpent;\r\n        uint totalWon;\r\n    }\r\n\r\n\r\n    event Deposit(address indexed from, uint amount);\r\n    event Withdraw(address indexed to, uint amount);\r\n    event Won(address indexed to, uint amount);\r\n    event Spent(address indexed from, uint amount);\r\n\r\n    event ProfitTaken(uint amount);\r\n\r\n    mapping(address => bool) _approved;\r\n    mapping(address => PlayerData) _playerData;\r\n\r\n\r\n    //user can deposit to their credit balance and withdraw funds from their bank balance\r\n    function deposit(uint amount) public {\r\n        _depositFrom(_msgSender(), amount);\r\n    }\r\n    function withdraw(uint amount) public {\r\n        _withdrawTo(_msgSender(), amount);\r\n    }\r\n\r\n\r\n    //get the data of a player - credit, bank etc.\r\n    function getPlayerData(address player) public view returns(PlayerData memory) {\r\n        return _getPlayerData(player);\r\n    }\r\n\r\n\r\n    //approved contracts (games) can take funds from players' credit balances and award funds to their bank balances\r\n    function playFrom(address player, uint amount) public onlyApproved {\r\n        _playFrom(player, amount);\r\n    }\r\n    function winTo(address player, uint amount) public onlyApproved {\r\n        _winTo(player, amount);\r\n    }\r\n\r\n\r\n    //audit which contracts can spend on behalf of players in Freyala's casino\r\n    function setApproval(address addr, bool approval) public onlyOwner {\r\n        _setApproval(addr, approval);\r\n    }\r\n\r\n    modifier onlyApproved() {\r\n        require(_approved[_msgSender()], \"You aren't allowed to do that.\");\r\n        _;\r\n    }\r\n\r\n\r\n    function _getPlayerData(address player) private view returns(PlayerData storage) {\r\n        return _playerData[player];\r\n    }\r\n\r\n    function _depositFrom(address player, uint amount) private {\r\n        PlayerData storage playerData = _getPlayerData(player);\r\n        playerData.credit += amount;\r\n        _XYA.transferFrom(player, address(this), amount);\r\n        emit Deposit(player, amount);\r\n    }\r\n\r\n    function _withdrawTo(address player, uint amount) private {\r\n        PlayerData storage playerData = _getPlayerData(player);\r\n        playerData.bank -= amount;\r\n        _XYA.transferFrom(address(this), player, amount);\r\n        emit Withdraw(player, amount);\r\n    }\r\n\r\n    function _playFrom(address player, uint amount) private {\r\n        PlayerData storage playerData = _getPlayerData(player);\r\n        _totalInflow += amount;\r\n        playerData.credit -= amount;\r\n        emit Spent(player, amount);\r\n    }\r\n\r\n    function _winTo(address player, uint amount) private {\r\n        PlayerData storage playerData = _getPlayerData(player);\r\n        _totalOutflow += amount;\r\n        playerData.bank += amount;\r\n        emit Won(player, amount);\r\n        _takeProfit();\r\n    }\r\n\r\n    function _getNetBalance() private view returns(int netBalance) {\r\n        netBalance = int(_totalInflow) - int(_totalOutflow);\r\n    }\r\n\r\n    function _takeProfit() private {\r\n        int profit = _getNetBalance();\r\n        if(profit > 0) {\r\n            uint toDistribute = uint(profit);\r\n            _totalOutflow += toDistribute;\r\n            _distributeFee(toDistribute);\r\n            emit ProfitTaken(toDistribute);\r\n        }\r\n    }\r\n\r\n    function _setApproval(address addr, bool approval) private {\r\n        _approved[addr] = approval;\r\n    }\r\n\r\n    function _setXYA(IERC20 XYA_) private {\r\n        _XYA = XYA_;\r\n    }\r\n\r\n    \r\n}",
  "sourcePath": "C:\\Users\\lukey\\Documents\\Blockchain\\XYA\\Casino\\contracts\\bankroll\\Bankroll.sol",
  "compiler": {
    "name": "solc",
    "version": "0.8.10+commit.fc410830.Emscripten.clang"
  },
  "schemaVersion": "3.4.3",
  "updatedAt": "2021-11-29T18:10:44.377Z",
  "devdoc": {
    "kind": "dev",
    "methods": {
      "owner()": {
        "details": "Returns the address of the current owner."
      },
      "renounceOwnership()": {
        "details": "Leaves the contract without owner. It will not be possible to call `onlyOwner` functions anymore. Can only be called by the current owner. NOTE: Renouncing ownership will leave the contract without an owner, thereby removing any functionality that is only available to the owner."
      },
      "transferOwnership(address)": {
        "details": "Transfers ownership of the contract to a new account (`newOwner`). Can only be called by the current owner."
      }
    },
    "version": 1
  },
  "userdoc": {
    "kind": "user",
    "methods": {},
    "version": 1
  }
}