{
  "contractName": "Bankroll",
  "abi": [
    {
      "inputs": [
        {
          "internalType": "contract IERC20",
          "name": "XYA",
          "type": "address"
        }
      ],
      "stateMutability": "nonpayable",
      "type": "constructor"
    },
    {
      "anonymous": false,
      "inputs": [
        {
          "indexed": true,
          "internalType": "address",
          "name": "from",
          "type": "address"
        },
        {
          "indexed": false,
          "internalType": "uint256",
          "name": "amount",
          "type": "uint256"
        }
      ],
      "name": "Deposit",
      "type": "event"
    },
    {
      "anonymous": false,
      "inputs": [
        {
          "indexed": false,
          "internalType": "address",
          "name": "to",
          "type": "address"
        },
        {
          "indexed": false,
          "internalType": "uint256",
          "name": "amount",
          "type": "uint256"
        }
      ],
      "name": "FeeSent",
      "type": "event"
    },
    {
      "anonymous": false,
      "inputs": [
        {
          "indexed": true,
          "internalType": "address",
          "name": "previousOwner",
          "type": "address"
        },
        {
          "indexed": true,
          "internalType": "address",
          "name": "newOwner",
          "type": "address"
        }
      ],
      "name": "OwnershipTransferred",
      "type": "event"
    },
    {
      "anonymous": false,
      "inputs": [
        {
          "indexed": false,
          "internalType": "uint256",
          "name": "amount",
          "type": "uint256"
        }
      ],
      "name": "ProfitTaken",
      "type": "event"
    },
    {
      "anonymous": false,
      "inputs": [
        {
          "indexed": true,
          "internalType": "address",
          "name": "from",
          "type": "address"
        },
        {
          "indexed": false,
          "internalType": "uint256",
          "name": "amount",
          "type": "uint256"
        }
      ],
      "name": "Spent",
      "type": "event"
    },
    {
      "anonymous": false,
      "inputs": [
        {
          "indexed": true,
          "internalType": "address",
          "name": "to",
          "type": "address"
        },
        {
          "indexed": false,
          "internalType": "uint256",
          "name": "amount",
          "type": "uint256"
        }
      ],
      "name": "Withdraw",
      "type": "event"
    },
    {
      "anonymous": false,
      "inputs": [
        {
          "indexed": true,
          "internalType": "address",
          "name": "to",
          "type": "address"
        },
        {
          "indexed": false,
          "internalType": "uint256",
          "name": "amount",
          "type": "uint256"
        }
      ],
      "name": "Won",
      "type": "event"
    },
    {
      "inputs": [
        {
          "internalType": "address",
          "name": "addr",
          "type": "address"
        },
        {
          "internalType": "uint256",
          "name": "points",
          "type": "uint256"
        }
      ],
      "name": "addToFeeTakers",
      "outputs": [],
      "stateMutability": "nonpayable",
      "type": "function"
    },
    {
      "inputs": [
        {
          "internalType": "uint256",
          "name": "index",
          "type": "uint256"
        }
      ],
      "name": "getFeeTakerAt",
      "outputs": [
        {
          "components": [
            {
              "internalType": "address",
              "name": "addr",
              "type": "address"
            },
            {
              "internalType": "uint256",
              "name": "points",
              "type": "uint256"
            }
          ],
          "internalType": "struct FeeTakers.FeeTaker",
          "name": "",
          "type": "tuple"
        }
      ],
      "stateMutability": "view",
      "type": "function"
    },
    {
      "inputs": [],
      "name": "getFeeTakersLength",
      "outputs": [
        {
          "internalType": "uint256",
          "name": "",
          "type": "uint256"
        }
      ],
      "stateMutability": "view",
      "type": "function"
    },
    {
      "inputs": [],
      "name": "owner",
      "outputs": [
        {
          "internalType": "address",
          "name": "",
          "type": "address"
        }
      ],
      "stateMutability": "view",
      "type": "function"
    },
    {
      "inputs": [
        {
          "internalType": "uint256",
          "name": "index",
          "type": "uint256"
        }
      ],
      "name": "removeFromFeeTakers",
      "outputs": [],
      "stateMutability": "nonpayable",
      "type": "function"
    },
    {
      "inputs": [],
      "name": "renounceOwnership",
      "outputs": [],
      "stateMutability": "nonpayable",
      "type": "function"
    },
    {
      "inputs": [
        {
          "internalType": "address",
          "name": "newOwner",
          "type": "address"
        }
      ],
      "name": "transferOwnership",
      "outputs": [],
      "stateMutability": "nonpayable",
      "type": "function"
    },
    {
      "inputs": [
        {
          "internalType": "uint256",
          "name": "amount",
          "type": "uint256"
        }
      ],
      "name": "deposit",
      "outputs": [],
      "stateMutability": "nonpayable",
      "type": "function"
    },
    {
      "inputs": [
        {
          "internalType": "uint256",
          "name": "amount",
          "type": "uint256"
        }
      ],
      "name": "withdraw",
      "outputs": [],
      "stateMutability": "nonpayable",
      "type": "function"
    },
    {
      "inputs": [
        {
          "internalType": "address",
          "name": "player",
          "type": "address"
        }
      ],
      "name": "getPlayerData",
      "outputs": [
        {
          "components": [
            {
              "internalType": "uint256",
              "name": "credit",
              "type": "uint256"
            },
            {
              "internalType": "uint256",
              "name": "bank",
              "type": "uint256"
            },
            {
              "internalType": "uint256",
              "name": "totalSpent",
              "type": "uint256"
            },
            {
              "internalType": "uint256",
              "name": "totalWon",
              "type": "uint256"
            }
          ],
          "internalType": "struct Bankroll.PlayerData",
          "name": "",
          "type": "tuple"
        }
      ],
      "stateMutability": "view",
      "type": "function"
    },
    {
      "inputs": [
        {
          "internalType": "address",
          "name": "player",
          "type": "address"
        },
        {
          "internalType": "uint256",
          "name": "amount",
          "type": "uint256"
        }
      ],
      "name": "playFrom",
      "outputs": [],
      "stateMutability": "nonpayable",
      "type": "function"
    },
    {
      "inputs": [
        {
          "internalType": "address",
          "name": "player",
          "type": "address"
        },
        {
          "internalType": "uint256",
          "name": "amount",
          "type": "uint256"
        }
      ],
      "name": "winTo",
      "outputs": [],
      "stateMutability": "nonpayable",
      "type": "function"
    },
    {
      "inputs": [
        {
          "internalType": "address",
          "name": "addr",
          "type": "address"
        },
        {
          "internalType": "bool",
          "name": "approval",
          "type": "bool"
        }
      ],
      "name": "setApproval",
      "outputs": [],
      "stateMutability": "nonpayable",
      "type": "function"
    },
    {
      "inputs": [
        {
          "internalType": "uint256",
          "name": "amount",
          "type": "uint256"
        }
      ],
      "name": "emergencyWithdraw",
      "outputs": [],
      "stateMutability": "nonpayable",
      "type": "function"
    }
  ],
  "bytecode": "0x60806040523480156200001157600080fd5b5060405162001daa38038062001daa8339818101604052810190620000379190620001ff565b80620000586200004c6200007160201b60201c565b6200007960201b60201c565b62000069816200013d60201b60201c565b505062000231565b600033905090565b60008060009054906101000a900473ffffffffffffffffffffffffffffffffffffffff169050816000806101000a81548173ffffffffffffffffffffffffffffffffffffffff021916908373ffffffffffffffffffffffffffffffffffffffff1602179055508173ffffffffffffffffffffffffffffffffffffffff168173ffffffffffffffffffffffffffffffffffffffff167f8be0079c531659141344cd1fd0a4f28419497f9722a3daafe3b4186f6b6457e060405160405180910390a35050565b80600160006101000a81548173ffffffffffffffffffffffffffffffffffffffff021916908373ffffffffffffffffffffffffffffffffffffffff16021790555050565b600080fd5b600073ffffffffffffffffffffffffffffffffffffffff82169050919050565b6000620001b38262000186565b9050919050565b6000620001c782620001a6565b9050919050565b620001d981620001ba565b8114620001e557600080fd5b50565b600081519050620001f981620001ce565b92915050565b60006020828403121562000218576200021762000181565b5b60006200022884828501620001e8565b91505092915050565b611b6980620002416000396000f3fe608060405234801561001057600080fd5b50600436106100ea5760003560e01c8063a19ab0e01161008c578063b6b55f2511610066578063b6b55f2514610221578063db9b71701461023d578063e41515c614610259578063f2fde38b14610275576100ea565b8063a19ab0e0146101cb578063a6bb4664146101e9578063ad3be30114610205576100ea565b8063715018a6116100c8578063715018a61461015757806387bca547146101615780638d0c3bd4146101915780638da5cb5b146101ad576100ea565b80632aa531d9146100ef5780632e1a7d4d1461011f5780635312ea8e1461013b575b600080fd5b610109600480360381019061010491906113ea565b610291565b6040516101169190611485565b60405180910390f35b610139600480360381019061013491906114cc565b6102dc565b005b610155600480360381019061015091906114cc565b6102f0565b005b61015f610380565b005b61017b600480360381019061017691906114cc565b610408565b6040516101889190611537565b60405180910390f35b6101ab60048036038101906101a69190611552565b610507565b005b6101b56105a8565b6040516101c291906115a1565b60405180910390f35b6101d36105d1565b6040516101e091906115cb565b60405180910390f35b61020360048036038101906101fe9190611552565b61065c565b005b61021f600480360381019061021a9190611552565b6106fd565b005b61023b600480360381019061023691906114cc565b610787565b005b6102576004803603810190610252919061161e565b61079b565b005b610273600480360381019061026e91906114cc565b610825565b005b61028f600480360381019061028a91906113ea565b6108ad565b005b61029961132f565b6102a2826109a5565b6040518060800160405290816000820154815260200160018201548152602001600282015481526020016003820154815250509050919050565b6102ed6102e76109ed565b826109f5565b50565b6102f86109ed565b73ffffffffffffffffffffffffffffffffffffffff166103166105a8565b73ffffffffffffffffffffffffffffffffffffffff161461036c576040517f08c379a0000000000000000000000000000000000000000000000000000000008152600401610363906116bb565b60405180910390fd5b61037d6103776109ed565b82610af8565b50565b6103886109ed565b73ffffffffffffffffffffffffffffffffffffffff166103a66105a8565b73ffffffffffffffffffffffffffffffffffffffff16146103fc576040517f08c379a00000000000000000000000000000000000000000000000000000000081526004016103f3906116bb565b60405180910390fd5b6104066000610b82565b565b610410611357565b6104186109ed565b73ffffffffffffffffffffffffffffffffffffffff166104366105a8565b73ffffffffffffffffffffffffffffffffffffffff161461048c576040517f08c379a0000000000000000000000000000000000000000000000000000000008152600401610483906116bb565b60405180910390fd5b61049582610c46565b6040518060400160405290816000820160009054906101000a900473ffffffffffffffffffffffffffffffffffffffff1673ffffffffffffffffffffffffffffffffffffffff1673ffffffffffffffffffffffffffffffffffffffff1681526020016001820154815250509050919050565b600560006105136109ed565b73ffffffffffffffffffffffffffffffffffffffff1673ffffffffffffffffffffffffffffffffffffffff16815260200190815260200160002060009054906101000a900460ff1661059a576040517f08c379a000000000000000000000000000000000000000000000000000000000815260040161059190611727565b60405180910390fd5b6105a48282610c71565b5050565b60008060009054906101000a900473ffffffffffffffffffffffffffffffffffffffff16905090565b60006105db6109ed565b73ffffffffffffffffffffffffffffffffffffffff166105f96105a8565b73ffffffffffffffffffffffffffffffffffffffff161461064f576040517f08c379a0000000000000000000000000000000000000000000000000000000008152600401610646906116bb565b60405180910390fd5b610657610d0d565b905090565b600560006106686109ed565b73ffffffffffffffffffffffffffffffffffffffff1673ffffffffffffffffffffffffffffffffffffffff16815260200190815260200160002060009054906101000a900460ff166106ef576040517f08c379a00000000000000000000000000000000000000000000000000000000081526004016106e690611727565b60405180910390fd5b6106f98282610d1a565b5050565b6107056109ed565b73ffffffffffffffffffffffffffffffffffffffff166107236105a8565b73ffffffffffffffffffffffffffffffffffffffff1614610779576040517f08c379a0000000000000000000000000000000000000000000000000000000008152600401610770906116bb565b60405180910390fd5b6107838282610dae565b5050565b6107986107926109ed565b82610e5b565b50565b6107a36109ed565b73ffffffffffffffffffffffffffffffffffffffff166107c16105a8565b73ffffffffffffffffffffffffffffffffffffffff1614610817576040517f08c379a000000000000000000000000000000000000000000000000000000000815260040161080e906116bb565b60405180910390fd5b6108218282610f5e565b5050565b61082d6109ed565b73ffffffffffffffffffffffffffffffffffffffff1661084b6105a8565b73ffffffffffffffffffffffffffffffffffffffff16146108a1576040517f08c379a0000000000000000000000000000000000000000000000000000000008152600401610898906116bb565b60405180910390fd5b6108aa81610fb9565b50565b6108b56109ed565b73ffffffffffffffffffffffffffffffffffffffff166108d36105a8565b73ffffffffffffffffffffffffffffffffffffffff1614610929576040517f08c379a0000000000000000000000000000000000000000000000000000000008152600401610920906116bb565b60405180910390fd5b600073ffffffffffffffffffffffffffffffffffffffff168173ffffffffffffffffffffffffffffffffffffffff161415610999576040517f08c379a0000000000000000000000000000000000000000000000000000000008152600401610990906117b9565b60405180910390fd5b6109a281610b82565b50565b6000600660008373ffffffffffffffffffffffffffffffffffffffff1673ffffffffffffffffffffffffffffffffffffffff1681526020019081526020016000209050919050565b600033905090565b6000610a00836109a5565b905081816001016000828254610a169190611808565b92505081905550610a256110df565b73ffffffffffffffffffffffffffffffffffffffff166323b872dd3085856040518463ffffffff1660e01b8152600401610a619392919061183c565b6020604051808303816000875af1158015610a80573d6000803e3d6000fd5b505050506040513d601f19601f82011682018060405250810190610aa49190611888565b508273ffffffffffffffffffffffffffffffffffffffff167f884edad9ce6fa2440d8a54cc123490eb96d2768479d49ff9c7366125a942436483604051610aeb91906115cb565b60405180910390a2505050565b610b006110df565b73ffffffffffffffffffffffffffffffffffffffff1663a9059cbb83836040518363ffffffff1660e01b8152600401610b3a9291906118b5565b6020604051808303816000875af1158015610b59573d6000803e3d6000fd5b505050506040513d601f19601f82011682018060405250810190610b7d9190611888565b505050565b60008060009054906101000a900473ffffffffffffffffffffffffffffffffffffffff169050816000806101000a81548173ffffffffffffffffffffffffffffffffffffffff021916908373ffffffffffffffffffffffffffffffffffffffff1602179055508173ffffffffffffffffffffffffffffffffffffffff168173ffffffffffffffffffffffffffffffffffffffff167f8be0079c531659141344cd1fd0a4f28419497f9722a3daafe3b4186f6b6457e060405160405180910390a35050565b600060028281548110610c5c57610c5b6118de565b5b90600052602060002090600202019050919050565b6000610c7c836109a5565b90508160046000828254610c90919061190d565b9250508190555081816001016000828254610cab919061190d565b925050819055508273ffffffffffffffffffffffffffffffffffffffff167f8b01f9dd0400d6a1e84369a5fb8f6033934856ffa8ebadd707dca302ab55169583604051610cf891906115cb565b60405180910390a2610d086110ee565b505050565b6000600280549050905090565b6000610d25836109a5565b90508160036000828254610d39919061190d565b9250508190555081816000016000828254610d549190611808565b925050819055508273ffffffffffffffffffffffffffffffffffffffff167fd3eec71143c45f28685b24760ea218d476917aa0ac0392a55e5304cef40bd2b683604051610da191906115cb565b60405180910390a2505050565b600260405180604001604052808473ffffffffffffffffffffffffffffffffffffffff16815260200183815250908060018154018082558091505060019003906000526020600020906002020160009091909190915060008201518160000160006101000a81548173ffffffffffffffffffffffffffffffffffffffff021916908373ffffffffffffffffffffffffffffffffffffffff1602179055506020820151816001015550505050565b6000610e66836109a5565b905081816000016000828254610e7c919061190d565b92505081905550610e8b6110df565b73ffffffffffffffffffffffffffffffffffffffff166323b872dd8430856040518463ffffffff1660e01b8152600401610ec79392919061183c565b6020604051808303816000875af1158015610ee6573d6000803e3d6000fd5b505050506040513d601f19601f82011682018060405250810190610f0a9190611888565b508273ffffffffffffffffffffffffffffffffffffffff167fe1fffcc4923d04b559f4d29a8bfc6cda04eb5b0d3c460751c2402c5c5cc9109c83604051610f5191906115cb565b60405180910390a2505050565b80600560008473ffffffffffffffffffffffffffffffffffffffff1673ffffffffffffffffffffffffffffffffffffffff16815260200190815260200160002060006101000a81548160ff0219169083151502179055505050565b60026001600280549050610fcd9190611808565b81548110610fde57610fdd6118de565b5b90600052602060002090600202016002828154811061100057610fff6118de565b5b90600052602060002090600202016000820160009054906101000a900473ffffffffffffffffffffffffffffffffffffffff168160000160006101000a81548173ffffffffffffffffffffffffffffffffffffffff021916908373ffffffffffffffffffffffffffffffffffffffff16021790555060018201548160010155905050600280548061109457611093611963565b5b6001900381819060005260206000209060020201600080820160006101000a81549073ffffffffffffffffffffffffffffffffffffffff021916905560018201600090555050905550565b60006110e9611166565b905090565b60006110f8611190565b90506000811315611163576000819050806004600082825461111a919061190d565b9250508190555061112a816111a7565b7f949da057e0c10ac8c590fc56cf17f0a7f8a424d6f373268e7fc205c8dcbc7bb48160405161115991906115cb565b60405180910390a1505b50565b6000600160009054906101000a900473ffffffffffffffffffffffffffffffffffffffff16905090565b60006004546003546111a2919061199c565b905090565b60008060005b6111b5610d0d565b8110156111e9576111c581610c46565b60010154836111d4919061190d565b925080806111e190611a30565b9150506111ad565b5081836111f69190611aa8565b905060005b611203610d0d565b81101561132957600061121582610c46565b905060008160000160009054906101000a900473ffffffffffffffffffffffffffffffffffffffff16905060008483600101546112529190611ad9565b905061125c611166565b73ffffffffffffffffffffffffffffffffffffffff1663a9059cbb83836040518363ffffffff1660e01b81526004016112969291906118b5565b6020604051808303816000875af11580156112b5573d6000803e3d6000fd5b505050506040513d601f19601f820116820180604052508101906112d99190611888565b507f58793df5f4d270351f09efd433db93c69432142b69dc7ee38195fc630478c79f828260405161130b9291906118b5565b60405180910390a1505050808061132190611a30565b9150506111fb565b50505050565b6040518060800160405280600081526020016000815260200160008152602001600081525090565b6040518060400160405280600073ffffffffffffffffffffffffffffffffffffffff168152602001600081525090565b600080fd5b600073ffffffffffffffffffffffffffffffffffffffff82169050919050565b60006113b78261138c565b9050919050565b6113c7816113ac565b81146113d257600080fd5b50565b6000813590506113e4816113be565b92915050565b600060208284031215611400576113ff611387565b5b600061140e848285016113d5565b91505092915050565b6000819050919050565b61142a81611417565b82525050565b6080820160008201516114466000850182611421565b5060208201516114596020850182611421565b50604082015161146c6040850182611421565b50606082015161147f6060850182611421565b50505050565b600060808201905061149a6000830184611430565b92915050565b6114a981611417565b81146114b457600080fd5b50565b6000813590506114c6816114a0565b92915050565b6000602082840312156114e2576114e1611387565b5b60006114f0848285016114b7565b91505092915050565b611502816113ac565b82525050565b60408201600082015161151e60008501826114f9565b5060208201516115316020850182611421565b50505050565b600060408201905061154c6000830184611508565b92915050565b6000806040838503121561156957611568611387565b5b6000611577858286016113d5565b9250506020611588858286016114b7565b9150509250929050565b61159b816113ac565b82525050565b60006020820190506115b66000830184611592565b92915050565b6115c581611417565b82525050565b60006020820190506115e060008301846115bc565b92915050565b60008115159050919050565b6115fb816115e6565b811461160657600080fd5b50565b600081359050611618816115f2565b92915050565b6000806040838503121561163557611634611387565b5b6000611643858286016113d5565b925050602061165485828601611609565b9150509250929050565b600082825260208201905092915050565b7f4f776e61626c653a2063616c6c6572206973206e6f7420746865206f776e6572600082015250565b60006116a560208361165e565b91506116b08261166f565b602082019050919050565b600060208201905081810360008301526116d481611698565b9050919050565b7f596f75206172656e277420617070726f7665642e000000000000000000000000600082015250565b600061171160148361165e565b915061171c826116db565b602082019050919050565b6000602082019050818103600083015261174081611704565b9050919050565b7f4f776e61626c653a206e6577206f776e657220697320746865207a65726f206160008201527f6464726573730000000000000000000000000000000000000000000000000000602082015250565b60006117a360268361165e565b91506117ae82611747565b604082019050919050565b600060208201905081810360008301526117d281611796565b9050919050565b7f4e487b7100000000000000000000000000000000000000000000000000000000600052601160045260246000fd5b600061181382611417565b915061181e83611417565b925082821015611831576118306117d9565b5b828203905092915050565b60006060820190506118516000830186611592565b61185e6020830185611592565b61186b60408301846115bc565b949350505050565b600081519050611882816115f2565b92915050565b60006020828403121561189e5761189d611387565b5b60006118ac84828501611873565b91505092915050565b60006040820190506118ca6000830185611592565b6118d760208301846115bc565b9392505050565b7f4e487b7100000000000000000000000000000000000000000000000000000000600052603260045260246000fd5b600061191882611417565b915061192383611417565b9250827fffffffffffffffffffffffffffffffffffffffffffffffffffffffffffffffff03821115611958576119576117d9565b5b828201905092915050565b7f4e487b7100000000000000000000000000000000000000000000000000000000600052603160045260246000fd5b6000819050919050565b60006119a782611992565b91506119b283611992565b9250827f8000000000000000000000000000000000000000000000000000000000000000018212600084121516156119ed576119ec6117d9565b5b827f7fffffffffffffffffffffffffffffffffffffffffffffffffffffffffffffff018213600084121615611a2557611a246117d9565b5b828203905092915050565b6000611a3b82611417565b91507fffffffffffffffffffffffffffffffffffffffffffffffffffffffffffffffff821415611a6e57611a6d6117d9565b5b600182019050919050565b7f4e487b7100000000000000000000000000000000000000000000000000000000600052601260045260246000fd5b6000611ab382611417565b9150611abe83611417565b925082611ace57611acd611a79565b5b828204905092915050565b6000611ae482611417565b9150611aef83611417565b9250817fffffffffffffffffffffffffffffffffffffffffffffffffffffffffffffffff0483118215151615611b2857611b276117d9565b5b82820290509291505056fea264697066735822122003f88bf8cb3c1879bcd91fe45479136b5846f9e0007827a2ff8c0786e9816bd464736f6c634300080a0033",
  "immutableReferences": {},
  "source": "//SPDX-License-Identifier: MIT\r\n\r\npragma solidity ^0.8.0;\r\nimport \"@openzeppelin/contracts/token/ERC20/IERC20.sol\";\r\nimport \"@openzeppelin/contracts/utils/Context.sol\";\r\nimport \"@openzeppelin/contracts/access/Ownable.sol\";\r\nimport \"luk1529_solidity/contracts/token/ERC20User.sol\";\r\nimport \"luk1529_solidity/contracts/fee/FeeTakersERC20.sol\";\r\n\r\ncontract Bankroll is Context, Ownable, ERC20User, FeeTakers {\r\n\r\n    uint _totalInflow;\r\n    uint _totalOutflow;\r\n\r\n\r\n    constructor(IERC20 XYA) ERC20User(XYA) {\r\n    }\r\n\r\n    struct PlayerData {\r\n        uint credit;\r\n        uint bank; \r\n        uint totalSpent;\r\n        uint totalWon;\r\n    }\r\n\r\n\r\n    event Deposit(address indexed from, uint amount);\r\n    event Withdraw(address indexed to, uint amount);\r\n    event Won(address indexed to, uint amount);\r\n    event Spent(address indexed from, uint amount);\r\n\r\n    event ProfitTaken(uint amount);\r\n\r\n    mapping(address => bool) _approved;\r\n    mapping(address => PlayerData) _playerData;\r\n\r\n\r\n    //user can deposit to their credit balance and withdraw funds from their bank balance\r\n    function deposit(uint amount) public {\r\n        _depositFrom(_msgSender(), amount);\r\n    }\r\n    function withdraw(uint amount) public {\r\n        _withdrawTo(_msgSender(), amount);\r\n    }\r\n\r\n\r\n    //get the data of a player - credit, bank etc.\r\n    function getPlayerData(address player) public view returns(PlayerData memory) {\r\n        return _getPlayerData(player);\r\n    }\r\n\r\n\r\n    //approved contracts (games) can take funds from players' credit balances and award funds to their bank balances\r\n    function playFrom(address player, uint amount) public onlyApproved {\r\n        _playFrom(player, amount);\r\n    }\r\n    function winTo(address player, uint amount) public onlyApproved {\r\n        _winTo(player, amount);\r\n    }\r\n\r\n\r\n    //audit which contracts can spend on behalf of players in Freyala's casino\r\n    function setApproval(address addr, bool approval) public onlyOwner {\r\n        _setApproval(addr, approval);\r\n    }\r\n\r\n\r\n    //take out funds if necessary\r\n    function emergencyWithdraw(uint amount) public onlyOwner {\r\n        _emergencyWithdraw(_msgSender(), amount);\r\n    }\r\n\r\n\r\n\r\n\r\n    modifier onlyApproved() {\r\n        require(_approved[_msgSender()], \"You aren't approved.\");\r\n        _;\r\n    }\r\n\r\n\r\n    function _getPlayerData(address player) private view returns(PlayerData storage) {\r\n        return _playerData[player];\r\n    }\r\n\r\n    function _depositFrom(address player, uint amount) private {\r\n        PlayerData storage playerData = _getPlayerData(player);\r\n        playerData.credit += amount;\r\n        _XYATokenContract().transferFrom(player, address(this), amount);\r\n        emit Deposit(player, amount);\r\n    }\r\n\r\n    function _withdrawTo(address player, uint amount) private {\r\n        PlayerData storage playerData = _getPlayerData(player);\r\n        playerData.bank -= amount;\r\n        _XYATokenContract().transferFrom(address(this), player, amount);\r\n        emit Withdraw(player, amount);\r\n    }\r\n\r\n    function _playFrom(address player, uint amount) private {\r\n        PlayerData storage playerData = _getPlayerData(player);\r\n        _totalInflow += amount;\r\n        playerData.credit -= amount;\r\n        emit Spent(player, amount);\r\n    }\r\n\r\n    function _winTo(address player, uint amount) private {\r\n        PlayerData storage playerData = _getPlayerData(player);\r\n        _totalOutflow += amount;\r\n        playerData.bank += amount;\r\n        emit Won(player, amount);\r\n        _takeProfit();\r\n    }\r\n\r\n    function _getNetBalance() private view returns(int netBalance) {\r\n        netBalance = int(_totalInflow) - int(_totalOutflow);\r\n    }\r\n\r\n    function _takeProfit() private {\r\n        int profit = _getNetBalance();\r\n        if(profit > 0) {\r\n            uint toDistribute = uint(profit);\r\n            _totalOutflow += toDistribute;\r\n            _distributeFee(toDistribute);\r\n            emit ProfitTaken(toDistribute);\r\n        }\r\n    }\r\n\r\n    function _emergencyWithdraw(address to, uint amount) private {\r\n        _XYATokenContract().transfer(to, amount);\r\n    }\r\n\r\n    function _XYATokenContract() private view returns(IERC20) {\r\n        return _getToken();\r\n    }\r\n\r\n    function _setApproval(address addr, bool approval) private {\r\n        _approved[addr] = approval;\r\n    }\r\n}",
  "sourcePath": "C:\\Users\\lukey\\Documents\\Blockchain\\XYA\\Casino\\contracts\\bankroll\\Bankroll.sol",
  "compiler": {
    "name": "solc",
    "version": "0.8.10+commit.fc410830.Emscripten.clang"
  },
  "schemaVersion": "3.4.3",
  "updatedAt": "2021-11-29T19:37:31.567Z",
  "devdoc": {
    "kind": "dev",
    "methods": {
      "owner()": {
        "details": "Returns the address of the current owner."
      },
      "renounceOwnership()": {
        "details": "Leaves the contract without owner. It will not be possible to call `onlyOwner` functions anymore. Can only be called by the current owner. NOTE: Renouncing ownership will leave the contract without an owner, thereby removing any functionality that is only available to the owner."
      },
      "transferOwnership(address)": {
        "details": "Transfers ownership of the contract to a new account (`newOwner`). Can only be called by the current owner."
      }
    },
    "version": 1
  },
  "userdoc": {
    "kind": "user",
    "methods": {},
    "version": 1
  }
}