{
  "contractName": "Bankroll",
  "abi": [
    {
      "inputs": [
        {
          "internalType": "contract IERC20",
          "name": "XYA_",
          "type": "address"
        }
      ],
      "stateMutability": "nonpayable",
      "type": "constructor"
    },
    {
      "anonymous": false,
      "inputs": [
        {
          "indexed": true,
          "internalType": "address",
          "name": "from",
          "type": "address"
        },
        {
          "indexed": false,
          "internalType": "uint256",
          "name": "amount",
          "type": "uint256"
        }
      ],
      "name": "Deposit",
      "type": "event"
    },
    {
      "anonymous": false,
      "inputs": [
        {
          "indexed": false,
          "internalType": "address",
          "name": "to",
          "type": "address"
        },
        {
          "indexed": false,
          "internalType": "uint256",
          "name": "amount",
          "type": "uint256"
        }
      ],
      "name": "FeeSent",
      "type": "event"
    },
    {
      "anonymous": false,
      "inputs": [
        {
          "indexed": true,
          "internalType": "address",
          "name": "previousOwner",
          "type": "address"
        },
        {
          "indexed": true,
          "internalType": "address",
          "name": "newOwner",
          "type": "address"
        }
      ],
      "name": "OwnershipTransferred",
      "type": "event"
    },
    {
      "anonymous": false,
      "inputs": [
        {
          "indexed": false,
          "internalType": "uint256",
          "name": "amount",
          "type": "uint256"
        }
      ],
      "name": "ProfitTaken",
      "type": "event"
    },
    {
      "anonymous": false,
      "inputs": [
        {
          "indexed": true,
          "internalType": "address",
          "name": "from",
          "type": "address"
        },
        {
          "indexed": false,
          "internalType": "uint256",
          "name": "amount",
          "type": "uint256"
        }
      ],
      "name": "Spent",
      "type": "event"
    },
    {
      "anonymous": false,
      "inputs": [
        {
          "indexed": true,
          "internalType": "address",
          "name": "to",
          "type": "address"
        },
        {
          "indexed": false,
          "internalType": "uint256",
          "name": "amount",
          "type": "uint256"
        }
      ],
      "name": "Withdraw",
      "type": "event"
    },
    {
      "anonymous": false,
      "inputs": [
        {
          "indexed": true,
          "internalType": "address",
          "name": "to",
          "type": "address"
        },
        {
          "indexed": false,
          "internalType": "uint256",
          "name": "amount",
          "type": "uint256"
        }
      ],
      "name": "Won",
      "type": "event"
    },
    {
      "inputs": [
        {
          "internalType": "address",
          "name": "addr",
          "type": "address"
        },
        {
          "internalType": "uint256",
          "name": "points",
          "type": "uint256"
        }
      ],
      "name": "addToFeeTakers",
      "outputs": [],
      "stateMutability": "nonpayable",
      "type": "function"
    },
    {
      "inputs": [
        {
          "internalType": "uint256",
          "name": "index",
          "type": "uint256"
        }
      ],
      "name": "getFeeTakerAt",
      "outputs": [
        {
          "components": [
            {
              "internalType": "address",
              "name": "addr",
              "type": "address"
            },
            {
              "internalType": "uint256",
              "name": "points",
              "type": "uint256"
            }
          ],
          "internalType": "struct FeeTakers.FeeTaker",
          "name": "",
          "type": "tuple"
        }
      ],
      "stateMutability": "view",
      "type": "function"
    },
    {
      "inputs": [],
      "name": "getFeeTakersLength",
      "outputs": [
        {
          "internalType": "uint256",
          "name": "",
          "type": "uint256"
        }
      ],
      "stateMutability": "view",
      "type": "function"
    },
    {
      "inputs": [],
      "name": "owner",
      "outputs": [
        {
          "internalType": "address",
          "name": "",
          "type": "address"
        }
      ],
      "stateMutability": "view",
      "type": "function"
    },
    {
      "inputs": [
        {
          "internalType": "uint256",
          "name": "index",
          "type": "uint256"
        }
      ],
      "name": "removeFromFeeTakers",
      "outputs": [],
      "stateMutability": "nonpayable",
      "type": "function"
    },
    {
      "inputs": [],
      "name": "renounceOwnership",
      "outputs": [],
      "stateMutability": "nonpayable",
      "type": "function"
    },
    {
      "inputs": [
        {
          "internalType": "contract IERC20",
          "name": "Token_",
          "type": "address"
        }
      ],
      "name": "setToken",
      "outputs": [],
      "stateMutability": "nonpayable",
      "type": "function"
    },
    {
      "inputs": [
        {
          "internalType": "address",
          "name": "newOwner",
          "type": "address"
        }
      ],
      "name": "transferOwnership",
      "outputs": [],
      "stateMutability": "nonpayable",
      "type": "function"
    },
    {
      "inputs": [
        {
          "internalType": "uint256",
          "name": "amount",
          "type": "uint256"
        }
      ],
      "name": "deposit",
      "outputs": [],
      "stateMutability": "nonpayable",
      "type": "function"
    },
    {
      "inputs": [
        {
          "internalType": "uint256",
          "name": "amount",
          "type": "uint256"
        }
      ],
      "name": "withdraw",
      "outputs": [],
      "stateMutability": "nonpayable",
      "type": "function"
    },
    {
      "inputs": [
        {
          "internalType": "address",
          "name": "player",
          "type": "address"
        }
      ],
      "name": "getPlayerData",
      "outputs": [
        {
          "components": [
            {
              "internalType": "uint256",
              "name": "credit",
              "type": "uint256"
            },
            {
              "internalType": "uint256",
              "name": "bank",
              "type": "uint256"
            },
            {
              "internalType": "uint256",
              "name": "totalSpent",
              "type": "uint256"
            },
            {
              "internalType": "uint256",
              "name": "totalWon",
              "type": "uint256"
            }
          ],
          "internalType": "struct Bankroll.PlayerData",
          "name": "",
          "type": "tuple"
        }
      ],
      "stateMutability": "view",
      "type": "function"
    },
    {
      "inputs": [
        {
          "internalType": "address",
          "name": "player",
          "type": "address"
        },
        {
          "internalType": "uint256",
          "name": "amount",
          "type": "uint256"
        }
      ],
      "name": "playFrom",
      "outputs": [],
      "stateMutability": "nonpayable",
      "type": "function"
    },
    {
      "inputs": [
        {
          "internalType": "address",
          "name": "player",
          "type": "address"
        },
        {
          "internalType": "uint256",
          "name": "amount",
          "type": "uint256"
        }
      ],
      "name": "winTo",
      "outputs": [],
      "stateMutability": "nonpayable",
      "type": "function"
    },
    {
      "inputs": [
        {
          "internalType": "address",
          "name": "addr",
          "type": "address"
        },
        {
          "internalType": "bool",
          "name": "approval",
          "type": "bool"
        }
      ],
      "name": "setApproval",
      "outputs": [],
      "stateMutability": "nonpayable",
      "type": "function"
    },
    {
      "inputs": [
        {
          "internalType": "uint256",
          "name": "amount",
          "type": "uint256"
        }
      ],
      "name": "emergencyWithdraw",
      "outputs": [],
      "stateMutability": "nonpayable",
      "type": "function"
    }
  ],
  "bytecode": "0x60806040523480156200001157600080fd5b5060405162001f9038038062001f90833981810160405281019062000037919062000254565b80620000586200004c6200008260201b60201c565b6200008a60201b60201c565b62000069816200014e60201b60201c565b506200007b816200019260201b60201c565b5062000286565b600033905090565b60008060009054906101000a900473ffffffffffffffffffffffffffffffffffffffff169050816000806101000a81548173ffffffffffffffffffffffffffffffffffffffff021916908373ffffffffffffffffffffffffffffffffffffffff1602179055508173ffffffffffffffffffffffffffffffffffffffff168173ffffffffffffffffffffffffffffffffffffffff167f8be0079c531659141344cd1fd0a4f28419497f9722a3daafe3b4186f6b6457e060405160405180910390a35050565b80600160006101000a81548173ffffffffffffffffffffffffffffffffffffffff021916908373ffffffffffffffffffffffffffffffffffffffff16021790555050565b80600360006101000a81548173ffffffffffffffffffffffffffffffffffffffff021916908373ffffffffffffffffffffffffffffffffffffffff16021790555050565b600080fd5b600073ffffffffffffffffffffffffffffffffffffffff82169050919050565b60006200020882620001db565b9050919050565b60006200021c82620001fb565b9050919050565b6200022e816200020f565b81146200023a57600080fd5b50565b6000815190506200024e8162000223565b92915050565b6000602082840312156200026d576200026c620001d6565b5b60006200027d848285016200023d565b91505092915050565b611cfa80620002966000396000f3fe608060405234801561001057600080fd5b50600436106100f55760003560e01c80638da5cb5b11610097578063b6b55f2511610066578063b6b55f2514610248578063db9b717014610264578063e41515c614610280578063f2fde38b1461029c576100f5565b80638da5cb5b146101d4578063a19ab0e0146101f2578063a6bb466414610210578063ad3be3011461022c576100f5565b80635312ea8e116100d35780635312ea8e14610162578063715018a61461017e57806387bca547146101885780638d0c3bd4146101b8576100f5565b8063144fa6d7146100fa5780632aa531d9146101165780632e1a7d4d14610146575b600080fd5b610114600480360381019061010f9190611522565b6102b8565b005b610130600480360381019061012b919061157b565b610340565b60405161013d9190611616565b60405180910390f35b610160600480360381019061015b919061165d565b61038b565b005b61017c6004803603810190610177919061165d565b61039f565b005b61018661042f565b005b6101a2600480360381019061019d919061165d565b6104b7565b6040516101af91906116c8565b60405180910390f35b6101d260048036038101906101cd91906116e3565b6105b6565b005b6101dc610657565b6040516101e99190611732565b60405180910390f35b6101fa610680565b604051610207919061175c565b60405180910390f35b61022a600480360381019061022591906116e3565b61070b565b005b610246600480360381019061024191906116e3565b6107ac565b005b610262600480360381019061025d919061165d565b610836565b005b61027e600480360381019061027991906117af565b61084a565b005b61029a6004803603810190610295919061165d565b6108d4565b005b6102b660048036038101906102b1919061157b565b61095c565b005b6102c0610a54565b73ffffffffffffffffffffffffffffffffffffffff166102de610657565b73ffffffffffffffffffffffffffffffffffffffff1614610334576040517f08c379a000000000000000000000000000000000000000000000000000000000815260040161032b9061184c565b60405180910390fd5b61033d81610a5c565b50565b610348611455565b61035182610aa0565b6040518060800160405290816000820154815260200160018201548152602001600282015481526020016003820154815250509050919050565b61039c610396610a54565b82610ae8565b50565b6103a7610a54565b73ffffffffffffffffffffffffffffffffffffffff166103c5610657565b73ffffffffffffffffffffffffffffffffffffffff161461041b576040517f08c379a00000000000000000000000000000000000000000000000000000000081526004016104129061184c565b60405180910390fd5b61042c610426610a54565b82610c06565b50565b610437610a54565b73ffffffffffffffffffffffffffffffffffffffff16610455610657565b73ffffffffffffffffffffffffffffffffffffffff16146104ab576040517f08c379a00000000000000000000000000000000000000000000000000000000081526004016104a29061184c565b60405180910390fd5b6104b56000610cab565b565b6104bf61147d565b6104c7610a54565b73ffffffffffffffffffffffffffffffffffffffff166104e5610657565b73ffffffffffffffffffffffffffffffffffffffff161461053b576040517f08c379a00000000000000000000000000000000000000000000000000000000081526004016105329061184c565b60405180910390fd5b61054482610d6f565b6040518060400160405290816000820160009054906101000a900473ffffffffffffffffffffffffffffffffffffffff1673ffffffffffffffffffffffffffffffffffffffff1673ffffffffffffffffffffffffffffffffffffffff1681526020016001820154815250509050919050565b600660006105c2610a54565b73ffffffffffffffffffffffffffffffffffffffff1673ffffffffffffffffffffffffffffffffffffffff16815260200190815260200160002060009054906101000a900460ff16610649576040517f08c379a0000000000000000000000000000000000000000000000000000000008152600401610640906118b8565b60405180910390fd5b6106538282610d9a565b5050565b60008060009054906101000a900473ffffffffffffffffffffffffffffffffffffffff16905090565b600061068a610a54565b73ffffffffffffffffffffffffffffffffffffffff166106a8610657565b73ffffffffffffffffffffffffffffffffffffffff16146106fe576040517f08c379a00000000000000000000000000000000000000000000000000000000081526004016106f59061184c565b60405180910390fd5b610706610e36565b905090565b60066000610717610a54565b73ffffffffffffffffffffffffffffffffffffffff1673ffffffffffffffffffffffffffffffffffffffff16815260200190815260200160002060009054906101000a900460ff1661079e576040517f08c379a0000000000000000000000000000000000000000000000000000000008152600401610795906118b8565b60405180910390fd5b6107a88282610e43565b5050565b6107b4610a54565b73ffffffffffffffffffffffffffffffffffffffff166107d2610657565b73ffffffffffffffffffffffffffffffffffffffff1614610828576040517f08c379a000000000000000000000000000000000000000000000000000000000815260040161081f9061184c565b60405180910390fd5b6108328282610ed7565b5050565b610847610841610a54565b82610f84565b50565b610852610a54565b73ffffffffffffffffffffffffffffffffffffffff16610870610657565b73ffffffffffffffffffffffffffffffffffffffff16146108c6576040517f08c379a00000000000000000000000000000000000000000000000000000000081526004016108bd9061184c565b60405180910390fd5b6108d082826110a2565b5050565b6108dc610a54565b73ffffffffffffffffffffffffffffffffffffffff166108fa610657565b73ffffffffffffffffffffffffffffffffffffffff1614610950576040517f08c379a00000000000000000000000000000000000000000000000000000000081526004016109479061184c565b60405180910390fd5b610959816110fd565b50565b610964610a54565b73ffffffffffffffffffffffffffffffffffffffff16610982610657565b73ffffffffffffffffffffffffffffffffffffffff16146109d8576040517f08c379a00000000000000000000000000000000000000000000000000000000081526004016109cf9061184c565b60405180910390fd5b600073ffffffffffffffffffffffffffffffffffffffff168173ffffffffffffffffffffffffffffffffffffffff161415610a48576040517f08c379a0000000000000000000000000000000000000000000000000000000008152600401610a3f9061194a565b60405180910390fd5b610a5181610cab565b50565b600033905090565b80600160006101000a81548173ffffffffffffffffffffffffffffffffffffffff021916908373ffffffffffffffffffffffffffffffffffffffff16021790555050565b6000600760008373ffffffffffffffffffffffffffffffffffffffff1673ffffffffffffffffffffffffffffffffffffffff1681526020019081526020016000209050919050565b6000610af383610aa0565b905081816001016000828254610b099190611999565b92505081905550600360009054906101000a900473ffffffffffffffffffffffffffffffffffffffff1673ffffffffffffffffffffffffffffffffffffffff166323b872dd3085856040518463ffffffff1660e01b8152600401610b6f939291906119cd565b6020604051808303816000875af1158015610b8e573d6000803e3d6000fd5b505050506040513d601f19601f82011682018060405250810190610bb29190611a19565b508273ffffffffffffffffffffffffffffffffffffffff167f884edad9ce6fa2440d8a54cc123490eb96d2768479d49ff9c7366125a942436483604051610bf9919061175c565b60405180910390a2505050565b600360009054906101000a900473ffffffffffffffffffffffffffffffffffffffff1673ffffffffffffffffffffffffffffffffffffffff1663a9059cbb83836040518363ffffffff1660e01b8152600401610c63929190611a46565b6020604051808303816000875af1158015610c82573d6000803e3d6000fd5b505050506040513d601f19601f82011682018060405250810190610ca69190611a19565b505050565b60008060009054906101000a900473ffffffffffffffffffffffffffffffffffffffff169050816000806101000a81548173ffffffffffffffffffffffffffffffffffffffff021916908373ffffffffffffffffffffffffffffffffffffffff1602179055508173ffffffffffffffffffffffffffffffffffffffff168173ffffffffffffffffffffffffffffffffffffffff167f8be0079c531659141344cd1fd0a4f28419497f9722a3daafe3b4186f6b6457e060405160405180910390a35050565b600060028281548110610d8557610d84611a6f565b5b90600052602060002090600202019050919050565b6000610da583610aa0565b90508160056000828254610db99190611a9e565b9250508190555081816001016000828254610dd49190611a9e565b925050819055508273ffffffffffffffffffffffffffffffffffffffff167f8b01f9dd0400d6a1e84369a5fb8f6033934856ffa8ebadd707dca302ab55169583604051610e21919061175c565b60405180910390a2610e31611223565b505050565b6000600280549050905090565b6000610e4e83610aa0565b90508160046000828254610e629190611a9e565b9250508190555081816000016000828254610e7d9190611999565b925050819055508273ffffffffffffffffffffffffffffffffffffffff167fd3eec71143c45f28685b24760ea218d476917aa0ac0392a55e5304cef40bd2b683604051610eca919061175c565b60405180910390a2505050565b600260405180604001604052808473ffffffffffffffffffffffffffffffffffffffff16815260200183815250908060018154018082558091505060019003906000526020600020906002020160009091909190915060008201518160000160006101000a81548173ffffffffffffffffffffffffffffffffffffffff021916908373ffffffffffffffffffffffffffffffffffffffff1602179055506020820151816001015550505050565b6000610f8f83610aa0565b905081816000016000828254610fa59190611a9e565b92505081905550600360009054906101000a900473ffffffffffffffffffffffffffffffffffffffff1673ffffffffffffffffffffffffffffffffffffffff166323b872dd8430856040518463ffffffff1660e01b815260040161100b939291906119cd565b6020604051808303816000875af115801561102a573d6000803e3d6000fd5b505050506040513d601f19601f8201168201806040525081019061104e9190611a19565b508273ffffffffffffffffffffffffffffffffffffffff167fe1fffcc4923d04b559f4d29a8bfc6cda04eb5b0d3c460751c2402c5c5cc9109c83604051611095919061175c565b60405180910390a2505050565b80600660008473ffffffffffffffffffffffffffffffffffffffff1673ffffffffffffffffffffffffffffffffffffffff16815260200190815260200160002060006101000a81548160ff0219169083151502179055505050565b600260016002805490506111119190611999565b8154811061112257611121611a6f565b5b90600052602060002090600202016002828154811061114457611143611a6f565b5b90600052602060002090600202016000820160009054906101000a900473ffffffffffffffffffffffffffffffffffffffff168160000160006101000a81548173ffffffffffffffffffffffffffffffffffffffff021916908373ffffffffffffffffffffffffffffffffffffffff1602179055506001820154816001015590505060028054806111d8576111d7611af4565b5b6001900381819060005260206000209060020201600080820160006101000a81549073ffffffffffffffffffffffffffffffffffffffff021916905560018201600090555050905550565b600061122d61129b565b90506000811315611298576000819050806005600082825461124f9190611a9e565b9250508190555061125f816112b2565b7f949da057e0c10ac8c590fc56cf17f0a7f8a424d6f373268e7fc205c8dcbc7bb48160405161128e919061175c565b60405180910390a1505b50565b60006005546004546112ad9190611b2d565b905090565b60008060005b6112c0610e36565b8110156112f4576112d081610d6f565b60010154836112df9190611a9e565b925080806112ec90611bc1565b9150506112b8565b5081836113019190611c39565b905060005b61130e610e36565b81101561144f57600061132082610d6f565b905060008160000160009054906101000a900473ffffffffffffffffffffffffffffffffffffffff169050600084836001015461135d9190611c6a565b9050600160009054906101000a900473ffffffffffffffffffffffffffffffffffffffff1673ffffffffffffffffffffffffffffffffffffffff1663a9059cbb83836040518363ffffffff1660e01b81526004016113bc929190611a46565b6020604051808303816000875af11580156113db573d6000803e3d6000fd5b505050506040513d601f19601f820116820180604052508101906113ff9190611a19565b507f58793df5f4d270351f09efd433db93c69432142b69dc7ee38195fc630478c79f8282604051611431929190611a46565b60405180910390a1505050808061144790611bc1565b915050611306565b50505050565b6040518060800160405280600081526020016000815260200160008152602001600081525090565b6040518060400160405280600073ffffffffffffffffffffffffffffffffffffffff168152602001600081525090565b600080fd5b600073ffffffffffffffffffffffffffffffffffffffff82169050919050565b60006114dd826114b2565b9050919050565b60006114ef826114d2565b9050919050565b6114ff816114e4565b811461150a57600080fd5b50565b60008135905061151c816114f6565b92915050565b600060208284031215611538576115376114ad565b5b60006115468482850161150d565b91505092915050565b611558816114d2565b811461156357600080fd5b50565b6000813590506115758161154f565b92915050565b600060208284031215611591576115906114ad565b5b600061159f84828501611566565b91505092915050565b6000819050919050565b6115bb816115a8565b82525050565b6080820160008201516115d760008501826115b2565b5060208201516115ea60208501826115b2565b5060408201516115fd60408501826115b2565b50606082015161161060608501826115b2565b50505050565b600060808201905061162b60008301846115c1565b92915050565b61163a816115a8565b811461164557600080fd5b50565b60008135905061165781611631565b92915050565b600060208284031215611673576116726114ad565b5b600061168184828501611648565b91505092915050565b611693816114d2565b82525050565b6040820160008201516116af600085018261168a565b5060208201516116c260208501826115b2565b50505050565b60006040820190506116dd6000830184611699565b92915050565b600080604083850312156116fa576116f96114ad565b5b600061170885828601611566565b925050602061171985828601611648565b9150509250929050565b61172c816114d2565b82525050565b60006020820190506117476000830184611723565b92915050565b611756816115a8565b82525050565b6000602082019050611771600083018461174d565b92915050565b60008115159050919050565b61178c81611777565b811461179757600080fd5b50565b6000813590506117a981611783565b92915050565b600080604083850312156117c6576117c56114ad565b5b60006117d485828601611566565b92505060206117e58582860161179a565b9150509250929050565b600082825260208201905092915050565b7f4f776e61626c653a2063616c6c6572206973206e6f7420746865206f776e6572600082015250565b60006118366020836117ef565b915061184182611800565b602082019050919050565b6000602082019050818103600083015261186581611829565b9050919050565b7f596f75206172656e277420617070726f7665642e000000000000000000000000600082015250565b60006118a26014836117ef565b91506118ad8261186c565b602082019050919050565b600060208201905081810360008301526118d181611895565b9050919050565b7f4f776e61626c653a206e6577206f776e657220697320746865207a65726f206160008201527f6464726573730000000000000000000000000000000000000000000000000000602082015250565b60006119346026836117ef565b915061193f826118d8565b604082019050919050565b6000602082019050818103600083015261196381611927565b9050919050565b7f4e487b7100000000000000000000000000000000000000000000000000000000600052601160045260246000fd5b60006119a4826115a8565b91506119af836115a8565b9250828210156119c2576119c161196a565b5b828203905092915050565b60006060820190506119e26000830186611723565b6119ef6020830185611723565b6119fc604083018461174d565b949350505050565b600081519050611a1381611783565b92915050565b600060208284031215611a2f57611a2e6114ad565b5b6000611a3d84828501611a04565b91505092915050565b6000604082019050611a5b6000830185611723565b611a68602083018461174d565b9392505050565b7f4e487b7100000000000000000000000000000000000000000000000000000000600052603260045260246000fd5b6000611aa9826115a8565b9150611ab4836115a8565b9250827fffffffffffffffffffffffffffffffffffffffffffffffffffffffffffffffff03821115611ae957611ae861196a565b5b828201905092915050565b7f4e487b7100000000000000000000000000000000000000000000000000000000600052603160045260246000fd5b6000819050919050565b6000611b3882611b23565b9150611b4383611b23565b9250827f800000000000000000000000000000000000000000000000000000000000000001821260008412151615611b7e57611b7d61196a565b5b827f7fffffffffffffffffffffffffffffffffffffffffffffffffffffffffffffff018213600084121615611bb657611bb561196a565b5b828203905092915050565b6000611bcc826115a8565b91507fffffffffffffffffffffffffffffffffffffffffffffffffffffffffffffffff821415611bff57611bfe61196a565b5b600182019050919050565b7f4e487b7100000000000000000000000000000000000000000000000000000000600052601260045260246000fd5b6000611c44826115a8565b9150611c4f836115a8565b925082611c5f57611c5e611c0a565b5b828204905092915050565b6000611c75826115a8565b9150611c80836115a8565b9250817fffffffffffffffffffffffffffffffffffffffffffffffffffffffffffffffff0483118215151615611cb957611cb861196a565b5b82820290509291505056fea2646970667358221220ab70421036ca57ba13dc615d76d289453c9dfbf85f41352d5c09dea7008e056964736f6c634300080a0033",
  "immutableReferences": {},
  "source": "//SPDX-License-Identifier: MIT\r\n\r\npragma solidity ^0.8.0;\r\nimport \"@openzeppelin/contracts/token/ERC20/IERC20.sol\";\r\nimport \"@openzeppelin/contracts/utils/Context.sol\";\r\nimport \"@openzeppelin/contracts/access/Ownable.sol\";\r\nimport \"luk1529_solidity/contracts/fee/FeeTakersERC20.sol\";\r\n\r\ncontract Bankroll is Context, Ownable, FeeTakers {\r\n    IERC20 _XYA;\r\n    \r\n    \r\n    uint _totalInflow;\r\n    uint _totalOutflow;\r\n\r\n\r\n    constructor(IERC20 XYA_) FeeTakers(XYA_) {\r\n        _setXYA(XYA_);\r\n    }\r\n\r\n    struct PlayerData {\r\n        uint credit;\r\n        uint bank; \r\n        uint totalSpent;\r\n        uint totalWon;\r\n    }\r\n\r\n\r\n    event Deposit(address indexed from, uint amount);\r\n    event Withdraw(address indexed to, uint amount);\r\n    event Won(address indexed to, uint amount);\r\n    event Spent(address indexed from, uint amount);\r\n\r\n    event ProfitTaken(uint amount);\r\n\r\n    mapping(address => bool) _approved;\r\n    mapping(address => PlayerData) _playerData;\r\n\r\n\r\n    //user can deposit to their credit balance and withdraw funds from their bank balance\r\n    function deposit(uint amount) public {\r\n        _depositFrom(_msgSender(), amount);\r\n    }\r\n    function withdraw(uint amount) public {\r\n        _withdrawTo(_msgSender(), amount);\r\n    }\r\n\r\n\r\n    //get the data of a player - credit, bank etc.\r\n    function getPlayerData(address player) public view returns(PlayerData memory) {\r\n        return _getPlayerData(player);\r\n    }\r\n\r\n\r\n    //approved contracts (games) can take funds from players' credit balances and award funds to their bank balances\r\n    function playFrom(address player, uint amount) public onlyApproved {\r\n        _playFrom(player, amount);\r\n    }\r\n    function winTo(address player, uint amount) public onlyApproved {\r\n        _winTo(player, amount);\r\n    }\r\n\r\n\r\n    //audit which contracts can spend on behalf of players in Freyala's casino\r\n    function setApproval(address addr, bool approval) public onlyOwner {\r\n        _setApproval(addr, approval);\r\n    }\r\n\r\n\r\n    //take out funds if necessary\r\n    function emergencyWithdraw(uint amount) public onlyOwner {\r\n        _emergencyWithdraw(_msgSender(), amount);\r\n    }\r\n\r\n\r\n\r\n\r\n    modifier onlyApproved() {\r\n        require(_approved[_msgSender()], \"You aren't approved.\");\r\n        _;\r\n    }\r\n\r\n\r\n    function _getPlayerData(address player) private view returns(PlayerData storage) {\r\n        return _playerData[player];\r\n    }\r\n\r\n    function _depositFrom(address player, uint amount) private {\r\n        PlayerData storage playerData = _getPlayerData(player);\r\n        playerData.credit += amount;\r\n        _XYA.transferFrom(player, address(this), amount);\r\n        emit Deposit(player, amount);\r\n    }\r\n\r\n    function _withdrawTo(address player, uint amount) private {\r\n        PlayerData storage playerData = _getPlayerData(player);\r\n        playerData.bank -= amount;\r\n        _XYA.transferFrom(address(this), player, amount);\r\n        emit Withdraw(player, amount);\r\n    }\r\n\r\n    function _playFrom(address player, uint amount) private {\r\n        PlayerData storage playerData = _getPlayerData(player);\r\n        _totalInflow += amount;\r\n        playerData.credit -= amount;\r\n        emit Spent(player, amount);\r\n    }\r\n\r\n    function _winTo(address player, uint amount) private {\r\n        PlayerData storage playerData = _getPlayerData(player);\r\n        _totalOutflow += amount;\r\n        playerData.bank += amount;\r\n        emit Won(player, amount);\r\n        _takeProfit();\r\n    }\r\n\r\n    function _getNetBalance() private view returns(int netBalance) {\r\n        netBalance = int(_totalInflow) - int(_totalOutflow);\r\n    }\r\n\r\n    function _takeProfit() private {\r\n        int profit = _getNetBalance();\r\n        if(profit > 0) {\r\n            uint toDistribute = uint(profit);\r\n            _totalOutflow += toDistribute;\r\n            _distributeFee(toDistribute);\r\n            emit ProfitTaken(toDistribute);\r\n        }\r\n    }\r\n\r\n    function _emergencyWithdraw(address to, uint amount) private {\r\n        _XYA.transfer(to, amount);\r\n    }\r\n\r\n    function _setApproval(address addr, bool approval) private {\r\n        _approved[addr] = approval;\r\n    }\r\n\r\n    function _setXYA(IERC20 XYA_) private {\r\n        _XYA = XYA_;\r\n    }\r\n\r\n    \r\n}",
  "sourcePath": "C:\\Users\\lukey\\Documents\\Blockchain\\XYA\\Casino\\contracts\\bankroll\\Bankroll.sol",
  "compiler": {
    "name": "solc",
    "version": "0.8.10+commit.fc410830.Emscripten.clang"
  },
  "schemaVersion": "3.4.3",
  "updatedAt": "2021-11-29T18:54:13.073Z",
  "devdoc": {
    "kind": "dev",
    "methods": {
      "owner()": {
        "details": "Returns the address of the current owner."
      },
      "renounceOwnership()": {
        "details": "Leaves the contract without owner. It will not be possible to call `onlyOwner` functions anymore. Can only be called by the current owner. NOTE: Renouncing ownership will leave the contract without an owner, thereby removing any functionality that is only available to the owner."
      },
      "transferOwnership(address)": {
        "details": "Transfers ownership of the contract to a new account (`newOwner`). Can only be called by the current owner."
      }
    },
    "version": 1
  },
  "userdoc": {
    "kind": "user",
    "methods": {},
    "version": 1
  }
}