{
  "contractName": "Bankroll",
  "abi": [
    {
      "inputs": [
        {
          "internalType": "contract IERC20",
          "name": "XYA",
          "type": "address"
        }
      ],
      "stateMutability": "nonpayable",
      "type": "constructor"
    },
    {
      "anonymous": false,
      "inputs": [
        {
          "indexed": true,
          "internalType": "address",
          "name": "from",
          "type": "address"
        },
        {
          "indexed": false,
          "internalType": "uint256",
          "name": "amount",
          "type": "uint256"
        }
      ],
      "name": "Deposit",
      "type": "event"
    },
    {
      "anonymous": false,
      "inputs": [
        {
          "indexed": false,
          "internalType": "address",
          "name": "to",
          "type": "address"
        },
        {
          "indexed": false,
          "internalType": "uint256",
          "name": "amount",
          "type": "uint256"
        }
      ],
      "name": "FeeSent",
      "type": "event"
    },
    {
      "anonymous": false,
      "inputs": [
        {
          "indexed": true,
          "internalType": "address",
          "name": "previousOwner",
          "type": "address"
        },
        {
          "indexed": true,
          "internalType": "address",
          "name": "newOwner",
          "type": "address"
        }
      ],
      "name": "OwnershipTransferred",
      "type": "event"
    },
    {
      "anonymous": false,
      "inputs": [
        {
          "indexed": false,
          "internalType": "uint256",
          "name": "amount",
          "type": "uint256"
        }
      ],
      "name": "ProfitTaken",
      "type": "event"
    },
    {
      "anonymous": false,
      "inputs": [
        {
          "indexed": true,
          "internalType": "address",
          "name": "from",
          "type": "address"
        },
        {
          "indexed": false,
          "internalType": "uint256",
          "name": "amount",
          "type": "uint256"
        }
      ],
      "name": "Spent",
      "type": "event"
    },
    {
      "anonymous": false,
      "inputs": [
        {
          "indexed": true,
          "internalType": "address",
          "name": "to",
          "type": "address"
        },
        {
          "indexed": false,
          "internalType": "uint256",
          "name": "amount",
          "type": "uint256"
        }
      ],
      "name": "Withdraw",
      "type": "event"
    },
    {
      "anonymous": false,
      "inputs": [
        {
          "indexed": true,
          "internalType": "address",
          "name": "to",
          "type": "address"
        },
        {
          "indexed": false,
          "internalType": "uint256",
          "name": "amount",
          "type": "uint256"
        }
      ],
      "name": "Won",
      "type": "event"
    },
    {
      "inputs": [
        {
          "internalType": "address",
          "name": "addr",
          "type": "address"
        },
        {
          "internalType": "uint256",
          "name": "points",
          "type": "uint256"
        }
      ],
      "name": "addToFeeTakers",
      "outputs": [],
      "stateMutability": "nonpayable",
      "type": "function"
    },
    {
      "inputs": [
        {
          "internalType": "uint256",
          "name": "index",
          "type": "uint256"
        }
      ],
      "name": "getFeeTakerAt",
      "outputs": [
        {
          "components": [
            {
              "internalType": "address",
              "name": "addr",
              "type": "address"
            },
            {
              "internalType": "uint256",
              "name": "points",
              "type": "uint256"
            }
          ],
          "internalType": "struct FeeTakers.FeeTaker",
          "name": "",
          "type": "tuple"
        }
      ],
      "stateMutability": "view",
      "type": "function"
    },
    {
      "inputs": [],
      "name": "getFeeTakersLength",
      "outputs": [
        {
          "internalType": "uint256",
          "name": "",
          "type": "uint256"
        }
      ],
      "stateMutability": "view",
      "type": "function"
    },
    {
      "inputs": [],
      "name": "owner",
      "outputs": [
        {
          "internalType": "address",
          "name": "",
          "type": "address"
        }
      ],
      "stateMutability": "view",
      "type": "function"
    },
    {
      "inputs": [
        {
          "internalType": "uint256",
          "name": "index",
          "type": "uint256"
        }
      ],
      "name": "removeFromFeeTakers",
      "outputs": [],
      "stateMutability": "nonpayable",
      "type": "function"
    },
    {
      "inputs": [],
      "name": "renounceOwnership",
      "outputs": [],
      "stateMutability": "nonpayable",
      "type": "function"
    },
    {
      "inputs": [
        {
          "internalType": "address",
          "name": "newOwner",
          "type": "address"
        }
      ],
      "name": "transferOwnership",
      "outputs": [],
      "stateMutability": "nonpayable",
      "type": "function"
    },
    {
      "inputs": [
        {
          "internalType": "uint256",
          "name": "amount",
          "type": "uint256"
        }
      ],
      "name": "deposit",
      "outputs": [],
      "stateMutability": "nonpayable",
      "type": "function"
    },
    {
      "inputs": [
        {
          "internalType": "uint256",
          "name": "amount",
          "type": "uint256"
        }
      ],
      "name": "withdraw",
      "outputs": [],
      "stateMutability": "nonpayable",
      "type": "function"
    },
    {
      "inputs": [
        {
          "internalType": "address",
          "name": "player",
          "type": "address"
        }
      ],
      "name": "getPlayerData",
      "outputs": [
        {
          "components": [
            {
              "internalType": "uint256",
              "name": "credit",
              "type": "uint256"
            },
            {
              "internalType": "uint256",
              "name": "bank",
              "type": "uint256"
            },
            {
              "internalType": "uint256",
              "name": "totalSpent",
              "type": "uint256"
            },
            {
              "internalType": "uint256",
              "name": "totalWon",
              "type": "uint256"
            }
          ],
          "internalType": "struct Bankroll.PlayerData",
          "name": "",
          "type": "tuple"
        }
      ],
      "stateMutability": "view",
      "type": "function"
    },
    {
      "inputs": [
        {
          "internalType": "address",
          "name": "game",
          "type": "address"
        }
      ],
      "name": "getGameData",
      "outputs": [
        {
          "components": [
            {
              "internalType": "uint256",
              "name": "totalInflow",
              "type": "uint256"
            },
            {
              "internalType": "uint256",
              "name": "totalOutflow",
              "type": "uint256"
            }
          ],
          "internalType": "struct Bankroll.GameData",
          "name": "",
          "type": "tuple"
        }
      ],
      "stateMutability": "view",
      "type": "function"
    },
    {
      "inputs": [
        {
          "internalType": "address",
          "name": "player",
          "type": "address"
        },
        {
          "internalType": "uint256",
          "name": "amount",
          "type": "uint256"
        }
      ],
      "name": "playFrom",
      "outputs": [],
      "stateMutability": "nonpayable",
      "type": "function"
    },
    {
      "inputs": [
        {
          "internalType": "address",
          "name": "player",
          "type": "address"
        },
        {
          "internalType": "uint256",
          "name": "amount",
          "type": "uint256"
        }
      ],
      "name": "winTo",
      "outputs": [],
      "stateMutability": "nonpayable",
      "type": "function"
    },
    {
      "inputs": [
        {
          "internalType": "address",
          "name": "addr",
          "type": "address"
        },
        {
          "internalType": "bool",
          "name": "approval",
          "type": "bool"
        }
      ],
      "name": "setApproval",
      "outputs": [],
      "stateMutability": "nonpayable",
      "type": "function"
    },
    {
      "inputs": [
        {
          "internalType": "uint256",
          "name": "amount",
          "type": "uint256"
        }
      ],
      "name": "emergencyWithdraw",
      "outputs": [],
      "stateMutability": "nonpayable",
      "type": "function"
    }
  ],
  "bytecode": "0x60806040523480156200001157600080fd5b5060405162001f2c38038062001f2c8339818101604052810190620000379190620001ff565b80620000586200004c6200007160201b60201c565b6200007960201b60201c565b62000069816200013d60201b60201c565b505062000231565b600033905090565b60008060009054906101000a900473ffffffffffffffffffffffffffffffffffffffff169050816000806101000a81548173ffffffffffffffffffffffffffffffffffffffff021916908373ffffffffffffffffffffffffffffffffffffffff1602179055508173ffffffffffffffffffffffffffffffffffffffff168173ffffffffffffffffffffffffffffffffffffffff167f8be0079c531659141344cd1fd0a4f28419497f9722a3daafe3b4186f6b6457e060405160405180910390a35050565b80600160006101000a81548173ffffffffffffffffffffffffffffffffffffffff021916908373ffffffffffffffffffffffffffffffffffffffff16021790555050565b600080fd5b600073ffffffffffffffffffffffffffffffffffffffff82169050919050565b6000620001b38262000186565b9050919050565b6000620001c782620001a6565b9050919050565b620001d981620001ba565b8114620001e557600080fd5b50565b600081519050620001f981620001ce565b92915050565b60006020828403121562000218576200021762000181565b5b60006200022884828501620001e8565b91505092915050565b611ceb80620002416000396000f3fe608060405234801561001057600080fd5b50600436106100f55760003560e01c8063a19ab0e011610097578063b975c34d11610066578063b975c34d14610248578063db9b717014610278578063e41515c614610294578063f2fde38b146102b0576100f5565b8063a19ab0e0146101d6578063a6bb4664146101f4578063ad3be30114610210578063b6b55f251461022c576100f5565b8063715018a6116100d3578063715018a61461016257806387bca5471461016c5780638d0c3bd41461019c5780638da5cb5b146101b8576100f5565b80632aa531d9146100fa5780632e1a7d4d1461012a5780635312ea8e14610146575b600080fd5b610114600480360381019061010f9190611522565b6102cc565b60405161012191906115bd565b60405180910390f35b610144600480360381019061013f9190611604565b610317565b005b610160600480360381019061015b9190611604565b61032b565b005b61016a6103bb565b005b61018660048036038101906101819190611604565b610443565b604051610193919061166f565b60405180910390f35b6101b660048036038101906101b1919061168a565b610542565b005b6101c06105eb565b6040516101cd91906116d9565b60405180910390f35b6101de610614565b6040516101eb9190611703565b60405180910390f35b61020e6004803603810190610209919061168a565b61069f565b005b61022a6004803603810190610225919061168a565b610748565b005b61024660048036038101906102419190611604565b6107d2565b005b610262600480360381019061025d9190611522565b6107e6565b60405161026f919061174d565b60405180910390f35b610292600480360381019061028d91906117a0565b61081d565b005b6102ae60048036038101906102a99190611604565b6108a7565b005b6102ca60048036038101906102c59190611522565b61092f565b005b6102d461144d565b6102dd82610a27565b6040518060800160405290816000820154815260200160018201548152602001600282015481526020016003820154815250509050919050565b610328610322610a6f565b82610a77565b50565b610333610a6f565b73ffffffffffffffffffffffffffffffffffffffff166103516105eb565b73ffffffffffffffffffffffffffffffffffffffff16146103a7576040517f08c379a000000000000000000000000000000000000000000000000000000000815260040161039e9061183d565b60405180910390fd5b6103b86103b2610a6f565b82610b7a565b50565b6103c3610a6f565b73ffffffffffffffffffffffffffffffffffffffff166103e16105eb565b73ffffffffffffffffffffffffffffffffffffffff1614610437576040517f08c379a000000000000000000000000000000000000000000000000000000000815260040161042e9061183d565b60405180910390fd5b6104416000610c04565b565b61044b611475565b610453610a6f565b73ffffffffffffffffffffffffffffffffffffffff166104716105eb565b73ffffffffffffffffffffffffffffffffffffffff16146104c7576040517f08c379a00000000000000000000000000000000000000000000000000000000081526004016104be9061183d565b60405180910390fd5b6104d082610cc8565b6040518060400160405290816000820160009054906101000a900473ffffffffffffffffffffffffffffffffffffffff1673ffffffffffffffffffffffffffffffffffffffff1673ffffffffffffffffffffffffffffffffffffffff1681526020016001820154815250509050919050565b6005600061054e610a6f565b73ffffffffffffffffffffffffffffffffffffffff1673ffffffffffffffffffffffffffffffffffffffff16815260200190815260200160002060009054906101000a900460ff166105d5576040517f08c379a00000000000000000000000000000000000000000000000000000000081526004016105cc906118a9565b60405180910390fd5b6105e76105e0610a6f565b8383610cf3565b5050565b60008060009054906101000a900473ffffffffffffffffffffffffffffffffffffffff16905090565b600061061e610a6f565b73ffffffffffffffffffffffffffffffffffffffff1661063c6105eb565b73ffffffffffffffffffffffffffffffffffffffff1614610692576040517f08c379a00000000000000000000000000000000000000000000000000000000081526004016106899061183d565b60405180910390fd5b61069a610db9565b905090565b600560006106ab610a6f565b73ffffffffffffffffffffffffffffffffffffffff1673ffffffffffffffffffffffffffffffffffffffff16815260200190815260200160002060009054906101000a900460ff16610732576040517f08c379a0000000000000000000000000000000000000000000000000000000008152600401610729906118a9565b60405180910390fd5b61074461073d610a6f565b8383610dc6565b5050565b610750610a6f565b73ffffffffffffffffffffffffffffffffffffffff1661076e6105eb565b73ffffffffffffffffffffffffffffffffffffffff16146107c4576040517f08c379a00000000000000000000000000000000000000000000000000000000081526004016107bb9061183d565b60405180910390fd5b6107ce8282610e84565b5050565b6107e36107dd610a6f565b82610f31565b50565b6107ee6114a5565b6107f782611034565b604051806040016040529081600082015481526020016001820154815250509050919050565b610825610a6f565b73ffffffffffffffffffffffffffffffffffffffff166108436105eb565b73ffffffffffffffffffffffffffffffffffffffff1614610899576040517f08c379a00000000000000000000000000000000000000000000000000000000081526004016108909061183d565b60405180910390fd5b6108a3828261107c565b5050565b6108af610a6f565b73ffffffffffffffffffffffffffffffffffffffff166108cd6105eb565b73ffffffffffffffffffffffffffffffffffffffff1614610923576040517f08c379a000000000000000000000000000000000000000000000000000000000815260040161091a9061183d565b60405180910390fd5b61092c816110d7565b50565b610937610a6f565b73ffffffffffffffffffffffffffffffffffffffff166109556105eb565b73ffffffffffffffffffffffffffffffffffffffff16146109ab576040517f08c379a00000000000000000000000000000000000000000000000000000000081526004016109a29061183d565b60405180910390fd5b600073ffffffffffffffffffffffffffffffffffffffff168173ffffffffffffffffffffffffffffffffffffffff161415610a1b576040517f08c379a0000000000000000000000000000000000000000000000000000000008152600401610a129061193b565b60405180910390fd5b610a2481610c04565b50565b6000600660008373ffffffffffffffffffffffffffffffffffffffff1673ffffffffffffffffffffffffffffffffffffffff1681526020019081526020016000209050919050565b600033905090565b6000610a8283610a27565b905081816001016000828254610a98919061198a565b92505081905550610aa76111fd565b73ffffffffffffffffffffffffffffffffffffffff166323b872dd3085856040518463ffffffff1660e01b8152600401610ae3939291906119be565b6020604051808303816000875af1158015610b02573d6000803e3d6000fd5b505050506040513d601f19601f82011682018060405250810190610b269190611a0a565b508273ffffffffffffffffffffffffffffffffffffffff167f884edad9ce6fa2440d8a54cc123490eb96d2768479d49ff9c7366125a942436483604051610b6d9190611703565b60405180910390a2505050565b610b826111fd565b73ffffffffffffffffffffffffffffffffffffffff1663a9059cbb83836040518363ffffffff1660e01b8152600401610bbc929190611a37565b6020604051808303816000875af1158015610bdb573d6000803e3d6000fd5b505050506040513d601f19601f82011682018060405250810190610bff9190611a0a565b505050565b60008060009054906101000a900473ffffffffffffffffffffffffffffffffffffffff169050816000806101000a81548173ffffffffffffffffffffffffffffffffffffffff021916908373ffffffffffffffffffffffffffffffffffffffff1602179055508173ffffffffffffffffffffffffffffffffffffffff168173ffffffffffffffffffffffffffffffffffffffff167f8be0079c531659141344cd1fd0a4f28419497f9722a3daafe3b4186f6b6457e060405160405180910390a35050565b600060028281548110610cde57610cdd611a60565b5b90600052602060002090600202019050919050565b6000610cfe83610a27565b90506000610d0b85611034565b90508260046000828254610d1f9190611a8f565b9250508190555082816001016000828254610d3a9190611a8f565b9250508190555082826001016000828254610d559190611a8f565b925050819055508373ffffffffffffffffffffffffffffffffffffffff167f8b01f9dd0400d6a1e84369a5fb8f6033934856ffa8ebadd707dca302ab55169584604051610da29190611703565b60405180910390a2610db261120c565b5050505050565b6000600280549050905090565b6000610dd183610a27565b90506000610dde85611034565b90508260036000828254610df29190611a8f565b9250508190555082816000016000828254610e0d9190611a8f565b9250508190555082826000016000828254610e28919061198a565b925050819055508373ffffffffffffffffffffffffffffffffffffffff167fd3eec71143c45f28685b24760ea218d476917aa0ac0392a55e5304cef40bd2b684604051610e759190611703565b60405180910390a25050505050565b600260405180604001604052808473ffffffffffffffffffffffffffffffffffffffff16815260200183815250908060018154018082558091505060019003906000526020600020906002020160009091909190915060008201518160000160006101000a81548173ffffffffffffffffffffffffffffffffffffffff021916908373ffffffffffffffffffffffffffffffffffffffff1602179055506020820151816001015550505050565b6000610f3c83610a27565b905081816000016000828254610f529190611a8f565b92505081905550610f616111fd565b73ffffffffffffffffffffffffffffffffffffffff166323b872dd8430856040518463ffffffff1660e01b8152600401610f9d939291906119be565b6020604051808303816000875af1158015610fbc573d6000803e3d6000fd5b505050506040513d601f19601f82011682018060405250810190610fe09190611a0a565b508273ffffffffffffffffffffffffffffffffffffffff167fe1fffcc4923d04b559f4d29a8bfc6cda04eb5b0d3c460751c2402c5c5cc9109c836040516110279190611703565b60405180910390a2505050565b6000600760008373ffffffffffffffffffffffffffffffffffffffff1673ffffffffffffffffffffffffffffffffffffffff1681526020019081526020016000209050919050565b80600560008473ffffffffffffffffffffffffffffffffffffffff1673ffffffffffffffffffffffffffffffffffffffff16815260200190815260200160002060006101000a81548160ff0219169083151502179055505050565b600260016002805490506110eb919061198a565b815481106110fc576110fb611a60565b5b90600052602060002090600202016002828154811061111e5761111d611a60565b5b90600052602060002090600202016000820160009054906101000a900473ffffffffffffffffffffffffffffffffffffffff168160000160006101000a81548173ffffffffffffffffffffffffffffffffffffffff021916908373ffffffffffffffffffffffffffffffffffffffff1602179055506001820154816001015590505060028054806111b2576111b1611ae5565b5b6001900381819060005260206000209060020201600080820160006101000a81549073ffffffffffffffffffffffffffffffffffffffff021916905560018201600090555050905550565b6000611207611284565b905090565b60006112166112ae565b9050600081131561128157600081905080600460008282546112389190611a8f565b92505081905550611248816112c5565b7f949da057e0c10ac8c590fc56cf17f0a7f8a424d6f373268e7fc205c8dcbc7bb4816040516112779190611703565b60405180910390a1505b50565b6000600160009054906101000a900473ffffffffffffffffffffffffffffffffffffffff16905090565b60006004546003546112c09190611b1e565b905090565b60008060005b6112d3610db9565b811015611307576112e381610cc8565b60010154836112f29190611a8f565b925080806112ff90611bb2565b9150506112cb565b5081836113149190611c2a565b905060005b611321610db9565b81101561144757600061133382610cc8565b905060008160000160009054906101000a900473ffffffffffffffffffffffffffffffffffffffff16905060008483600101546113709190611c5b565b905061137a611284565b73ffffffffffffffffffffffffffffffffffffffff1663a9059cbb83836040518363ffffffff1660e01b81526004016113b4929190611a37565b6020604051808303816000875af11580156113d3573d6000803e3d6000fd5b505050506040513d601f19601f820116820180604052508101906113f79190611a0a565b507f58793df5f4d270351f09efd433db93c69432142b69dc7ee38195fc630478c79f8282604051611429929190611a37565b60405180910390a1505050808061143f90611bb2565b915050611319565b50505050565b6040518060800160405280600081526020016000815260200160008152602001600081525090565b6040518060400160405280600073ffffffffffffffffffffffffffffffffffffffff168152602001600081525090565b604051806040016040528060008152602001600081525090565b600080fd5b600073ffffffffffffffffffffffffffffffffffffffff82169050919050565b60006114ef826114c4565b9050919050565b6114ff816114e4565b811461150a57600080fd5b50565b60008135905061151c816114f6565b92915050565b600060208284031215611538576115376114bf565b5b60006115468482850161150d565b91505092915050565b6000819050919050565b6115628161154f565b82525050565b60808201600082015161157e6000850182611559565b5060208201516115916020850182611559565b5060408201516115a46040850182611559565b5060608201516115b76060850182611559565b50505050565b60006080820190506115d26000830184611568565b92915050565b6115e18161154f565b81146115ec57600080fd5b50565b6000813590506115fe816115d8565b92915050565b60006020828403121561161a576116196114bf565b5b6000611628848285016115ef565b91505092915050565b61163a816114e4565b82525050565b6040820160008201516116566000850182611631565b5060208201516116696020850182611559565b50505050565b60006040820190506116846000830184611640565b92915050565b600080604083850312156116a1576116a06114bf565b5b60006116af8582860161150d565b92505060206116c0858286016115ef565b9150509250929050565b6116d3816114e4565b82525050565b60006020820190506116ee60008301846116ca565b92915050565b6116fd8161154f565b82525050565b600060208201905061171860008301846116f4565b92915050565b6040820160008201516117346000850182611559565b5060208201516117476020850182611559565b50505050565b6000604082019050611762600083018461171e565b92915050565b60008115159050919050565b61177d81611768565b811461178857600080fd5b50565b60008135905061179a81611774565b92915050565b600080604083850312156117b7576117b66114bf565b5b60006117c58582860161150d565b92505060206117d68582860161178b565b9150509250929050565b600082825260208201905092915050565b7f4f776e61626c653a2063616c6c6572206973206e6f7420746865206f776e6572600082015250565b60006118276020836117e0565b9150611832826117f1565b602082019050919050565b600060208201905081810360008301526118568161181a565b9050919050565b7f596f75206172656e277420617070726f7665642e000000000000000000000000600082015250565b60006118936014836117e0565b915061189e8261185d565b602082019050919050565b600060208201905081810360008301526118c281611886565b9050919050565b7f4f776e61626c653a206e6577206f776e657220697320746865207a65726f206160008201527f6464726573730000000000000000000000000000000000000000000000000000602082015250565b60006119256026836117e0565b9150611930826118c9565b604082019050919050565b6000602082019050818103600083015261195481611918565b9050919050565b7f4e487b7100000000000000000000000000000000000000000000000000000000600052601160045260246000fd5b60006119958261154f565b91506119a08361154f565b9250828210156119b3576119b261195b565b5b828203905092915050565b60006060820190506119d360008301866116ca565b6119e060208301856116ca565b6119ed60408301846116f4565b949350505050565b600081519050611a0481611774565b92915050565b600060208284031215611a2057611a1f6114bf565b5b6000611a2e848285016119f5565b91505092915050565b6000604082019050611a4c60008301856116ca565b611a5960208301846116f4565b9392505050565b7f4e487b7100000000000000000000000000000000000000000000000000000000600052603260045260246000fd5b6000611a9a8261154f565b9150611aa58361154f565b9250827fffffffffffffffffffffffffffffffffffffffffffffffffffffffffffffffff03821115611ada57611ad961195b565b5b828201905092915050565b7f4e487b7100000000000000000000000000000000000000000000000000000000600052603160045260246000fd5b6000819050919050565b6000611b2982611b14565b9150611b3483611b14565b9250827f800000000000000000000000000000000000000000000000000000000000000001821260008412151615611b6f57611b6e61195b565b5b827f7fffffffffffffffffffffffffffffffffffffffffffffffffffffffffffffff018213600084121615611ba757611ba661195b565b5b828203905092915050565b6000611bbd8261154f565b91507fffffffffffffffffffffffffffffffffffffffffffffffffffffffffffffffff821415611bf057611bef61195b565b5b600182019050919050565b7f4e487b7100000000000000000000000000000000000000000000000000000000600052601260045260246000fd5b6000611c358261154f565b9150611c408361154f565b925082611c5057611c4f611bfb565b5b828204905092915050565b6000611c668261154f565b9150611c718361154f565b9250817fffffffffffffffffffffffffffffffffffffffffffffffffffffffffffffffff0483118215151615611caa57611ca961195b565b5b82820290509291505056fea2646970667358221220c8748570e6d3dee35199ee72460e00f3fd2c9936c2138f38508b233430caf45364736f6c634300080a0033",
  "immutableReferences": {},
  "source": "//SPDX-License-Identifier: MIT\r\n\r\npragma solidity ^0.8.0;\r\nimport \"@openzeppelin/contracts/utils/Context.sol\";\r\nimport \"@openzeppelin/contracts/access/Ownable.sol\";\r\nimport \"luk1529_solidity/contracts/token/ERC20User.sol\";\r\nimport \"luk1529_solidity/contracts/fee/FeeTakersERC20.sol\";\r\n\r\ncontract Bankroll is Context, Ownable, ERC20User, FeeTakers {\r\n\r\n    uint _totalInflow;\r\n    uint _totalOutflow;\r\n\r\n\r\n    constructor(IERC20 XYA) ERC20User(XYA) {\r\n    }\r\n\r\n    struct PlayerData {\r\n        uint credit;\r\n        uint bank; \r\n        uint totalSpent;\r\n        uint totalWon;\r\n    }\r\n\r\n    struct GameData {\r\n        uint totalInflow;\r\n        uint totalOutflow;\r\n    }\r\n\r\n\r\n    event Deposit(address indexed from, uint amount);\r\n    event Withdraw(address indexed to, uint amount);\r\n    event Won(address indexed to, uint amount);\r\n    event Spent(address indexed from, uint amount);\r\n\r\n    event ProfitTaken(uint amount);\r\n\r\n    mapping(address => bool) _approved;\r\n    mapping(address => PlayerData) _playerData;\r\n    mapping(address => GameData) _gameData;\r\n\r\n\r\n    //user can deposit to their credit balance and withdraw funds from their bank balance\r\n    function deposit(uint amount) public {\r\n        _depositFrom(_msgSender(), amount);\r\n    }\r\n    function withdraw(uint amount) public {\r\n        _withdrawTo(_msgSender(), amount);\r\n    }\r\n\r\n\r\n    //get the data of a player - credit, bank etc.\r\n    function getPlayerData(address player) public view returns(PlayerData memory) {\r\n        return _getPlayerData(player);\r\n    }\r\n    function getGameData(address game) public view returns(GameData memory) {\r\n        return _getGameData(game);\r\n    }\r\n\r\n\r\n    //approved contracts (games) can take funds from players' credit balances and award funds to their bank balances\r\n    function playFrom(address player, uint amount) public onlyApproved {\r\n        _playFrom(_msgSender(), player, amount);\r\n    }\r\n    function winTo(address player, uint amount) public onlyApproved {\r\n        _winTo(_msgSender(), player, amount);\r\n    }\r\n\r\n\r\n    //audit which contracts can spend on behalf of players in Freyala's casino\r\n    function setApproval(address addr, bool approval) public onlyOwner {\r\n        _setApproval(addr, approval);\r\n    }\r\n\r\n    //take out funds if necessary\r\n    function emergencyWithdraw(uint amount) public onlyOwner {\r\n        _emergencyWithdraw(_msgSender(), amount);\r\n    }\r\n\r\n\r\n\r\n\r\n    modifier onlyApproved() {\r\n        require(_approved[_msgSender()], \"You aren't approved.\");\r\n        _;\r\n    }\r\n\r\n\r\n    function _getPlayerData(address player) private view returns(PlayerData storage) {\r\n        return _playerData[player];\r\n    }\r\n\r\n    function _getGameData(address game) private view returns(GameData storage) {\r\n        return _gameData[game];\r\n    }\r\n\r\n    function _depositFrom(address player, uint amount) private {\r\n        PlayerData storage playerData = _getPlayerData(player);\r\n        playerData.credit += amount;\r\n        _XYATokenContract().transferFrom(player, address(this), amount);\r\n        emit Deposit(player, amount);\r\n    }\r\n\r\n    function _withdrawTo(address player, uint amount) private {\r\n        PlayerData storage playerData = _getPlayerData(player);\r\n        playerData.bank -= amount;\r\n        _XYATokenContract().transferFrom(address(this), player, amount);\r\n        emit Withdraw(player, amount);\r\n    }\r\n\r\n    function _playFrom(address game, address player, uint amount) private {\r\n        PlayerData storage playerData = _getPlayerData(player);\r\n        GameData storage gameData = _getGameData(game);\r\n        _totalInflow += amount;\r\n        gameData.totalInflow += amount;\r\n        playerData.credit -= amount;\r\n        emit Spent(player, amount);\r\n    }\r\n\r\n    function _winTo(address game, address player, uint amount) private {\r\n        PlayerData storage playerData = _getPlayerData(player);\r\n        GameData storage gameData = _getGameData(game);\r\n        _totalOutflow += amount;\r\n        gameData.totalOutflow += amount;\r\n        playerData.bank += amount;\r\n        emit Won(player, amount);\r\n        _takeProfit();\r\n    }\r\n\r\n    function _getNetBalance() private view returns(int netBalance) {\r\n        netBalance = int(_totalInflow) - int(_totalOutflow);\r\n    }\r\n\r\n    function _takeProfit() private {\r\n        int profit = _getNetBalance();\r\n        if(profit > 0) {\r\n            uint toDistribute = uint(profit);\r\n            _totalOutflow += toDistribute;\r\n            _distributeFee(toDistribute);\r\n            emit ProfitTaken(toDistribute);\r\n        }\r\n    }\r\n\r\n    function _emergencyWithdraw(address to, uint amount) private {\r\n        _XYATokenContract().transfer(to, amount);\r\n    }\r\n\r\n    function _XYATokenContract() private view returns(IERC20) {\r\n        return _getToken();\r\n    }\r\n\r\n    function _setApproval(address addr, bool approval) private {\r\n        _approved[addr] = approval;\r\n    }\r\n}",
  "sourcePath": "C:\\Users\\lukey\\Documents\\Blockchain\\XYA\\Casino\\contracts\\bankroll\\Bankroll.sol",
  "compiler": {
    "name": "solc",
    "version": "0.8.10+commit.fc410830.Emscripten.clang"
  },
  "schemaVersion": "3.4.3",
  "updatedAt": "2021-11-30T22:45:03.978Z",
  "devdoc": {
    "kind": "dev",
    "methods": {
      "owner()": {
        "details": "Returns the address of the current owner."
      },
      "renounceOwnership()": {
        "details": "Leaves the contract without owner. It will not be possible to call `onlyOwner` functions anymore. Can only be called by the current owner. NOTE: Renouncing ownership will leave the contract without an owner, thereby removing any functionality that is only available to the owner."
      },
      "transferOwnership(address)": {
        "details": "Transfers ownership of the contract to a new account (`newOwner`). Can only be called by the current owner."
      }
    },
    "version": 1
  },
  "userdoc": {
    "kind": "user",
    "methods": {},
    "version": 1
  }
}