{
  "contractName": "Bankroll",
  "abi": [
    {
      "inputs": [
        {
          "internalType": "contract IERC20",
          "name": "XYA_",
          "type": "address"
        }
      ],
      "stateMutability": "nonpayable",
      "type": "constructor"
    },
    {
      "anonymous": false,
      "inputs": [
        {
          "indexed": true,
          "internalType": "address",
          "name": "from",
          "type": "address"
        },
        {
          "indexed": false,
          "internalType": "uint256",
          "name": "amount",
          "type": "uint256"
        }
      ],
      "name": "Deposit",
      "type": "event"
    },
    {
      "anonymous": false,
      "inputs": [
        {
          "indexed": false,
          "internalType": "address",
          "name": "to",
          "type": "address"
        },
        {
          "indexed": false,
          "internalType": "uint256",
          "name": "amount",
          "type": "uint256"
        }
      ],
      "name": "FeeSent",
      "type": "event"
    },
    {
      "anonymous": false,
      "inputs": [
        {
          "indexed": true,
          "internalType": "address",
          "name": "previousOwner",
          "type": "address"
        },
        {
          "indexed": true,
          "internalType": "address",
          "name": "newOwner",
          "type": "address"
        }
      ],
      "name": "OwnershipTransferred",
      "type": "event"
    },
    {
      "anonymous": false,
      "inputs": [
        {
          "indexed": false,
          "internalType": "uint256",
          "name": "amount",
          "type": "uint256"
        }
      ],
      "name": "ProfitTaken",
      "type": "event"
    },
    {
      "anonymous": false,
      "inputs": [
        {
          "indexed": true,
          "internalType": "address",
          "name": "from",
          "type": "address"
        },
        {
          "indexed": false,
          "internalType": "uint256",
          "name": "amount",
          "type": "uint256"
        }
      ],
      "name": "Spent",
      "type": "event"
    },
    {
      "anonymous": false,
      "inputs": [
        {
          "indexed": true,
          "internalType": "address",
          "name": "to",
          "type": "address"
        },
        {
          "indexed": false,
          "internalType": "uint256",
          "name": "amount",
          "type": "uint256"
        }
      ],
      "name": "Withdraw",
      "type": "event"
    },
    {
      "anonymous": false,
      "inputs": [
        {
          "indexed": true,
          "internalType": "address",
          "name": "to",
          "type": "address"
        },
        {
          "indexed": false,
          "internalType": "uint256",
          "name": "amount",
          "type": "uint256"
        }
      ],
      "name": "Won",
      "type": "event"
    },
    {
      "inputs": [
        {
          "internalType": "address",
          "name": "addr",
          "type": "address"
        },
        {
          "internalType": "uint256",
          "name": "points",
          "type": "uint256"
        }
      ],
      "name": "addToFeeTakers",
      "outputs": [],
      "stateMutability": "nonpayable",
      "type": "function"
    },
    {
      "inputs": [
        {
          "internalType": "uint256",
          "name": "index",
          "type": "uint256"
        }
      ],
      "name": "getFeeTakerAt",
      "outputs": [
        {
          "components": [
            {
              "internalType": "address",
              "name": "addr",
              "type": "address"
            },
            {
              "internalType": "uint256",
              "name": "points",
              "type": "uint256"
            }
          ],
          "internalType": "struct FeeTakers.FeeTaker",
          "name": "",
          "type": "tuple"
        }
      ],
      "stateMutability": "view",
      "type": "function"
    },
    {
      "inputs": [],
      "name": "getFeeTakersLength",
      "outputs": [
        {
          "internalType": "uint256",
          "name": "",
          "type": "uint256"
        }
      ],
      "stateMutability": "view",
      "type": "function"
    },
    {
      "inputs": [],
      "name": "owner",
      "outputs": [
        {
          "internalType": "address",
          "name": "",
          "type": "address"
        }
      ],
      "stateMutability": "view",
      "type": "function"
    },
    {
      "inputs": [
        {
          "internalType": "uint256",
          "name": "index",
          "type": "uint256"
        }
      ],
      "name": "removeFromFeeTakers",
      "outputs": [],
      "stateMutability": "nonpayable",
      "type": "function"
    },
    {
      "inputs": [],
      "name": "renounceOwnership",
      "outputs": [],
      "stateMutability": "nonpayable",
      "type": "function"
    },
    {
      "inputs": [
        {
          "internalType": "contract IERC20",
          "name": "Token_",
          "type": "address"
        }
      ],
      "name": "setToken",
      "outputs": [],
      "stateMutability": "nonpayable",
      "type": "function"
    },
    {
      "inputs": [
        {
          "internalType": "address",
          "name": "newOwner",
          "type": "address"
        }
      ],
      "name": "transferOwnership",
      "outputs": [],
      "stateMutability": "nonpayable",
      "type": "function"
    },
    {
      "inputs": [
        {
          "internalType": "uint256",
          "name": "amount",
          "type": "uint256"
        }
      ],
      "name": "deposit",
      "outputs": [],
      "stateMutability": "nonpayable",
      "type": "function"
    },
    {
      "inputs": [
        {
          "internalType": "uint256",
          "name": "amount",
          "type": "uint256"
        }
      ],
      "name": "withdraw",
      "outputs": [],
      "stateMutability": "nonpayable",
      "type": "function"
    },
    {
      "inputs": [
        {
          "internalType": "address",
          "name": "player",
          "type": "address"
        },
        {
          "internalType": "uint256",
          "name": "amount",
          "type": "uint256"
        }
      ],
      "name": "playFrom",
      "outputs": [],
      "stateMutability": "nonpayable",
      "type": "function"
    },
    {
      "inputs": [
        {
          "internalType": "address",
          "name": "player",
          "type": "address"
        },
        {
          "internalType": "uint256",
          "name": "amount",
          "type": "uint256"
        }
      ],
      "name": "winTo",
      "outputs": [],
      "stateMutability": "nonpayable",
      "type": "function"
    },
    {
      "inputs": [
        {
          "internalType": "address",
          "name": "addr",
          "type": "address"
        },
        {
          "internalType": "bool",
          "name": "approval",
          "type": "bool"
        }
      ],
      "name": "setApproval",
      "outputs": [],
      "stateMutability": "nonpayable",
      "type": "function"
    }
  ],
  "bytecode": "0x60806040523480156200001157600080fd5b5060405162001c2e38038062001c2e833981810160405281019062000037919062000254565b80620000586200004c6200008260201b60201c565b6200008a60201b60201c565b62000069816200014e60201b60201c565b506200007b816200019260201b60201c565b5062000286565b600033905090565b60008060009054906101000a900473ffffffffffffffffffffffffffffffffffffffff169050816000806101000a81548173ffffffffffffffffffffffffffffffffffffffff021916908373ffffffffffffffffffffffffffffffffffffffff1602179055508173ffffffffffffffffffffffffffffffffffffffff168173ffffffffffffffffffffffffffffffffffffffff167f8be0079c531659141344cd1fd0a4f28419497f9722a3daafe3b4186f6b6457e060405160405180910390a35050565b80600160006101000a81548173ffffffffffffffffffffffffffffffffffffffff021916908373ffffffffffffffffffffffffffffffffffffffff16021790555050565b80600360006101000a81548173ffffffffffffffffffffffffffffffffffffffff021916908373ffffffffffffffffffffffffffffffffffffffff16021790555050565b600080fd5b600073ffffffffffffffffffffffffffffffffffffffff82169050919050565b60006200020882620001db565b9050919050565b60006200021c82620001fb565b9050919050565b6200022e816200020f565b81146200023a57600080fd5b50565b6000815190506200024e8162000223565b92915050565b6000602082840312156200026d576200026c620001d6565b5b60006200027d848285016200023d565b91505092915050565b61199880620002966000396000f3fe608060405234801561001057600080fd5b50600436106100cf5760003560e01c8063a19ab0e01161008c578063b6b55f2511610066578063b6b55f25146101d6578063db9b7170146101f2578063e41515c61461020e578063f2fde38b1461022a576100cf565b8063a19ab0e014610180578063a6bb46641461019e578063ad3be301146101ba576100cf565b8063144fa6d7146100d45780632e1a7d4d146100f0578063715018a61461010c57806387bca547146101165780638d0c3bd4146101465780638da5cb5b14610162575b600080fd5b6100ee60048036038101906100e9919061129c565b610246565b005b61010a600480360381019061010591906112ff565b6102ce565b005b6101146102e2565b005b610130600480360381019061012b91906112ff565b61036a565b60405161013d9190611379565b60405180910390f35b610160600480360381019061015b91906113c0565b610469565b005b61016a6104d4565b604051610177919061140f565b60405180910390f35b6101886104fd565b6040516101959190611439565b60405180910390f35b6101b860048036038101906101b391906113c0565b610588565b005b6101d460048036038101906101cf91906113c0565b6105f3565b005b6101f060048036038101906101eb91906112ff565b61067d565b005b61020c6004803603810190610207919061148c565b610691565b005b610228600480360381019061022391906112ff565b61071b565b005b610244600480360381019061023f91906114cc565b6107a3565b005b61024e61089b565b73ffffffffffffffffffffffffffffffffffffffff1661026c6104d4565b73ffffffffffffffffffffffffffffffffffffffff16146102c2576040517f08c379a00000000000000000000000000000000000000000000000000000000081526004016102b990611556565b60405180910390fd5b6102cb816108a3565b50565b6102df6102d961089b565b826108e7565b50565b6102ea61089b565b73ffffffffffffffffffffffffffffffffffffffff166103086104d4565b73ffffffffffffffffffffffffffffffffffffffff161461035e576040517f08c379a000000000000000000000000000000000000000000000000000000000815260040161035590611556565b60405180910390fd5b6103686000610a05565b565b6103726111f7565b61037a61089b565b73ffffffffffffffffffffffffffffffffffffffff166103986104d4565b73ffffffffffffffffffffffffffffffffffffffff16146103ee576040517f08c379a00000000000000000000000000000000000000000000000000000000081526004016103e590611556565b60405180910390fd5b6103f782610ac9565b6040518060400160405290816000820160009054906101000a900473ffffffffffffffffffffffffffffffffffffffff1673ffffffffffffffffffffffffffffffffffffffff1673ffffffffffffffffffffffffffffffffffffffff1681526020016001820154815250509050919050565b6006600061047561089b565b73ffffffffffffffffffffffffffffffffffffffff1673ffffffffffffffffffffffffffffffffffffffff16815260200190815260200160002060009054906101000a900460ff166104c657600080fd5b6104d08282610af4565b5050565b60008060009054906101000a900473ffffffffffffffffffffffffffffffffffffffff16905090565b600061050761089b565b73ffffffffffffffffffffffffffffffffffffffff166105256104d4565b73ffffffffffffffffffffffffffffffffffffffff161461057b576040517f08c379a000000000000000000000000000000000000000000000000000000000815260040161057290611556565b60405180910390fd5b610583610b90565b905090565b6006600061059461089b565b73ffffffffffffffffffffffffffffffffffffffff1673ffffffffffffffffffffffffffffffffffffffff16815260200190815260200160002060009054906101000a900460ff166105e557600080fd5b6105ef8282610b9d565b5050565b6105fb61089b565b73ffffffffffffffffffffffffffffffffffffffff166106196104d4565b73ffffffffffffffffffffffffffffffffffffffff161461066f576040517f08c379a000000000000000000000000000000000000000000000000000000000815260040161066690611556565b60405180910390fd5b6106798282610c31565b5050565b61068e61068861089b565b82610cde565b50565b61069961089b565b73ffffffffffffffffffffffffffffffffffffffff166106b76104d4565b73ffffffffffffffffffffffffffffffffffffffff161461070d576040517f08c379a000000000000000000000000000000000000000000000000000000000815260040161070490611556565b60405180910390fd5b6107178282610dfc565b5050565b61072361089b565b73ffffffffffffffffffffffffffffffffffffffff166107416104d4565b73ffffffffffffffffffffffffffffffffffffffff1614610797576040517f08c379a000000000000000000000000000000000000000000000000000000000815260040161078e90611556565b60405180910390fd5b6107a081610e57565b50565b6107ab61089b565b73ffffffffffffffffffffffffffffffffffffffff166107c96104d4565b73ffffffffffffffffffffffffffffffffffffffff161461081f576040517f08c379a000000000000000000000000000000000000000000000000000000000815260040161081690611556565b60405180910390fd5b600073ffffffffffffffffffffffffffffffffffffffff168173ffffffffffffffffffffffffffffffffffffffff16141561088f576040517f08c379a0000000000000000000000000000000000000000000000000000000008152600401610886906115e8565b60405180910390fd5b61089881610a05565b50565b600033905090565b80600160006101000a81548173ffffffffffffffffffffffffffffffffffffffff021916908373ffffffffffffffffffffffffffffffffffffffff16021790555050565b60006108f283610f7d565b9050818160010160008282546109089190611637565b92505081905550600360009054906101000a900473ffffffffffffffffffffffffffffffffffffffff1673ffffffffffffffffffffffffffffffffffffffff166323b872dd3085856040518463ffffffff1660e01b815260040161096e9392919061166b565b6020604051808303816000875af115801561098d573d6000803e3d6000fd5b505050506040513d601f19601f820116820180604052508101906109b191906116b7565b508273ffffffffffffffffffffffffffffffffffffffff167f884edad9ce6fa2440d8a54cc123490eb96d2768479d49ff9c7366125a9424364836040516109f89190611439565b60405180910390a2505050565b60008060009054906101000a900473ffffffffffffffffffffffffffffffffffffffff169050816000806101000a81548173ffffffffffffffffffffffffffffffffffffffff021916908373ffffffffffffffffffffffffffffffffffffffff1602179055508173ffffffffffffffffffffffffffffffffffffffff168173ffffffffffffffffffffffffffffffffffffffff167f8be0079c531659141344cd1fd0a4f28419497f9722a3daafe3b4186f6b6457e060405160405180910390a35050565b600060028281548110610adf57610ade6116e4565b5b90600052602060002090600202019050919050565b6000610aff83610f7d565b90508160056000828254610b139190611713565b9250508190555081816001016000828254610b2e9190611713565b925050819055508273ffffffffffffffffffffffffffffffffffffffff167f8b01f9dd0400d6a1e84369a5fb8f6033934856ffa8ebadd707dca302ab55169583604051610b7b9190611439565b60405180910390a2610b8b610fc5565b505050565b6000600280549050905090565b6000610ba883610f7d565b90508160046000828254610bbc9190611713565b9250508190555081816000016000828254610bd79190611637565b925050819055508273ffffffffffffffffffffffffffffffffffffffff167fd3eec71143c45f28685b24760ea218d476917aa0ac0392a55e5304cef40bd2b683604051610c249190611439565b60405180910390a2505050565b600260405180604001604052808473ffffffffffffffffffffffffffffffffffffffff16815260200183815250908060018154018082558091505060019003906000526020600020906002020160009091909190915060008201518160000160006101000a81548173ffffffffffffffffffffffffffffffffffffffff021916908373ffffffffffffffffffffffffffffffffffffffff1602179055506020820151816001015550505050565b6000610ce983610f7d565b905081816000016000828254610cff9190611713565b92505081905550600360009054906101000a900473ffffffffffffffffffffffffffffffffffffffff1673ffffffffffffffffffffffffffffffffffffffff166323b872dd8430856040518463ffffffff1660e01b8152600401610d659392919061166b565b6020604051808303816000875af1158015610d84573d6000803e3d6000fd5b505050506040513d601f19601f82011682018060405250810190610da891906116b7565b508273ffffffffffffffffffffffffffffffffffffffff167fe1fffcc4923d04b559f4d29a8bfc6cda04eb5b0d3c460751c2402c5c5cc9109c83604051610def9190611439565b60405180910390a2505050565b80600660008473ffffffffffffffffffffffffffffffffffffffff1673ffffffffffffffffffffffffffffffffffffffff16815260200190815260200160002060006101000a81548160ff0219169083151502179055505050565b60026001600280549050610e6b9190611637565b81548110610e7c57610e7b6116e4565b5b906000526020600020906002020160028281548110610e9e57610e9d6116e4565b5b90600052602060002090600202016000820160009054906101000a900473ffffffffffffffffffffffffffffffffffffffff168160000160006101000a81548173ffffffffffffffffffffffffffffffffffffffff021916908373ffffffffffffffffffffffffffffffffffffffff160217905550600182015481600101559050506002805480610f3257610f31611769565b5b6001900381819060005260206000209060020201600080820160006101000a81549073ffffffffffffffffffffffffffffffffffffffff021916905560018201600090555050905550565b6000600760008373ffffffffffffffffffffffffffffffffffffffff1673ffffffffffffffffffffffffffffffffffffffff1681526020019081526020016000209050919050565b6000610fcf61103d565b9050600081131561103a5760008190508060056000828254610ff19190611713565b9250508190555061100181611054565b7f949da057e0c10ac8c590fc56cf17f0a7f8a424d6f373268e7fc205c8dcbc7bb4816040516110309190611439565b60405180910390a1505b50565b600060055460045461104f91906117a2565b905090565b60008060005b611062610b90565b8110156110965761107281610ac9565b60010154836110819190611713565b9250808061108e90611836565b91505061105a565b5081836110a391906118ae565b905060005b6110b0610b90565b8110156111f15760006110c282610ac9565b905060008160000160009054906101000a900473ffffffffffffffffffffffffffffffffffffffff16905060008483600101546110ff91906118df565b9050600160009054906101000a900473ffffffffffffffffffffffffffffffffffffffff1673ffffffffffffffffffffffffffffffffffffffff1663a9059cbb83836040518363ffffffff1660e01b815260040161115e929190611939565b6020604051808303816000875af115801561117d573d6000803e3d6000fd5b505050506040513d601f19601f820116820180604052508101906111a191906116b7565b507f58793df5f4d270351f09efd433db93c69432142b69dc7ee38195fc630478c79f82826040516111d3929190611939565b60405180910390a150505080806111e990611836565b9150506110a8565b50505050565b6040518060400160405280600073ffffffffffffffffffffffffffffffffffffffff168152602001600081525090565b600080fd5b600073ffffffffffffffffffffffffffffffffffffffff82169050919050565b60006112578261122c565b9050919050565b60006112698261124c565b9050919050565b6112798161125e565b811461128457600080fd5b50565b60008135905061129681611270565b92915050565b6000602082840312156112b2576112b1611227565b5b60006112c084828501611287565b91505092915050565b6000819050919050565b6112dc816112c9565b81146112e757600080fd5b50565b6000813590506112f9816112d3565b92915050565b60006020828403121561131557611314611227565b5b6000611323848285016112ea565b91505092915050565b6113358161124c565b82525050565b611344816112c9565b82525050565b604082016000820151611360600085018261132c565b506020820151611373602085018261133b565b50505050565b600060408201905061138e600083018461134a565b92915050565b61139d8161124c565b81146113a857600080fd5b50565b6000813590506113ba81611394565b92915050565b600080604083850312156113d7576113d6611227565b5b60006113e5858286016113ab565b92505060206113f6858286016112ea565b9150509250929050565b6114098161124c565b82525050565b60006020820190506114246000830184611400565b92915050565b611433816112c9565b82525050565b600060208201905061144e600083018461142a565b92915050565b60008115159050919050565b61146981611454565b811461147457600080fd5b50565b60008135905061148681611460565b92915050565b600080604083850312156114a3576114a2611227565b5b60006114b1858286016113ab565b92505060206114c285828601611477565b9150509250929050565b6000602082840312156114e2576114e1611227565b5b60006114f0848285016113ab565b91505092915050565b600082825260208201905092915050565b7f4f776e61626c653a2063616c6c6572206973206e6f7420746865206f776e6572600082015250565b60006115406020836114f9565b915061154b8261150a565b602082019050919050565b6000602082019050818103600083015261156f81611533565b9050919050565b7f4f776e61626c653a206e6577206f776e657220697320746865207a65726f206160008201527f6464726573730000000000000000000000000000000000000000000000000000602082015250565b60006115d26026836114f9565b91506115dd82611576565b604082019050919050565b60006020820190508181036000830152611601816115c5565b9050919050565b7f4e487b7100000000000000000000000000000000000000000000000000000000600052601160045260246000fd5b6000611642826112c9565b915061164d836112c9565b9250828210156116605761165f611608565b5b828203905092915050565b60006060820190506116806000830186611400565b61168d6020830185611400565b61169a604083018461142a565b949350505050565b6000815190506116b181611460565b92915050565b6000602082840312156116cd576116cc611227565b5b60006116db848285016116a2565b91505092915050565b7f4e487b7100000000000000000000000000000000000000000000000000000000600052603260045260246000fd5b600061171e826112c9565b9150611729836112c9565b9250827fffffffffffffffffffffffffffffffffffffffffffffffffffffffffffffffff0382111561175e5761175d611608565b5b828201905092915050565b7f4e487b7100000000000000000000000000000000000000000000000000000000600052603160045260246000fd5b6000819050919050565b60006117ad82611798565b91506117b883611798565b9250827f8000000000000000000000000000000000000000000000000000000000000000018212600084121516156117f3576117f2611608565b5b827f7fffffffffffffffffffffffffffffffffffffffffffffffffffffffffffffff01821360008412161561182b5761182a611608565b5b828203905092915050565b6000611841826112c9565b91507fffffffffffffffffffffffffffffffffffffffffffffffffffffffffffffffff82141561187457611873611608565b5b600182019050919050565b7f4e487b7100000000000000000000000000000000000000000000000000000000600052601260045260246000fd5b60006118b9826112c9565b91506118c4836112c9565b9250826118d4576118d361187f565b5b828204905092915050565b60006118ea826112c9565b91506118f5836112c9565b9250817fffffffffffffffffffffffffffffffffffffffffffffffffffffffffffffffff048311821515161561192e5761192d611608565b5b828202905092915050565b600060408201905061194e6000830185611400565b61195b602083018461142a565b939250505056fea2646970667358221220d4e08e60ad72ce1550ebb43626c17c0788966fbb248748813d8192669a96161d64736f6c634300080a0033",
  "immutableReferences": {},
  "source": "//SPDX-License-Identifier: MIT\r\n\r\npragma solidity ^0.8.0;\r\nimport \"@openzeppelin/contracts/token/ERC20/IERC20.sol\";\r\nimport \"@openzeppelin/contracts/utils/Context.sol\";\r\nimport \"@openzeppelin/contracts/access/Ownable.sol\";\r\nimport \"luk1529_solidity/contracts/fee/FeeTakersERC20.sol\";\r\n\r\ncontract Bankroll is Context, Ownable, FeeTakers {\r\n    IERC20 _XYA;\r\n    \r\n    \r\n    uint _totalInflow;\r\n    uint _totalOutflow;\r\n\r\n\r\n    constructor(IERC20 XYA_) FeeTakers(XYA_) {\r\n        _setXYA(XYA_);\r\n    }\r\n\r\n    struct PlayerData {\r\n        uint credit;\r\n        uint bank; \r\n        uint totalSpent;\r\n        uint totalWon;\r\n    }\r\n\r\n\r\n    event Deposit(address indexed from, uint amount);\r\n    event Withdraw(address indexed to, uint amount);\r\n    event Won(address indexed to, uint amount);\r\n    event Spent(address indexed from, uint amount);\r\n\r\n    event ProfitTaken(uint amount);\r\n\r\n    mapping(address => bool) _approved;\r\n    mapping(address => PlayerData) _playerData;\r\n\r\n\r\n    //user can deposit to their credit balance and withdraw funds from their bank balance\r\n    function deposit(uint amount) public {\r\n        _depositFrom(_msgSender(), amount);\r\n    }\r\n    function withdraw(uint amount) public {\r\n        _withdrawTo(_msgSender(), amount);\r\n    }\r\n\r\n\r\n    //approved contracts (games) can take funds from players' credit balances and award funds to their bank balances\r\n    function playFrom(address player, uint amount) public onlyApproved {\r\n        _playFrom(player, amount);\r\n    }\r\n    function winTo(address player, uint amount) public onlyApproved {\r\n        _winTo(player, amount);\r\n    }\r\n\r\n\r\n    //audit which contracts can spend on behalf of players in Freyala's casino\r\n    function setApproval(address addr, bool approval) public onlyOwner {\r\n        _setApproval(addr, approval);\r\n    }\r\n\r\n    modifier onlyApproved() {\r\n        require(_approved[_msgSender()]);\r\n        _;\r\n    }\r\n\r\n\r\n    function _getPlayerData(address player) private view returns(PlayerData storage) {\r\n        return _playerData[player];\r\n    }\r\n\r\n    function _depositFrom(address player, uint amount) private {\r\n        PlayerData storage playerData = _getPlayerData(player);\r\n        playerData.credit += amount;\r\n        _XYA.transferFrom(player, address(this), amount);\r\n        emit Deposit(player, amount);\r\n    }\r\n\r\n    function _withdrawTo(address player, uint amount) private {\r\n        PlayerData storage playerData = _getPlayerData(player);\r\n        playerData.bank -= amount;\r\n        _XYA.transferFrom(address(this), player, amount);\r\n        emit Withdraw(player, amount);\r\n    }\r\n\r\n    function _playFrom(address player, uint amount) private {\r\n        PlayerData storage playerData = _getPlayerData(player);\r\n        _totalInflow += amount;\r\n        playerData.credit -= amount;\r\n        emit Spent(player, amount);\r\n    }\r\n\r\n    function _winTo(address player, uint amount) private {\r\n        PlayerData storage playerData = _getPlayerData(player);\r\n        _totalOutflow += amount;\r\n        playerData.bank += amount;\r\n        emit Won(player, amount);\r\n        _takeProfit();\r\n    }\r\n\r\n    function _getNetBalance() private view returns(int netProfit) {\r\n        netProfit = int(_totalInflow) - int(_totalOutflow);\r\n    }\r\n\r\n    function _takeProfit() private {\r\n        int profit = _getNetBalance();\r\n        if(profit > 0) {\r\n            uint toDistribute = uint(profit);\r\n            _totalOutflow += toDistribute;\r\n            _distributeFee(toDistribute);\r\n            emit ProfitTaken(toDistribute);\r\n        }\r\n    }\r\n\r\n    function _setApproval(address addr, bool approval) private {\r\n        _approved[addr] = approval;\r\n    }\r\n\r\n    function _setXYA(IERC20 XYA_) private {\r\n        _XYA = XYA_;\r\n    }\r\n\r\n    \r\n}",
  "sourcePath": "C:\\Users\\lukey\\Documents\\Blockchain\\XYA\\Casino\\contracts\\bankroll\\Bankroll.sol",
  "compiler": {
    "name": "solc",
    "version": "0.8.10+commit.fc410830.Emscripten.clang"
  },
  "schemaVersion": "3.4.3",
  "updatedAt": "2021-11-28T16:56:06.827Z",
  "devdoc": {
    "kind": "dev",
    "methods": {
      "owner()": {
        "details": "Returns the address of the current owner."
      },
      "renounceOwnership()": {
        "details": "Leaves the contract without owner. It will not be possible to call `onlyOwner` functions anymore. Can only be called by the current owner. NOTE: Renouncing ownership will leave the contract without an owner, thereby removing any functionality that is only available to the owner."
      },
      "transferOwnership(address)": {
        "details": "Transfers ownership of the contract to a new account (`newOwner`). Can only be called by the current owner."
      }
    },
    "version": 1
  },
  "userdoc": {
    "kind": "user",
    "methods": {},
    "version": 1
  }
}