{
  "contractName": "Casino",
  "abi": [
    {
      "inputs": [
        {
          "internalType": "contract IERC20",
          "name": "_XYA",
          "type": "address"
        }
      ],
      "stateMutability": "nonpayable",
      "type": "constructor"
    },
    {
      "anonymous": false,
      "inputs": [
        {
          "indexed": true,
          "internalType": "address",
          "name": "from",
          "type": "address"
        },
        {
          "indexed": false,
          "internalType": "uint256",
          "name": "amount",
          "type": "uint256"
        }
      ],
      "name": "Deposit",
      "type": "event"
    },
    {
      "anonymous": false,
      "inputs": [
        {
          "indexed": true,
          "internalType": "address",
          "name": "to",
          "type": "address"
        },
        {
          "indexed": false,
          "internalType": "uint256",
          "name": "amount",
          "type": "uint256"
        }
      ],
      "name": "Withdraw",
      "type": "event"
    },
    {
      "inputs": [
        {
          "internalType": "uint256",
          "name": "_amount",
          "type": "uint256"
        }
      ],
      "name": "deposit",
      "outputs": [],
      "stateMutability": "nonpayable",
      "type": "function"
    },
    {
      "inputs": [
        {
          "internalType": "uint256",
          "name": "_amount",
          "type": "uint256"
        }
      ],
      "name": "withdraw",
      "outputs": [],
      "stateMutability": "nonpayable",
      "type": "function"
    }
  ],
  "bytecode": "0x608060405234801561001057600080fd5b50604051610674380380610674833981810160405281019061003291906100ed565b806000806101000a81548173ffffffffffffffffffffffffffffffffffffffff021916908373ffffffffffffffffffffffffffffffffffffffff1602179055505061011a565b600080fd5b600073ffffffffffffffffffffffffffffffffffffffff82169050919050565b60006100a88261007d565b9050919050565b60006100ba8261009d565b9050919050565b6100ca816100af565b81146100d557600080fd5b50565b6000815190506100e7816100c1565b92915050565b60006020828403121561010357610102610078565b5b6000610111848285016100d8565b91505092915050565b61054b806101296000396000f3fe608060405234801561001057600080fd5b50600436106100365760003560e01c80632e1a7d4d1461003b578063b6b55f2514610057575b600080fd5b61005560048036038101906100509190610328565b610073565b005b610071600480360381019061006c9190610328565b610087565b005b61008461007e61009b565b826100a3565b50565b61009861009261009b565b826101a1565b50565b600033905090565b80600e60008473ffffffffffffffffffffffffffffffffffffffff1673ffffffffffffffffffffffffffffffffffffffff16815260200190815260200160002060010160008282546100f59190610384565b9250508190555060008054906101000a900473ffffffffffffffffffffffffffffffffffffffff1673ffffffffffffffffffffffffffffffffffffffff166323b872dd3084846040518463ffffffff1660e01b815260040161015993929190610408565b6020604051808303816000875af1158015610178573d6000803e3d6000fd5b505050506040513d601f19601f8201168201806040525081019061019c9190610477565b505050565b60008054906101000a900473ffffffffffffffffffffffffffffffffffffffff1673ffffffffffffffffffffffffffffffffffffffff166323b872dd8330846040518463ffffffff1660e01b81526004016101fe93929190610408565b6020604051808303816000875af115801561021d573d6000803e3d6000fd5b505050506040513d601f19601f820116820180604052508101906102419190610477565b5080600e60008473ffffffffffffffffffffffffffffffffffffffff1673ffffffffffffffffffffffffffffffffffffffff168152602001908152602001600020600001600082825461029491906104a4565b925050819055508173ffffffffffffffffffffffffffffffffffffffff167fe1fffcc4923d04b559f4d29a8bfc6cda04eb5b0d3c460751c2402c5c5cc9109c826040516102e191906104fa565b60405180910390a25050565b600080fd5b6000819050919050565b610305816102f2565b811461031057600080fd5b50565b600081359050610322816102fc565b92915050565b60006020828403121561033e5761033d6102ed565b5b600061034c84828501610313565b91505092915050565b7f4e487b7100000000000000000000000000000000000000000000000000000000600052601160045260246000fd5b600061038f826102f2565b915061039a836102f2565b9250828210156103ad576103ac610355565b5b828203905092915050565b600073ffffffffffffffffffffffffffffffffffffffff82169050919050565b60006103e3826103b8565b9050919050565b6103f3816103d8565b82525050565b610402816102f2565b82525050565b600060608201905061041d60008301866103ea565b61042a60208301856103ea565b61043760408301846103f9565b949350505050565b60008115159050919050565b6104548161043f565b811461045f57600080fd5b50565b6000815190506104718161044b565b92915050565b60006020828403121561048d5761048c6102ed565b5b600061049b84828501610462565b91505092915050565b60006104af826102f2565b91506104ba836102f2565b9250827fffffffffffffffffffffffffffffffffffffffffffffffffffffffffffffffff038211156104ef576104ee610355565b5b828201905092915050565b600060208201905061050f60008301846103f9565b9291505056fea264697066735822122002cb474fc4b25271669bf550b0b17ffefbcf58bc3c0fb4840c9fc85e0e79ca6064736f6c634300080a0033",
  "immutableReferences": {},
  "source": "//SPDX-License-Identifier: MIT\r\n\r\npragma solidity ^0.8.0;\r\nimport \"@openzeppelin/contracts/token/ERC20/IERC20.sol\";\r\nimport \"@openzeppelin/contracts/utils/Context.sol\";\r\n\r\ncontract Casino is Context {\r\n    IERC20 XYA;\r\n\r\n    address[10] leaderboard;\r\n    \r\n    uint totalInflow;\r\n    uint totalOutflow;\r\n\r\n    constructor(IERC20 _XYA) {\r\n        XYA = _XYA;\r\n    }\r\n\r\n    struct PlayerData {\r\n        uint credit;\r\n        uint bank; \r\n        uint totalSpent;\r\n        uint totalWon;\r\n    }\r\n\r\n    event Deposit(address indexed from, uint amount);\r\n    event Withdraw(address indexed to, uint amount);\r\n\r\n    mapping(address => bool) _approvedGames;\r\n    mapping(address => PlayerData) _playerData;\r\n\r\n    function deposit(uint _amount) public {\r\n        _deposit(_msgSender(), _amount);\r\n    }\r\n    function withdraw(uint _amount) public {\r\n        _withdraw(_msgSender(), _amount);\r\n    }\r\n\r\n    function _deposit(address _from, uint _amount) private {\r\n        XYA.transferFrom(_from, address(this), _amount);\r\n        _playerData[_from].credit += _amount;\r\n        emit Deposit(_from, _amount);\r\n    }\r\n    function _withdraw(address _to, uint _amount) private {\r\n        _playerData[_to].bank -= _amount;\r\n        XYA.transferFrom(address(this), _to, _amount);\r\n    }\r\n\r\n    function _registerBet(address _for, uint _amount) private {\r\n        _playerData[_for].credit -= _amount;\r\n        totalInflow += _amount;\r\n    }\r\n    function _registerWin(address _for, uint _amount) private {\r\n        _playerData[_for].bank += _amount;\r\n        totalOutflow += _amount;\r\n    }\r\n    \r\n    function _setApproval(address _for, bool _approval) private {\r\n        _approvedGames[_for] = _approval;\r\n    }\r\n    modifier _isApproved(address _game) {\r\n        require(_approvedGames[_game], \"Please register this game as part of the casino.\");\r\n        _;\r\n    }\r\n\r\n    \r\n}",
  "sourcePath": "C:\\Users\\lukey\\Documents\\vscode\\projects\\XYA\\Casino\\contracts\\bankroll\\Bankroll.sol",
  "compiler": {
    "name": "solc",
    "version": "0.8.10+commit.fc410830.Emscripten.clang"
  },
  "schemaVersion": "3.4.3",
  "updatedAt": "2021-11-20T23:18:09.502Z",
  "devdoc": {
    "kind": "dev",
    "methods": {},
    "version": 1
  },
  "userdoc": {
    "kind": "user",
    "methods": {},
    "version": 1
  }
}