{
  "contractName": "FeeTakers",
  "abi": [
    {
      "inputs": [
        {
          "internalType": "contract IERC20",
          "name": "Token_",
          "type": "address"
        }
      ],
      "stateMutability": "nonpayable",
      "type": "constructor"
    },
    {
      "anonymous": false,
      "inputs": [
        {
          "indexed": false,
          "internalType": "address",
          "name": "to",
          "type": "address"
        },
        {
          "indexed": false,
          "internalType": "uint256",
          "name": "amount",
          "type": "uint256"
        }
      ],
      "name": "FeeSent",
      "type": "event"
    },
    {
      "anonymous": false,
      "inputs": [
        {
          "indexed": true,
          "internalType": "address",
          "name": "previousOwner",
          "type": "address"
        },
        {
          "indexed": true,
          "internalType": "address",
          "name": "newOwner",
          "type": "address"
        }
      ],
      "name": "OwnershipTransferred",
      "type": "event"
    },
    {
      "inputs": [],
      "name": "owner",
      "outputs": [
        {
          "internalType": "address",
          "name": "",
          "type": "address"
        }
      ],
      "stateMutability": "view",
      "type": "function"
    },
    {
      "inputs": [],
      "name": "renounceOwnership",
      "outputs": [],
      "stateMutability": "nonpayable",
      "type": "function"
    },
    {
      "inputs": [
        {
          "internalType": "address",
          "name": "newOwner",
          "type": "address"
        }
      ],
      "name": "transferOwnership",
      "outputs": [],
      "stateMutability": "nonpayable",
      "type": "function"
    },
    {
      "inputs": [
        {
          "internalType": "contract IERC20",
          "name": "Token_",
          "type": "address"
        }
      ],
      "name": "setToken",
      "outputs": [],
      "stateMutability": "nonpayable",
      "type": "function"
    },
    {
      "inputs": [],
      "name": "getFeeTakersLength",
      "outputs": [
        {
          "internalType": "uint256",
          "name": "",
          "type": "uint256"
        }
      ],
      "stateMutability": "view",
      "type": "function"
    },
    {
      "inputs": [
        {
          "internalType": "uint256",
          "name": "index",
          "type": "uint256"
        }
      ],
      "name": "getFeeTakerAt",
      "outputs": [
        {
          "components": [
            {
              "internalType": "address",
              "name": "addr",
              "type": "address"
            },
            {
              "internalType": "uint256",
              "name": "points",
              "type": "uint256"
            }
          ],
          "internalType": "struct FeeTakers.FeeTaker",
          "name": "",
          "type": "tuple"
        }
      ],
      "stateMutability": "view",
      "type": "function"
    },
    {
      "inputs": [
        {
          "internalType": "address",
          "name": "addr",
          "type": "address"
        },
        {
          "internalType": "uint256",
          "name": "points",
          "type": "uint256"
        }
      ],
      "name": "addToFeeTakers",
      "outputs": [],
      "stateMutability": "nonpayable",
      "type": "function"
    },
    {
      "inputs": [
        {
          "internalType": "uint256",
          "name": "index",
          "type": "uint256"
        }
      ],
      "name": "removeFromFeeTakers",
      "outputs": [],
      "stateMutability": "nonpayable",
      "type": "function"
    }
  ],
  "bytecode": "0x60806040523480156200001157600080fd5b506040516200102a3803806200102a8339818101604052810190620000379190620001fd565b620000576200004b6200006f60201b60201c565b6200007760201b60201c565b62000068816200013b60201b60201c565b506200022f565b600033905090565b60008060009054906101000a900473ffffffffffffffffffffffffffffffffffffffff169050816000806101000a81548173ffffffffffffffffffffffffffffffffffffffff021916908373ffffffffffffffffffffffffffffffffffffffff1602179055508173ffffffffffffffffffffffffffffffffffffffff168173ffffffffffffffffffffffffffffffffffffffff167f8be0079c531659141344cd1fd0a4f28419497f9722a3daafe3b4186f6b6457e060405160405180910390a35050565b80600160006101000a81548173ffffffffffffffffffffffffffffffffffffffff021916908373ffffffffffffffffffffffffffffffffffffffff16021790555050565b600080fd5b600073ffffffffffffffffffffffffffffffffffffffff82169050919050565b6000620001b18262000184565b9050919050565b6000620001c582620001a4565b9050919050565b620001d781620001b8565b8114620001e357600080fd5b50565b600081519050620001f781620001cc565b92915050565b6000602082840312156200021657620002156200017f565b5b60006200022684828501620001e6565b91505092915050565b610deb806200023f6000396000f3fe608060405234801561001057600080fd5b50600436106100885760003560e01c8063a19ab0e01161005b578063a19ab0e014610101578063ad3be3011461011f578063e41515c61461013b578063f2fde38b1461015757610088565b8063144fa6d71461008d578063715018a6146100a957806387bca547146100b35780638da5cb5b146100e3575b600080fd5b6100a760048036038101906100a29190610a00565b610173565b005b6100b16101fb565b005b6100cd60048036038101906100c89190610a63565b610283565b6040516100da9190610add565b60405180910390f35b6100eb610382565b6040516100f89190610b07565b60405180910390f35b6101096103ab565b6040516101169190610b31565b60405180910390f35b61013960048036038101906101349190610b78565b610436565b005b61015560048036038101906101509190610a63565b6104c0565b005b610171600480360381019061016c9190610bb8565b610548565b005b61017b610640565b73ffffffffffffffffffffffffffffffffffffffff16610199610382565b73ffffffffffffffffffffffffffffffffffffffff16146101ef576040517f08c379a00000000000000000000000000000000000000000000000000000000081526004016101e690610c42565b60405180910390fd5b6101f881610648565b50565b610203610640565b73ffffffffffffffffffffffffffffffffffffffff16610221610382565b73ffffffffffffffffffffffffffffffffffffffff1614610277576040517f08c379a000000000000000000000000000000000000000000000000000000000815260040161026e90610c42565b60405180910390fd5b610281600061068c565b565b61028b61095b565b610293610640565b73ffffffffffffffffffffffffffffffffffffffff166102b1610382565b73ffffffffffffffffffffffffffffffffffffffff1614610307576040517f08c379a00000000000000000000000000000000000000000000000000000000081526004016102fe90610c42565b60405180910390fd5b61031082610750565b6040518060400160405290816000820160009054906101000a900473ffffffffffffffffffffffffffffffffffffffff1673ffffffffffffffffffffffffffffffffffffffff1673ffffffffffffffffffffffffffffffffffffffff1681526020016001820154815250509050919050565b60008060009054906101000a900473ffffffffffffffffffffffffffffffffffffffff16905090565b60006103b5610640565b73ffffffffffffffffffffffffffffffffffffffff166103d3610382565b73ffffffffffffffffffffffffffffffffffffffff1614610429576040517f08c379a000000000000000000000000000000000000000000000000000000000815260040161042090610c42565b60405180910390fd5b61043161077b565b905090565b61043e610640565b73ffffffffffffffffffffffffffffffffffffffff1661045c610382565b73ffffffffffffffffffffffffffffffffffffffff16146104b2576040517f08c379a00000000000000000000000000000000000000000000000000000000081526004016104a990610c42565b60405180910390fd5b6104bc8282610788565b5050565b6104c8610640565b73ffffffffffffffffffffffffffffffffffffffff166104e6610382565b73ffffffffffffffffffffffffffffffffffffffff161461053c576040517f08c379a000000000000000000000000000000000000000000000000000000000815260040161053390610c42565b60405180910390fd5b61054581610835565b50565b610550610640565b73ffffffffffffffffffffffffffffffffffffffff1661056e610382565b73ffffffffffffffffffffffffffffffffffffffff16146105c4576040517f08c379a00000000000000000000000000000000000000000000000000000000081526004016105bb90610c42565b60405180910390fd5b600073ffffffffffffffffffffffffffffffffffffffff168173ffffffffffffffffffffffffffffffffffffffff161415610634576040517f08c379a000000000000000000000000000000000000000000000000000000000815260040161062b90610cd4565b60405180910390fd5b61063d8161068c565b50565b600033905090565b80600160006101000a81548173ffffffffffffffffffffffffffffffffffffffff021916908373ffffffffffffffffffffffffffffffffffffffff16021790555050565b60008060009054906101000a900473ffffffffffffffffffffffffffffffffffffffff169050816000806101000a81548173ffffffffffffffffffffffffffffffffffffffff021916908373ffffffffffffffffffffffffffffffffffffffff1602179055508173ffffffffffffffffffffffffffffffffffffffff168173ffffffffffffffffffffffffffffffffffffffff167f8be0079c531659141344cd1fd0a4f28419497f9722a3daafe3b4186f6b6457e060405160405180910390a35050565b60006002828154811061076657610765610cf4565b5b90600052602060002090600202019050919050565b6000600280549050905090565b600260405180604001604052808473ffffffffffffffffffffffffffffffffffffffff16815260200183815250908060018154018082558091505060019003906000526020600020906002020160009091909190915060008201518160000160006101000a81548173ffffffffffffffffffffffffffffffffffffffff021916908373ffffffffffffffffffffffffffffffffffffffff1602179055506020820151816001015550505050565b600260016002805490506108499190610d52565b8154811061085a57610859610cf4565b5b90600052602060002090600202016002828154811061087c5761087b610cf4565b5b90600052602060002090600202016000820160009054906101000a900473ffffffffffffffffffffffffffffffffffffffff168160000160006101000a81548173ffffffffffffffffffffffffffffffffffffffff021916908373ffffffffffffffffffffffffffffffffffffffff1602179055506001820154816001015590505060028054806109105761090f610d86565b5b6001900381819060005260206000209060020201600080820160006101000a81549073ffffffffffffffffffffffffffffffffffffffff021916905560018201600090555050905550565b6040518060400160405280600073ffffffffffffffffffffffffffffffffffffffff168152602001600081525090565b600080fd5b600073ffffffffffffffffffffffffffffffffffffffff82169050919050565b60006109bb82610990565b9050919050565b60006109cd826109b0565b9050919050565b6109dd816109c2565b81146109e857600080fd5b50565b6000813590506109fa816109d4565b92915050565b600060208284031215610a1657610a1561098b565b5b6000610a24848285016109eb565b91505092915050565b6000819050919050565b610a4081610a2d565b8114610a4b57600080fd5b50565b600081359050610a5d81610a37565b92915050565b600060208284031215610a7957610a7861098b565b5b6000610a8784828501610a4e565b91505092915050565b610a99816109b0565b82525050565b610aa881610a2d565b82525050565b604082016000820151610ac46000850182610a90565b506020820151610ad76020850182610a9f565b50505050565b6000604082019050610af26000830184610aae565b92915050565b610b01816109b0565b82525050565b6000602082019050610b1c6000830184610af8565b92915050565b610b2b81610a2d565b82525050565b6000602082019050610b466000830184610b22565b92915050565b610b55816109b0565b8114610b6057600080fd5b50565b600081359050610b7281610b4c565b92915050565b60008060408385031215610b8f57610b8e61098b565b5b6000610b9d85828601610b63565b9250506020610bae85828601610a4e565b9150509250929050565b600060208284031215610bce57610bcd61098b565b5b6000610bdc84828501610b63565b91505092915050565b600082825260208201905092915050565b7f4f776e61626c653a2063616c6c6572206973206e6f7420746865206f776e6572600082015250565b6000610c2c602083610be5565b9150610c3782610bf6565b602082019050919050565b60006020820190508181036000830152610c5b81610c1f565b9050919050565b7f4f776e61626c653a206e6577206f776e657220697320746865207a65726f206160008201527f6464726573730000000000000000000000000000000000000000000000000000602082015250565b6000610cbe602683610be5565b9150610cc982610c62565b604082019050919050565b60006020820190508181036000830152610ced81610cb1565b9050919050565b7f4e487b7100000000000000000000000000000000000000000000000000000000600052603260045260246000fd5b7f4e487b7100000000000000000000000000000000000000000000000000000000600052601160045260246000fd5b6000610d5d82610a2d565b9150610d6883610a2d565b925082821015610d7b57610d7a610d23565b5b828203905092915050565b7f4e487b7100000000000000000000000000000000000000000000000000000000600052603160045260246000fdfea2646970667358221220d044fd34064a2b36444e222bab6bf03cd093803007174473a2af9b72e8a5a6a164736f6c634300080a0033",
  "immutableReferences": {},
  "source": "//SPDX-License-Identifier: MIT\r\npragma solidity ^0.8.0;\r\nimport \"@openzeppelin/contracts/access/Ownable.sol\";\r\nimport \"@openzeppelin/contracts/token/ERC20/IERC20.sol\";\r\n\r\n\r\ncontract FeeTakers is Ownable {\r\n\r\n    constructor(IERC20 Token_) {\r\n        _setToken(Token_);\r\n    }\r\n\r\n    IERC20 _Token;\r\n\r\n    struct FeeTaker {\r\n        address addr;\r\n        uint points;\r\n    }\r\n    FeeTaker[] _feeTakers;\r\n\r\n    event FeeSent(address to, uint amount);    \r\n\r\n    //set the token address\r\n    function setToken(IERC20 Token_) public onlyOwner {\r\n        _setToken(Token_);\r\n    }\r\n\r\n    //manage where profit is sent to\r\n    function getFeeTakersLength() public view onlyOwner returns(uint) {\r\n        return _getFeeTakersLength();\r\n    }\r\n    function getFeeTakerAt(uint index) public view onlyOwner returns(FeeTaker memory) {\r\n        return _getFeeTakerAt(index);\r\n    }\r\n    function addToFeeTakers(address addr, uint points) public onlyOwner {\r\n        _addToFeeTakers(addr, points);\r\n    }\r\n    function removeFromFeeTakers(uint index) public onlyOwner {\r\n        _removeFromFeeTakers(index);\r\n    }\r\n\r\n\r\n    function _getFeeTakersLength() private view returns(uint) {\r\n        return _feeTakers.length;\r\n    }\r\n    function _getFeeTakerAt(uint index) private view returns(FeeTaker storage) {\r\n        return _feeTakers[index];\r\n    }\r\n    function _addToFeeTakers(address addr, uint points) private {\r\n        _feeTakers.push(FeeTaker(addr, points));\r\n    }\r\n    function _removeFromFeeTakers(uint index) private {\r\n        _feeTakers[index] = _feeTakers[_feeTakers.length - 1];\r\n        _feeTakers.pop();\r\n    }\r\n\r\n\r\n    function _distributeFee(uint fee) internal {\r\n        uint feePoints;\r\n        uint feePerPoint;\r\n        for(uint i; i < _getFeeTakersLength(); i ++) {\r\n            feePoints += _getFeeTakerAt(i).points;\r\n        }\r\n        feePerPoint = fee / feePoints;\r\n        for(uint i; i < _getFeeTakersLength(); i ++) {\r\n            FeeTaker storage feeTaker = _getFeeTakerAt(i);\r\n            address feeTakerAddr = feeTaker.addr;\r\n            uint toSend = feeTaker.points * feePerPoint;\r\n            _Token.transfer(feeTakerAddr, toSend);\r\n            emit FeeSent(feeTakerAddr, toSend);\r\n        }\r\n    }\r\n\r\n\r\n    function _setToken(IERC20 Token_) private {\r\n        _Token = Token_;\r\n    }\r\n}",
  "sourcePath": "luk1529_solidity\\contracts\\fee\\FeeTakersERC20.sol",
  "compiler": {
    "name": "solc",
    "version": "0.8.10+commit.fc410830.Emscripten.clang"
  },
  "schemaVersion": "3.4.3",
  "updatedAt": "2021-11-28T16:56:06.786Z",
  "devdoc": {
    "kind": "dev",
    "methods": {
      "owner()": {
        "details": "Returns the address of the current owner."
      },
      "renounceOwnership()": {
        "details": "Leaves the contract without owner. It will not be possible to call `onlyOwner` functions anymore. Can only be called by the current owner. NOTE: Renouncing ownership will leave the contract without an owner, thereby removing any functionality that is only available to the owner."
      },
      "transferOwnership(address)": {
        "details": "Transfers ownership of the contract to a new account (`newOwner`). Can only be called by the current owner."
      }
    },
    "version": 1
  },
  "userdoc": {
    "kind": "user",
    "methods": {},
    "version": 1
  }
}