{
  "contractName": "Roulette",
  "abi": [
    {
      "inputs": [
        {
          "internalType": "contract IERC20",
          "name": "_XYA",
          "type": "address"
        },
        {
          "internalType": "uint256",
          "name": "_numberOfSpaces",
          "type": "uint256"
        }
      ],
      "stateMutability": "nonpayable",
      "type": "constructor"
    },
    {
      "anonymous": false,
      "inputs": [
        {
          "indexed": true,
          "internalType": "address",
          "name": "player",
          "type": "address"
        },
        {
          "indexed": false,
          "internalType": "string",
          "name": "betType",
          "type": "string"
        },
        {
          "indexed": false,
          "internalType": "uint256",
          "name": "number",
          "type": "uint256"
        },
        {
          "indexed": false,
          "internalType": "uint256",
          "name": "bet",
          "type": "uint256"
        }
      ],
      "name": "BetOn",
      "type": "event"
    },
    {
      "anonymous": false,
      "inputs": [
        {
          "indexed": true,
          "internalType": "address",
          "name": "previousOwner",
          "type": "address"
        },
        {
          "indexed": true,
          "internalType": "address",
          "name": "newOwner",
          "type": "address"
        }
      ],
      "name": "OwnershipTransferred",
      "type": "event"
    },
    {
      "anonymous": false,
      "inputs": [
        {
          "components": [
            {
              "internalType": "uint256",
              "name": "number",
              "type": "uint256"
            },
            {
              "internalType": "string",
              "name": "colour",
              "type": "string"
            }
          ],
          "indexed": false,
          "internalType": "struct Roulette.Space",
          "name": "space",
          "type": "tuple"
        }
      ],
      "name": "Spun",
      "type": "event"
    },
    {
      "anonymous": false,
      "inputs": [
        {
          "indexed": true,
          "internalType": "address",
          "name": "player",
          "type": "address"
        },
        {
          "indexed": false,
          "internalType": "uint256",
          "name": "amount",
          "type": "uint256"
        }
      ],
      "name": "Won",
      "type": "event"
    },
    {
      "inputs": [],
      "name": "owner",
      "outputs": [
        {
          "internalType": "address",
          "name": "",
          "type": "address"
        }
      ],
      "stateMutability": "view",
      "type": "function"
    },
    {
      "inputs": [],
      "name": "renounceOwnership",
      "outputs": [],
      "stateMutability": "nonpayable",
      "type": "function"
    },
    {
      "inputs": [
        {
          "internalType": "address",
          "name": "newOwner",
          "type": "address"
        }
      ],
      "name": "transferOwnership",
      "outputs": [],
      "stateMutability": "nonpayable",
      "type": "function"
    },
    {
      "inputs": [],
      "name": "getWheel",
      "outputs": [
        {
          "components": [
            {
              "internalType": "uint256",
              "name": "number",
              "type": "uint256"
            },
            {
              "internalType": "string",
              "name": "colour",
              "type": "string"
            }
          ],
          "internalType": "struct Roulette.Space[]",
          "name": "",
          "type": "tuple[]"
        }
      ],
      "stateMutability": "view",
      "type": "function"
    },
    {
      "inputs": [],
      "name": "getLastSpace",
      "outputs": [
        {
          "components": [
            {
              "internalType": "uint256",
              "name": "number",
              "type": "uint256"
            },
            {
              "internalType": "string",
              "name": "colour",
              "type": "string"
            }
          ],
          "internalType": "struct Roulette.Space",
          "name": "",
          "type": "tuple"
        }
      ],
      "stateMutability": "view",
      "type": "function"
    },
    {
      "inputs": [],
      "name": "getTimeLeft",
      "outputs": [
        {
          "internalType": "uint256",
          "name": "",
          "type": "uint256"
        }
      ],
      "stateMutability": "view",
      "type": "function"
    },
    {
      "inputs": [],
      "name": "getCurrentBets",
      "outputs": [
        {
          "components": [
            {
              "internalType": "address",
              "name": "player",
              "type": "address"
            },
            {
              "internalType": "string",
              "name": "betType",
              "type": "string"
            },
            {
              "internalType": "uint256",
              "name": "number",
              "type": "uint256"
            },
            {
              "internalType": "uint256",
              "name": "bet",
              "type": "uint256"
            }
          ],
          "internalType": "struct Roulette.Bet[]",
          "name": "",
          "type": "tuple[]"
        }
      ],
      "stateMutability": "view",
      "type": "function"
    },
    {
      "inputs": [],
      "name": "getLastRoundWinningBets",
      "outputs": [
        {
          "components": [
            {
              "internalType": "address",
              "name": "player",
              "type": "address"
            },
            {
              "internalType": "string",
              "name": "betType",
              "type": "string"
            },
            {
              "internalType": "uint256",
              "name": "number",
              "type": "uint256"
            },
            {
              "internalType": "uint256",
              "name": "bet",
              "type": "uint256"
            }
          ],
          "internalType": "struct Roulette.Bet[]",
          "name": "",
          "type": "tuple[]"
        }
      ],
      "stateMutability": "view",
      "type": "function"
    },
    {
      "inputs": [
        {
          "internalType": "string",
          "name": "_betType",
          "type": "string"
        },
        {
          "internalType": "uint256",
          "name": "_number",
          "type": "uint256"
        },
        {
          "internalType": "uint256",
          "name": "_bet",
          "type": "uint256"
        }
      ],
      "name": "makeBet",
      "outputs": [],
      "stateMutability": "nonpayable",
      "type": "function"
    },
    {
      "inputs": [],
      "name": "spin",
      "outputs": [],
      "stateMutability": "nonpayable",
      "type": "function"
    },
    {
      "inputs": [
        {
          "internalType": "uint256",
          "name": "_minBetValue",
          "type": "uint256"
        },
        {
          "internalType": "uint256",
          "name": "_maxBetValue",
          "type": "uint256"
        },
        {
          "internalType": "uint256",
          "name": "_maxBets",
          "type": "uint256"
        },
        {
          "internalType": "uint256",
          "name": "_timeLimit",
          "type": "uint256"
        }
      ],
      "name": "setParams",
      "outputs": [],
      "stateMutability": "nonpayable",
      "type": "function"
    },
    {
      "inputs": [
        {
          "internalType": "uint256",
          "name": "_amount",
          "type": "uint256"
        }
      ],
      "name": "withdraw",
      "outputs": [],
      "stateMutability": "nonpayable",
      "type": "function"
    },
    {
      "inputs": [],
      "name": "getProfitTakers",
      "outputs": [
        {
          "components": [
            {
              "internalType": "address",
              "name": "addr",
              "type": "address"
            },
            {
              "internalType": "uint256",
              "name": "points",
              "type": "uint256"
            }
          ],
          "internalType": "struct Roulette.ProfitTaker[]",
          "name": "",
          "type": "tuple[]"
        }
      ],
      "stateMutability": "view",
      "type": "function"
    },
    {
      "inputs": [
        {
          "components": [
            {
              "internalType": "address",
              "name": "addr",
              "type": "address"
            },
            {
              "internalType": "uint256",
              "name": "points",
              "type": "uint256"
            }
          ],
          "internalType": "struct Roulette.ProfitTaker",
          "name": "_profitTaker",
          "type": "tuple"
        }
      ],
      "name": "addProfitTaker",
      "outputs": [],
      "stateMutability": "nonpayable",
      "type": "function"
    },
    {
      "inputs": [],
      "name": "deleteProfitTakers",
      "outputs": [],
      "stateMutability": "nonpayable",
      "type": "function"
    }
  ],
  "bytecode": "0x60806040523480156200001157600080fd5b5060405162003e0338038062003e038339818101604052810190620000379190620007f5565b620000576200004b6200030060201b60201c565b6200030860201b60201c565b81600260006101000a81548173ffffffffffffffffffffffffffffffffffffffff021916908373ffffffffffffffffffffffffffffffffffffffff160217905550620000a981620003cc60201b60201c565b60006003604051620000bb9062000897565b908152602001604051809103902060006101000a81548160ff02191690836002811115620000ee57620000ed620008ae565b5b02179055506001600360405162000105906200092d565b908152602001604051809103902060006101000a81548160ff02191690836002811115620001385762000137620008ae565b5b0217905550600260036040516200014f9062000994565b908152602001604051809103902060006101000a81548160ff02191690836002811115620001825762000181620008ae565b5b0217905550600060046040516200019990620009fb565b908152602001604051809103902060006101000a81548160ff02191690836005811115620001cc57620001cb620008ae565b5b021790555060016004604051620001e39062000897565b908152602001604051809103902060006101000a81548160ff02191690836005811115620002165762000215620008ae565b5b0217905550600260046040516200022d906200092d565b908152602001604051809103902060006101000a81548160ff0219169083600581111562000260576200025f620008ae565b5b0217905550600480604051620002769062000a62565b908152602001604051809103902060006101000a81548160ff02191690836005811115620002a957620002a8620008ae565b5b021790555060056004604051620002c09062000ac9565b908152602001604051809103902060006101000a81548160ff02191690836005811115620002f357620002f2620008ae565b5b0217905550505062000d67565b600033905090565b60008060009054906101000a900473ffffffffffffffffffffffffffffffffffffffff169050816000806101000a81548173ffffffffffffffffffffffffffffffffffffffff021916908373ffffffffffffffffffffffffffffffffffffffff1602179055508173ffffffffffffffffffffffffffffffffffffffff168173ffffffffffffffffffffffffffffffffffffffff167f8be0079c531659141344cd1fd0a4f28419497f9722a3daafe3b4186f6b6457e060405160405180910390a35050565b620003dd816200067160201b60201c565b6200041f576040517f08c379a0000000000000000000000000000000000000000000000000000000008152600401620004169062000b67565b60405180910390fd5b6000600960405180604001604052808381526020016040518060400160405280600581526020017f677265656e0000000000000000000000000000000000000000000000000000008152508152509080600181540180825580915050600190039060005260206000209060020201600090919091909150600082015181600001556020820151816001019080519060200190620004be9291906200068c565b5050508080620004ce9062000bb8565b9150505b6001600283620004e3919062000c35565b620004ef919062000c6d565b811015620005ad57600960405180604001604052808381526020016040518060400160405280600381526020017f72656400000000000000000000000000000000000000000000000000000000008152508152509080600181540180825580915050600190039060005260206000209060020201600090919091909150600082015181600001556020820151816001019080519060200190620005949291906200068c565b5050508080620005a49062000bb8565b915050620004d2565b5b818110156200066d57600960405180604001604052808381526020016040518060400160405280600581526020017f626c61636b0000000000000000000000000000000000000000000000000000008152508152509080600181540180825580915050600190039060005260206000209060020201600090919091909150600082015181600001556020820151816001019080519060200190620006549291906200068c565b5050508080620006649062000bb8565b915050620005ae565b5050565b6000600160028362000684919062000cca565b149050919050565b8280546200069a9062000d31565b90600052602060002090601f016020900481019282620006be57600085556200070a565b82601f10620006d957805160ff19168380011785556200070a565b828001600101855582156200070a579182015b8281111562000709578251825591602001919060010190620006ec565b5b5090506200071991906200071d565b5090565b5b80821115620007385760008160009055506001016200071e565b5090565b600080fd5b600073ffffffffffffffffffffffffffffffffffffffff82169050919050565b60006200076e8262000741565b9050919050565b6000620007828262000761565b9050919050565b620007948162000775565b8114620007a057600080fd5b50565b600081519050620007b48162000789565b92915050565b6000819050919050565b620007cf81620007ba565b8114620007db57600080fd5b50565b600081519050620007ef81620007c4565b92915050565b600080604083850312156200080f576200080e6200073c565b5b60006200081f85828601620007a3565b92505060206200083285828601620007de565b9150509250929050565b600081905092915050565b7f7265640000000000000000000000000000000000000000000000000000000000600082015250565b60006200087f6003836200083c565b91506200088c8262000847565b600382019050919050565b6000620008a48262000870565b9150819050919050565b7f4e487b7100000000000000000000000000000000000000000000000000000000600052602160045260246000fd5b7f626c61636b000000000000000000000000000000000000000000000000000000600082015250565b6000620009156005836200083c565b91506200092282620008dd565b600582019050919050565b60006200093a8262000906565b9150819050919050565b7f677265656e000000000000000000000000000000000000000000000000000000600082015250565b60006200097c6005836200083c565b9150620009898262000944565b600582019050919050565b6000620009a1826200096d565b9150819050919050565b7f6e756d6265720000000000000000000000000000000000000000000000000000600082015250565b6000620009e36006836200083c565b9150620009f082620009ab565b600682019050919050565b600062000a0882620009d4565b9150819050919050565b7f6f64640000000000000000000000000000000000000000000000000000000000600082015250565b600062000a4a6003836200083c565b915062000a578262000a12565b600382019050919050565b600062000a6f8262000a3b565b9150819050919050565b7f6576656e00000000000000000000000000000000000000000000000000000000600082015250565b600062000ab16004836200083c565b915062000abe8262000a79565b600482019050919050565b600062000ad68262000aa2565b9150819050919050565b600082825260208201905092915050565b7f576865656c206d757374206861766520616e206f6464206e756d626572206f6660008201527f207370616365732e000000000000000000000000000000000000000000000000602082015250565b600062000b4f60288362000ae0565b915062000b5c8262000af1565b604082019050919050565b6000602082019050818103600083015262000b828162000b40565b9050919050565b7f4e487b7100000000000000000000000000000000000000000000000000000000600052601160045260246000fd5b600062000bc582620007ba565b91507fffffffffffffffffffffffffffffffffffffffffffffffffffffffffffffffff82141562000bfb5762000bfa62000b89565b5b600182019050919050565b7f4e487b7100000000000000000000000000000000000000000000000000000000600052601260045260246000fd5b600062000c4282620007ba565b915062000c4f83620007ba565b92508262000c625762000c6162000c06565b5b828204905092915050565b600062000c7a82620007ba565b915062000c8783620007ba565b9250827fffffffffffffffffffffffffffffffffffffffffffffffffffffffffffffffff0382111562000cbf5762000cbe62000b89565b5b828201905092915050565b600062000cd782620007ba565b915062000ce483620007ba565b92508262000cf75762000cf662000c06565b5b828206905092915050565b7f4e487b7100000000000000000000000000000000000000000000000000000000600052602260045260246000fd5b6000600282049050600182168062000d4a57607f821691505b6020821081141562000d615762000d6062000d02565b5b50919050565b61308c8062000d776000396000f3fe608060405234801561001057600080fd5b50600436106100f55760003560e01c80637ece45e811610097578063c7e284b811610066578063c7e284b814610214578063d8a4d8ac14610232578063f0acd7d514610250578063f2fde38b1461025a576100f5565b80637ece45e8146101a05780638da5cb5b146101bc578063a347e172146101da578063bf2d0bce146101f6576100f5565b80633ea118ad116100d35780633ea118ad1461013e5780634a4bd9ec1461015c578063715018a61461017a57806377c3c8cb14610184576100f5565b80632569e0f4146100fa5780632e1a7d4d146101045780633b4ca5d214610120575b600080fd5b610102610276565b005b61011e60048036038101906101199190611d2d565b61031d565b005b6101286103a6565b6040516101359190611f68565b60405180910390f35b610146610501565b6040516101539190611fc7565b60405180910390f35b6101646105b7565b60405161017191906120e8565b60405180910390f35b6101826106b2565b005b61019e6004803603810190610199919061212e565b61073a565b005b6101ba60048036038101906101b5919061215b565b610810565b005b6101c46108be565b6040516101d191906121d1565b60405180910390f35b6101f460048036038101906101ef9190612251565b6108e7565b005b6101fe61093d565b60405161020b9190611f68565b60405180910390f35b61021c610a98565b60405161022991906122d4565b60405180910390f35b61023a610aa7565b60405161024791906123cd565b60405180910390f35b610258610be2565b005b610274600480360381019061026f919061241b565b610bec565b005b61027e610ce4565b73ffffffffffffffffffffffffffffffffffffffff1661029c6108be565b73ffffffffffffffffffffffffffffffffffffffff16146102f2576040517f08c379a00000000000000000000000000000000000000000000000000000000081526004016102e9906124a5565b60405180910390fd5b600f60006103009190611a77565b6010546010600082825461031491906124f4565b92505081905550565b610325610ce4565b73ffffffffffffffffffffffffffffffffffffffff166103436108be565b73ffffffffffffffffffffffffffffffffffffffff1614610399576040517f08c379a0000000000000000000000000000000000000000000000000000000008152600401610390906124a5565b60405180910390fd5b6103a33382610cec565b50565b6060600c805480602002602001604051908101604052809291908181526020016000905b828210156104f857838290600052602060002090600402016040518060800160405290816000820160009054906101000a900473ffffffffffffffffffffffffffffffffffffffff1673ffffffffffffffffffffffffffffffffffffffff1673ffffffffffffffffffffffffffffffffffffffff16815260200160018201805461045390612557565b80601f016020809104026020016040519081016040528092919081815260200182805461047f90612557565b80156104cc5780601f106104a1576101008083540402835291602001916104cc565b820191906000526020600020905b8154815290600101906020018083116104af57829003601f168201915b5050505050815260200160028201548152602001600382015481525050815260200190600101906103ca565b50505050905090565b610509611a9b565b600a6040518060400160405290816000820154815260200160018201805461053090612557565b80601f016020809104026020016040519081016040528092919081815260200182805461055c90612557565b80156105a95780601f1061057e576101008083540402835291602001916105a9565b820191906000526020600020905b81548152906001019060200180831161058c57829003601f168201915b505050505081525050905090565b60606009805480602002602001604051908101604052809291908181526020016000905b828210156106a957838290600052602060002090600202016040518060400160405290816000820154815260200160018201805461061890612557565b80601f016020809104026020016040519081016040528092919081815260200182805461064490612557565b80156106915780601f1061066657610100808354040283529160200191610691565b820191906000526020600020905b81548152906001019060200180831161067457829003601f168201915b505050505081525050815260200190600101906105db565b50505050905090565b6106ba610ce4565b73ffffffffffffffffffffffffffffffffffffffff166106d86108be565b73ffffffffffffffffffffffffffffffffffffffff161461072e576040517f08c379a0000000000000000000000000000000000000000000000000000000008152600401610725906124a5565b60405180910390fd5b6107386000610d91565b565b610742610ce4565b73ffffffffffffffffffffffffffffffffffffffff166107606108be565b73ffffffffffffffffffffffffffffffffffffffff16146107b6576040517f08c379a00000000000000000000000000000000000000000000000000000000081526004016107ad906124a5565b60405180910390fd5b600f81908060018154018082558091505060019003906000526020600020906002020160009091909190915081816107ee919061274c565b5050806020013560106000828254610806919061275a565b9250508190555050565b610818610ce4565b73ffffffffffffffffffffffffffffffffffffffff166108366108be565b73ffffffffffffffffffffffffffffffffffffffff161461088c576040517f08c379a0000000000000000000000000000000000000000000000000000000008152600401610883906124a5565b60405180910390fd5b838383836005600060066000600760006008600088919050558791905055869190505585919050555050505050505050565b60008060009054906101000a900473ffffffffffffffffffffffffffffffffffffffff16905090565b6109373385858080601f016020809104026020016040519081016040528093929190818152602001838380828437600081840152601f19601f820116905080830192505050505050508484610e55565b50505050565b6060600d805480602002602001604051908101604052809291908181526020016000905b82821015610a8f57838290600052602060002090600402016040518060800160405290816000820160009054906101000a900473ffffffffffffffffffffffffffffffffffffffff1673ffffffffffffffffffffffffffffffffffffffff1673ffffffffffffffffffffffffffffffffffffffff1681526020016001820180546109ea90612557565b80601f0160208091040260200160405190810160405280929190818152602001828054610a1690612557565b8015610a635780601f10610a3857610100808354040283529160200191610a63565b820191906000526020600020905b815481529060010190602001808311610a4657829003601f168201915b505050505081526020016002820154815260200160038201548152505081526020019060010190610961565b50505050905090565b6000610aa261110d565b905090565b6060610ab1610ce4565b73ffffffffffffffffffffffffffffffffffffffff16610acf6108be565b73ffffffffffffffffffffffffffffffffffffffff1614610b25576040517f08c379a0000000000000000000000000000000000000000000000000000000008152600401610b1c906124a5565b60405180910390fd5b600f805480602002602001604051908101604052809291908181526020016000905b82821015610bd957838290600052602060002090600202016040518060400160405290816000820160009054906101000a900473ffffffffffffffffffffffffffffffffffffffff1673ffffffffffffffffffffffffffffffffffffffff1673ffffffffffffffffffffffffffffffffffffffff16815260200160018201548152505081526020019060010190610b47565b50505050905090565b610bea611133565b565b610bf4610ce4565b73ffffffffffffffffffffffffffffffffffffffff16610c126108be565b73ffffffffffffffffffffffffffffffffffffffff1614610c68576040517f08c379a0000000000000000000000000000000000000000000000000000000008152600401610c5f906124a5565b60405180910390fd5b600073ffffffffffffffffffffffffffffffffffffffff168173ffffffffffffffffffffffffffffffffffffffff161415610cd8576040517f08c379a0000000000000000000000000000000000000000000000000000000008152600401610ccf90612822565b60405180910390fd5b610ce181610d91565b50565b600033905090565b600260009054906101000a900473ffffffffffffffffffffffffffffffffffffffff1673ffffffffffffffffffffffffffffffffffffffff1663a9059cbb83836040518363ffffffff1660e01b8152600401610d49929190612842565b6020604051808303816000875af1158015610d68573d6000803e3d6000fd5b505050506040513d601f19601f82011682018060405250810190610d8c91906128a3565b505050565b60008060009054906101000a900473ffffffffffffffffffffffffffffffffffffffff169050816000806101000a81548173ffffffffffffffffffffffffffffffffffffffff021916908373ffffffffffffffffffffffffffffffffffffffff1602179055508173ffffffffffffffffffffffffffffffffffffffff168173ffffffffffffffffffffffffffffffffffffffff167f8be0079c531659141344cd1fd0a4f28419497f9722a3daafe3b4186f6b6457e060405160405180910390a35050565b60006005811115610e6957610e686128d0565b5b600484604051610e79919061293b565b908152602001604051809103902060009054906101000a900460ff166005811115610ea757610ea66128d0565b5b1415610ee6576040518060400160405280600681526020017f6e756d626572000000000000000000000000000000000000000000000000000081525092505b600060405180608001604052808673ffffffffffffffffffffffffffffffffffffffff168152602001858152602001848152602001838152509050600754600c8054905010610f6a576040517f08c379a0000000000000000000000000000000000000000000000000000000008152600401610f61906129ea565b60405180910390fd5b60055481606001511015610fb3576040517f08c379a0000000000000000000000000000000000000000000000000000000008152600401610faa90612a56565b60405180910390fd5b60065481606001511115610ffc576040517f08c379a0000000000000000000000000000000000000000000000000000000008152600401610ff390612ac2565b60405180910390fd5b61100e8160000151826060015161144d565b600c81908060018154018082558091505060019003906000526020600020906004020160009091909190915060008201518160000160006101000a81548173ffffffffffffffffffffffffffffffffffffffff021916908373ffffffffffffffffffffffffffffffffffffffff160217905550602082015181600101908051906020019061109d929190611ab5565b50604082015181600201556060820151816003015550508473ffffffffffffffffffffffffffffffffffffffff167f02dfe6f9511f0a5ad9b1b02f3ef3466e8a2aa3694604d85df2dccaccec73da9b8585856040516110fe93929190612b1b565b60405180910390a25050505050565b6000600e54421061111f57600061112e565b42600e5461112d91906124f4565b5b905090565b600061113d61110d565b1461117d576040517f08c379a000000000000000000000000000000000000000000000000000000000815260040161117490612bcb565b60405180910390fd5b600d600061118b9190611b3b565b600061119561150d565b905080600a6000820154816000015560018201816001019080546111b890612557565b6111c3929190611b5f565b5090505060005b600c805490508110156113f057600061120483600c84815481106111f1576111f0612beb565b5b9060005260206000209060040201611548565b905060008111156113dc5761125e600c838154811061122657611225612beb565b5b906000526020600020906004020160000160009054906101000a900473ffffffffffffffffffffffffffffffffffffffff1682610cec565b600d600c838154811061127457611273612beb565b5b906000526020600020906004020190806001815401808255809150506001900390600052602060002090600402016000909190919091506000820160009054906101000a900473ffffffffffffffffffffffffffffffffffffffff168160000160006101000a81548173ffffffffffffffffffffffffffffffffffffffff021916908373ffffffffffffffffffffffffffffffffffffffff160217905550600182018160010190805461132690612557565b611331929190611b5f565b5060028201548160020155600382015481600301555050600c828154811061135c5761135b612beb565b5b906000526020600020906004020160000160009054906101000a900473ffffffffffffffffffffffffffffffffffffffff1673ffffffffffffffffffffffffffffffffffffffff167f8b01f9dd0400d6a1e84369a5fb8f6033934856ffa8ebadd707dca302ab551695826040516113d391906122d4565b60405180910390a25b5080806113e890612c1a565b9150506111ca565b50600c60006113ff9190611b3b565b6008544261140d919061275a565b600e819055507f48f3c71f2d4f0b71daa28c678901a134a91a3953388a4422bd186278b1951c0a816040516114429190612d72565b60405180910390a150565b600260009054906101000a900473ffffffffffffffffffffffffffffffffffffffff1673ffffffffffffffffffffffffffffffffffffffff166323b872dd8330846040518463ffffffff1660e01b81526004016114ac93929190612d94565b6020604051808303816000875af11580156114cb573d6000803e3d6000fd5b505050506040513d601f19601f820116820180604052508101906114ef91906128a3565b50611509600980549050826115049190612dfa565b61188b565b5050565b60008061151e600980549050611955565b90506009818154811061153457611533612beb565b5b906000526020600020906002020191505090565b60008060048360010160405161155e9190612eaa565b908152602001604051809103902060009054906101000a900460ff169050600060058111156115905761158f6128d0565b5b8160058111156115a3576115a26128d0565b5b14156115e2578360000154836002015414156115dd57600160098054905084600301546115d09190612ec1565b6115da91906124f4565b91505b611884565b600160058111156115f6576115f56128d0565b5b816005811115611609576116086128d0565b5b14156116835760006002811115611623576116226128d0565b5b6003856001016040516116369190612eaa565b908152602001604051809103902060009054906101000a900460ff166002811115611664576116636128d0565b5b141561167e576002836003015461167b9190612ec1565b91505b611883565b60026005811115611697576116966128d0565b5b8160058111156116aa576116a96128d0565b5b141561172457600160028111156116c4576116c36128d0565b5b6003856001016040516116d79190612eaa565b908152602001604051809103902060009054906101000a900460ff166002811115611705576117046128d0565b5b141561171f576002836003015461171c9190612ec1565b91505b611882565b60036005811115611738576117376128d0565b5b81600581111561174b5761174a6128d0565b5b14156117d457600280811115611764576117636128d0565b5b6003856001016040516117779190612eaa565b908152602001604051809103902060009054906101000a900460ff1660028111156117a5576117a46128d0565b5b14156117cf57600160098054905084600301546117c29190612ec1565b6117cc91906124f4565b91505b611881565b600460058111156117e8576117e76128d0565b5b8160058111156117fb576117fa6128d0565b5b141561182c5761180e8460000154611a09565b1561182757600283600301546118249190612ec1565b91505b611880565b60058081111561183f5761183e6128d0565b5b816005811115611852576118516128d0565b5b141561187f576118658460000154611a22565b1561187e576002836003015461187b9190612ec1565b91505b5b5b5b5b5b5b5092915050565b6000601054141561189b57611952565b6000601054826118ab9190612dfa565b905060005b600f8054905081101561194f5761193c600f82815481106118d4576118d3612beb565b5b906000526020600020906002020160000160009054906101000a900473ffffffffffffffffffffffffffffffffffffffff1683600f848154811061191b5761191a612beb565b5b9060005260206000209060020201600101546119379190612ec1565b610cec565b808061194790612c1a565b9150506118b0565b50505b50565b600080611960611a3a565b9050600060026001548360405160200161197b929190612f83565b6040516020818303038152906040526040516119979190612fab565b602060405180830381855afa1580156119b4573d6000803e3d6000fd5b5050506040513d601f19601f820116820180604052508101906119d79190612ff8565b60001c905083816119e89190613025565b9250600160008154809291906119fd90612c1a565b91905055505050919050565b60006001600283611a1a9190613025565b149050919050565b600080600283611a329190613025565b149050919050565b60606040518060400160405280600681526020017f726f75726f750000000000000000000000000000000000000000000000000000815250905090565b5080546000825560020290600052602060002090810190611a989190611bec565b50565b604051806040016040528060008152602001606081525090565b828054611ac190612557565b90600052602060002090601f016020900481019282611ae35760008555611b2a565b82601f10611afc57805160ff1916838001178555611b2a565b82800160010185558215611b2a579182015b82811115611b29578251825591602001919060010190611b0e565b5b509050611b379190611c32565b5090565b5080546000825560040290600052602060002090810190611b5c9190611c4f565b50565b828054611b6b90612557565b90600052602060002090601f016020900481019282611b8d5760008555611bdb565b82601f10611b9e5780548555611bdb565b82800160010185558215611bdb57600052602060002091601f016020900482015b82811115611bda578254825591600101919060010190611bbf565b5b509050611be89190611c32565b5090565b5b80821115611c2e57600080820160006101000a81549073ffffffffffffffffffffffffffffffffffffffff0219169055600182016000905550600201611bed565b5090565b5b80821115611c4b576000816000905550600101611c33565b5090565b5b80821115611ca957600080820160006101000a81549073ffffffffffffffffffffffffffffffffffffffff0219169055600182016000611c909190611cad565b6002820160009055600382016000905550600401611c50565b5090565b508054611cb990612557565b6000825580601f10611ccb5750611cea565b601f016020900490600052602060002090810190611ce99190611c32565b5b50565b600080fd5b600080fd5b6000819050919050565b611d0a81611cf7565b8114611d1557600080fd5b50565b600081359050611d2781611d01565b92915050565b600060208284031215611d4357611d42611ced565b5b6000611d5184828501611d18565b91505092915050565b600081519050919050565b600082825260208201905092915050565b6000819050602082019050919050565b600073ffffffffffffffffffffffffffffffffffffffff82169050919050565b6000611db182611d86565b9050919050565b611dc181611da6565b82525050565b600081519050919050565b600082825260208201905092915050565b60005b83811015611e01578082015181840152602081019050611de6565b83811115611e10576000848401525b50505050565b6000601f19601f8301169050919050565b6000611e3282611dc7565b611e3c8185611dd2565b9350611e4c818560208601611de3565b611e5581611e16565b840191505092915050565b611e6981611cf7565b82525050565b6000608083016000830151611e876000860182611db8565b5060208301518482036020860152611e9f8282611e27565b9150506040830151611eb46040860182611e60565b506060830151611ec76060860182611e60565b508091505092915050565b6000611ede8383611e6f565b905092915050565b6000602082019050919050565b6000611efe82611d5a565b611f088185611d65565b935083602082028501611f1a85611d76565b8060005b85811015611f565784840389528151611f378582611ed2565b9450611f4283611ee6565b925060208a01995050600181019050611f1e565b50829750879550505050505092915050565b60006020820190508181036000830152611f828184611ef3565b905092915050565b6000604083016000830151611fa26000860182611e60565b5060208301518482036020860152611fba8282611e27565b9150508091505092915050565b60006020820190508181036000830152611fe18184611f8a565b905092915050565b600081519050919050565b600082825260208201905092915050565b6000819050602082019050919050565b600060408301600083015161202d6000860182611e60565b50602083015184820360208601526120458282611e27565b9150508091505092915050565b600061205e8383612015565b905092915050565b6000602082019050919050565b600061207e82611fe9565b6120888185611ff4565b93508360208202850161209a85612005565b8060005b858110156120d657848403895281516120b78582612052565b94506120c283612066565b925060208a0199505060018101905061209e565b50829750879550505050505092915050565b600060208201905081810360008301526121028184612073565b905092915050565b600080fd5b6000604082840312156121255761212461210a565b5b81905092915050565b60006040828403121561214457612143611ced565b5b60006121528482850161210f565b91505092915050565b6000806000806080858703121561217557612174611ced565b5b600061218387828801611d18565b945050602061219487828801611d18565b93505060406121a587828801611d18565b92505060606121b687828801611d18565b91505092959194509250565b6121cb81611da6565b82525050565b60006020820190506121e660008301846121c2565b92915050565b600080fd5b600080fd5b600080fd5b60008083601f840112612211576122106121ec565b5b8235905067ffffffffffffffff81111561222e5761222d6121f1565b5b60208301915083600182028301111561224a576122496121f6565b5b9250929050565b6000806000806060858703121561226b5761226a611ced565b5b600085013567ffffffffffffffff81111561228957612288611cf2565b5b612295878288016121fb565b945094505060206122a887828801611d18565b92505060406122b987828801611d18565b91505092959194509250565b6122ce81611cf7565b82525050565b60006020820190506122e960008301846122c5565b92915050565b600081519050919050565b600082825260208201905092915050565b6000819050602082019050919050565b6040820160008201516123316000850182611db8565b5060208201516123446020850182611e60565b50505050565b6000612356838361231b565b60408301905092915050565b6000602082019050919050565b600061237a826122ef565b61238481856122fa565b935061238f8361230b565b8060005b838110156123c05781516123a7888261234a565b97506123b283612362565b925050600181019050612393565b5085935050505092915050565b600060208201905081810360008301526123e7818461236f565b905092915050565b6123f881611da6565b811461240357600080fd5b50565b600081359050612415816123ef565b92915050565b60006020828403121561243157612430611ced565b5b600061243f84828501612406565b91505092915050565b600082825260208201905092915050565b7f4f776e61626c653a2063616c6c6572206973206e6f7420746865206f776e6572600082015250565b600061248f602083612448565b915061249a82612459565b602082019050919050565b600060208201905081810360008301526124be81612482565b9050919050565b7f4e487b7100000000000000000000000000000000000000000000000000000000600052601160045260246000fd5b60006124ff82611cf7565b915061250a83611cf7565b92508282101561251d5761251c6124c5565b5b828203905092915050565b7f4e487b7100000000000000000000000000000000000000000000000000000000600052602260045260246000fd5b6000600282049050600182168061256f57607f821691505b6020821081141561258357612582612528565b5b50919050565b60008135612596816123ef565b80915050919050565b60008160001b9050919050565b600073ffffffffffffffffffffffffffffffffffffffff6125cc8461259f565b9350801983169250808416831791505092915050565b6000819050919050565b60006126076126026125fd84611d86565b6125e2565b611d86565b9050919050565b6000612619826125ec565b9050919050565b600061262b8261260e565b9050919050565b6000819050919050565b61264582612620565b61265861265182612632565b83546125ac565b8255505050565b6000813561266c81611d01565b80915050919050565b60007fffffffffffffffffffffffffffffffffffffffffffffffffffffffffffffffff6126a18461259f565b9350801983169250808416831791505092915050565b60006126d26126cd6126c884611cf7565b6125e2565b611cf7565b9050919050565b6000819050919050565b6126ec826126b7565b6126ff6126f8826126d9565b8354612675565b8255505050565b60008101600083018061271881612589565b9050612724818461263c565b5050506001810160208301806127398161265f565b905061274581846126e3565b5050505050565b6127568282612706565b5050565b600061276582611cf7565b915061277083611cf7565b9250827fffffffffffffffffffffffffffffffffffffffffffffffffffffffffffffffff038211156127a5576127a46124c5565b5b828201905092915050565b7f4f776e61626c653a206e6577206f776e657220697320746865207a65726f206160008201527f6464726573730000000000000000000000000000000000000000000000000000602082015250565b600061280c602683612448565b9150612817826127b0565b604082019050919050565b6000602082019050818103600083015261283b816127ff565b9050919050565b600060408201905061285760008301856121c2565b61286460208301846122c5565b9392505050565b60008115159050919050565b6128808161286b565b811461288b57600080fd5b50565b60008151905061289d81612877565b92915050565b6000602082840312156128b9576128b8611ced565b5b60006128c78482850161288e565b91505092915050565b7f4e487b7100000000000000000000000000000000000000000000000000000000600052602160045260246000fd5b600081905092915050565b600061291582611dc7565b61291f81856128ff565b935061292f818560208601611de3565b80840191505092915050565b6000612947828461290a565b915081905092915050565b7f54686572652061726520746f6f206d616e792062657473207468697320726f7560008201527f6e642e20506c65617365207761697420756e74696c20746865206e657874207260208201527f6f756e642e000000000000000000000000000000000000000000000000000000604082015250565b60006129d4604583612448565b91506129df82612952565b606082019050919050565b60006020820190508181036000830152612a03816129c7565b9050919050565b7f42657420746f6f206c6f7720666f72207461626c652e00000000000000000000600082015250565b6000612a40601683612448565b9150612a4b82612a0a565b602082019050919050565b60006020820190508181036000830152612a6f81612a33565b9050919050565b7f42657420746f6f206869676820666f72207461626c652e000000000000000000600082015250565b6000612aac601783612448565b9150612ab782612a76565b602082019050919050565b60006020820190508181036000830152612adb81612a9f565b9050919050565b6000612aed82611dc7565b612af78185612448565b9350612b07818560208601611de3565b612b1081611e16565b840191505092915050565b60006060820190508181036000830152612b358186612ae2565b9050612b4460208301856122c5565b612b5160408301846122c5565b949350505050565b7f506c65617365207761697420756e74696c207370696e6e696e6720746f20616c60008201527f6c6f77206d6f7265206265747320746f20636f6d6520696e2e00000000000000602082015250565b6000612bb5603983612448565b9150612bc082612b59565b604082019050919050565b60006020820190508181036000830152612be481612ba8565b9050919050565b7f4e487b7100000000000000000000000000000000000000000000000000000000600052603260045260246000fd5b6000612c2582611cf7565b91507fffffffffffffffffffffffffffffffffffffffffffffffffffffffffffffffff821415612c5857612c576124c5565b5b600182019050919050565b60008160001c9050919050565b6000819050919050565b6000612c8d612c8883612c63565b612c70565b9050919050565b60008190508160005260206000209050919050565b60008154612cb681612557565b612cc08186611dd2565b94506001821660008114612cdb5760018114612ced57612d20565b60ff1983168652602086019350612d20565b612cf685612c94565b60005b83811015612d1857815481890152600182019150602081019050612cf9565b808801955050505b50505092915050565b6000604083016000808401549050612d4081612c7a565b612d4d6000870182611e60565b50600184018583036020870152612d648382612ca9565b925050819250505092915050565b60006020820190508181036000830152612d8c8184612d29565b905092915050565b6000606082019050612da960008301866121c2565b612db660208301856121c2565b612dc360408301846122c5565b949350505050565b7f4e487b7100000000000000000000000000000000000000000000000000000000600052601260045260246000fd5b6000612e0582611cf7565b9150612e1083611cf7565b925082612e2057612e1f612dcb565b5b828204905092915050565b60008154612e3881612557565b612e4281866128ff565b94506001821660008114612e5d5760018114612e6e57612ea1565b60ff19831686528186019350612ea1565b612e7785612c94565b60005b83811015612e9957815481890152600182019150602081019050612e7a565b838801955050505b50505092915050565b6000612eb68284612e2b565b915081905092915050565b6000612ecc82611cf7565b9150612ed783611cf7565b9250817fffffffffffffffffffffffffffffffffffffffffffffffffffffffffffffffff0483118215151615612f1057612f0f6124c5565b5b828202905092915050565b6000819050919050565b612f36612f3182611cf7565b612f1b565b82525050565b600081519050919050565b600081905092915050565b6000612f5d82612f3c565b612f678185612f47565b9350612f77818560208601611de3565b80840191505092915050565b6000612f8f8285612f25565b602082019150612f9f8284612f52565b91508190509392505050565b6000612fb78284612f52565b915081905092915050565b6000819050919050565b612fd581612fc2565b8114612fe057600080fd5b50565b600081519050612ff281612fcc565b92915050565b60006020828403121561300e5761300d611ced565b5b600061301c84828501612fe3565b91505092915050565b600061303082611cf7565b915061303b83611cf7565b92508261304b5761304a612dcb565b5b82820690509291505056fea2646970667358221220d9ba7ae94e2567a0575505e38f323d7d121e48dc9969c0cfdafbde1aab99e8b664736f6c634300080a0033",
  "immutableReferences": {},
  "source": "// SPDX-License-Identifier: MIT\r\npragma solidity ^0.8.0;\r\n\r\nimport \"@openzeppelin/contracts/token/ERC20/IERC20.sol\";\r\nimport \"@openzeppelin/contracts/access/Ownable.sol\";\r\nimport \"luk1529_solidity/contracts/utils/Random.sol\";\r\n\r\ncontract Roulette is Ownable, Random {\r\n    //profit takers\r\n    struct ProfitTaker {\r\n        address addr;\r\n        uint points;\r\n    }\r\n    \r\n    \r\n    \r\n    \r\n    IERC20 XYA;\r\n    constructor(IERC20 _XYA, uint _numberOfSpaces) {\r\n        XYA = _XYA;\r\n        _initialiseWheel(_numberOfSpaces);\r\n        \r\n        \r\n        //map strings to enum values\r\n        colours[\"red\"] = Colours.red;\r\n        colours[\"black\"] = Colours.black;\r\n        colours[\"green\"] = Colours.green;\r\n        betTypes[\"number\"] = BetTypes.number;\r\n        betTypes[\"red\"] = BetTypes.red;\r\n        betTypes[\"black\"] = BetTypes.black;\r\n        betTypes[\"odd\"] = BetTypes.odd;\r\n        betTypes[\"even\"] = BetTypes.even;\r\n    }\r\n    \r\n    \r\n    \r\n    //events\r\n    event Spun(Space space);\r\n    event BetOn(address indexed player, string betType, uint number, uint bet);\r\n    event Won(address indexed player, uint amount);\r\n    \r\n    \r\n    \r\n    //colours\r\n    enum Colours {red, black, green}\r\n    mapping(string => Colours) colours;\r\n    \r\n    \r\n    \r\n    //wheel\r\n    struct Space {\r\n        uint number;\r\n        string colour;\r\n    }\r\n    \r\n    \r\n    \r\n    //bet types\r\n    enum BetTypes {number, red, black, green, odd, even}\r\n    mapping(string => BetTypes) betTypes;\r\n    \r\n    \r\n    \r\n    //bet data type\r\n    struct Bet {\r\n        address player;\r\n        string betType;\r\n        uint number;\r\n        uint bet;\r\n    }\r\n    \r\n    \r\n    \r\n    //parameters\r\n    uint minBetValue;\r\n    uint maxBetValue;\r\n    uint maxBets;\r\n    uint timeLimit;\r\n    \r\n    \r\n    \r\n    //data\r\n    Space[] wheel;\r\n    Space lastSpace;\r\n    Bet[] bets;\r\n    Bet[] lastRoundWinningBets;\r\n    uint nextSpinAt;\r\n    ProfitTaker[] profitTakers;\r\n    uint profitTakerPoints;\r\n    \r\n    \r\n    \r\n    //public functions\r\n    function getWheel() public view returns(Space[] memory) {\r\n        return wheel;\r\n    }\r\n    function getLastSpace() public view returns(Space memory) {\r\n        return lastSpace;\r\n    }\r\n    function getTimeLeft() public view returns(uint) {\r\n        return _timeLeft();\r\n    }\r\n    function getCurrentBets() public view returns(Bet[] memory) {\r\n        return bets;\r\n    }\r\n    function getLastRoundWinningBets() public view returns(Bet[] memory) {\r\n        return lastRoundWinningBets;\r\n    }\r\n    function makeBet(string calldata _betType, uint _number, uint _bet) public {\r\n        _receiveBet(msg.sender, _betType, _number, _bet);\r\n    }\r\n    function spin() public {\r\n        _spin();\r\n    }\r\n    \r\n    \r\n    \r\n    //receive a bet\r\n    function _receiveBet(address _player, string memory _betType, uint _number, uint _bet) private {\r\n        if (betTypes[_betType] == BetTypes.number) {\r\n            _betType = \"number\";\r\n        }\r\n        Bet memory bet = Bet(_player, _betType, _number, _bet);\r\n        require(bets.length < maxBets, \"There are too many bets this round. Please wait until the next round.\");\r\n        require(bet.bet >= minBetValue, \"Bet too low for table.\");\r\n        require(bet.bet <= maxBetValue, \"Bet too high for table.\");\r\n        _receive(bet.player, bet.bet);\r\n        bets.push(bet);\r\n        emit BetOn(_player, _betType, _number, _bet);\r\n    }\r\n    \r\n    \r\n    \r\n    //spin\r\n    function _getRandomSpace() private returns(Space storage space) {\r\n        uint index = _randomNumber(wheel.length);\r\n        return wheel[index];\r\n    }\r\n    function _spin() private {\r\n        require(_timeLeft() == 0, \"Please wait until spinning to allow more bets to come in.\");\r\n        delete lastRoundWinningBets;\r\n        Space storage result = _getRandomSpace();\r\n        lastSpace = result;\r\n        for(uint i; i < bets.length; i ++) {\r\n            uint prize = _getPrize(result, bets[i]);\r\n            if(prize > 0) {\r\n                _pay(bets[i].player, prize);\r\n                lastRoundWinningBets.push(bets[i]);\r\n                emit Won(bets[i].player, prize);\r\n            }\r\n        }\r\n        delete bets;\r\n        nextSpinAt = block.timestamp + timeLimit;\r\n        emit Spun(result);\r\n    }\r\n    \r\n    \r\n    \r\n    //get prize for a bet\r\n    function _getPrize(Space storage _space, Bet storage _bet) private view returns(uint prize) {\r\n        BetTypes betType = betTypes[_bet.betType];\r\n        if (betType == BetTypes.number) {\r\n            if(_bet.number == _space.number) {\r\n                prize = _bet.bet * wheel.length - 1;\r\n            }\r\n        } else if(betType == BetTypes.red) {\r\n            if(colours[_space.colour] == Colours.red) {\r\n                prize = _bet.bet * 2;\r\n            }\r\n        } else if(betType == BetTypes.black) {\r\n            if(colours[_space.colour] == Colours.black) {\r\n                prize = _bet.bet * 2;\r\n            }\r\n        } else if(betType == BetTypes.green) {\r\n            if(colours[_space.colour] == Colours.green) {\r\n                prize = _bet.bet * wheel.length - 1;\r\n            }\r\n        } else if(betType == BetTypes.odd) {\r\n            if(_isOdd(_space.number)) {\r\n                prize = _bet.bet * 2;\r\n            }\r\n        } else if(betType == BetTypes.even) {\r\n            if(_isEven(_space.number)) {\r\n                prize = _bet.bet * 2;\r\n            }\r\n        }\r\n    }\r\n    \r\n    \r\n\r\n    //create the wheel\r\n    function _initialiseWheel(uint _numberOfSpaces) private {\r\n        require(_isOdd(_numberOfSpaces), \"Wheel must have an odd number of spaces.\");\r\n        uint i;\r\n        wheel.push(Space(i,\"green\"));\r\n        i ++;\r\n        while(i < (_numberOfSpaces / 2) + 1) {\r\n            wheel.push(Space(i, \"red\"));\r\n            i ++;\r\n        }\r\n        while(i < _numberOfSpaces) {\r\n            wheel.push(Space(i, \"black\"));\r\n            i ++;\r\n        }\r\n    }\r\n    \r\n    \r\n    \r\n    \r\n    //XYA\r\n    function _pay(address _player, uint _amount) private {\r\n        XYA.transfer(_player, _amount);\r\n    }\r\n    function _receive(address _player, uint _amount) private {\r\n        XYA.transferFrom(_player, address(this), _amount);\r\n        _splitToProfitTakers(_amount / wheel.length);\r\n    }\r\n    function _splitToProfitTakers(uint _amount) private {\r\n        if(profitTakerPoints == 0) {\r\n            return;\r\n        }\r\n        uint XYAPerPoint = _amount / profitTakerPoints;\r\n        for(uint i; i < profitTakers.length; i ++) {\r\n            _pay(profitTakers[i].addr, profitTakers[i].points * XYAPerPoint);\r\n        }\r\n    }\r\n    \r\n    \r\n    //time\r\n    function _timeLeft() private view returns(uint) {\r\n        return block.timestamp < nextSpinAt ? nextSpinAt - block.timestamp : 0;\r\n    }\r\n    \r\n    \r\n    \r\n    //misc\r\n    function _isOdd(uint _number) private pure returns(bool) {\r\n        return _number % 2 == 1;\r\n    }\r\n    function _isEven(uint _number) private pure returns(bool) {\r\n        return _number % 2 == 0;\r\n    }\r\n    \r\n    \r\n    \r\n    //admin\r\n    function setParams(uint _minBetValue, uint _maxBetValue, uint _maxBets, uint _timeLimit) public onlyOwner {\r\n        (minBetValue, maxBetValue, maxBets, timeLimit) = (_minBetValue, _maxBetValue, _maxBets, _timeLimit);\r\n    }\r\n    function withdraw(uint _amount) public onlyOwner {\r\n        _pay(msg.sender, _amount); \r\n    }\r\n    function getProfitTakers() public view onlyOwner returns(ProfitTaker[] memory) {\r\n        return profitTakers;\r\n    }\r\n    function addProfitTaker(ProfitTaker calldata _profitTaker) public onlyOwner {\r\n        profitTakers.push(_profitTaker);\r\n        profitTakerPoints += _profitTaker.points;\r\n    }\r\n    function deleteProfitTakers() public onlyOwner {\r\n        delete profitTakers;\r\n        profitTakerPoints -= profitTakerPoints;\r\n    }\r\n\r\n    function _getSalt() internal override view returns(bytes memory) {\r\n        return \"rourou\";\r\n    }\r\n}",
  "sourcePath": "C:\\Users\\lukey\\Documents\\vscode\\projects\\XYA\\Casino\\contracts\\Roulette.sol",
  "compiler": {
    "name": "solc",
    "version": "0.8.10+commit.fc410830.Emscripten.clang"
  },
  "schemaVersion": "3.4.3",
  "updatedAt": "2021-11-18T18:42:13.238Z",
  "devdoc": {
    "kind": "dev",
    "methods": {
      "owner()": {
        "details": "Returns the address of the current owner."
      },
      "renounceOwnership()": {
        "details": "Leaves the contract without owner. It will not be possible to call `onlyOwner` functions anymore. Can only be called by the current owner. NOTE: Renouncing ownership will leave the contract without an owner, thereby removing any functionality that is only available to the owner."
      },
      "transferOwnership(address)": {
        "details": "Transfers ownership of the contract to a new account (`newOwner`). Can only be called by the current owner."
      }
    },
    "version": 1
  },
  "userdoc": {
    "kind": "user",
    "methods": {},
    "version": 1
  }
}