{
  "contractName": "Roulette",
  "abi": [
    {
      "inputs": [
        {
          "internalType": "contract IERC20",
          "name": "_XYA",
          "type": "address"
        },
        {
          "internalType": "uint256",
          "name": "_numberOfSpaces",
          "type": "uint256"
        }
      ],
      "stateMutability": "nonpayable",
      "type": "constructor"
    },
    {
      "anonymous": false,
      "inputs": [
        {
          "indexed": true,
          "internalType": "address",
          "name": "player",
          "type": "address"
        },
        {
          "indexed": false,
          "internalType": "string",
          "name": "betType",
          "type": "string"
        },
        {
          "indexed": false,
          "internalType": "uint256",
          "name": "number",
          "type": "uint256"
        },
        {
          "indexed": false,
          "internalType": "uint256",
          "name": "bet",
          "type": "uint256"
        }
      ],
      "name": "BetOn",
      "type": "event"
    },
    {
      "anonymous": false,
      "inputs": [
        {
          "indexed": true,
          "internalType": "address",
          "name": "previousOwner",
          "type": "address"
        },
        {
          "indexed": true,
          "internalType": "address",
          "name": "newOwner",
          "type": "address"
        }
      ],
      "name": "OwnershipTransferred",
      "type": "event"
    },
    {
      "anonymous": false,
      "inputs": [
        {
          "components": [
            {
              "internalType": "uint256",
              "name": "number",
              "type": "uint256"
            },
            {
              "internalType": "string",
              "name": "colour",
              "type": "string"
            }
          ],
          "indexed": false,
          "internalType": "struct Roulette.Space",
          "name": "space",
          "type": "tuple"
        }
      ],
      "name": "Spun",
      "type": "event"
    },
    {
      "anonymous": false,
      "inputs": [
        {
          "indexed": true,
          "internalType": "address",
          "name": "player",
          "type": "address"
        },
        {
          "indexed": false,
          "internalType": "uint256",
          "name": "amount",
          "type": "uint256"
        }
      ],
      "name": "Won",
      "type": "event"
    },
    {
      "inputs": [],
      "name": "owner",
      "outputs": [
        {
          "internalType": "address",
          "name": "",
          "type": "address"
        }
      ],
      "stateMutability": "view",
      "type": "function"
    },
    {
      "inputs": [],
      "name": "renounceOwnership",
      "outputs": [],
      "stateMutability": "nonpayable",
      "type": "function"
    },
    {
      "inputs": [
        {
          "internalType": "address",
          "name": "newOwner",
          "type": "address"
        }
      ],
      "name": "transferOwnership",
      "outputs": [],
      "stateMutability": "nonpayable",
      "type": "function"
    },
    {
      "inputs": [],
      "name": "getWheel",
      "outputs": [
        {
          "components": [
            {
              "internalType": "uint256",
              "name": "number",
              "type": "uint256"
            },
            {
              "internalType": "string",
              "name": "colour",
              "type": "string"
            }
          ],
          "internalType": "struct Roulette.Space[]",
          "name": "",
          "type": "tuple[]"
        }
      ],
      "stateMutability": "view",
      "type": "function"
    },
    {
      "inputs": [],
      "name": "getLastSpace",
      "outputs": [
        {
          "components": [
            {
              "internalType": "uint256",
              "name": "number",
              "type": "uint256"
            },
            {
              "internalType": "string",
              "name": "colour",
              "type": "string"
            }
          ],
          "internalType": "struct Roulette.Space",
          "name": "",
          "type": "tuple"
        }
      ],
      "stateMutability": "view",
      "type": "function"
    },
    {
      "inputs": [],
      "name": "getTimeLeft",
      "outputs": [
        {
          "internalType": "uint256",
          "name": "",
          "type": "uint256"
        }
      ],
      "stateMutability": "view",
      "type": "function"
    },
    {
      "inputs": [],
      "name": "getCurrentBets",
      "outputs": [
        {
          "components": [
            {
              "internalType": "address",
              "name": "player",
              "type": "address"
            },
            {
              "internalType": "string",
              "name": "betType",
              "type": "string"
            },
            {
              "internalType": "uint256",
              "name": "number",
              "type": "uint256"
            },
            {
              "internalType": "uint256",
              "name": "bet",
              "type": "uint256"
            }
          ],
          "internalType": "struct Roulette.Bet[]",
          "name": "",
          "type": "tuple[]"
        }
      ],
      "stateMutability": "view",
      "type": "function"
    },
    {
      "inputs": [],
      "name": "getLastRoundWinningBets",
      "outputs": [
        {
          "components": [
            {
              "internalType": "address",
              "name": "player",
              "type": "address"
            },
            {
              "internalType": "string",
              "name": "betType",
              "type": "string"
            },
            {
              "internalType": "uint256",
              "name": "number",
              "type": "uint256"
            },
            {
              "internalType": "uint256",
              "name": "bet",
              "type": "uint256"
            }
          ],
          "internalType": "struct Roulette.Bet[]",
          "name": "",
          "type": "tuple[]"
        }
      ],
      "stateMutability": "view",
      "type": "function"
    },
    {
      "inputs": [
        {
          "internalType": "string",
          "name": "_betType",
          "type": "string"
        },
        {
          "internalType": "uint256",
          "name": "_number",
          "type": "uint256"
        },
        {
          "internalType": "uint256",
          "name": "_bet",
          "type": "uint256"
        }
      ],
      "name": "makeBet",
      "outputs": [],
      "stateMutability": "nonpayable",
      "type": "function"
    },
    {
      "inputs": [],
      "name": "spin",
      "outputs": [],
      "stateMutability": "nonpayable",
      "type": "function"
    },
    {
      "inputs": [
        {
          "internalType": "uint256",
          "name": "_minBetValue",
          "type": "uint256"
        },
        {
          "internalType": "uint256",
          "name": "_maxBetValue",
          "type": "uint256"
        },
        {
          "internalType": "uint256",
          "name": "_maxBets",
          "type": "uint256"
        },
        {
          "internalType": "uint256",
          "name": "_timeLimit",
          "type": "uint256"
        }
      ],
      "name": "setParams",
      "outputs": [],
      "stateMutability": "nonpayable",
      "type": "function"
    },
    {
      "inputs": [
        {
          "internalType": "uint256",
          "name": "_amount",
          "type": "uint256"
        }
      ],
      "name": "withdraw",
      "outputs": [],
      "stateMutability": "nonpayable",
      "type": "function"
    },
    {
      "inputs": [],
      "name": "getProfitTakers",
      "outputs": [
        {
          "components": [
            {
              "internalType": "address",
              "name": "addr",
              "type": "address"
            },
            {
              "internalType": "uint256",
              "name": "points",
              "type": "uint256"
            }
          ],
          "internalType": "struct Roulette.ProfitTaker[]",
          "name": "",
          "type": "tuple[]"
        }
      ],
      "stateMutability": "view",
      "type": "function"
    },
    {
      "inputs": [
        {
          "components": [
            {
              "internalType": "address",
              "name": "addr",
              "type": "address"
            },
            {
              "internalType": "uint256",
              "name": "points",
              "type": "uint256"
            }
          ],
          "internalType": "struct Roulette.ProfitTaker",
          "name": "_profitTaker",
          "type": "tuple"
        }
      ],
      "name": "addProfitTaker",
      "outputs": [],
      "stateMutability": "nonpayable",
      "type": "function"
    },
    {
      "inputs": [],
      "name": "deleteProfitTakers",
      "outputs": [],
      "stateMutability": "nonpayable",
      "type": "function"
    }
  ],
  "bytecode": "0x60806040523480156200001157600080fd5b5060405162003d1e38038062003d1e8339818101604052810190620000379190620007f5565b620000576200004b6200030060201b60201c565b6200030860201b60201c565b81600260006101000a81548173ffffffffffffffffffffffffffffffffffffffff021916908373ffffffffffffffffffffffffffffffffffffffff160217905550620000a981620003cc60201b60201c565b60006003604051620000bb9062000897565b908152602001604051809103902060006101000a81548160ff02191690836002811115620000ee57620000ed620008ae565b5b02179055506001600360405162000105906200092d565b908152602001604051809103902060006101000a81548160ff02191690836002811115620001385762000137620008ae565b5b0217905550600260036040516200014f9062000994565b908152602001604051809103902060006101000a81548160ff02191690836002811115620001825762000181620008ae565b5b0217905550600060046040516200019990620009fb565b908152602001604051809103902060006101000a81548160ff02191690836005811115620001cc57620001cb620008ae565b5b021790555060016004604051620001e39062000897565b908152602001604051809103902060006101000a81548160ff02191690836005811115620002165762000215620008ae565b5b0217905550600260046040516200022d906200092d565b908152602001604051809103902060006101000a81548160ff0219169083600581111562000260576200025f620008ae565b5b0217905550600480604051620002769062000a62565b908152602001604051809103902060006101000a81548160ff02191690836005811115620002a957620002a8620008ae565b5b021790555060056004604051620002c09062000ac9565b908152602001604051809103902060006101000a81548160ff02191690836005811115620002f357620002f2620008ae565b5b0217905550505062000d67565b600033905090565b60008060009054906101000a900473ffffffffffffffffffffffffffffffffffffffff169050816000806101000a81548173ffffffffffffffffffffffffffffffffffffffff021916908373ffffffffffffffffffffffffffffffffffffffff1602179055508173ffffffffffffffffffffffffffffffffffffffff168173ffffffffffffffffffffffffffffffffffffffff167f8be0079c531659141344cd1fd0a4f28419497f9722a3daafe3b4186f6b6457e060405160405180910390a35050565b620003dd816200067160201b60201c565b6200041f576040517f08c379a0000000000000000000000000000000000000000000000000000000008152600401620004169062000b67565b60405180910390fd5b6000600960405180604001604052808381526020016040518060400160405280600581526020017f677265656e0000000000000000000000000000000000000000000000000000008152508152509080600181540180825580915050600190039060005260206000209060020201600090919091909150600082015181600001556020820151816001019080519060200190620004be9291906200068c565b5050508080620004ce9062000bb8565b9150505b6001600283620004e3919062000c35565b620004ef919062000c6d565b811015620005ad57600960405180604001604052808381526020016040518060400160405280600381526020017f72656400000000000000000000000000000000000000000000000000000000008152508152509080600181540180825580915050600190039060005260206000209060020201600090919091909150600082015181600001556020820151816001019080519060200190620005949291906200068c565b5050508080620005a49062000bb8565b915050620004d2565b5b818110156200066d57600960405180604001604052808381526020016040518060400160405280600581526020017f626c61636b0000000000000000000000000000000000000000000000000000008152508152509080600181540180825580915050600190039060005260206000209060020201600090919091909150600082015181600001556020820151816001019080519060200190620006549291906200068c565b5050508080620006649062000bb8565b915050620005ae565b5050565b6000600160028362000684919062000cca565b149050919050565b8280546200069a9062000d31565b90600052602060002090601f016020900481019282620006be57600085556200070a565b82601f10620006d957805160ff19168380011785556200070a565b828001600101855582156200070a579182015b8281111562000709578251825591602001919060010190620006ec565b5b5090506200071991906200071d565b5090565b5b80821115620007385760008160009055506001016200071e565b5090565b600080fd5b600073ffffffffffffffffffffffffffffffffffffffff82169050919050565b60006200076e8262000741565b9050919050565b6000620007828262000761565b9050919050565b620007948162000775565b8114620007a057600080fd5b50565b600081519050620007b48162000789565b92915050565b6000819050919050565b620007cf81620007ba565b8114620007db57600080fd5b50565b600081519050620007ef81620007c4565b92915050565b600080604083850312156200080f576200080e6200073c565b5b60006200081f85828601620007a3565b92505060206200083285828601620007de565b9150509250929050565b600081905092915050565b7f7265640000000000000000000000000000000000000000000000000000000000600082015250565b60006200087f6003836200083c565b91506200088c8262000847565b600382019050919050565b6000620008a48262000870565b9150819050919050565b7f4e487b7100000000000000000000000000000000000000000000000000000000600052602160045260246000fd5b7f626c61636b000000000000000000000000000000000000000000000000000000600082015250565b6000620009156005836200083c565b91506200092282620008dd565b600582019050919050565b60006200093a8262000906565b9150819050919050565b7f677265656e000000000000000000000000000000000000000000000000000000600082015250565b60006200097c6005836200083c565b9150620009898262000944565b600582019050919050565b6000620009a1826200096d565b9150819050919050565b7f6e756d6265720000000000000000000000000000000000000000000000000000600082015250565b6000620009e36006836200083c565b9150620009f082620009ab565b600682019050919050565b600062000a0882620009d4565b9150819050919050565b7f6f64640000000000000000000000000000000000000000000000000000000000600082015250565b600062000a4a6003836200083c565b915062000a578262000a12565b600382019050919050565b600062000a6f8262000a3b565b9150819050919050565b7f6576656e00000000000000000000000000000000000000000000000000000000600082015250565b600062000ab16004836200083c565b915062000abe8262000a79565b600482019050919050565b600062000ad68262000aa2565b9150819050919050565b600082825260208201905092915050565b7f576865656c206d757374206861766520616e206f6464206e756d626572206f6660008201527f207370616365732e000000000000000000000000000000000000000000000000602082015250565b600062000b4f60288362000ae0565b915062000b5c8262000af1565b604082019050919050565b6000602082019050818103600083015262000b828162000b40565b9050919050565b7f4e487b7100000000000000000000000000000000000000000000000000000000600052601160045260246000fd5b600062000bc582620007ba565b91507fffffffffffffffffffffffffffffffffffffffffffffffffffffffffffffffff82141562000bfb5762000bfa62000b89565b5b600182019050919050565b7f4e487b7100000000000000000000000000000000000000000000000000000000600052601260045260246000fd5b600062000c4282620007ba565b915062000c4f83620007ba565b92508262000c625762000c6162000c06565b5b828204905092915050565b600062000c7a82620007ba565b915062000c8783620007ba565b9250827fffffffffffffffffffffffffffffffffffffffffffffffffffffffffffffffff0382111562000cbf5762000cbe62000b89565b5b828201905092915050565b600062000cd782620007ba565b915062000ce483620007ba565b92508262000cf75762000cf662000c06565b5b828206905092915050565b7f4e487b7100000000000000000000000000000000000000000000000000000000600052602260045260246000fd5b6000600282049050600182168062000d4a57607f821691505b6020821081141562000d615762000d6062000d02565b5b50919050565b612fa78062000d776000396000f3fe608060405234801561001057600080fd5b50600436106100f55760003560e01c80637ece45e811610097578063c7e284b811610066578063c7e284b814610214578063d8a4d8ac14610232578063f0acd7d514610250578063f2fde38b1461025a576100f5565b80637ece45e8146101a05780638da5cb5b146101bc578063a347e172146101da578063bf2d0bce146101f6576100f5565b80633ea118ad116100d35780633ea118ad1461013e5780634a4bd9ec1461015c578063715018a61461017a57806377c3c8cb14610184576100f5565b80632569e0f4146100fa5780632e1a7d4d146101045780633b4ca5d214610120575b600080fd5b610102610276565b005b61011e60048036038101906101199190611cae565b61031d565b005b6101286103a6565b6040516101359190611ee9565b60405180910390f35b610146610501565b6040516101539190611f48565b60405180910390f35b6101646105b7565b6040516101719190612069565b60405180910390f35b6101826106b2565b005b61019e600480360381019061019991906120af565b61073a565b005b6101ba60048036038101906101b591906120dc565b610810565b005b6101c46108be565b6040516101d19190612152565b60405180910390f35b6101f460048036038101906101ef91906121d2565b6108e7565b005b6101fe61093d565b60405161020b9190611ee9565b60405180910390f35b61021c610a98565b6040516102299190612255565b60405180910390f35b61023a610aa7565b604051610247919061234e565b60405180910390f35b610258610be2565b005b610274600480360381019061026f919061239c565b610bec565b005b61027e610ce4565b73ffffffffffffffffffffffffffffffffffffffff1661029c6108be565b73ffffffffffffffffffffffffffffffffffffffff16146102f2576040517f08c379a00000000000000000000000000000000000000000000000000000000081526004016102e990612426565b60405180910390fd5b600f600061030091906119f8565b601054601060008282546103149190612475565b92505081905550565b610325610ce4565b73ffffffffffffffffffffffffffffffffffffffff166103436108be565b73ffffffffffffffffffffffffffffffffffffffff1614610399576040517f08c379a000000000000000000000000000000000000000000000000000000000815260040161039090612426565b60405180910390fd5b6103a33382610cec565b50565b6060600c805480602002602001604051908101604052809291908181526020016000905b828210156104f857838290600052602060002090600402016040518060800160405290816000820160009054906101000a900473ffffffffffffffffffffffffffffffffffffffff1673ffffffffffffffffffffffffffffffffffffffff1673ffffffffffffffffffffffffffffffffffffffff168152602001600182018054610453906124d8565b80601f016020809104026020016040519081016040528092919081815260200182805461047f906124d8565b80156104cc5780601f106104a1576101008083540402835291602001916104cc565b820191906000526020600020905b8154815290600101906020018083116104af57829003601f168201915b5050505050815260200160028201548152602001600382015481525050815260200190600101906103ca565b50505050905090565b610509611a1c565b600a60405180604001604052908160008201548152602001600182018054610530906124d8565b80601f016020809104026020016040519081016040528092919081815260200182805461055c906124d8565b80156105a95780601f1061057e576101008083540402835291602001916105a9565b820191906000526020600020905b81548152906001019060200180831161058c57829003601f168201915b505050505081525050905090565b60606009805480602002602001604051908101604052809291908181526020016000905b828210156106a9578382906000526020600020906002020160405180604001604052908160008201548152602001600182018054610618906124d8565b80601f0160208091040260200160405190810160405280929190818152602001828054610644906124d8565b80156106915780601f1061066657610100808354040283529160200191610691565b820191906000526020600020905b81548152906001019060200180831161067457829003601f168201915b505050505081525050815260200190600101906105db565b50505050905090565b6106ba610ce4565b73ffffffffffffffffffffffffffffffffffffffff166106d86108be565b73ffffffffffffffffffffffffffffffffffffffff161461072e576040517f08c379a000000000000000000000000000000000000000000000000000000000815260040161072590612426565b60405180910390fd5b6107386000610d91565b565b610742610ce4565b73ffffffffffffffffffffffffffffffffffffffff166107606108be565b73ffffffffffffffffffffffffffffffffffffffff16146107b6576040517f08c379a00000000000000000000000000000000000000000000000000000000081526004016107ad90612426565b60405180910390fd5b600f81908060018154018082558091505060019003906000526020600020906002020160009091909190915081816107ee91906126cd565b505080602001356010600082825461080691906126db565b9250508190555050565b610818610ce4565b73ffffffffffffffffffffffffffffffffffffffff166108366108be565b73ffffffffffffffffffffffffffffffffffffffff161461088c576040517f08c379a000000000000000000000000000000000000000000000000000000000815260040161088390612426565b60405180910390fd5b838383836005600060066000600760006008600088919050558791905055869190505585919050555050505050505050565b60008060009054906101000a900473ffffffffffffffffffffffffffffffffffffffff16905090565b6109373385858080601f016020809104026020016040519081016040528093929190818152602001838380828437600081840152601f19601f820116905080830192505050505050508484610e55565b50505050565b6060600d805480602002602001604051908101604052809291908181526020016000905b82821015610a8f57838290600052602060002090600402016040518060800160405290816000820160009054906101000a900473ffffffffffffffffffffffffffffffffffffffff1673ffffffffffffffffffffffffffffffffffffffff1673ffffffffffffffffffffffffffffffffffffffff1681526020016001820180546109ea906124d8565b80601f0160208091040260200160405190810160405280929190818152602001828054610a16906124d8565b8015610a635780601f10610a3857610100808354040283529160200191610a63565b820191906000526020600020905b815481529060010190602001808311610a4657829003601f168201915b505050505081526020016002820154815260200160038201548152505081526020019060010190610961565b50505050905090565b6000610aa261110d565b905090565b6060610ab1610ce4565b73ffffffffffffffffffffffffffffffffffffffff16610acf6108be565b73ffffffffffffffffffffffffffffffffffffffff1614610b25576040517f08c379a0000000000000000000000000000000000000000000000000000000008152600401610b1c90612426565b60405180910390fd5b600f805480602002602001604051908101604052809291908181526020016000905b82821015610bd957838290600052602060002090600202016040518060400160405290816000820160009054906101000a900473ffffffffffffffffffffffffffffffffffffffff1673ffffffffffffffffffffffffffffffffffffffff1673ffffffffffffffffffffffffffffffffffffffff16815260200160018201548152505081526020019060010190610b47565b50505050905090565b610bea611133565b565b610bf4610ce4565b73ffffffffffffffffffffffffffffffffffffffff16610c126108be565b73ffffffffffffffffffffffffffffffffffffffff1614610c68576040517f08c379a0000000000000000000000000000000000000000000000000000000008152600401610c5f90612426565b60405180910390fd5b600073ffffffffffffffffffffffffffffffffffffffff168173ffffffffffffffffffffffffffffffffffffffff161415610cd8576040517f08c379a0000000000000000000000000000000000000000000000000000000008152600401610ccf906127a3565b60405180910390fd5b610ce181610d91565b50565b600033905090565b600260009054906101000a900473ffffffffffffffffffffffffffffffffffffffff1673ffffffffffffffffffffffffffffffffffffffff1663a9059cbb83836040518363ffffffff1660e01b8152600401610d499291906127c3565b6020604051808303816000875af1158015610d68573d6000803e3d6000fd5b505050506040513d601f19601f82011682018060405250810190610d8c9190612824565b505050565b60008060009054906101000a900473ffffffffffffffffffffffffffffffffffffffff169050816000806101000a81548173ffffffffffffffffffffffffffffffffffffffff021916908373ffffffffffffffffffffffffffffffffffffffff1602179055508173ffffffffffffffffffffffffffffffffffffffff168173ffffffffffffffffffffffffffffffffffffffff167f8be0079c531659141344cd1fd0a4f28419497f9722a3daafe3b4186f6b6457e060405160405180910390a35050565b60006005811115610e6957610e68612851565b5b600484604051610e7991906128bc565b908152602001604051809103902060009054906101000a900460ff166005811115610ea757610ea6612851565b5b1415610ee6576040518060400160405280600681526020017f6e756d626572000000000000000000000000000000000000000000000000000081525092505b600060405180608001604052808673ffffffffffffffffffffffffffffffffffffffff168152602001858152602001848152602001838152509050600754600c8054905010610f6a576040517f08c379a0000000000000000000000000000000000000000000000000000000008152600401610f619061296b565b60405180910390fd5b60055481606001511015610fb3576040517f08c379a0000000000000000000000000000000000000000000000000000000008152600401610faa906129d7565b60405180910390fd5b60065481606001511115610ffc576040517f08c379a0000000000000000000000000000000000000000000000000000000008152600401610ff390612a43565b60405180910390fd5b61100e8160000151826060015161144d565b600c81908060018154018082558091505060019003906000526020600020906004020160009091909190915060008201518160000160006101000a81548173ffffffffffffffffffffffffffffffffffffffff021916908373ffffffffffffffffffffffffffffffffffffffff160217905550602082015181600101908051906020019061109d929190611a36565b50604082015181600201556060820151816003015550508473ffffffffffffffffffffffffffffffffffffffff167f02dfe6f9511f0a5ad9b1b02f3ef3466e8a2aa3694604d85df2dccaccec73da9b8585856040516110fe93929190612a9c565b60405180910390a25050505050565b6000600e54421061111f57600061112e565b42600e5461112d9190612475565b5b905090565b600061113d61110d565b1461117d576040517f08c379a000000000000000000000000000000000000000000000000000000000815260040161117490612b4c565b60405180910390fd5b600d600061118b9190611abc565b600061119561150d565b905080600a6000820154816000015560018201816001019080546111b8906124d8565b6111c3929190611ae0565b5090505060005b600c805490508110156113f057600061120483600c84815481106111f1576111f0612b6c565b5b9060005260206000209060040201611548565b905060008111156113dc5761125e600c838154811061122657611225612b6c565b5b906000526020600020906004020160000160009054906101000a900473ffffffffffffffffffffffffffffffffffffffff1682610cec565b600d600c838154811061127457611273612b6c565b5b906000526020600020906004020190806001815401808255809150506001900390600052602060002090600402016000909190919091506000820160009054906101000a900473ffffffffffffffffffffffffffffffffffffffff168160000160006101000a81548173ffffffffffffffffffffffffffffffffffffffff021916908373ffffffffffffffffffffffffffffffffffffffff1602179055506001820181600101908054611326906124d8565b611331929190611ae0565b5060028201548160020155600382015481600301555050600c828154811061135c5761135b612b6c565b5b906000526020600020906004020160000160009054906101000a900473ffffffffffffffffffffffffffffffffffffffff1673ffffffffffffffffffffffffffffffffffffffff167f8b01f9dd0400d6a1e84369a5fb8f6033934856ffa8ebadd707dca302ab551695826040516113d39190612255565b60405180910390a25b5080806113e890612b9b565b9150506111ca565b50600c60006113ff9190611abc565b6008544261140d91906126db565b600e819055507f48f3c71f2d4f0b71daa28c678901a134a91a3953388a4422bd186278b1951c0a816040516114429190612cf3565b60405180910390a150565b600260009054906101000a900473ffffffffffffffffffffffffffffffffffffffff1673ffffffffffffffffffffffffffffffffffffffff166323b872dd8330846040518463ffffffff1660e01b81526004016114ac93929190612d15565b6020604051808303816000875af11580156114cb573d6000803e3d6000fd5b505050506040513d601f19601f820116820180604052508101906114ef9190612824565b50611509600980549050826115049190612d7b565b61188b565b5050565b60008061151e600980549050611955565b90506009818154811061153457611533612b6c565b5b906000526020600020906002020191505090565b60008060048360010160405161155e9190612e2b565b908152602001604051809103902060009054906101000a900460ff169050600060058111156115905761158f612851565b5b8160058111156115a3576115a2612851565b5b14156115e2578360000154836002015414156115dd57600160098054905084600301546115d09190612e42565b6115da9190612475565b91505b611884565b600160058111156115f6576115f5612851565b5b81600581111561160957611608612851565b5b1415611683576000600281111561162357611622612851565b5b6003856001016040516116369190612e2b565b908152602001604051809103902060009054906101000a900460ff16600281111561166457611663612851565b5b141561167e576002836003015461167b9190612e42565b91505b611883565b6002600581111561169757611696612851565b5b8160058111156116aa576116a9612851565b5b141561172457600160028111156116c4576116c3612851565b5b6003856001016040516116d79190612e2b565b908152602001604051809103902060009054906101000a900460ff16600281111561170557611704612851565b5b141561171f576002836003015461171c9190612e42565b91505b611882565b6003600581111561173857611737612851565b5b81600581111561174b5761174a612851565b5b14156117d45760028081111561176457611763612851565b5b6003856001016040516117779190612e2b565b908152602001604051809103902060009054906101000a900460ff1660028111156117a5576117a4612851565b5b14156117cf57600160098054905084600301546117c29190612e42565b6117cc9190612475565b91505b611881565b600460058111156117e8576117e7612851565b5b8160058111156117fb576117fa612851565b5b141561182c5761180e84600001546119c7565b1561182757600283600301546118249190612e42565b91505b611880565b60058081111561183f5761183e612851565b5b81600581111561185257611851612851565b5b141561187f5761186584600001546119e0565b1561187e576002836003015461187b9190612e42565b91505b5b5b5b5b5b5b5092915050565b6000601054141561189b57611952565b6000601054826118ab9190612d7b565b905060005b600f8054905081101561194f5761193c600f82815481106118d4576118d3612b6c565b5b906000526020600020906002020160000160009054906101000a900473ffffffffffffffffffffffffffffffffffffffff1683600f848154811061191b5761191a612b6c565b5b9060005260206000209060020201600101546119379190612e42565b610cec565b808061194790612b9b565b9150506118b0565b50505b50565b60008082141561196857600090506119c2565b60004260015460405160200161197f929190612f09565b6040516020818303038152906040528051906020012060001c905082816119a69190612f40565b9150600160008154809291906119bb90612b9b565b9190505550505b919050565b600060016002836119d89190612f40565b149050919050565b6000806002836119f09190612f40565b149050919050565b5080546000825560020290600052602060002090810190611a199190611b6d565b50565b604051806040016040528060008152602001606081525090565b828054611a42906124d8565b90600052602060002090601f016020900481019282611a645760008555611aab565b82601f10611a7d57805160ff1916838001178555611aab565b82800160010185558215611aab579182015b82811115611aaa578251825591602001919060010190611a8f565b5b509050611ab89190611bb3565b5090565b5080546000825560040290600052602060002090810190611add9190611bd0565b50565b828054611aec906124d8565b90600052602060002090601f016020900481019282611b0e5760008555611b5c565b82601f10611b1f5780548555611b5c565b82800160010185558215611b5c57600052602060002091601f016020900482015b82811115611b5b578254825591600101919060010190611b40565b5b509050611b699190611bb3565b5090565b5b80821115611baf57600080820160006101000a81549073ffffffffffffffffffffffffffffffffffffffff0219169055600182016000905550600201611b6e565b5090565b5b80821115611bcc576000816000905550600101611bb4565b5090565b5b80821115611c2a57600080820160006101000a81549073ffffffffffffffffffffffffffffffffffffffff0219169055600182016000611c119190611c2e565b6002820160009055600382016000905550600401611bd1565b5090565b508054611c3a906124d8565b6000825580601f10611c4c5750611c6b565b601f016020900490600052602060002090810190611c6a9190611bb3565b5b50565b600080fd5b600080fd5b6000819050919050565b611c8b81611c78565b8114611c9657600080fd5b50565b600081359050611ca881611c82565b92915050565b600060208284031215611cc457611cc3611c6e565b5b6000611cd284828501611c99565b91505092915050565b600081519050919050565b600082825260208201905092915050565b6000819050602082019050919050565b600073ffffffffffffffffffffffffffffffffffffffff82169050919050565b6000611d3282611d07565b9050919050565b611d4281611d27565b82525050565b600081519050919050565b600082825260208201905092915050565b60005b83811015611d82578082015181840152602081019050611d67565b83811115611d91576000848401525b50505050565b6000601f19601f8301169050919050565b6000611db382611d48565b611dbd8185611d53565b9350611dcd818560208601611d64565b611dd681611d97565b840191505092915050565b611dea81611c78565b82525050565b6000608083016000830151611e086000860182611d39565b5060208301518482036020860152611e208282611da8565b9150506040830151611e356040860182611de1565b506060830151611e486060860182611de1565b508091505092915050565b6000611e5f8383611df0565b905092915050565b6000602082019050919050565b6000611e7f82611cdb565b611e898185611ce6565b935083602082028501611e9b85611cf7565b8060005b85811015611ed75784840389528151611eb88582611e53565b9450611ec383611e67565b925060208a01995050600181019050611e9f565b50829750879550505050505092915050565b60006020820190508181036000830152611f038184611e74565b905092915050565b6000604083016000830151611f236000860182611de1565b5060208301518482036020860152611f3b8282611da8565b9150508091505092915050565b60006020820190508181036000830152611f628184611f0b565b905092915050565b600081519050919050565b600082825260208201905092915050565b6000819050602082019050919050565b6000604083016000830151611fae6000860182611de1565b5060208301518482036020860152611fc68282611da8565b9150508091505092915050565b6000611fdf8383611f96565b905092915050565b6000602082019050919050565b6000611fff82611f6a565b6120098185611f75565b93508360208202850161201b85611f86565b8060005b8581101561205757848403895281516120388582611fd3565b945061204383611fe7565b925060208a0199505060018101905061201f565b50829750879550505050505092915050565b600060208201905081810360008301526120838184611ff4565b905092915050565b600080fd5b6000604082840312156120a6576120a561208b565b5b81905092915050565b6000604082840312156120c5576120c4611c6e565b5b60006120d384828501612090565b91505092915050565b600080600080608085870312156120f6576120f5611c6e565b5b600061210487828801611c99565b945050602061211587828801611c99565b935050604061212687828801611c99565b925050606061213787828801611c99565b91505092959194509250565b61214c81611d27565b82525050565b60006020820190506121676000830184612143565b92915050565b600080fd5b600080fd5b600080fd5b60008083601f8401126121925761219161216d565b5b8235905067ffffffffffffffff8111156121af576121ae612172565b5b6020830191508360018202830111156121cb576121ca612177565b5b9250929050565b600080600080606085870312156121ec576121eb611c6e565b5b600085013567ffffffffffffffff81111561220a57612209611c73565b5b6122168782880161217c565b9450945050602061222987828801611c99565b925050604061223a87828801611c99565b91505092959194509250565b61224f81611c78565b82525050565b600060208201905061226a6000830184612246565b92915050565b600081519050919050565b600082825260208201905092915050565b6000819050602082019050919050565b6040820160008201516122b26000850182611d39565b5060208201516122c56020850182611de1565b50505050565b60006122d7838361229c565b60408301905092915050565b6000602082019050919050565b60006122fb82612270565b612305818561227b565b93506123108361228c565b8060005b8381101561234157815161232888826122cb565b9750612333836122e3565b925050600181019050612314565b5085935050505092915050565b6000602082019050818103600083015261236881846122f0565b905092915050565b61237981611d27565b811461238457600080fd5b50565b60008135905061239681612370565b92915050565b6000602082840312156123b2576123b1611c6e565b5b60006123c084828501612387565b91505092915050565b600082825260208201905092915050565b7f4f776e61626c653a2063616c6c6572206973206e6f7420746865206f776e6572600082015250565b60006124106020836123c9565b915061241b826123da565b602082019050919050565b6000602082019050818103600083015261243f81612403565b9050919050565b7f4e487b7100000000000000000000000000000000000000000000000000000000600052601160045260246000fd5b600061248082611c78565b915061248b83611c78565b92508282101561249e5761249d612446565b5b828203905092915050565b7f4e487b7100000000000000000000000000000000000000000000000000000000600052602260045260246000fd5b600060028204905060018216806124f057607f821691505b60208210811415612504576125036124a9565b5b50919050565b6000813561251781612370565b80915050919050565b60008160001b9050919050565b600073ffffffffffffffffffffffffffffffffffffffff61254d84612520565b9350801983169250808416831791505092915050565b6000819050919050565b600061258861258361257e84611d07565b612563565b611d07565b9050919050565b600061259a8261256d565b9050919050565b60006125ac8261258f565b9050919050565b6000819050919050565b6125c6826125a1565b6125d96125d2826125b3565b835461252d565b8255505050565b600081356125ed81611c82565b80915050919050565b60007fffffffffffffffffffffffffffffffffffffffffffffffffffffffffffffffff61262284612520565b9350801983169250808416831791505092915050565b600061265361264e61264984611c78565b612563565b611c78565b9050919050565b6000819050919050565b61266d82612638565b6126806126798261265a565b83546125f6565b8255505050565b6000810160008301806126998161250a565b90506126a581846125bd565b5050506001810160208301806126ba816125e0565b90506126c68184612664565b5050505050565b6126d78282612687565b5050565b60006126e682611c78565b91506126f183611c78565b9250827fffffffffffffffffffffffffffffffffffffffffffffffffffffffffffffffff0382111561272657612725612446565b5b828201905092915050565b7f4f776e61626c653a206e6577206f776e657220697320746865207a65726f206160008201527f6464726573730000000000000000000000000000000000000000000000000000602082015250565b600061278d6026836123c9565b915061279882612731565b604082019050919050565b600060208201905081810360008301526127bc81612780565b9050919050565b60006040820190506127d86000830185612143565b6127e56020830184612246565b9392505050565b60008115159050919050565b612801816127ec565b811461280c57600080fd5b50565b60008151905061281e816127f8565b92915050565b60006020828403121561283a57612839611c6e565b5b60006128488482850161280f565b91505092915050565b7f4e487b7100000000000000000000000000000000000000000000000000000000600052602160045260246000fd5b600081905092915050565b600061289682611d48565b6128a08185612880565b93506128b0818560208601611d64565b80840191505092915050565b60006128c8828461288b565b915081905092915050565b7f54686572652061726520746f6f206d616e792062657473207468697320726f7560008201527f6e642e20506c65617365207761697420756e74696c20746865206e657874207260208201527f6f756e642e000000000000000000000000000000000000000000000000000000604082015250565b60006129556045836123c9565b9150612960826128d3565b606082019050919050565b6000602082019050818103600083015261298481612948565b9050919050565b7f42657420746f6f206c6f7720666f72207461626c652e00000000000000000000600082015250565b60006129c16016836123c9565b91506129cc8261298b565b602082019050919050565b600060208201905081810360008301526129f0816129b4565b9050919050565b7f42657420746f6f206869676820666f72207461626c652e000000000000000000600082015250565b6000612a2d6017836123c9565b9150612a38826129f7565b602082019050919050565b60006020820190508181036000830152612a5c81612a20565b9050919050565b6000612a6e82611d48565b612a7881856123c9565b9350612a88818560208601611d64565b612a9181611d97565b840191505092915050565b60006060820190508181036000830152612ab68186612a63565b9050612ac56020830185612246565b612ad26040830184612246565b949350505050565b7f506c65617365207761697420756e74696c207370696e6e696e6720746f20616c60008201527f6c6f77206d6f7265206265747320746f20636f6d6520696e2e00000000000000602082015250565b6000612b366039836123c9565b9150612b4182612ada565b604082019050919050565b60006020820190508181036000830152612b6581612b29565b9050919050565b7f4e487b7100000000000000000000000000000000000000000000000000000000600052603260045260246000fd5b6000612ba682611c78565b91507fffffffffffffffffffffffffffffffffffffffffffffffffffffffffffffffff821415612bd957612bd8612446565b5b600182019050919050565b60008160001c9050919050565b6000819050919050565b6000612c0e612c0983612be4565b612bf1565b9050919050565b60008190508160005260206000209050919050565b60008154612c37816124d8565b612c418186611d53565b94506001821660008114612c5c5760018114612c6e57612ca1565b60ff1983168652602086019350612ca1565b612c7785612c15565b60005b83811015612c9957815481890152600182019150602081019050612c7a565b808801955050505b50505092915050565b6000604083016000808401549050612cc181612bfb565b612cce6000870182611de1565b50600184018583036020870152612ce58382612c2a565b925050819250505092915050565b60006020820190508181036000830152612d0d8184612caa565b905092915050565b6000606082019050612d2a6000830186612143565b612d376020830185612143565b612d446040830184612246565b949350505050565b7f4e487b7100000000000000000000000000000000000000000000000000000000600052601260045260246000fd5b6000612d8682611c78565b9150612d9183611c78565b925082612da157612da0612d4c565b5b828204905092915050565b60008154612db9816124d8565b612dc38186612880565b94506001821660008114612dde5760018114612def57612e22565b60ff19831686528186019350612e22565b612df885612c15565b60005b83811015612e1a57815481890152600182019150602081019050612dfb565b838801955050505b50505092915050565b6000612e378284612dac565b915081905092915050565b6000612e4d82611c78565b9150612e5883611c78565b9250817fffffffffffffffffffffffffffffffffffffffffffffffffffffffffffffffff0483118215151615612e9157612e90612446565b5b828202905092915050565b6000819050919050565b612eb7612eb282611c78565b612e9c565b82525050565b7f706565706565706f6f706f6f0000000000000000000000000000000000000000600082015250565b6000612ef3600c83612880565b9150612efe82612ebd565b600c82019050919050565b6000612f158285612ea6565b602082019150612f2482612ee6565b9150612f308284612ea6565b6020820191508190509392505050565b6000612f4b82611c78565b9150612f5683611c78565b925082612f6657612f65612d4c565b5b82820690509291505056fea26469706673582212209d96be8f0e0652dc1b36db7762d03b000cfa5324f7c534e96ceae0d4a31e48e264736f6c634300080a0033",
  "immutableReferences": {},
  "source": "// SPDX-License-Identifier: MIT\r\npragma solidity ^0.8.0;\r\n\r\nimport \"@openzeppelin/contracts/token/ERC20/IERC20.sol\";\r\nimport \"@openzeppelin/contracts/access/Ownable.sol\";\r\n\r\ncontract Random {\r\n    uint nonce;\r\n    function _randomNumber(uint _upTo) internal returns(uint number) {\r\n        if(_upTo == 0) {\r\n            return 0;\r\n        }\r\n        uint res = uint(keccak256(abi.encodePacked(block.timestamp, \"peepeepoopoo\", nonce)));\r\n        number = res % _upTo;\r\n        nonce ++;\r\n    }\r\n}\r\n\r\ncontract Roulette is Ownable, Random {\r\n    //profit takers\r\n    struct ProfitTaker {\r\n        address addr;\r\n        uint points;\r\n    }\r\n    \r\n    \r\n    \r\n    \r\n    IERC20 XYA;\r\n    constructor(IERC20 _XYA, uint _numberOfSpaces) {\r\n        XYA = _XYA;\r\n        _initialiseWheel(_numberOfSpaces);\r\n        \r\n        \r\n        //map strings to enum values\r\n        colours[\"red\"] = Colours.red;\r\n        colours[\"black\"] = Colours.black;\r\n        colours[\"green\"] = Colours.green;\r\n        betTypes[\"number\"] = BetTypes.number;\r\n        betTypes[\"red\"] = BetTypes.red;\r\n        betTypes[\"black\"] = BetTypes.black;\r\n        betTypes[\"odd\"] = BetTypes.odd;\r\n        betTypes[\"even\"] = BetTypes.even;\r\n    }\r\n    \r\n    \r\n    \r\n    //events\r\n    event Spun(Space space);\r\n    event BetOn(address indexed player, string betType, uint number, uint bet);\r\n    event Won(address indexed player, uint amount);\r\n    \r\n    \r\n    \r\n    //colours\r\n    enum Colours {red, black, green}\r\n    mapping(string => Colours) colours;\r\n    \r\n    \r\n    \r\n    //wheel\r\n    struct Space {\r\n        uint number;\r\n        string colour;\r\n    }\r\n    \r\n    \r\n    \r\n    //bet types\r\n    enum BetTypes {number, red, black, green, odd, even}\r\n    mapping(string => BetTypes) betTypes;\r\n    \r\n    \r\n    \r\n    //bet data type\r\n    struct Bet {\r\n        address player;\r\n        string betType;\r\n        uint number;\r\n        uint bet;\r\n    }\r\n    \r\n    \r\n    \r\n    //parameters\r\n    uint minBetValue;\r\n    uint maxBetValue;\r\n    uint maxBets;\r\n    uint timeLimit;\r\n    \r\n    \r\n    \r\n    //data\r\n    Space[] wheel;\r\n    Space lastSpace;\r\n    Bet[] bets;\r\n    Bet[] lastRoundWinningBets;\r\n    uint nextSpinAt;\r\n    ProfitTaker[] profitTakers;\r\n    uint profitTakerPoints;\r\n    \r\n    \r\n    \r\n    //public functions\r\n    function getWheel() public view returns(Space[] memory) {\r\n        return wheel;\r\n    }\r\n    function getLastSpace() public view returns(Space memory) {\r\n        return lastSpace;\r\n    }\r\n    function getTimeLeft() public view returns(uint) {\r\n        return _timeLeft();\r\n    }\r\n    function getCurrentBets() public view returns(Bet[] memory) {\r\n        return bets;\r\n    }\r\n    function getLastRoundWinningBets() public view returns(Bet[] memory) {\r\n        return lastRoundWinningBets;\r\n    }\r\n    function makeBet(string calldata _betType, uint _number, uint _bet) public {\r\n        _receiveBet(msg.sender, _betType, _number, _bet);\r\n    }\r\n    function spin() public {\r\n        _spin();\r\n    }\r\n    \r\n    \r\n    \r\n    //receive a bet\r\n    function _receiveBet(address _player, string memory _betType, uint _number, uint _bet) private {\r\n        if (betTypes[_betType] == BetTypes.number) {\r\n            _betType = \"number\";\r\n        }\r\n        Bet memory bet = Bet(_player, _betType, _number, _bet);\r\n        require(bets.length < maxBets, \"There are too many bets this round. Please wait until the next round.\");\r\n        require(bet.bet >= minBetValue, \"Bet too low for table.\");\r\n        require(bet.bet <= maxBetValue, \"Bet too high for table.\");\r\n        _receive(bet.player, bet.bet);\r\n        bets.push(bet);\r\n        emit BetOn(_player, _betType, _number, _bet);\r\n    }\r\n    \r\n    \r\n    \r\n    //spin\r\n    function _getRandomSpace() private returns(Space storage space) {\r\n        uint index = _randomNumber(wheel.length);\r\n        return wheel[index];\r\n    }\r\n    function _spin() private {\r\n        require(_timeLeft() == 0, \"Please wait until spinning to allow more bets to come in.\");\r\n        delete lastRoundWinningBets;\r\n        Space storage result = _getRandomSpace();\r\n        lastSpace = result;\r\n        for(uint i; i < bets.length; i ++) {\r\n            uint prize = _getPrize(result, bets[i]);\r\n            if(prize > 0) {\r\n                _pay(bets[i].player, prize);\r\n                lastRoundWinningBets.push(bets[i]);\r\n                emit Won(bets[i].player, prize);\r\n            }\r\n        }\r\n        delete bets;\r\n        nextSpinAt = block.timestamp + timeLimit;\r\n        emit Spun(result);\r\n    }\r\n    \r\n    \r\n    \r\n    //get prize for a bet\r\n    function _getPrize(Space storage _space, Bet storage _bet) private view returns(uint prize) {\r\n        BetTypes betType = betTypes[_bet.betType];\r\n        if (betType == BetTypes.number) {\r\n            if(_bet.number == _space.number) {\r\n                prize = _bet.bet * wheel.length - 1;\r\n            }\r\n        } else if(betType == BetTypes.red) {\r\n            if(colours[_space.colour] == Colours.red) {\r\n                prize = _bet.bet * 2;\r\n            }\r\n        } else if(betType == BetTypes.black) {\r\n            if(colours[_space.colour] == Colours.black) {\r\n                prize = _bet.bet * 2;\r\n            }\r\n        } else if(betType == BetTypes.green) {\r\n            if(colours[_space.colour] == Colours.green) {\r\n                prize = _bet.bet * wheel.length - 1;\r\n            }\r\n        } else if(betType == BetTypes.odd) {\r\n            if(_isOdd(_space.number)) {\r\n                prize = _bet.bet * 2;\r\n            }\r\n        } else if(betType == BetTypes.even) {\r\n            if(_isEven(_space.number)) {\r\n                prize = _bet.bet * 2;\r\n            }\r\n        }\r\n    }\r\n    \r\n    \r\n\r\n    //create the wheel\r\n    function _initialiseWheel(uint _numberOfSpaces) private {\r\n        require(_isOdd(_numberOfSpaces), \"Wheel must have an odd number of spaces.\");\r\n        uint i;\r\n        wheel.push(Space(i,\"green\"));\r\n        i ++;\r\n        while(i < (_numberOfSpaces / 2) + 1) {\r\n            wheel.push(Space(i, \"red\"));\r\n            i ++;\r\n        }\r\n        while(i < _numberOfSpaces) {\r\n            wheel.push(Space(i, \"black\"));\r\n            i ++;\r\n        }\r\n    }\r\n    \r\n    \r\n    \r\n    \r\n    //XYA\r\n    function _pay(address _player, uint _amount) private {\r\n        XYA.transfer(_player, _amount);\r\n    }\r\n    function _receive(address _player, uint _amount) private {\r\n        XYA.transferFrom(_player, address(this), _amount);\r\n        _splitToProfitTakers(_amount / wheel.length);\r\n    }\r\n    function _splitToProfitTakers(uint _amount) private {\r\n        if(profitTakerPoints == 0) {\r\n            return;\r\n        }\r\n        uint XYAPerPoint = _amount / profitTakerPoints;\r\n        for(uint i; i < profitTakers.length; i ++) {\r\n            _pay(profitTakers[i].addr, profitTakers[i].points * XYAPerPoint);\r\n        }\r\n    }\r\n    \r\n    \r\n    //time\r\n    function _timeLeft() private view returns(uint) {\r\n        return block.timestamp < nextSpinAt ? nextSpinAt - block.timestamp : 0;\r\n    }\r\n    \r\n    \r\n    \r\n    //misc\r\n    function _isOdd(uint _number) private pure returns(bool) {\r\n        return _number % 2 == 1;\r\n    }\r\n    function _isEven(uint _number) private pure returns(bool) {\r\n        return _number % 2 == 0;\r\n    }\r\n    \r\n    \r\n    \r\n    //admin\r\n    function setParams(uint _minBetValue, uint _maxBetValue, uint _maxBets, uint _timeLimit) public onlyOwner {\r\n        (minBetValue, maxBetValue, maxBets, timeLimit) = (_minBetValue, _maxBetValue, _maxBets, _timeLimit);\r\n    }\r\n    function withdraw(uint _amount) public onlyOwner {\r\n        _pay(msg.sender, _amount); \r\n    }\r\n    function getProfitTakers() public view onlyOwner returns(ProfitTaker[] memory) {\r\n        return profitTakers;\r\n    }\r\n    function addProfitTaker(ProfitTaker calldata _profitTaker) public onlyOwner {\r\n        profitTakers.push(_profitTaker);\r\n        profitTakerPoints += _profitTaker.points;\r\n    }\r\n    function deleteProfitTakers() public onlyOwner {\r\n        delete profitTakers;\r\n        profitTakerPoints -= profitTakerPoints;\r\n    }\r\n}",
  "sourcePath": "C:\\Users\\lukey\\Documents\\vscode\\projects\\XYA\\Casino\\contracts\\roulette new.sol",
  "compiler": {
    "name": "solc",
    "version": "0.8.10+commit.fc410830.Emscripten.clang"
  },
  "schemaVersion": "3.4.3",
  "updatedAt": "2021-11-16T18:34:28.060Z",
  "devdoc": {
    "kind": "dev",
    "methods": {
      "owner()": {
        "details": "Returns the address of the current owner."
      },
      "renounceOwnership()": {
        "details": "Leaves the contract without owner. It will not be possible to call `onlyOwner` functions anymore. Can only be called by the current owner. NOTE: Renouncing ownership will leave the contract without an owner, thereby removing any functionality that is only available to the owner."
      },
      "transferOwnership(address)": {
        "details": "Transfers ownership of the contract to a new account (`newOwner`). Can only be called by the current owner."
      }
    },
    "version": 1
  },
  "userdoc": {
    "kind": "user",
    "methods": {},
    "version": 1
  }
}