{
  "contractName": "Slots",
  "abi": [
    {
      "inputs": [
        {
          "internalType": "contract IERC20",
          "name": "_XYA",
          "type": "address"
        }
      ],
      "stateMutability": "nonpayable",
      "type": "constructor"
    },
    {
      "anonymous": false,
      "inputs": [
        {
          "indexed": true,
          "internalType": "address",
          "name": "player",
          "type": "address"
        },
        {
          "indexed": false,
          "internalType": "uint256",
          "name": "amount",
          "type": "uint256"
        }
      ],
      "name": "Deposit",
      "type": "event"
    },
    {
      "anonymous": false,
      "inputs": [
        {
          "indexed": true,
          "internalType": "address",
          "name": "previousOwner",
          "type": "address"
        },
        {
          "indexed": true,
          "internalType": "address",
          "name": "newOwner",
          "type": "address"
        }
      ],
      "name": "OwnershipTransferred",
      "type": "event"
    },
    {
      "anonymous": false,
      "inputs": [
        {
          "indexed": true,
          "internalType": "address",
          "name": "player",
          "type": "address"
        }
      ],
      "name": "Spun",
      "type": "event"
    },
    {
      "anonymous": false,
      "inputs": [
        {
          "indexed": true,
          "internalType": "address",
          "name": "player",
          "type": "address"
        },
        {
          "indexed": false,
          "internalType": "uint256",
          "name": "amount",
          "type": "uint256"
        }
      ],
      "name": "Withdraw",
      "type": "event"
    },
    {
      "anonymous": false,
      "inputs": [
        {
          "indexed": true,
          "internalType": "address",
          "name": "player",
          "type": "address"
        },
        {
          "indexed": false,
          "internalType": "uint256",
          "name": "winnings",
          "type": "uint256"
        }
      ],
      "name": "Won",
      "type": "event"
    },
    {
      "inputs": [],
      "name": "owner",
      "outputs": [
        {
          "internalType": "address",
          "name": "",
          "type": "address"
        }
      ],
      "stateMutability": "view",
      "type": "function"
    },
    {
      "inputs": [],
      "name": "renounceOwnership",
      "outputs": [],
      "stateMutability": "nonpayable",
      "type": "function"
    },
    {
      "inputs": [
        {
          "internalType": "address",
          "name": "newOwner",
          "type": "address"
        }
      ],
      "name": "transferOwnership",
      "outputs": [],
      "stateMutability": "nonpayable",
      "type": "function"
    },
    {
      "inputs": [
        {
          "components": [
            {
              "internalType": "string[3]",
              "name": "payLine",
              "type": "string[3]"
            },
            {
              "internalType": "uint256",
              "name": "payout",
              "type": "uint256"
            }
          ],
          "internalType": "struct Slots.PayLineData",
          "name": "_payLineData",
          "type": "tuple"
        }
      ],
      "name": "addToPayTable",
      "outputs": [],
      "stateMutability": "nonpayable",
      "type": "function"
    },
    {
      "inputs": [
        {
          "internalType": "uint256",
          "name": "_index",
          "type": "uint256"
        }
      ],
      "name": "removeFromPayTable",
      "outputs": [],
      "stateMutability": "nonpayable",
      "type": "function"
    },
    {
      "inputs": [],
      "name": "getPayTableLength",
      "outputs": [
        {
          "internalType": "uint256",
          "name": "",
          "type": "uint256"
        }
      ],
      "stateMutability": "view",
      "type": "function"
    },
    {
      "inputs": [
        {
          "internalType": "uint256",
          "name": "_index",
          "type": "uint256"
        }
      ],
      "name": "getPayLineData",
      "outputs": [
        {
          "components": [
            {
              "internalType": "string[3]",
              "name": "payLine",
              "type": "string[3]"
            },
            {
              "internalType": "uint256",
              "name": "payout",
              "type": "uint256"
            }
          ],
          "internalType": "struct Slots.PayLineData",
          "name": "",
          "type": "tuple"
        }
      ],
      "stateMutability": "view",
      "type": "function"
    },
    {
      "inputs": [],
      "name": "holdsInfo",
      "outputs": [
        {
          "internalType": "uint256",
          "name": "chance",
          "type": "uint256"
        },
        {
          "internalType": "uint256",
          "name": "min",
          "type": "uint256"
        },
        {
          "internalType": "uint256",
          "name": "max",
          "type": "uint256"
        }
      ],
      "stateMutability": "view",
      "type": "function"
    },
    {
      "inputs": [],
      "name": "nudgesInfo",
      "outputs": [
        {
          "internalType": "uint256",
          "name": "chance",
          "type": "uint256"
        },
        {
          "internalType": "uint256",
          "name": "min",
          "type": "uint256"
        },
        {
          "internalType": "uint256",
          "name": "max",
          "type": "uint256"
        }
      ],
      "stateMutability": "view",
      "type": "function"
    },
    {
      "inputs": [
        {
          "internalType": "uint256",
          "name": "_chance",
          "type": "uint256"
        },
        {
          "internalType": "uint256",
          "name": "_min",
          "type": "uint256"
        },
        {
          "internalType": "uint256",
          "name": "_max",
          "type": "uint256"
        }
      ],
      "name": "setHoldsInfo",
      "outputs": [],
      "stateMutability": "nonpayable",
      "type": "function"
    },
    {
      "inputs": [
        {
          "internalType": "uint256",
          "name": "_chance",
          "type": "uint256"
        },
        {
          "internalType": "uint256",
          "name": "_min",
          "type": "uint256"
        },
        {
          "internalType": "uint256",
          "name": "_max",
          "type": "uint256"
        }
      ],
      "name": "setnudgesInfo",
      "outputs": [],
      "stateMutability": "nonpayable",
      "type": "function"
    },
    {
      "inputs": [
        {
          "internalType": "address",
          "name": "_player",
          "type": "address"
        }
      ],
      "name": "getHistoricalResultsLengthOfPlayer",
      "outputs": [
        {
          "internalType": "uint256",
          "name": "",
          "type": "uint256"
        }
      ],
      "stateMutability": "view",
      "type": "function"
    },
    {
      "inputs": [
        {
          "internalType": "address",
          "name": "_player",
          "type": "address"
        },
        {
          "internalType": "uint256",
          "name": "_index",
          "type": "uint256"
        }
      ],
      "name": "getHistoricalResultOfPlayerByIndex",
      "outputs": [
        {
          "internalType": "string[3]",
          "name": "",
          "type": "string[3]"
        }
      ],
      "stateMutability": "view",
      "type": "function"
    },
    {
      "inputs": [
        {
          "internalType": "address",
          "name": "_player",
          "type": "address"
        }
      ],
      "name": "getHistoricalWinningsLengthOfPlayer",
      "outputs": [
        {
          "internalType": "uint256",
          "name": "",
          "type": "uint256"
        }
      ],
      "stateMutability": "view",
      "type": "function"
    },
    {
      "inputs": [
        {
          "internalType": "address",
          "name": "_player",
          "type": "address"
        },
        {
          "internalType": "uint256",
          "name": "_index",
          "type": "uint256"
        }
      ],
      "name": "getHistoricalWinningOfPlayerbyIndex",
      "outputs": [
        {
          "internalType": "uint256",
          "name": "",
          "type": "uint256"
        }
      ],
      "stateMutability": "view",
      "type": "function"
    },
    {
      "inputs": [],
      "name": "reels",
      "outputs": [
        {
          "internalType": "string[][3]",
          "name": "",
          "type": "string[][3]"
        }
      ],
      "stateMutability": "view",
      "type": "function"
    },
    {
      "inputs": [
        {
          "internalType": "string[][3]",
          "name": "_newReels",
          "type": "string[][3]"
        }
      ],
      "name": "setReels",
      "outputs": [],
      "stateMutability": "nonpayable",
      "type": "function"
    },
    {
      "inputs": [
        {
          "internalType": "address",
          "name": "_player",
          "type": "address"
        }
      ],
      "name": "positionsOf",
      "outputs": [
        {
          "internalType": "uint256[3]",
          "name": "",
          "type": "uint256[3]"
        }
      ],
      "stateMutability": "view",
      "type": "function"
    },
    {
      "inputs": [
        {
          "internalType": "uint256",
          "name": "_value",
          "type": "uint256"
        }
      ],
      "name": "withdraw",
      "outputs": [],
      "stateMutability": "nonpayable",
      "type": "function"
    },
    {
      "inputs": [],
      "name": "creditPrice",
      "outputs": [
        {
          "internalType": "uint256",
          "name": "",
          "type": "uint256"
        }
      ],
      "stateMutability": "view",
      "type": "function"
    },
    {
      "inputs": [
        {
          "internalType": "uint256",
          "name": "_price",
          "type": "uint256"
        }
      ],
      "name": "setCreditPrice",
      "outputs": [],
      "stateMutability": "nonpayable",
      "type": "function"
    },
    {
      "inputs": [
        {
          "internalType": "uint256",
          "name": "_value",
          "type": "uint256"
        }
      ],
      "name": "deposit",
      "outputs": [],
      "stateMutability": "nonpayable",
      "type": "function"
    },
    {
      "inputs": [],
      "name": "withdrawBank",
      "outputs": [],
      "stateMutability": "nonpayable",
      "type": "function"
    },
    {
      "inputs": [],
      "name": "spin",
      "outputs": [],
      "stateMutability": "nonpayable",
      "type": "function"
    },
    {
      "inputs": [
        {
          "internalType": "uint256",
          "name": "_index",
          "type": "uint256"
        }
      ],
      "name": "hold",
      "outputs": [],
      "stateMutability": "nonpayable",
      "type": "function"
    },
    {
      "inputs": [
        {
          "internalType": "uint256",
          "name": "_index",
          "type": "uint256"
        }
      ],
      "name": "nudge",
      "outputs": [],
      "stateMutability": "nonpayable",
      "type": "function"
    },
    {
      "inputs": [
        {
          "internalType": "address",
          "name": "_player",
          "type": "address"
        }
      ],
      "name": "bankOf",
      "outputs": [
        {
          "internalType": "uint256",
          "name": "",
          "type": "uint256"
        }
      ],
      "stateMutability": "view",
      "type": "function"
    },
    {
      "inputs": [
        {
          "internalType": "address",
          "name": "_player",
          "type": "address"
        }
      ],
      "name": "creditBalanceOf",
      "outputs": [
        {
          "internalType": "uint256",
          "name": "",
          "type": "uint256"
        }
      ],
      "stateMutability": "view",
      "type": "function"
    },
    {
      "inputs": [
        {
          "internalType": "address",
          "name": "_player",
          "type": "address"
        }
      ],
      "name": "holdsOf",
      "outputs": [
        {
          "internalType": "uint256",
          "name": "",
          "type": "uint256"
        }
      ],
      "stateMutability": "view",
      "type": "function"
    },
    {
      "inputs": [
        {
          "internalType": "address",
          "name": "_player",
          "type": "address"
        }
      ],
      "name": "heldOf",
      "outputs": [
        {
          "internalType": "bool[3]",
          "name": "",
          "type": "bool[3]"
        }
      ],
      "stateMutability": "view",
      "type": "function"
    },
    {
      "inputs": [
        {
          "internalType": "address",
          "name": "_player",
          "type": "address"
        }
      ],
      "name": "nudgesOf",
      "outputs": [
        {
          "internalType": "uint256",
          "name": "",
          "type": "uint256"
        }
      ],
      "stateMutability": "view",
      "type": "function"
    }
  ],
  "bytecode": "0x60806040523480156200001157600080fd5b5060405162004a0238038062004a028339818101604052810190620000379190620001e9565b620000576200004b6200009f60201b60201c565b620000a760201b60201c565b80600260006101000a81548173ffffffffffffffffffffffffffffffffffffffff021916908373ffffffffffffffffffffffffffffffffffffffff160217905550506200021b565b600033905090565b60008060009054906101000a900473ffffffffffffffffffffffffffffffffffffffff169050816000806101000a81548173ffffffffffffffffffffffffffffffffffffffff021916908373ffffffffffffffffffffffffffffffffffffffff1602179055508173ffffffffffffffffffffffffffffffffffffffff168173ffffffffffffffffffffffffffffffffffffffff167f8be0079c531659141344cd1fd0a4f28419497f9722a3daafe3b4186f6b6457e060405160405180910390a35050565b600080fd5b600073ffffffffffffffffffffffffffffffffffffffff82169050919050565b60006200019d8262000170565b9050919050565b6000620001b18262000190565b9050919050565b620001c381620001a4565b8114620001cf57600080fd5b50565b600081519050620001e381620001b8565b92915050565b6000602082840312156200020257620002016200016b565b5b60006200021284828501620001d2565b91505092915050565b6147d7806200022b6000396000f3fe608060405234801561001057600080fd5b50600436106101e55760003560e01c80638da5cb5b1161010f578063dfce1d2b116100a2578063f2fde38b11610071578063f2fde38b1461057e578063f750cc1c1461059a578063f867d46b146105ca578063ff7f0cf9146105fa576101e5565b8063dfce1d2b146104f6578063e0ec0b9914610526578063ed88863314610544578063f0acd7d514610574576101e5565b8063b6b55f25116100de578063b6b55f251461045c578063be27a08414610478578063ca6358cd146104a8578063d2ac2d8a146104c6576101e5565b80638da5cb5b146103ea5780639666ca4a146104085780639a7e18aa14610424578063ad17a0b314610440576101e5565b80634b5c4e37116101875780637145ad4b116101565780637145ad4b14610388578063715018a6146103a45780637fadb01c146103ae5780638ce08009146103ce576101e5565b80634b5c4e37146102ec5780634c985aa61461031c5780634e07255d1461034c57806356f524a414610368576101e5565b806330e804a2116101c357806330e804a21461025457806332a9222914610284578063435fe45d146102b457806349c910c0146102d0576101e5565b80630f378174146101ea5780632aa81584146102085780632e1a7d4d14610238575b600080fd5b6101f2610604565b6040516101ff9190612ea3565b60405180910390f35b610222600480360381019061021d9190612f37565b61071e565b60405161022f9190612f7d565b60405180910390f35b610252600480360381019061024d9190612fc4565b610730565b005b61026e60048036038101906102699190612f37565b6107c0565b60405161027b9190612f7d565b60405180910390f35b61029e60048036038101906102999190612f37565b6107d2565b6040516102ab9190612f7d565b60405180910390f35b6102ce60048036038101906102c99190612ff1565b6107e4565b005b6102ea60048036038101906102e59190612fc4565b610870565b005b61030660048036038101906103019190612fc4565b61088a565b6040516103139190613132565b60405180910390f35b61033660048036038101906103319190612f37565b61097e565b6040516103439190612f7d565b60405180910390f35b61036660048036038101906103619190613178565b610990565b005b610370610a18565b60405161037f939291906131c1565b60405180910390f35b6103a2600480360381019061039d9190612fc4565b610a30565b005b6103ac610a4a565b005b6103b6610ad2565b6040516103c5939291906131c1565b60405180910390f35b6103e860048036038101906103e3919061321f565b610aea565b005b6103f2610b7b565b6040516103ff9190613277565b60405180910390f35b610422600480360381019061041d9190612fc4565b610ba4565b005b61043e60048036038101906104399190612ff1565b610c2e565b005b61045a60048036038101906104559190612fc4565b610cba565b005b61047660048036038101906104719190612fc4565b610d42565b005b610492600480360381019061048d9190612f37565b610dff565b60405161049f9190612f7d565b60405180910390f35b6104b0610e11565b6040516104bd9190612f7d565b60405180910390f35b6104e060048036038101906104db9190612f37565b610e20565b6040516104ed9190613349565b60405180910390f35b610510600480360381019061050b9190613364565b610e99565b60405161051d9190612f7d565b60405180910390f35b61052e610ead565b60405161053b9190612f7d565b60405180910390f35b61055e60048036038101906105599190612f37565b610ebc565b60405161056b9190612f7d565b60405180910390f35b61057c610ece565b005b61059860048036038101906105939190612f37565b610f91565b005b6105b460048036038101906105af9190613364565b611089565b6040516105c19190613424565b60405180910390f35b6105e460048036038101906105df9190612f37565b611161565b6040516105f191906134e2565b60405180910390f35b6106026111b5565b005b61060c61287b565b61061461127d565b600380602002604051908101604052809291906000905b8282101561071557838201805480602002602001604051908101604052809291908181526020016000905b828210156107025783829060005260206000200180546106759061352c565b80601f01602080910402602001604051908101604052809291908181526020018280546106a19061352c565b80156106ee5780601f106106c3576101008083540402835291602001916106ee565b820191906000526020600020905b8154815290600101906020018083116106d157829003601f168201915b505050505081526020019060010190610656565b505050508152602001906001019061062b565b50505050905090565b600061072982611286565b9050919050565b61073861129c565b73ffffffffffffffffffffffffffffffffffffffff16610756610b7b565b73ffffffffffffffffffffffffffffffffffffffff16146107ac576040517f08c379a00000000000000000000000000000000000000000000000000000000081526004016107a3906135bb565b60405180910390fd5b6107bd6107b761129c565b826112a4565b50565b60006107cb82611349565b9050919050565b60006107dd82611392565b9050919050565b6107ec61129c565b73ffffffffffffffffffffffffffffffffffffffff1661080a610b7b565b73ffffffffffffffffffffffffffffffffffffffff1614610860576040517f08c379a0000000000000000000000000000000000000000000000000000000008152600401610857906135bb565b60405180910390fd5b61086b8383836113db565b505050565b600061087a61129c565b90506108868183611401565b5050565b6108926128a2565b61089b826114b9565b60405180604001604052908160008201600380602002604051908101604052809291906000905b828210156109655783820180546108d89061352c565b80601f01602080910402602001604051908101604052809291908181526020018280546109049061352c565b80156109515780601f1061092657610100808354040283529160200191610951565b820191906000526020600020905b81548152906001019060200180831161093457829003601f168201915b5050505050815260200190600101906108c2565b5050505081526020016003820154815250509050919050565b6000610989826114ea565b9050919050565b61099861129c565b73ffffffffffffffffffffffffffffffffffffffff166109b6610b7b565b73ffffffffffffffffffffffffffffffffffffffff1614610a0c576040517f08c379a0000000000000000000000000000000000000000000000000000000008152600401610a03906135bb565b60405180910390fd5b610a1581611533565b50565b6000806000610a25611570565b925092509250909192565b6000610a3a61129c565b9050610a468183611589565b5050565b610a5261129c565b73ffffffffffffffffffffffffffffffffffffffff16610a70610b7b565b73ffffffffffffffffffffffffffffffffffffffff1614610ac6576040517f08c379a0000000000000000000000000000000000000000000000000000000008152600401610abd906135bb565b60405180910390fd5b610ad06000611692565b565b6000806000610adf611756565b925092509250909192565b610af261129c565b73ffffffffffffffffffffffffffffffffffffffff16610b10610b7b565b73ffffffffffffffffffffffffffffffffffffffff1614610b66576040517f08c379a0000000000000000000000000000000000000000000000000000000008152600401610b5d906135bb565b60405180910390fd5b610b7881610b7390613895565b61176f565b50565b60008060009054906101000a900473ffffffffffffffffffffffffffffffffffffffff16905090565b610bac61129c565b73ffffffffffffffffffffffffffffffffffffffff16610bca610b7b565b73ffffffffffffffffffffffffffffffffffffffff1614610c20576040517f08c379a0000000000000000000000000000000000000000000000000000000008152600401610c17906135bb565b60405180910390fd5b610c2b601582611784565b50565b610c3661129c565b73ffffffffffffffffffffffffffffffffffffffff16610c54610b7b565b73ffffffffffffffffffffffffffffffffffffffff1614610caa576040517f08c379a0000000000000000000000000000000000000000000000000000000008152600401610ca1906135bb565b60405180910390fd5b610cb5838383611840565b505050565b610cc261129c565b73ffffffffffffffffffffffffffffffffffffffff16610ce0610b7b565b73ffffffffffffffffffffffffffffffffffffffff1614610d36576040517f08c379a0000000000000000000000000000000000000000000000000000000008152600401610d2d906135bb565b60405180910390fd5b610d3f81611866565b50565b6000610d4c61129c565b9050600260009054906101000a900473ffffffffffffffffffffffffffffffffffffffff1673ffffffffffffffffffffffffffffffffffffffff166323b872dd8230856040518463ffffffff1660e01b8152600401610dad939291906138aa565b6020604051808303816000875af1158015610dcc573d6000803e3d6000fd5b505050506040513d601f19601f82011682018060405250810190610df0919061390d565b50610dfb8183611870565b5050565b6000610e0a82611918565b9050919050565b6000610e1b611961565b905090565b610e286128c2565b610e318261196b565b600380602002604051908101604052809291908260038015610e8d576020028201916000905b82829054906101000a900460ff16151581526020019060010190602082600001049283019260010382029150808411610e575790505b50505050509050919050565b6000610ea583836119b3565b905092915050565b6000610eb76119e3565b905090565b6000610ec782611286565b9050919050565b6000610ed861129c565b9050610ef98173ffffffffffffffffffffffffffffffffffffffff166119f6565b15610f39576040517f08c379a0000000000000000000000000000000000000000000000000000000008152600401610f3090613986565b60405180910390fd5b6000610f4361129c565b9050610f4e81611a09565b610f5781611a18565b610f6081611ad0565b610f6981611f00565b610f7281611f48565b610f7b81611f90565b610f8481611ff5565b610f8d81612046565b5050565b610f9961129c565b73ffffffffffffffffffffffffffffffffffffffff16610fb7610b7b565b73ffffffffffffffffffffffffffffffffffffffff161461100d576040517f08c379a0000000000000000000000000000000000000000000000000000000008152600401611004906135bb565b60405180910390fd5b600073ffffffffffffffffffffffffffffffffffffffff168173ffffffffffffffffffffffffffffffffffffffff16141561107d576040517f08c379a000000000000000000000000000000000000000000000000000000000815260040161107490613a18565b60405180910390fd5b61108681611692565b50565b6110916128e4565b61109b8383612097565b600380602002604051908101604052809291906000905b828210156111555783820180546110c89061352c565b80601f01602080910402602001604051908101604052809291908181526020018280546110f49061352c565b80156111415780601f1061111657610100808354040283529160200191611141565b820191906000526020600020905b81548152906001019060200180831161112457829003601f168201915b5050505050815260200190600101906110b2565b50505050905092915050565b61116961290b565b611172826120ca565b6003806020026040519081016040528092919082600380156111a9576020028201915b815481526020019060010190808311611195575b50505050509050919050565b60006111bf61129c565b905060006111cc82611349565b9050600260009054906101000a900473ffffffffffffffffffffffffffffffffffffffff1673ffffffffffffffffffffffffffffffffffffffff1663a9059cbb83836040518363ffffffff1660e01b815260040161122b929190613a38565b6020604051808303816000875af115801561124a573d6000803e3d6000fd5b505050506040513d601f19601f8201168201806040525081019061126e919061390d565b506112798282612112565b5050565b60006003905090565b60006112918261223c565b805490509050919050565b600033905090565b600260009054906101000a900473ffffffffffffffffffffffffffffffffffffffff1673ffffffffffffffffffffffffffffffffffffffff1663a9059cbb83836040518363ffffffff1660e01b8152600401611301929190613a38565b6020604051808303816000875af1158015611320573d6000803e3d6000fd5b505050506040513d601f19601f82011682018060405250810190611344919061390d565b505050565b6000601260008373ffffffffffffffffffffffffffffffffffffffff1673ffffffffffffffffffffffffffffffffffffffff168152602001908152602001600020549050919050565b6000601160008373ffffffffffffffffffffffffffffffffffffffff1673ffffffffffffffffffffffffffffffffffffffff168152602001908152602001600020549050919050565b82828260086000600b6000600c6000869190505585919050558491905055505050505050565b600061140c8361196b565b905080826003811061142157611420613a61565b5b602091828204019190069054906101000a900460ff1615611477576040517f08c379a000000000000000000000000000000000000000000000000000000000815260040161146e90613adc565b60405180910390fd5b600181836003811061148c5761148b613a61565b5b602091828204019190066101000a81548160ff0219169083151502179055506114b483612284565b505050565b60006114c361235e565b82815481106114d5576114d4613a61565b5b90600052602060002090600402019050919050565b6000600f60008373ffffffffffffffffffffffffffffffffffffffff1673ffffffffffffffffffffffffffffffffffffffff168152602001908152602001600020549050919050565b6015819080600181540180825580915050600190039060005260206000209060040201600090919091909150818161156b91906142bb565b505050565b6000806000600854600b54600c54925092509250909192565b600061159361127d565b905060006115a0846120ca565b905060006115ad8561196b565b90508084600381106115c2576115c1613a61565b5b602091828204019190069054906101000a900460ff1615611618576040517f08c379a000000000000000000000000000000000000000000000000000000000815260040161160f90614315565b60405180910390fd5b600082856003811061162d5761162c613a61565b5b0154905083856003811061164457611643613a61565b5b01805490506001826116569190614335565b61166091906143ba565b83866003811061167357611672613a61565b5b018190555061168186612367565b61168a86611ad0565b505050505050565b60008060009054906101000a900473ffffffffffffffffffffffffffffffffffffffff169050816000806101000a81548173ffffffffffffffffffffffffffffffffffffffff021916908373ffffffffffffffffffffffffffffffffffffffff1602179055508173ffffffffffffffffffffffffffffffffffffffff168173ffffffffffffffffffffffffffffffffffffffff167f8be0079c531659141344cd1fd0a4f28419497f9722a3daafe3b4186f6b6457e060405160405180910390a35050565b6000806000600754600954600a54925092509250909192565b80600390600361178092919061292d565b5050565b816001838054905061179691906143eb565b815481106117a7576117a6613a61565b5b90600052602060002090600402018282815481106117c8576117c7613a61565b5b906000526020600020906004020160008201816000019060036117ec929190612980565b50600382015481600301559050508180548061180b5761180a61441f565b5b60019003818190600052602060002090600402016000808201600061183091906129d3565b6003820160009055505090555050565b8282826007600060096000600a6000869190505585919050558491905055505050505050565b8060068190555050565b80601160008473ffffffffffffffffffffffffffffffffffffffff1673ffffffffffffffffffffffffffffffffffffffff16815260200190815260200160002060008282546118bf9190614335565b925050819055508173ffffffffffffffffffffffffffffffffffffffff167fe1fffcc4923d04b559f4d29a8bfc6cda04eb5b0d3c460751c2402c5c5cc9109c8260405161190c9190612f7d565b60405180910390a25050565b6000601060008373ffffffffffffffffffffffffffffffffffffffff1673ffffffffffffffffffffffffffffffffffffffff168152602001908152602001600020549050919050565b6000600654905090565b6000600e60008373ffffffffffffffffffffffffffffffffffffffff1673ffffffffffffffffffffffffffffffffffffffff1681526020019081526020016000209050919050565b60006119be83612441565b82815481106119d0576119cf613a61565b5b9060005260206000200154905092915050565b60006119ed61235e565b80549050905090565b600080823b905060008111915050919050565b611a1581600654612489565b50565b6000611a2261127d565b90506000611a2f836120ca565b90506000611a3c8461196b565b905060005b6003811015611ac957818160038110611a5d57611a5c613a61565b5b602091828204019190069054906101000a900460ff16611ab6576000611a99858360038110611a8f57611a8e613a61565b5b01805490506125a8565b905080848360038110611aaf57611aae613a61565b5b0181905550505b8080611ac19061444e565b915050611a41565b5050505050565b6000611ada61127d565b90506000611ae7836120ca565b90506000604051806060016040528084600060038110611b0a57611b09613a61565b5b0184600060038110611b1f57611b1e613a61565b5b015481548110611b3257611b31613a61565b5b906000526020600020018054611b479061352c565b80601f0160208091040260200160405190810160405280929190818152602001828054611b739061352c565b8015611bc05780601f10611b9557610100808354040283529160200191611bc0565b820191906000526020600020905b815481529060010190602001808311611ba357829003601f168201915b5050505050815260200184600160038110611bde57611bdd613a61565b5b0184600160038110611bf357611bf2613a61565b5b015481548110611c0657611c05613a61565b5b906000526020600020018054611c1b9061352c565b80601f0160208091040260200160405190810160405280929190818152602001828054611c479061352c565b8015611c945780601f10611c6957610100808354040283529160200191611c94565b820191906000526020600020905b815481529060010190602001808311611c7757829003601f168201915b5050505050815260200184600260038110611cb257611cb1613a61565b5b0184600260038110611cc757611cc6613a61565b5b015481548110611cda57611cd9613a61565b5b906000526020600020018054611cef9061352c565b80601f0160208091040260200160405190810160405280929190818152602001828054611d1b9061352c565b8015611d685780601f10611d3d57610100808354040283529160200191611d68565b820191906000526020600020905b815481529060010190602001808311611d4b57829003601f168201915b505050505081525090506000805b611d7e6119e3565b811015611ee4576000611d90826114b9565b9050600081600001600380602002604051908101604052809291906000905b82821015611e52578382018054611dc59061352c565b80601f0160208091040260200160405190810160405280929190818152602001828054611df19061352c565b8015611e3e5780601f10611e1357610100808354040283529160200191611e3e565b820191906000526020600020905b815481529060010190602001808311611e2157829003601f168201915b505050505081526020019060010190611daf565b50505050905060008260030154905085604051602001611e729190613424565b6040516020818303038152906040528051906020012082604051602001611e999190613424565b604051602081830303815290604052805190602001201415611ec057611ebf898261265c565b5b8085611ecc9190614335565b94505050508080611edc9061444e565b915050611d76565b50611eef8583612704565b611ef98582612750565b5050505050565b6000601060008373ffffffffffffffffffffffffffffffffffffffff1673ffffffffffffffffffffffffffffffffffffffff1681526020019081526020016000208190555050565b6000600f60008373ffffffffffffffffffffffffffffffffffffffff1673ffffffffffffffffffffffffffffffffffffffff1681526020019081526020016000208190555050565b6000611f9b8261196b565b905060005b6003811015611ff0576000828260038110611fbe57611fbd613a61565b5b602091828204019190066101000a81548160ff0219169083151502179055508080611fe89061444e565b915050611fa0565b505050565b600061200160646125a8565b9050600854811015612042576000600b5461202a600b54600c5461202591906143eb565b6125a8565b6120349190614335565b9050612040838261278a565b505b5050565b600061205260646125a8565b905060075481101561209357600060095461207b600954600a5461207691906143eb565b6125a8565b6120859190614335565b905061209183826127e4565b505b5050565b60006120a28361223c565b82815481106120b4576120b3613a61565b5b9060005260206000209060030201905092915050565b6000600d60008373ffffffffffffffffffffffffffffffffffffffff1673ffffffffffffffffffffffffffffffffffffffff1681526020019081526020016000209050919050565b80601260008473ffffffffffffffffffffffffffffffffffffffff1673ffffffffffffffffffffffffffffffffffffffff168152602001908152602001600020541015612194576040517f08c379a000000000000000000000000000000000000000000000000000000000815260040161218b90614509565b60405180910390fd5b80601260008473ffffffffffffffffffffffffffffffffffffffff1673ffffffffffffffffffffffffffffffffffffffff16815260200190815260200160002060008282546121e391906143eb565b925050819055508173ffffffffffffffffffffffffffffffffffffffff167f884edad9ce6fa2440d8a54cc123490eb96d2768479d49ff9c7366125a9424364826040516122309190612f7d565b60405180910390a25050565b6000601360008373ffffffffffffffffffffffffffffffffffffffff1673ffffffffffffffffffffffffffffffffffffffff1681526020019081526020016000209050919050565b6000600f60008373ffffffffffffffffffffffffffffffffffffffff1673ffffffffffffffffffffffffffffffffffffffff1681526020019081526020016000205411612306576040517f08c379a00000000000000000000000000000000000000000000000000000000081526004016122fd90614575565b60405180910390fd5b600f60008273ffffffffffffffffffffffffffffffffffffffff1673ffffffffffffffffffffffffffffffffffffffff168152602001908152602001600020600081548092919061235690614595565b919050555050565b60006015905090565b6000601060008373ffffffffffffffffffffffffffffffffffffffff1673ffffffffffffffffffffffffffffffffffffffff16815260200190815260200160002054116123e9576040517f08c379a00000000000000000000000000000000000000000000000000000000081526004016123e09061460b565b60405180910390fd5b601060008273ffffffffffffffffffffffffffffffffffffffff1673ffffffffffffffffffffffffffffffffffffffff168152602001908152602001600020600081548092919061243990614595565b919050555050565b6000601460008373ffffffffffffffffffffffffffffffffffffffff1673ffffffffffffffffffffffffffffffffffffffff1681526020019081526020016000209050919050565b80601160008473ffffffffffffffffffffffffffffffffffffffff1673ffffffffffffffffffffffffffffffffffffffff16815260200190815260200160002054101561250b576040517f08c379a000000000000000000000000000000000000000000000000000000000815260040161250290614677565b60405180910390fd5b80601160008473ffffffffffffffffffffffffffffffffffffffff1673ffffffffffffffffffffffffffffffffffffffff168152602001908152602001600020600082825461255a91906143eb565b925050819055508173ffffffffffffffffffffffffffffffffffffffff167f805ba4f5a2d0edb125aac77d9404ce5b38a130c3a5f30ca89ffbe0d2109e563d60405160405180910390a25050565b6000806125b361283e565b905060006002600154836040516020016125ce9291906146ff565b6040516020818303038152906040526040516125ea9190614727565b602060405180830381855afa158015612607573d6000803e3d6000fd5b5050506040513d601f19601f8201168201806040525081019061262a9190614774565b60001c9050838161263b91906143ba565b9250600160008154809291906126509061444e565b91905055505050919050565b80601260008473ffffffffffffffffffffffffffffffffffffffff1673ffffffffffffffffffffffffffffffffffffffff16815260200190815260200160002060008282546126ab9190614335565b925050819055508173ffffffffffffffffffffffffffffffffffffffff167f8b01f9dd0400d6a1e84369a5fb8f6033934856ffa8ebadd707dca302ab551695826040516126f89190612f7d565b60405180910390a25050565b600061270f8361223c565b90508082908060018154018082558091505060019003906000526020600020906003020160009091909190915090600361274a929190612a06565b50505050565b600061275b83612441565b905080829080600181540180825580915050600190039060005260206000200160009091909190915055505050565b80600f60008473ffffffffffffffffffffffffffffffffffffffff1673ffffffffffffffffffffffffffffffffffffffff16815260200190815260200160002060008282546127d99190614335565b925050819055505050565b80601060008473ffffffffffffffffffffffffffffffffffffffff1673ffffffffffffffffffffffffffffffffffffffff16815260200190815260200160002060008282546128339190614335565b925050819055505050565b60606040518060400160405280600b81526020017f736c6f747479776f747479000000000000000000000000000000000000000000815250905090565b60405180606001604052806003905b606081526020019060019003908161288a5790505090565b60405180604001604052806128b56128e4565b8152602001600081525090565b6040518060600160405280600390602082028036833780820191505090505090565b60405180606001604052806003905b60608152602001906001900390816128f35790505090565b6040518060600160405280600390602082028036833780820191505090505090565b826003810192821561296f579160200282015b8281111561296e57825182908051906020019061295e929190612a59565b5091602001919060010190612940565b5b50905061297c9190612ab9565b5090565b82600381019282156129c2579182015b828111156129c15782829080546129a69061352c565b6129b1929190612add565b5091600101919060010190612990565b5b5090506129cf9190612b6a565b5090565b50600081816129e29190612b8e565b50600101600081816129f49190612b8e565b506001016000612a049190612b8e565b565b8260038101928215612a48579160200282015b82811115612a47578251829080519060200190612a37929190612bce565b5091602001919060010190612a19565b5b509050612a559190612b6a565b5090565b828054828255906000526020600020908101928215612aa8579160200282015b82811115612aa7578251829080519060200190612a97929190612bce565b5091602001919060010190612a79565b5b509050612ab59190612b6a565b5090565b5b80821115612ad95760008181612ad09190612c54565b50600101612aba565b5090565b828054612ae99061352c565b90600052602060002090601f016020900481019282612b0b5760008555612b59565b82601f10612b1c5780548555612b59565b82800160010185558215612b5957600052602060002091601f016020900482015b82811115612b58578254825591600101919060010190612b3d565b5b509050612b669190612c75565b5090565b5b80821115612b8a5760008181612b819190612b8e565b50600101612b6b565b5090565b508054612b9a9061352c565b6000825580601f10612bac5750612bcb565b601f016020900490600052602060002090810190612bca9190612c75565b5b50565b828054612bda9061352c565b90600052602060002090601f016020900481019282612bfc5760008555612c43565b82601f10612c1557805160ff1916838001178555612c43565b82800160010185558215612c43579182015b82811115612c42578251825591602001919060010190612c27565b5b509050612c509190612c75565b5090565b5080546000825590600052602060002090810190612c729190612b6a565b50565b5b80821115612c8e576000816000905550600101612c76565b5090565b600060039050919050565b600081905092915050565b6000819050919050565b600081519050919050565b600082825260208201905092915050565b6000819050602082019050919050565b600081519050919050565b600082825260208201905092915050565b60005b83811015612d18578082015181840152602081019050612cfd565b83811115612d27576000848401525b50505050565b6000601f19601f8301169050919050565b6000612d4982612cde565b612d538185612ce9565b9350612d63818560208601612cfa565b612d6c81612d2d565b840191505092915050565b6000612d838383612d3e565b905092915050565b6000602082019050919050565b6000612da382612cb2565b612dad8185612cbd565b935083602082028501612dbf85612cce565b8060005b85811015612dfb5784840389528151612ddc8582612d77565b9450612de783612d8b565b925060208a01995050600181019050612dc3565b50829750879550505050505092915050565b6000612e198383612d98565b905092915050565b6000602082019050919050565b6000612e3982612c92565b612e438185612c9d565b935083602082028501612e5585612ca8565b8060005b85811015612e915784840389528151612e728582612e0d565b9450612e7d83612e21565b925060208a01995050600181019050612e59565b50829750879550505050505092915050565b60006020820190508181036000830152612ebd8184612e2e565b905092915050565b6000604051905090565b600080fd5b600080fd5b600073ffffffffffffffffffffffffffffffffffffffff82169050919050565b6000612f0482612ed9565b9050919050565b612f1481612ef9565b8114612f1f57600080fd5b50565b600081359050612f3181612f0b565b92915050565b600060208284031215612f4d57612f4c612ecf565b5b6000612f5b84828501612f22565b91505092915050565b6000819050919050565b612f7781612f64565b82525050565b6000602082019050612f926000830184612f6e565b92915050565b612fa181612f64565b8114612fac57600080fd5b50565b600081359050612fbe81612f98565b92915050565b600060208284031215612fda57612fd9612ecf565b5b6000612fe884828501612faf565b91505092915050565b60008060006060848603121561300a57613009612ecf565b5b600061301886828701612faf565b935050602061302986828701612faf565b925050604061303a86828701612faf565b9150509250925092565b600060039050919050565b600081905092915050565b6000819050919050565b6000602082019050919050565b600061307c82613044565b613086818561304f565b9350836020820285016130988561305a565b8060005b858110156130d457848403895281516130b58582612d77565b94506130c083613064565b925060208a0199505060018101905061309c565b50829750879550505050505092915050565b6130ef81612f64565b82525050565b600060408301600083015184820360008601526131128282613071565b915050602083015161312760208601826130e6565b508091505092915050565b6000602082019050818103600083015261314c81846130f5565b905092915050565b600080fd5b60006040828403121561316f5761316e613154565b5b81905092915050565b60006020828403121561318e5761318d612ecf565b5b600082013567ffffffffffffffff8111156131ac576131ab612ed4565b5b6131b884828501613159565b91505092915050565b60006060820190506131d66000830186612f6e565b6131e36020830185612f6e565b6131f06040830184612f6e565b949350505050565b600080fd5b600081905082602060030282011115613219576132186131f8565b5b92915050565b60006020828403121561323557613234612ecf565b5b600082013567ffffffffffffffff81111561325357613252612ed4565b5b61325f848285016131fd565b91505092915050565b61327181612ef9565b82525050565b600060208201905061328c6000830184613268565b92915050565b600060039050919050565b600081905092915050565b6000819050919050565b60008115159050919050565b6132c7816132b2565b82525050565b60006132d983836132be565b60208301905092915050565b6000602082019050919050565b6132fb81613292565b613305818461329d565b9250613310826132a8565b8060005b8381101561334157815161332887826132cd565b9650613333836132e5565b925050600181019050613314565b505050505050565b600060608201905061335e60008301846132f2565b92915050565b6000806040838503121561337b5761337a612ecf565b5b600061338985828601612f22565b925050602061339a85828601612faf565b9150509250929050565b600081905092915050565b60006133ba82613044565b6133c481856133a4565b9350836020820285016133d68561305a565b8060005b8581101561341257848403895281516133f38582612d77565b94506133fe83613064565b925060208a019950506001810190506133da565b50829750879550505050505092915050565b6000602082019050818103600083015261343e81846133af565b905092915050565b600060039050919050565b600081905092915050565b6000819050919050565b600061347283836130e6565b60208301905092915050565b6000602082019050919050565b61349481613446565b61349e8184613451565b92506134a98261345c565b8060005b838110156134da5781516134c18782613466565b96506134cc8361347e565b9250506001810190506134ad565b505050505050565b60006060820190506134f7600083018461348b565b92915050565b7f4e487b7100000000000000000000000000000000000000000000000000000000600052602260045260246000fd5b6000600282049050600182168061354457607f821691505b60208210811415613558576135576134fd565b5b50919050565b600082825260208201905092915050565b7f4f776e61626c653a2063616c6c6572206973206e6f7420746865206f776e6572600082015250565b60006135a560208361355e565b91506135b08261356f565b602082019050919050565b600060208201905081810360008301526135d481613598565b9050919050565b7f4e487b7100000000000000000000000000000000000000000000000000000000600052604160045260246000fd5b61361382612d2d565b810181811067ffffffffffffffff82111715613632576136316135db565b5b80604052505050565b6000613645612ec5565b9050613651828261360a565b919050565b600067ffffffffffffffff821115613671576136706135db565b5b602082029050919050565b600080fd5b600067ffffffffffffffff82111561369c5761369b6135db565b5b602082029050602081019050919050565b600080fd5b600067ffffffffffffffff8211156136cd576136cc6135db565b5b6136d682612d2d565b9050602081019050919050565b82818337600083830152505050565b6000613705613700846136b2565b61363b565b905082815260208101848484011115613721576137206136ad565b5b61372c8482856136e3565b509392505050565b600082601f8301126137495761374861367c565b5b81356137598482602086016136f2565b91505092915050565b600061377561377084613681565b61363b565b90508083825260208201905060208402830185811115613798576137976131f8565b5b835b818110156137df57803567ffffffffffffffff8111156137bd576137bc61367c565b5b8086016137ca8982613734565b8552602085019450505060208101905061379a565b5050509392505050565b600082601f8301126137fe576137fd61367c565b5b813561380e848260208601613762565b91505092915050565b600061382a61382584613656565b61363b565b90508060208402830185811115613844576138436131f8565b5b835b8181101561388b57803567ffffffffffffffff8111156138695761386861367c565b5b80860161387689826137e9565b85526020850194505050602081019050613846565b5050509392505050565b60006138a336600384613817565b9050919050565b60006060820190506138bf6000830186613268565b6138cc6020830185613268565b6138d96040830184612f6e565b949350505050565b6138ea816132b2565b81146138f557600080fd5b50565b600081519050613907816138e1565b92915050565b60006020828403121561392357613922612ecf565b5b6000613931848285016138f8565b91505092915050565b7f436f6e747261637473206d6179206e6f7420706c617920736c6f74732e000000600082015250565b6000613970601d8361355e565b915061397b8261393a565b602082019050919050565b6000602082019050818103600083015261399f81613963565b9050919050565b7f4f776e61626c653a206e6577206f776e657220697320746865207a65726f206160008201527f6464726573730000000000000000000000000000000000000000000000000000602082015250565b6000613a0260268361355e565b9150613a0d826139a6565b604082019050919050565b60006020820190508181036000830152613a31816139f5565b9050919050565b6000604082019050613a4d6000830185613268565b613a5a6020830184612f6e565b9392505050565b7f4e487b7100000000000000000000000000000000000000000000000000000000600052603260045260246000fd5b7f416c72656164792068656c64207468697320706f736974696f6e2e0000000000600082015250565b6000613ac6601b8361355e565b9150613ad182613a90565b602082019050919050565b60006020820190508181036000830152613af581613ab9565b9050919050565b7f4e487b7100000000000000000000000000000000000000000000000000000000600052600060045260246000fd5b600080fd5b600080fd5b600080fd5b600082356001606003833603038112613b5657613b55613b2b565b5b80830191505092915050565b6000819050919050565b60008083356001602003843603038112613b8957613b88613b2b565b5b80840192508235915067ffffffffffffffff821115613bab57613baa613b30565b5b602083019250600182023603831315613bc757613bc6613b35565b5b509250929050565b600060039050919050565b7f4e487b7100000000000000000000000000000000000000000000000000000000600052601160045260246000fd5b60008190506001806001038301049050919050565b6000819050919050565b60008190508160005260206000209050919050565b600082821c905092915050565b613c7a7fffffffffffffffffffffffffffffffffffffffffffffffffffffffffffffffff83602003600802613c3d565b815481168255505050565b600082821b905092915050565b600060088302613cc27fffffffffffffffffffffffffffffffffffffffffffffffffffffffffffffffff82613c85565b613ccc8683613c85565b95508019841693508086168417925050509392505050565b6000819050919050565b6000613d09613d04613cff84612f64565b613ce4565b612f64565b9050919050565b6000819050919050565b613d2383613cee565b613d37613d2f82613d10565b848454613c92565b825550505050565b600090565b613d4c613d3f565b613d57818484613d1a565b505050565b5b81811015613d7b57613d70600082613d44565b600181019050613d5d565b5050565b6000613d9060001984600802613c3d565b1980831691505092915050565b6000613da98383613d7f565b9150826002028217905092915050565b613dc281613c28565b613dcd838254613d9d565b8083556000825550505050565b60006020601f8301049050919050565b6020841060008114613e4557601f841160018114613e1357613e0c8685613d9d565b8355613e3f565b613e1c83613c28565b613e33613e2887613dda565b820160018301613d5c565b613e3d8785613db9565b505b50613e92565b613e4e82613c28565b613e5786613dda565b8101601f87168015613e7157613e708160018403613c4a565b5b613e85613e7d88613dda565b840183613d5c565b6001886002021785555050505b5050505050565b68010000000000000000841115613eb357613eb26135db565b5b6020831060008114613efe576020851060008114613edc57613ed58685613d9d565b8355613ef8565b8360ff1916935083613eed84613c28565b556001866002020183555b50613f08565b6001856002020182555b5050505050565b8054613f1a8161352c565b80841115613f2f57613f2e84828486613e99565b5b80841015613f4457613f4384828486613dea565b5b50505050565b81811015613f6857613f5d600082613d44565b600181019050613f4a565b5050565b613f77600082613f0f565b50565b60008214613f8b57613f8a613afc565b5b613f9481613f6c565b5050565b5b81811015613fb757613fac600082613f7a565b600181019050613f99565b5050565b81831015613ff457613fcc82613c09565b613fd584613c09565b613fde83613c1e565b818101838201613fee8183613f98565b50505050505b505050565b68010000000000000000821115614013576140126135db565b5b61401c81613bcf565b614027838284613fbb565b505050565b600060039050919050565b600082905092915050565b601f8211156140835761405481613c28565b61405d84613dda565b8101602085101561406c578190505b61408061407885613dda565b830182613d5c565b50505b505050565b6140928383614037565b67ffffffffffffffff8111156140ab576140aa6135db565b5b6140b5825461352c565b6140c0828285614042565b6000601f8311600181146140ef57600084156140dd578287013590505b6140e78582613d9d565b86555061414f565b601f1984166140fd86613c28565b60005b8281101561412557848901358255600182019150602085019450602081019050614100565b86831015614142578489013561413e601f891682613d7f565b8355505b6001600288020188555050505b50505050505050565b811561416757614166613afc565b5b614172848483614088565b50505050565b6141818261402c565b61418b8183613ff9565b61419483613b62565b61419d83613c1e565b6000805b848110156141d8576141b38488613b6c565b6141bf81838688614158565b60208601955060018501945050506001810190506141a1565b50505050505050565b6141eb8282614178565b5050565b600081356141fc81612f98565b80915050919050565b60008160001b9050919050565b60007fffffffffffffffffffffffffffffffffffffffffffffffffffffffffffffffff61423e84614205565b9350801983169250808416831791505092915050565b61425d82613cee565b61427061426982613d10565b8354614212565b8255505050565b60008101600083016142898185613b3a565b61429381846141e1565b5050506003810160208301806142a8816141ef565b90506142b48184614254565b5050505050565b6142c58282614277565b5050565b7f43616e6e6f74206e7564676520612068656c6420706f736974696f6e2e000000600082015250565b60006142ff601d8361355e565b915061430a826142c9565b602082019050919050565b6000602082019050818103600083015261432e816142f2565b9050919050565b600061434082612f64565b915061434b83612f64565b9250827fffffffffffffffffffffffffffffffffffffffffffffffffffffffffffffffff038211156143805761437f613bda565b5b828201905092915050565b7f4e487b7100000000000000000000000000000000000000000000000000000000600052601260045260246000fd5b60006143c582612f64565b91506143d083612f64565b9250826143e0576143df61438b565b5b828206905092915050565b60006143f682612f64565b915061440183612f64565b92508282101561441457614413613bda565b5b828203905092915050565b7f4e487b7100000000000000000000000000000000000000000000000000000000600052603160045260246000fd5b600061445982612f64565b91507fffffffffffffffffffffffffffffffffffffffffffffffffffffffffffffffff82141561448c5761448b613bda565b5b600182019050919050565b7f596f75722062616e6b2062616c616e636520697320746f6f206c6f7720746f2060008201527f7769746864726177207468697320616d6f756e742e0000000000000000000000602082015250565b60006144f360358361355e565b91506144fe82614497565b604082019050919050565b60006020820190508181036000830152614522816144e6565b9050919050565b7f596f7520686176652072616e206f7574206f6620686f6c64732e000000000000600082015250565b600061455f601a8361355e565b915061456a82614529565b602082019050919050565b6000602082019050818103600083015261458e81614552565b9050919050565b60006145a082612f64565b915060008214156145b4576145b3613bda565b5b600182039050919050565b7f596f7520686176652072616e206f7574206f66206e75646765732e0000000000600082015250565b60006145f5601b8361355e565b9150614600826145bf565b602082019050919050565b60006020820190508181036000830152614624816145e8565b9050919050565b7f596f7520686176652072616e206f7574206f6620637265646974732e00000000600082015250565b6000614661601c8361355e565b915061466c8261462b565b602082019050919050565b6000602082019050818103600083015261469081614654565b9050919050565b6000819050919050565b6146b26146ad82612f64565b614697565b82525050565b600081519050919050565b600081905092915050565b60006146d9826146b8565b6146e381856146c3565b93506146f3818560208601612cfa565b80840191505092915050565b600061470b82856146a1565b60208201915061471b82846146ce565b91508190509392505050565b600061473382846146ce565b915081905092915050565b6000819050919050565b6147518161473e565b811461475c57600080fd5b50565b60008151905061476e81614748565b92915050565b60006020828403121561478a57614789612ecf565b5b60006147988482850161475f565b9150509291505056fea2646970667358221220d86f413819b39131d196ee90f7a4d38aa12fcb0587ce67218ff096fbcf17676b64736f6c634300080a0033",
  "immutableReferences": {},
  "source": "pragma solidity ^0.8.0;\r\nimport \"@openzeppelin/contracts/token/ERC20/IERC20.sol\";\r\nimport \"@openzeppelin/contracts/access/Ownable.sol\";\r\nimport \"@openzeppelin/contracts/utils/Address.sol\";\r\nimport \"luk1529_solidity/contracts/utils/Random.sol\";\r\n\r\ncontract Slots is Ownable, Random {\r\n    using Address for address;\r\n\r\n    constructor(IERC20 _XYA) {\r\n        XYA = _XYA;\r\n    }\r\n    \r\n    \r\n    \r\n    //XYA\r\n    IERC20 XYA;\r\n    \r\n    \r\n    \r\n    //machine\r\n    string[][3] _reels;\r\n    uint _creditPrice;\r\n    uint _nudgesChance; uint _holdsChance; /* percentage chance to receive nudges and holds */\r\n    uint _nudgesMin; uint _nudgesMax; /* minimum and maximum nudges given */\r\n    uint _holdsMin; uint _holdsMax; /* minimum and maximum holds given */\r\n    \r\n    \r\n    \r\n    //events\r\n    event Won(address indexed player, uint winnings);\r\n    event Spun(address indexed player);\r\n    event Deposit(address indexed player, uint amount);\r\n    event Withdraw(address indexed player, uint amount);\r\n    \r\n    \r\n    \r\n    //player info\r\n    mapping(address => uint[3]) _positions;\r\n    mapping(address => bool[3]) _held;\r\n    mapping(address => uint) _holds;\r\n    mapping(address => uint) _nudges;\r\n    mapping(address => uint) _credits;\r\n    mapping(address => uint) _bank;\r\n    mapping(address => string[3][]) _historicalResults;\r\n    mapping(address => uint[]) _historicalWinnings;\r\n    \r\n\r\n\r\n    //payout info\r\n    struct PayLineData {\r\n        string[3] payLine;\r\n        uint payout;\r\n    }\r\n    PayLineData[] _payTable;\r\n\r\n\r\n\r\n    //pay table\r\n    function addToPayTable(PayLineData calldata _payLineData) public onlyOwner {\r\n        _addToPayTable(_payLineData);\r\n    }\r\n\r\n    function removeFromPayTable(uint _index) public onlyOwner {\r\n        _removeFromPayTable(_payTable, _index);\r\n    }\r\n\r\n    function getPayTableLength() public view returns(uint) {\r\n        return _getPayTableLength();\r\n    }\r\n\r\n    function getPayLineData(uint _index) public view returns(PayLineData memory) {\r\n        return _getPayLineData(_index);\r\n    }\r\n\r\n\r\n\r\n    //holds and nudges\r\n    function holdsInfo() public view returns(uint chance, uint min, uint max) {\r\n        return _getHoldsInfo();\r\n    }\r\n\r\n    function nudgesInfo() public view returns(uint chance, uint min, uint max) {\r\n        return _getNudgesInfo();\r\n    }\r\n\r\n    function setHoldsInfo(uint _chance, uint _min, uint _max) public onlyOwner {\r\n        _setHoldsInfo(_chance, _min, _max);\r\n    }\r\n\r\n    function setnudgesInfo(uint _chance, uint _min, uint _max) public onlyOwner {\r\n        _setNudgesInfo(_chance, _min, _max);\r\n    }\r\n\r\n\r\n\r\n    //previous results\r\n    function getHistoricalResultsLengthOfPlayer(address _player) public view returns(uint) {\r\n        return _getHistoricalResultsLength(_player);\r\n    }\r\n\r\n    function getHistoricalResultOfPlayerByIndex(address _player, uint _index) public view returns(string[3] memory) {\r\n        return _getHistoricalResult(_player, _index);\r\n    }\r\n\r\n    function getHistoricalWinningsLengthOfPlayer(address _player) public view returns(uint) {\r\n        return _getHistoricalResultsLength(_player);\r\n    }\r\n\r\n    function getHistoricalWinningOfPlayerbyIndex(address _player, uint _index) public view returns(uint) {\r\n        return _getHistoricalWinning(_player, _index);\r\n    }\r\n\r\n\r\n\r\n    //reel data\r\n    function reels() public view returns(string[][3] memory ) {\r\n        return _getReels();\r\n    }\r\n\r\n    function setReels(string[][3] calldata _newReels) public onlyOwner {\r\n        _setReels(_newReels);\r\n    }\r\n\r\n    function positionsOf(address _player) public view returns(uint[3] memory) {\r\n        return _getPositions(_player);\r\n    }\r\n\r\n    //admin withdraw\r\n    function withdraw(uint _value) public onlyOwner {\r\n        _withdraw(_msgSender(), _value);\r\n    }\r\n\r\n\r\n\r\n    //price per spin\r\n    function creditPrice() public view returns(uint) {\r\n        return _getCreditPrice();\r\n    }\r\n\r\n    function setCreditPrice(uint _price) public onlyOwner {\r\n        _setCreditPrice(_price);\r\n    }\r\n\r\n\r\n\r\n    //main game\r\n    function deposit(uint _value) public {\r\n        address player = _msgSender();\r\n        XYA.transferFrom(player, address(this), _value);\r\n        _addToCredits(player, _value);\r\n    }\r\n\r\n    function withdrawBank() public {\r\n        address player = _msgSender();\r\n        uint bank = _getBank(player);\r\n        XYA.transfer(player, bank);\r\n        _takeFromBank(player, bank);\r\n    }\r\n\r\n    function spin() public noContract {\r\n        address player = _msgSender();\r\n        _payForSpin(player);\r\n        _spin(player);\r\n        _payout(player);\r\n        _clearNudges(player);\r\n        _clearHolds(player);\r\n        _resetHeld(player);\r\n        _awardHolds(player);\r\n        _awardNudges(player);\r\n    }\r\n\r\n    function hold(uint _index) public {\r\n        address player = _msgSender();\r\n        _hold(player, _index);\r\n    }\r\n\r\n    function nudge(uint _index) public {\r\n        address player = _msgSender();\r\n        _nudge(player, _index);\r\n    }\r\n\r\n    function bankOf(address _player) public view returns(uint) {\r\n        return _getBank(_player);\r\n    }\r\n\r\n    function creditBalanceOf(address _player) public view returns(uint) {\r\n        return _getCredits(_player);\r\n    }\r\n\r\n    function holdsOf(address _player) public view returns(uint) {\r\n        return _getHolds(_player);\r\n    }\r\n\r\n    function heldOf(address _player) public view returns(bool[3] memory) {\r\n        return _getHeld(_player);\r\n    }\r\n\r\n    function nudgesOf(address _player) public view returns(uint) {\r\n        return _getNudges(_player);\r\n    }\r\n\r\n\r\n\r\n\r\n\r\n    //behind the scenes\r\n    function _addToPayTable(PayLineData calldata _payLine) private {\r\n        _payTable.push(_payLine);\r\n    }\r\n\r\n    function _removeFromPayTable(PayLineData[] storage _table, uint _index) private {\r\n        _table[_index] = _table[_table.length - 1];\r\n        _table.pop();\r\n    }\r\n\r\n    function _getPayTable() private view returns(PayLineData[] storage) {\r\n        return _payTable;\r\n    }\r\n\r\n    function _getPayTableLength() private view returns(uint) {\r\n        return _getPayTable().length;\r\n    }\r\n\r\n    function _getPayLineData(uint _index) private view returns(PayLineData storage) {\r\n        return _getPayTable()[_index];\r\n    }\r\n\r\n    function _getCreditPrice() private view returns(uint) {\r\n        return _creditPrice;\r\n    }\r\n\r\n    function _setCreditPrice(uint _price) private {\r\n        _creditPrice = _price;\r\n    }\r\n    \r\n    function _getHistoricalResults(address _player) private view returns(string[3][] storage) {\r\n        return _historicalResults[_player];\r\n    } \r\n\r\n    function _getHistoricalResultsLength(address _player) private view returns(uint) {\r\n        return _getHistoricalResults(_player).length;\r\n    }\r\n\r\n    function _getHistoricalResult(address _player, uint _index) private view returns(string[3] storage) {\r\n        return _getHistoricalResults(_player)[_index];\r\n    }\r\n\r\n    function _getHistoricalWinnings(address _player) private view returns(uint[] storage) {\r\n        return _historicalWinnings[_player];\r\n    }\r\n\r\n    function _getHistoricalWinningsLength(address _player) private view returns(uint) {\r\n        return _getHistoricalWinnings(_player).length;\r\n    }\r\n\r\n    function _getHistoricalWinning(address _player, uint _index) private view returns(uint) {\r\n        return _getHistoricalWinnings(_player)[_index];\r\n    }\r\n\r\n\r\n\r\n    function _getHeld(address _player) private view returns(bool[3] storage) {\r\n        return _held[_player];\r\n    }\r\n\r\n    function _getPositions(address _player) private view returns(uint[3] storage) {\r\n        return _positions[_player];\r\n    }\r\n\r\n    function _getReels() private view returns(string[][3] storage) {\r\n        return _reels;\r\n    }\r\n\r\n    function _setReels(string[][3] memory _newReels) private {\r\n        _reels = _newReels;\r\n    }\r\n\r\n    function _getBank(address _player) private view returns(uint) {\r\n        return _bank[_player];\r\n    }\r\n\r\n    function _getCredits(address _player) private view returns(uint) {\r\n        return _credits[_player];\r\n    }\r\n\r\n    function _getHolds(address _player) private view returns(uint) {\r\n        return _holds[_player];\r\n    }\r\n\r\n    function _getNudges(address _player) private view returns(uint) {\r\n        return _nudges[_player];\r\n    }\r\n    \r\n\r\n\r\n    function _resetHeld(address _player) private {\r\n        bool[3] storage held = _getHeld(_player);\r\n        for(uint i; i < 3; i ++) {\r\n            held[i] = false;\r\n        }\r\n    }\r\n\r\n    function _clearHolds(address _player) private {\r\n        _holds[_player] = 0;\r\n    }\r\n\r\n    function _clearNudges(address _player) private {\r\n        _nudges[_player] = 0;\r\n    }\r\n\r\n    function _addToHolds(address _player, uint _value) private {\r\n        _holds[_player] += _value;\r\n    }\r\n\r\n    function _addToNudges(address _player, uint _value) private {\r\n        _nudges[_player] += _value;\r\n    }\r\n\r\n    function _decrementHolds(address _player) private {\r\n        require(_holds[_player] > 0, \"You have ran out of holds.\");\r\n        _holds[_player] --;\r\n    }\r\n\r\n    function _decrementNudges(address _player) private {\r\n        require(_nudges[_player] > 0, \"You have ran out of nudges.\");\r\n        _nudges[_player] --;\r\n    }\r\n\r\n    function _takeFromCredits(address _player, uint _value) private {\r\n        require(_credits[_player] >= _value, \"You have ran out of credits.\");\r\n        _credits[_player] -= _value;\r\n        emit Spun(_player);\r\n    }\r\n\r\n    function _addToCredits(address _player, uint _value) private {\r\n        _credits[_player] += _value;\r\n        emit Deposit(_player, _value);\r\n    }\r\n\r\n    function _takeFromBank(address _player, uint _value) private {\r\n        require(_bank[_player] >= _value, \"Your bank balance is too low to withdraw this amount.\");\r\n        _bank[_player] -= _value;\r\n        emit Withdraw(_player, _value);\r\n    }\r\n\r\n    function _addToBank(address _player, uint _value) private {\r\n        _bank[_player] += _value;\r\n        emit Won(_player, _value);\r\n    }\r\n\r\n    function _payForSpin(address _player) private {\r\n        _takeFromCredits(_player, _creditPrice);\r\n    }\r\n\r\n    function _awardHolds(address _player) private {\r\n        uint chance = _randomNumber(100);\r\n        if(chance < _holdsChance) {\r\n            uint holds = _randomNumber(_holdsMax - _holdsMin) + _holdsMin;\r\n            _addToHolds(_player, holds);\r\n        }\r\n    }\r\n\r\n    function _awardNudges(address _player) private {\r\n        uint chance = _randomNumber(100);\r\n        if(chance < _nudgesChance) {\r\n            uint nudges = _randomNumber(_nudgesMax - _nudgesMin) + _nudgesMin;\r\n            _addToNudges(_player, nudges);\r\n        }\r\n    }\r\n\r\n    \r\n\r\n\r\n    \r\n\r\n\r\n    function _spin(address _player) private {\r\n        string[][3] storage reels = _getReels();\r\n        uint[3] storage positions = _getPositions(_player);\r\n        bool[3] storage held = _getHeld(_player);\r\n        for(uint i; i < 3; i ++) {\r\n            if(!held[i]) {\r\n                uint pos = _randomNumber(reels[i].length);\r\n                positions[i] = pos;\r\n            }\r\n        }\r\n    }\r\n\r\n\r\n\r\n    function _nudge(address _player, uint _index) private {\r\n        string[][3] storage reels = _getReels();\r\n        uint[3] storage positions = _getPositions(_player);\r\n        bool[3] storage held = _getHeld(_player);\r\n        require(!held[_index], \"Cannot nudge a held position.\");\r\n        uint pos = positions[_index];\r\n        positions[_index] = (pos + 1) % reels[_index].length;\r\n        _decrementNudges(_player);\r\n        _payout(_player);\r\n    }\r\n\r\n\r\n\r\n    function _hold(address _player, uint _index) private {\r\n        bool[3] storage held = _getHeld(_player);\r\n        require(!held[_index], \"Already held this position.\");\r\n        held[_index] = true;\r\n        _decrementHolds(_player);\r\n    }\r\n\r\n\r\n\r\n    function _payout(address _player) private {\r\n        string[][3] storage reels = _getReels();\r\n        uint[3] storage positions = _getPositions(_player);\r\n        string[3] memory result = [\r\n            reels[0][positions[0]], \r\n            reels[1][positions[1]],\r\n            reels[2][positions[2]]\r\n        ];\r\n        uint winnings;\r\n        for(uint i; i < _getPayTableLength(); i ++) {\r\n            PayLineData storage payLineData = _getPayLineData(i);\r\n            string[3] memory payLine = payLineData.payLine;\r\n            uint payout = payLineData.payout;\r\n            if(keccak256(abi.encode(payLine)) == keccak256(abi.encode(result))) {\r\n                _addToBank(_player, payout);\r\n            }\r\n            winnings += payout;\r\n        }\r\n        _logHistoricalResults(_player, result);\r\n        _logHistoricalWinnings(_player, winnings);\r\n    }\r\n\r\n    function _getHoldsInfo() private view returns(uint chance, uint min, uint max) {\r\n        return(_holdsChance, _holdsMin, _holdsMax);\r\n    }\r\n\r\n    function _getNudgesInfo() private view returns(uint chance, uint min, uint max) {\r\n        return(_nudgesChance, _nudgesMin, _nudgesMax);\r\n    }\r\n\r\n    function _setHoldsInfo(uint _chance, uint _min, uint _max) private {\r\n        (_holdsChance, _holdsMin, _holdsMax) = (_chance, _min, _max);\r\n    }\r\n\r\n    function _setNudgesInfo(uint _chance, uint _min, uint _max) private {\r\n        (_nudgesChance, _nudgesMin, _nudgesMax) = (_chance, _min, _max);\r\n    }\r\n\r\n    function _logHistoricalResults(address _player, string[3] memory _result) private {\r\n        string[3][] storage historicalResults = _getHistoricalResults(_player);\r\n        historicalResults.push(_result);\r\n    }\r\n    function _logHistoricalWinnings(address _player, uint _winnings) private {\r\n        uint[] storage historicalWinnings = _getHistoricalWinnings(_player);\r\n        historicalWinnings.push(_winnings);\r\n    }\r\n\r\n    modifier noContract() {\r\n        address sender = _msgSender();\r\n        require(!sender.isContract(), \"Contracts may not play slots.\");\r\n        _;\r\n    }\r\n\r\n    function _withdraw(address _to, uint _value) private {\r\n        XYA.transfer(_to, _value);\r\n    }\r\n\r\n    function _getSalt() internal override view returns(bytes memory) {\r\n        return \"slottywotty\";\r\n    }\r\n}\r\n",
  "sourcePath": "C:\\Users\\lukey\\Documents\\vscode\\projects\\XYA\\Casino\\contracts\\Slots.sol",
  "compiler": {
    "name": "solc",
    "version": "0.8.10+commit.fc410830.Emscripten.clang"
  },
  "schemaVersion": "3.4.3",
  "updatedAt": "2021-11-18T18:42:13.270Z",
  "devdoc": {
    "kind": "dev",
    "methods": {
      "owner()": {
        "details": "Returns the address of the current owner."
      },
      "renounceOwnership()": {
        "details": "Leaves the contract without owner. It will not be possible to call `onlyOwner` functions anymore. Can only be called by the current owner. NOTE: Renouncing ownership will leave the contract without an owner, thereby removing any functionality that is only available to the owner."
      },
      "transferOwnership(address)": {
        "details": "Transfers ownership of the contract to a new account (`newOwner`). Can only be called by the current owner."
      }
    },
    "version": 1
  },
  "userdoc": {
    "kind": "user",
    "methods": {},
    "version": 1
  }
}