{
  "contractName": "Slots",
  "abi": [
    {
      "inputs": [
        {
          "internalType": "contract IBankroll",
          "name": "Bankroll",
          "type": "address"
        }
      ],
      "stateMutability": "nonpayable",
      "type": "constructor"
    },
    {
      "anonymous": false,
      "inputs": [
        {
          "indexed": true,
          "internalType": "address",
          "name": "player",
          "type": "address"
        }
      ],
      "name": "Nudged",
      "type": "event"
    },
    {
      "anonymous": false,
      "inputs": [
        {
          "indexed": true,
          "internalType": "address",
          "name": "previousOwner",
          "type": "address"
        },
        {
          "indexed": true,
          "internalType": "address",
          "name": "newOwner",
          "type": "address"
        }
      ],
      "name": "OwnershipTransferred",
      "type": "event"
    },
    {
      "anonymous": false,
      "inputs": [
        {
          "indexed": true,
          "internalType": "address",
          "name": "player",
          "type": "address"
        }
      ],
      "name": "Spun",
      "type": "event"
    },
    {
      "inputs": [],
      "name": "owner",
      "outputs": [
        {
          "internalType": "address",
          "name": "",
          "type": "address"
        }
      ],
      "stateMutability": "view",
      "type": "function"
    },
    {
      "inputs": [],
      "name": "renounceOwnership",
      "outputs": [],
      "stateMutability": "nonpayable",
      "type": "function"
    },
    {
      "inputs": [
        {
          "internalType": "contract IBankroll",
          "name": "Bankroll",
          "type": "address"
        }
      ],
      "name": "setBankroll",
      "outputs": [],
      "stateMutability": "nonpayable",
      "type": "function"
    },
    {
      "inputs": [
        {
          "internalType": "address",
          "name": "newOwner",
          "type": "address"
        }
      ],
      "name": "transferOwnership",
      "outputs": [],
      "stateMutability": "nonpayable",
      "type": "function"
    },
    {
      "inputs": [
        {
          "components": [
            {
              "internalType": "string[3]",
              "name": "payLine",
              "type": "string[3]"
            },
            {
              "internalType": "uint256",
              "name": "payout",
              "type": "uint256"
            }
          ],
          "internalType": "struct Slots.PayLineData",
          "name": "_payLineData",
          "type": "tuple"
        }
      ],
      "name": "addToPayTable",
      "outputs": [],
      "stateMutability": "nonpayable",
      "type": "function"
    },
    {
      "inputs": [
        {
          "internalType": "uint256",
          "name": "_index",
          "type": "uint256"
        }
      ],
      "name": "removeFromPayTable",
      "outputs": [],
      "stateMutability": "nonpayable",
      "type": "function"
    },
    {
      "inputs": [],
      "name": "getPayTableLength",
      "outputs": [
        {
          "internalType": "uint256",
          "name": "",
          "type": "uint256"
        }
      ],
      "stateMutability": "view",
      "type": "function"
    },
    {
      "inputs": [
        {
          "internalType": "uint256",
          "name": "_index",
          "type": "uint256"
        }
      ],
      "name": "getPayLineData",
      "outputs": [
        {
          "components": [
            {
              "internalType": "string[3]",
              "name": "payLine",
              "type": "string[3]"
            },
            {
              "internalType": "uint256",
              "name": "payout",
              "type": "uint256"
            }
          ],
          "internalType": "struct Slots.PayLineData",
          "name": "",
          "type": "tuple"
        }
      ],
      "stateMutability": "view",
      "type": "function"
    },
    {
      "inputs": [],
      "name": "holdsInfo",
      "outputs": [
        {
          "internalType": "uint256",
          "name": "chance",
          "type": "uint256"
        },
        {
          "internalType": "uint256",
          "name": "min",
          "type": "uint256"
        },
        {
          "internalType": "uint256",
          "name": "max",
          "type": "uint256"
        }
      ],
      "stateMutability": "view",
      "type": "function"
    },
    {
      "inputs": [],
      "name": "nudgesInfo",
      "outputs": [
        {
          "internalType": "uint256",
          "name": "chance",
          "type": "uint256"
        },
        {
          "internalType": "uint256",
          "name": "min",
          "type": "uint256"
        },
        {
          "internalType": "uint256",
          "name": "max",
          "type": "uint256"
        }
      ],
      "stateMutability": "view",
      "type": "function"
    },
    {
      "inputs": [
        {
          "internalType": "uint256",
          "name": "_chance",
          "type": "uint256"
        },
        {
          "internalType": "uint256",
          "name": "_min",
          "type": "uint256"
        },
        {
          "internalType": "uint256",
          "name": "_max",
          "type": "uint256"
        }
      ],
      "name": "setHoldsInfo",
      "outputs": [],
      "stateMutability": "nonpayable",
      "type": "function"
    },
    {
      "inputs": [
        {
          "internalType": "uint256",
          "name": "_chance",
          "type": "uint256"
        },
        {
          "internalType": "uint256",
          "name": "_min",
          "type": "uint256"
        },
        {
          "internalType": "uint256",
          "name": "_max",
          "type": "uint256"
        }
      ],
      "name": "setnudgesInfo",
      "outputs": [],
      "stateMutability": "nonpayable",
      "type": "function"
    },
    {
      "inputs": [
        {
          "internalType": "address",
          "name": "_player",
          "type": "address"
        }
      ],
      "name": "getHistoricalResultsLengthOfPlayer",
      "outputs": [
        {
          "internalType": "uint256",
          "name": "",
          "type": "uint256"
        }
      ],
      "stateMutability": "view",
      "type": "function"
    },
    {
      "inputs": [
        {
          "internalType": "address",
          "name": "_player",
          "type": "address"
        },
        {
          "internalType": "uint256",
          "name": "_index",
          "type": "uint256"
        }
      ],
      "name": "getHistoricalResultOfPlayerByIndex",
      "outputs": [
        {
          "internalType": "string[3]",
          "name": "",
          "type": "string[3]"
        }
      ],
      "stateMutability": "view",
      "type": "function"
    },
    {
      "inputs": [
        {
          "internalType": "address",
          "name": "_player",
          "type": "address"
        }
      ],
      "name": "getHistoricalWinningsLengthOfPlayer",
      "outputs": [
        {
          "internalType": "uint256",
          "name": "",
          "type": "uint256"
        }
      ],
      "stateMutability": "view",
      "type": "function"
    },
    {
      "inputs": [
        {
          "internalType": "address",
          "name": "_player",
          "type": "address"
        },
        {
          "internalType": "uint256",
          "name": "_index",
          "type": "uint256"
        }
      ],
      "name": "getHistoricalWinningOfPlayerbyIndex",
      "outputs": [
        {
          "internalType": "uint256",
          "name": "",
          "type": "uint256"
        }
      ],
      "stateMutability": "view",
      "type": "function"
    },
    {
      "inputs": [],
      "name": "reels",
      "outputs": [
        {
          "internalType": "string[][3]",
          "name": "",
          "type": "string[][3]"
        }
      ],
      "stateMutability": "view",
      "type": "function"
    },
    {
      "inputs": [
        {
          "internalType": "string[][3]",
          "name": "_newReels",
          "type": "string[][3]"
        }
      ],
      "name": "setReels",
      "outputs": [],
      "stateMutability": "nonpayable",
      "type": "function"
    },
    {
      "inputs": [
        {
          "internalType": "address",
          "name": "_player",
          "type": "address"
        }
      ],
      "name": "positionsOf",
      "outputs": [
        {
          "internalType": "uint256[3]",
          "name": "",
          "type": "uint256[3]"
        }
      ],
      "stateMutability": "view",
      "type": "function"
    },
    {
      "inputs": [],
      "name": "creditPrice",
      "outputs": [
        {
          "internalType": "uint256",
          "name": "",
          "type": "uint256"
        }
      ],
      "stateMutability": "view",
      "type": "function"
    },
    {
      "inputs": [
        {
          "internalType": "uint256",
          "name": "_price",
          "type": "uint256"
        }
      ],
      "name": "setCreditPrice",
      "outputs": [],
      "stateMutability": "nonpayable",
      "type": "function"
    },
    {
      "inputs": [],
      "name": "spin",
      "outputs": [],
      "stateMutability": "nonpayable",
      "type": "function"
    },
    {
      "inputs": [
        {
          "internalType": "uint256",
          "name": "_index",
          "type": "uint256"
        }
      ],
      "name": "hold",
      "outputs": [],
      "stateMutability": "nonpayable",
      "type": "function"
    },
    {
      "inputs": [
        {
          "internalType": "uint256",
          "name": "_index",
          "type": "uint256"
        }
      ],
      "name": "nudge",
      "outputs": [],
      "stateMutability": "nonpayable",
      "type": "function"
    },
    {
      "inputs": [
        {
          "internalType": "address",
          "name": "_player",
          "type": "address"
        }
      ],
      "name": "holdsOf",
      "outputs": [
        {
          "internalType": "uint256",
          "name": "",
          "type": "uint256"
        }
      ],
      "stateMutability": "view",
      "type": "function"
    },
    {
      "inputs": [
        {
          "internalType": "address",
          "name": "_player",
          "type": "address"
        }
      ],
      "name": "heldOf",
      "outputs": [
        {
          "internalType": "bool[3]",
          "name": "",
          "type": "bool[3]"
        }
      ],
      "stateMutability": "view",
      "type": "function"
    },
    {
      "inputs": [
        {
          "internalType": "address",
          "name": "_player",
          "type": "address"
        }
      ],
      "name": "nudgesOf",
      "outputs": [
        {
          "internalType": "uint256",
          "name": "",
          "type": "uint256"
        }
      ],
      "stateMutability": "view",
      "type": "function"
    }
  ],
  "bytecode": "0x60806040523480156200001157600080fd5b50604051620044e5380380620044e58339818101604052810190620000379190620002ff565b806040518060400160405280600b81526020017f736c6f747479776f7474790000000000000000000000000000000000000000008152506200008e62000082620000c160201b60201c565b620000c960201b60201c565b8060029080519060200190620000a6929190620001d1565b5050620000b9816200018d60201b60201c565b505062000396565b600033905090565b60008060009054906101000a900473ffffffffffffffffffffffffffffffffffffffff169050816000806101000a81548173ffffffffffffffffffffffffffffffffffffffff021916908373ffffffffffffffffffffffffffffffffffffffff1602179055508173ffffffffffffffffffffffffffffffffffffffff168173ffffffffffffffffffffffffffffffffffffffff167f8be0079c531659141344cd1fd0a4f28419497f9722a3daafe3b4186f6b6457e060405160405180910390a35050565b80600360006101000a81548173ffffffffffffffffffffffffffffffffffffffff021916908373ffffffffffffffffffffffffffffffffffffffff16021790555050565b828054620001df9062000360565b90600052602060002090601f0160209004810192826200020357600085556200024f565b82601f106200021e57805160ff19168380011785556200024f565b828001600101855582156200024f579182015b828111156200024e57825182559160200191906001019062000231565b5b5090506200025e919062000262565b5090565b5b808211156200027d57600081600090555060010162000263565b5090565b600080fd5b600073ffffffffffffffffffffffffffffffffffffffff82169050919050565b6000620002b38262000286565b9050919050565b6000620002c782620002a6565b9050919050565b620002d981620002ba565b8114620002e557600080fd5b50565b600081519050620002f981620002ce565b92915050565b60006020828403121562000318576200031762000281565b5b60006200032884828501620002e8565b91505092915050565b7f4e487b7100000000000000000000000000000000000000000000000000000000600052602260045260246000fd5b600060028204905060018216806200037957607f821691505b6020821081141562000390576200038f62000331565b5b50919050565b61413f80620003a66000396000f3fe608060405234801561001057600080fd5b50600436106101a95760003560e01c80639666ca4a116100f9578063dfce1d2b11610097578063f0acd7d511610071578063f0acd7d5146104bc578063f2fde38b146104c6578063f750cc1c146104e2578063f867d46b14610512576101a9565b8063dfce1d2b1461043e578063e0ec0b991461046e578063ed8886331461048c576101a9565b8063bde8a93e116100d3578063bde8a93e146103a4578063be27a084146103c0578063ca6358cd146103f0578063d2ac2d8a1461040e576101a9565b80639666ca4a146103505780639a7e18aa1461036c578063ad17a0b314610388576101a9565b80634e07255d11610166578063715018a611610140578063715018a6146102ec5780637fadb01c146102f65780638ce08009146103165780638da5cb5b14610332576101a9565b80634e07255d1461029457806356f524a4146102b05780637145ad4b146102d0576101a9565b80630f378174146101ae5780632aa81584146101cc578063435fe45d146101fc57806349c910c0146102185780634b5c4e37146102345780634c985aa614610264575b600080fd5b6101b6610542565b6040516101c3919061292e565b60405180910390f35b6101e660048036038101906101e191906129c2565b61065c565b6040516101f39190612a08565b60405180910390f35b61021660048036038101906102119190612a4f565b61066e565b005b610232600480360381019061022d9190612aa2565b6106fa565b005b61024e60048036038101906102499190612aa2565b610714565b60405161025b9190612bbd565b60405180910390f35b61027e600480360381019061027991906129c2565b610808565b60405161028b9190612a08565b60405180910390f35b6102ae60048036038101906102a99190612c03565b61081a565b005b6102b86108a2565b6040516102c793929190612c4c565b60405180910390f35b6102ea60048036038101906102e59190612aa2565b6108ba565b005b6102f46108d4565b005b6102fe61095c565b60405161030d93929190612c4c565b60405180910390f35b610330600480360381019061032b9190612caa565b610974565b005b61033a610a05565b6040516103479190612d02565b60405180910390f35b61036a60048036038101906103659190612aa2565b610a2e565b005b61038660048036038101906103819190612a4f565b610ab8565b005b6103a2600480360381019061039d9190612aa2565b610b44565b005b6103be60048036038101906103b99190612d5b565b610bcc565b005b6103da60048036038101906103d591906129c2565b610c54565b6040516103e79190612a08565b60405180910390f35b6103f8610c66565b6040516104059190612a08565b60405180910390f35b610428600480360381019061042391906129c2565b610c75565b6040516104359190612e3f565b60405180910390f35b61045860048036038101906104539190612e5a565b610cee565b6040516104659190612a08565b60405180910390f35b610476610d02565b6040516104839190612a08565b60405180910390f35b6104a660048036038101906104a191906129c2565b610d11565b6040516104b39190612a08565b60405180910390f35b6104c4610d23565b005b6104e060048036038101906104db91906129c2565b610de6565b005b6104fc60048036038101906104f79190612e5a565b610ede565b6040516105099190612f1a565b60405180910390f35b61052c600480360381019061052791906129c2565b610fb6565b6040516105399190612fd8565b60405180910390f35b61054a612306565b61055261100a565b600380602002604051908101604052809291906000905b8282101561065357838201805480602002602001604051908101604052809291908181526020016000905b828210156106405783829060005260206000200180546105b390613022565b80601f01602080910402602001604051908101604052809291908181526020018280546105df90613022565b801561062c5780601f106106015761010080835404028352916020019161062c565b820191906000526020600020905b81548152906001019060200180831161060f57829003601f168201915b505050505081526020019060010190610594565b5050505081526020019060010190610569565b50505050905090565b600061066782611013565b9050919050565b610676611029565b73ffffffffffffffffffffffffffffffffffffffff16610694610a05565b73ffffffffffffffffffffffffffffffffffffffff16146106ea576040517f08c379a00000000000000000000000000000000000000000000000000000000081526004016106e1906130b1565b60405180910390fd5b6106f5838383611031565b505050565b6000610704611029565b90506107108183611057565b5050565b61071c61232d565b6107258261110f565b60405180604001604052908160008201600380602002604051908101604052809291906000905b828210156107ef57838201805461076290613022565b80601f016020809104026020016040519081016040528092919081815260200182805461078e90613022565b80156107db5780601f106107b0576101008083540402835291602001916107db565b820191906000526020600020905b8154815290600101906020018083116107be57829003601f168201915b50505050508152602001906001019061074c565b5050505081526020016003820154815250509050919050565b600061081382611140565b9050919050565b610822611029565b73ffffffffffffffffffffffffffffffffffffffff16610840610a05565b73ffffffffffffffffffffffffffffffffffffffff1614610896576040517f08c379a000000000000000000000000000000000000000000000000000000000815260040161088d906130b1565b60405180910390fd5b61089f81611189565b50565b60008060006108af6111c6565b925092509250909192565b60006108c4611029565b90506108d081836111df565b5050565b6108dc611029565b73ffffffffffffffffffffffffffffffffffffffff166108fa610a05565b73ffffffffffffffffffffffffffffffffffffffff1614610950576040517f08c379a0000000000000000000000000000000000000000000000000000000008152600401610947906130b1565b60405180910390fd5b61095a600061132b565b565b60008060006109696113ef565b925092509250909192565b61097c611029565b73ffffffffffffffffffffffffffffffffffffffff1661099a610a05565b73ffffffffffffffffffffffffffffffffffffffff16146109f0576040517f08c379a00000000000000000000000000000000000000000000000000000000081526004016109e7906130b1565b60405180910390fd5b610a02816109fd9061338b565b611408565b50565b60008060009054906101000a900473ffffffffffffffffffffffffffffffffffffffff16905090565b610a36611029565b73ffffffffffffffffffffffffffffffffffffffff16610a54610a05565b73ffffffffffffffffffffffffffffffffffffffff1614610aaa576040517f08c379a0000000000000000000000000000000000000000000000000000000008152600401610aa1906130b1565b60405180910390fd5b610ab560148261141d565b50565b610ac0611029565b73ffffffffffffffffffffffffffffffffffffffff16610ade610a05565b73ffffffffffffffffffffffffffffffffffffffff1614610b34576040517f08c379a0000000000000000000000000000000000000000000000000000000008152600401610b2b906130b1565b60405180910390fd5b610b3f8383836114d9565b505050565b610b4c611029565b73ffffffffffffffffffffffffffffffffffffffff16610b6a610a05565b73ffffffffffffffffffffffffffffffffffffffff1614610bc0576040517f08c379a0000000000000000000000000000000000000000000000000000000008152600401610bb7906130b1565b60405180910390fd5b610bc9816114ff565b50565b610bd4611029565b73ffffffffffffffffffffffffffffffffffffffff16610bf2610a05565b73ffffffffffffffffffffffffffffffffffffffff1614610c48576040517f08c379a0000000000000000000000000000000000000000000000000000000008152600401610c3f906130b1565b60405180910390fd5b610c5181611509565b50565b6000610c5f8261154d565b9050919050565b6000610c70611596565b905090565b610c7d61234d565b610c86826115a0565b600380602002604051908101604052809291908260038015610ce2576020028201916000905b82829054906101000a900460ff16151581526020019060010190602082600001049283019260010382029150808411610cac5790505b50505050509050919050565b6000610cfa83836115e8565b905092915050565b6000610d0c611618565b905090565b6000610d1c82611013565b9050919050565b6000610d2d611029565b9050610d4e8173ffffffffffffffffffffffffffffffffffffffff1661162b565b15610d8e576040517f08c379a0000000000000000000000000000000000000000000000000000000008152600401610d85906133ec565b60405180910390fd5b6000610d98611029565b9050610da38161163e565b610dac816116d2565b610db5816117cd565b610dbe81611c82565b610dc781611cca565b610dd081611d12565b610dd981611d77565b610de281611dc8565b5050565b610dee611029565b73ffffffffffffffffffffffffffffffffffffffff16610e0c610a05565b73ffffffffffffffffffffffffffffffffffffffff1614610e62576040517f08c379a0000000000000000000000000000000000000000000000000000000008152600401610e59906130b1565b60405180910390fd5b600073ffffffffffffffffffffffffffffffffffffffff168173ffffffffffffffffffffffffffffffffffffffff161415610ed2576040517f08c379a0000000000000000000000000000000000000000000000000000000008152600401610ec99061347e565b60405180910390fd5b610edb8161132b565b50565b610ee661236f565b610ef08383611e19565b600380602002604051908101604052809291906000905b82821015610faa578382018054610f1d90613022565b80601f0160208091040260200160405190810160405280929190818152602001828054610f4990613022565b8015610f965780601f10610f6b57610100808354040283529160200191610f96565b820191906000526020600020905b815481529060010190602001808311610f7957829003601f168201915b505050505081526020019060010190610f07565b50505050905092915050565b610fbe612396565b610fc782611e4c565b600380602002604051908101604052809291908260038015610ffe576020028201915b815481526020019060010190808311610fea575b50505050509050919050565b60006004905090565b600061101e82611e94565b805490509050919050565b600033905090565b82828260096000600c6000600d6000869190505585919050558491905055505050505050565b6000611062836115a0565b90508082600381106110775761107661349e565b5b602091828204019190069054906101000a900460ff16156110cd576040517f08c379a00000000000000000000000000000000000000000000000000000000081526004016110c490613519565b60405180910390fd5b60018183600381106110e2576110e161349e565b5b602091828204019190066101000a81548160ff02191690831515021790555061110a83611edc565b505050565b6000611119611fb6565b828154811061112b5761112a61349e565b5b90600052602060002090600402019050919050565b6000601060008373ffffffffffffffffffffffffffffffffffffffff1673ffffffffffffffffffffffffffffffffffffffff168152602001908152602001600020549050919050565b601481908060018154018082558091505060019003906000526020600020906004020160009091909190915081816111c19190613cf8565b505050565b6000806000600954600c54600d54925092509250909192565b60006111e961100a565b905060006111f684611e4c565b90506000611203856115a0565b90508084600381106112185761121761349e565b5b602091828204019190069054906101000a900460ff161561126e576040517f08c379a000000000000000000000000000000000000000000000000000000000815260040161126590613d52565b60405180910390fd5b60008285600381106112835761128261349e565b5b0154905083856003811061129a5761129961349e565b5b01805490506001826112ac9190613d72565b6112b69190613df7565b8386600381106112c9576112c861349e565b5b01819055506112d786611fbf565b6112e0866117cd565b8573ffffffffffffffffffffffffffffffffffffffff167f3d2724b95926d2d67ef957b98a14fb473b9264a6f8f74840d8cb08c6e4613d5a60405160405180910390a2505050505050565b60008060009054906101000a900473ffffffffffffffffffffffffffffffffffffffff169050816000806101000a81548173ffffffffffffffffffffffffffffffffffffffff021916908373ffffffffffffffffffffffffffffffffffffffff1602179055508173ffffffffffffffffffffffffffffffffffffffff168173ffffffffffffffffffffffffffffffffffffffff167f8be0079c531659141344cd1fd0a4f28419497f9722a3daafe3b4186f6b6457e060405160405180910390a35050565b6000806000600854600a54600b54925092509250909192565b8060049060036114199291906123b8565b5050565b816001838054905061142f9190613e28565b815481106114405761143f61349e565b5b90600052602060002090600402018282815481106114615761146061349e565b5b9060005260206000209060040201600082018160000190600361148592919061240b565b5060038201548160030155905050818054806114a4576114a3613e5c565b5b6001900381819060005260206000209060040201600080820160006114c9919061245e565b6003820160009055505090555050565b82828260086000600a6000600b6000869190505585919050558491905055505050505050565b8060078190555050565b80600360006101000a81548173ffffffffffffffffffffffffffffffffffffffff021916908373ffffffffffffffffffffffffffffffffffffffff16021790555050565b6000601160008373ffffffffffffffffffffffffffffffffffffffff1673ffffffffffffffffffffffffffffffffffffffff168152602001908152602001600020549050919050565b6000600754905090565b6000600f60008373ffffffffffffffffffffffffffffffffffffffff1673ffffffffffffffffffffffffffffffffffffffff1681526020019081526020016000209050919050565b60006115f383612099565b82815481106116055761160461349e565b5b9060005260206000200154905092915050565b6000611622611fb6565b80549050905090565b600080823b905060008111915050919050565b600360009054906101000a900473ffffffffffffffffffffffffffffffffffffffff1673ffffffffffffffffffffffffffffffffffffffff1663a6bb4664826007546040518363ffffffff1660e01b815260040161169d929190613e8b565b600060405180830381600087803b1580156116b757600080fd5b505af11580156116cb573d6000803e3d6000fd5b5050505050565b60006116dc61100a565b905060006116e983611e4c565b905060006116f6846115a0565b905060005b6003811015611783578181600381106117175761171661349e565b5b602091828204019190069054906101000a900460ff166117705760006117538583600381106117495761174861349e565b5b01805490506120e1565b9050808483600381106117695761176861349e565b5b0181905550505b808061177b90613eb4565b9150506116fb565b508373ffffffffffffffffffffffffffffffffffffffff167f805ba4f5a2d0edb125aac77d9404ce5b38a130c3a5f30ca89ffbe0d2109e563d60405160405180910390a250505050565b60006117d761100a565b905060006117e483611e4c565b905060006040518060600160405280846000600381106118075761180661349e565b5b018460006003811061181c5761181b61349e565b5b01548154811061182f5761182e61349e565b5b90600052602060002001805461184490613022565b80601f016020809104026020016040519081016040528092919081815260200182805461187090613022565b80156118bd5780601f10611892576101008083540402835291602001916118bd565b820191906000526020600020905b8154815290600101906020018083116118a057829003601f168201915b50505050508152602001846001600381106118db576118da61349e565b5b01846001600381106118f0576118ef61349e565b5b0154815481106119035761190261349e565b5b90600052602060002001805461191890613022565b80601f016020809104026020016040519081016040528092919081815260200182805461194490613022565b80156119915780601f1061196657610100808354040283529160200191611991565b820191906000526020600020905b81548152906001019060200180831161197457829003601f168201915b50505050508152602001846002600381106119af576119ae61349e565b5b01846002600381106119c4576119c361349e565b5b0154815481106119d7576119d661349e565b5b9060005260206000200180546119ec90613022565b80601f0160208091040260200160405190810160405280929190818152602001828054611a1890613022565b8015611a655780601f10611a3a57610100808354040283529160200191611a65565b820191906000526020600020905b815481529060010190602001808311611a4857829003601f168201915b505050505081525090506000805b611a7b611618565b811015611c66576000611a8d8261110f565b9050600081600001600380602002604051908101604052809291906000905b82821015611b4f578382018054611ac290613022565b80601f0160208091040260200160405190810160405280929190818152602001828054611aee90613022565b8015611b3b5780601f10611b1057610100808354040283529160200191611b3b565b820191906000526020600020905b815481529060010190602001808311611b1e57829003601f168201915b505050505081526020019060010190611aac565b50505050905060008260030154905085604051602001611b6f9190612f1a565b6040516020818303038152906040528051906020012082604051602001611b969190612f1a565b604051602081830303815290604052805190602001201415611c4257600360009054906101000a900473ffffffffffffffffffffffffffffffffffffffff1673ffffffffffffffffffffffffffffffffffffffff16638d0c3bd48a836040518363ffffffff1660e01b8152600401611c0f929190613e8b565b600060405180830381600087803b158015611c2957600080fd5b505af1158015611c3d573d6000803e3d6000fd5b505050505b8085611c4e9190613d72565b94505050508080611c5e90613eb4565b915050611a73565b50611c71858361218f565b611c7b85826121db565b5050505050565b6000601160008373ffffffffffffffffffffffffffffffffffffffff1673ffffffffffffffffffffffffffffffffffffffff1681526020019081526020016000208190555050565b6000601060008373ffffffffffffffffffffffffffffffffffffffff1673ffffffffffffffffffffffffffffffffffffffff1681526020019081526020016000208190555050565b6000611d1d826115a0565b905060005b6003811015611d72576000828260038110611d4057611d3f61349e565b5b602091828204019190066101000a81548160ff0219169083151502179055508080611d6a90613eb4565b915050611d22565b505050565b6000611d8360646120e1565b9050600954811015611dc4576000600c54611dac600c54600d54611da79190613e28565b6120e1565b611db69190613d72565b9050611dc28382612215565b505b5050565b6000611dd460646120e1565b9050600854811015611e15576000600a54611dfd600a54600b54611df89190613e28565b6120e1565b611e079190613d72565b9050611e13838261226f565b505b5050565b6000611e2483611e94565b8281548110611e3657611e3561349e565b5b9060005260206000209060030201905092915050565b6000600e60008373ffffffffffffffffffffffffffffffffffffffff1673ffffffffffffffffffffffffffffffffffffffff1681526020019081526020016000209050919050565b6000601260008373ffffffffffffffffffffffffffffffffffffffff1673ffffffffffffffffffffffffffffffffffffffff1681526020019081526020016000209050919050565b6000601060008373ffffffffffffffffffffffffffffffffffffffff1673ffffffffffffffffffffffffffffffffffffffff1681526020019081526020016000205411611f5e576040517f08c379a0000000000000000000000000000000000000000000000000000000008152600401611f5590613f49565b60405180910390fd5b601060008273ffffffffffffffffffffffffffffffffffffffff1673ffffffffffffffffffffffffffffffffffffffff1681526020019081526020016000206000815480929190611fae90613f69565b919050555050565b60006014905090565b6000601160008373ffffffffffffffffffffffffffffffffffffffff1673ffffffffffffffffffffffffffffffffffffffff1681526020019081526020016000205411612041576040517f08c379a000000000000000000000000000000000000000000000000000000000815260040161203890613fdf565b60405180910390fd5b601160008273ffffffffffffffffffffffffffffffffffffffff1673ffffffffffffffffffffffffffffffffffffffff168152602001908152602001600020600081548092919061209190613f69565b919050555050565b6000601360008373ffffffffffffffffffffffffffffffffffffffff1673ffffffffffffffffffffffffffffffffffffffff1681526020019081526020016000209050919050565b60008060026001546120f16122c9565b604051602001612102929190614067565b60405160208183030381529060405260405161211e919061408f565b602060405180830381855afa15801561213b573d6000803e3d6000fd5b5050506040513d601f19601f8201168201806040525081019061215e91906140dc565b60001c9050828161216f9190613df7565b91506001600081548092919061218490613eb4565b919050555050919050565b600061219a83611e94565b9050808290806001815401808255809150506001900390600052602060002090600302016000909190919091509060036121d5929190612491565b50505050565b60006121e683612099565b905080829080600181540180825580915050600190039060005260206000200160009091909190915055505050565b80601060008473ffffffffffffffffffffffffffffffffffffffff1673ffffffffffffffffffffffffffffffffffffffff16815260200190815260200160002060008282546122649190613d72565b925050819055505050565b80601160008473ffffffffffffffffffffffffffffffffffffffff1673ffffffffffffffffffffffffffffffffffffffff16815260200190815260200160002060008282546122be9190613d72565b925050819055505050565b60606040518060400160405280600b81526020017f736c6f747479776f747479000000000000000000000000000000000000000000815250905090565b60405180606001604052806003905b60608152602001906001900390816123155790505090565b604051806040016040528061234061236f565b8152602001600081525090565b6040518060600160405280600390602082028036833780820191505090505090565b60405180606001604052806003905b606081526020019060019003908161237e5790505090565b6040518060600160405280600390602082028036833780820191505090505090565b82600381019282156123fa579160200282015b828111156123f95782518290805190602001906123e99291906124e4565b50916020019190600101906123cb565b5b5090506124079190612544565b5090565b826003810192821561244d579182015b8281111561244c57828290805461243190613022565b61243c929190612568565b509160010191906001019061241b565b5b50905061245a91906125f5565b5090565b506000818161246d9190612619565b506001016000818161247f9190612619565b50600101600061248f9190612619565b565b82600381019282156124d3579160200282015b828111156124d25782518290805190602001906124c2929190612659565b50916020019190600101906124a4565b5b5090506124e091906125f5565b5090565b828054828255906000526020600020908101928215612533579160200282015b82811115612532578251829080519060200190612522929190612659565b5091602001919060010190612504565b5b50905061254091906125f5565b5090565b5b80821115612564576000818161255b91906126df565b50600101612545565b5090565b82805461257490613022565b90600052602060002090601f01602090048101928261259657600085556125e4565b82601f106125a757805485556125e4565b828001600101855582156125e457600052602060002091601f016020900482015b828111156125e35782548255916001019190600101906125c8565b5b5090506125f19190612700565b5090565b5b80821115612615576000818161260c9190612619565b506001016125f6565b5090565b50805461262590613022565b6000825580601f106126375750612656565b601f0160209004906000526020600020908101906126559190612700565b5b50565b82805461266590613022565b90600052602060002090601f01602090048101928261268757600085556126ce565b82601f106126a057805160ff19168380011785556126ce565b828001600101855582156126ce579182015b828111156126cd5782518255916020019190600101906126b2565b5b5090506126db9190612700565b5090565b50805460008255906000526020600020908101906126fd91906125f5565b50565b5b80821115612719576000816000905550600101612701565b5090565b600060039050919050565b600081905092915050565b6000819050919050565b600081519050919050565b600082825260208201905092915050565b6000819050602082019050919050565b600081519050919050565b600082825260208201905092915050565b60005b838110156127a3578082015181840152602081019050612788565b838111156127b2576000848401525b50505050565b6000601f19601f8301169050919050565b60006127d482612769565b6127de8185612774565b93506127ee818560208601612785565b6127f7816127b8565b840191505092915050565b600061280e83836127c9565b905092915050565b6000602082019050919050565b600061282e8261273d565b6128388185612748565b93508360208202850161284a85612759565b8060005b8581101561288657848403895281516128678582612802565b945061287283612816565b925060208a0199505060018101905061284e565b50829750879550505050505092915050565b60006128a48383612823565b905092915050565b6000602082019050919050565b60006128c48261271d565b6128ce8185612728565b9350836020820285016128e085612733565b8060005b8581101561291c57848403895281516128fd8582612898565b9450612908836128ac565b925060208a019950506001810190506128e4565b50829750879550505050505092915050565b6000602082019050818103600083015261294881846128b9565b905092915050565b6000604051905090565b600080fd5b600080fd5b600073ffffffffffffffffffffffffffffffffffffffff82169050919050565b600061298f82612964565b9050919050565b61299f81612984565b81146129aa57600080fd5b50565b6000813590506129bc81612996565b92915050565b6000602082840312156129d8576129d761295a565b5b60006129e6848285016129ad565b91505092915050565b6000819050919050565b612a02816129ef565b82525050565b6000602082019050612a1d60008301846129f9565b92915050565b612a2c816129ef565b8114612a3757600080fd5b50565b600081359050612a4981612a23565b92915050565b600080600060608486031215612a6857612a6761295a565b5b6000612a7686828701612a3a565b9350506020612a8786828701612a3a565b9250506040612a9886828701612a3a565b9150509250925092565b600060208284031215612ab857612ab761295a565b5b6000612ac684828501612a3a565b91505092915050565b600060039050919050565b600081905092915050565b6000819050919050565b6000602082019050919050565b6000612b0782612acf565b612b118185612ada565b935083602082028501612b2385612ae5565b8060005b85811015612b5f5784840389528151612b408582612802565b9450612b4b83612aef565b925060208a01995050600181019050612b27565b50829750879550505050505092915050565b612b7a816129ef565b82525050565b60006040830160008301518482036000860152612b9d8282612afc565b9150506020830151612bb26020860182612b71565b508091505092915050565b60006020820190508181036000830152612bd78184612b80565b905092915050565b600080fd5b600060408284031215612bfa57612bf9612bdf565b5b81905092915050565b600060208284031215612c1957612c1861295a565b5b600082013567ffffffffffffffff811115612c3757612c3661295f565b5b612c4384828501612be4565b91505092915050565b6000606082019050612c6160008301866129f9565b612c6e60208301856129f9565b612c7b60408301846129f9565b949350505050565b600080fd5b600081905082602060030282011115612ca457612ca3612c83565b5b92915050565b600060208284031215612cc057612cbf61295a565b5b600082013567ffffffffffffffff811115612cde57612cdd61295f565b5b612cea84828501612c88565b91505092915050565b612cfc81612984565b82525050565b6000602082019050612d176000830184612cf3565b92915050565b6000612d2882612984565b9050919050565b612d3881612d1d565b8114612d4357600080fd5b50565b600081359050612d5581612d2f565b92915050565b600060208284031215612d7157612d7061295a565b5b6000612d7f84828501612d46565b91505092915050565b600060039050919050565b600081905092915050565b6000819050919050565b60008115159050919050565b612dbd81612da8565b82525050565b6000612dcf8383612db4565b60208301905092915050565b6000602082019050919050565b612df181612d88565b612dfb8184612d93565b9250612e0682612d9e565b8060005b83811015612e37578151612e1e8782612dc3565b9650612e2983612ddb565b925050600181019050612e0a565b505050505050565b6000606082019050612e546000830184612de8565b92915050565b60008060408385031215612e7157612e7061295a565b5b6000612e7f858286016129ad565b9250506020612e9085828601612a3a565b9150509250929050565b600081905092915050565b6000612eb082612acf565b612eba8185612e9a565b935083602082028501612ecc85612ae5565b8060005b85811015612f085784840389528151612ee98582612802565b9450612ef483612aef565b925060208a01995050600181019050612ed0565b50829750879550505050505092915050565b60006020820190508181036000830152612f348184612ea5565b905092915050565b600060039050919050565b600081905092915050565b6000819050919050565b6000612f688383612b71565b60208301905092915050565b6000602082019050919050565b612f8a81612f3c565b612f948184612f47565b9250612f9f82612f52565b8060005b83811015612fd0578151612fb78782612f5c565b9650612fc283612f74565b925050600181019050612fa3565b505050505050565b6000606082019050612fed6000830184612f81565b92915050565b7f4e487b7100000000000000000000000000000000000000000000000000000000600052602260045260246000fd5b6000600282049050600182168061303a57607f821691505b6020821081141561304e5761304d612ff3565b5b50919050565b600082825260208201905092915050565b7f4f776e61626c653a2063616c6c6572206973206e6f7420746865206f776e6572600082015250565b600061309b602083613054565b91506130a682613065565b602082019050919050565b600060208201905081810360008301526130ca8161308e565b9050919050565b7f4e487b7100000000000000000000000000000000000000000000000000000000600052604160045260246000fd5b613109826127b8565b810181811067ffffffffffffffff82111715613128576131276130d1565b5b80604052505050565b600061313b612950565b90506131478282613100565b919050565b600067ffffffffffffffff821115613167576131666130d1565b5b602082029050919050565b600080fd5b600067ffffffffffffffff821115613192576131916130d1565b5b602082029050602081019050919050565b600080fd5b600067ffffffffffffffff8211156131c3576131c26130d1565b5b6131cc826127b8565b9050602081019050919050565b82818337600083830152505050565b60006131fb6131f6846131a8565b613131565b905082815260208101848484011115613217576132166131a3565b5b6132228482856131d9565b509392505050565b600082601f83011261323f5761323e613172565b5b813561324f8482602086016131e8565b91505092915050565b600061326b61326684613177565b613131565b9050808382526020820190506020840283018581111561328e5761328d612c83565b5b835b818110156132d557803567ffffffffffffffff8111156132b3576132b2613172565b5b8086016132c0898261322a565b85526020850194505050602081019050613290565b5050509392505050565b600082601f8301126132f4576132f3613172565b5b8135613304848260208601613258565b91505092915050565b600061332061331b8461314c565b613131565b9050806020840283018581111561333a57613339612c83565b5b835b8181101561338157803567ffffffffffffffff81111561335f5761335e613172565b5b80860161336c89826132df565b8552602085019450505060208101905061333c565b5050509392505050565b60006133993660038461330d565b9050919050565b7f436f6e747261637473206d6179206e6f7420706c617920736c6f74732e000000600082015250565b60006133d6601d83613054565b91506133e1826133a0565b602082019050919050565b60006020820190508181036000830152613405816133c9565b9050919050565b7f4f776e61626c653a206e6577206f776e657220697320746865207a65726f206160008201527f6464726573730000000000000000000000000000000000000000000000000000602082015250565b6000613468602683613054565b91506134738261340c565b604082019050919050565b600060208201905081810360008301526134978161345b565b9050919050565b7f4e487b7100000000000000000000000000000000000000000000000000000000600052603260045260246000fd5b7f416c72656164792068656c64207468697320706f736974696f6e2e0000000000600082015250565b6000613503601b83613054565b915061350e826134cd565b602082019050919050565b60006020820190508181036000830152613532816134f6565b9050919050565b7f4e487b7100000000000000000000000000000000000000000000000000000000600052600060045260246000fd5b600080fd5b600080fd5b600080fd5b60008235600160600383360303811261359357613592613568565b5b80830191505092915050565b6000819050919050565b600080833560016020038436030381126135c6576135c5613568565b5b80840192508235915067ffffffffffffffff8211156135e8576135e761356d565b5b60208301925060018202360383131561360457613603613572565b5b509250929050565b600060039050919050565b7f4e487b7100000000000000000000000000000000000000000000000000000000600052601160045260246000fd5b60008190506001806001038301049050919050565b6000819050919050565b60008190508160005260206000209050919050565b600082821c905092915050565b6136b77fffffffffffffffffffffffffffffffffffffffffffffffffffffffffffffffff8360200360080261367a565b815481168255505050565b600082821b905092915050565b6000600883026136ff7fffffffffffffffffffffffffffffffffffffffffffffffffffffffffffffffff826136c2565b61370986836136c2565b95508019841693508086168417925050509392505050565b6000819050919050565b600061374661374161373c846129ef565b613721565b6129ef565b9050919050565b6000819050919050565b6137608361372b565b61377461376c8261374d565b8484546136cf565b825550505050565b600090565b61378961377c565b613794818484613757565b505050565b5b818110156137b8576137ad600082613781565b60018101905061379a565b5050565b60006137cd6000198460080261367a565b1980831691505092915050565b60006137e683836137bc565b9150826002028217905092915050565b6137ff81613665565b61380a8382546137da565b8083556000825550505050565b60006020601f8301049050919050565b602084106000811461388257601f8411600181146138505761384986856137da565b835561387c565b61385983613665565b61387061386587613817565b820160018301613799565b61387a87856137f6565b505b506138cf565b61388b82613665565b61389486613817565b8101601f871680156138ae576138ad8160018403613687565b5b6138c26138ba88613817565b840183613799565b6001886002021785555050505b5050505050565b680100000000000000008411156138f0576138ef6130d1565b5b602083106000811461393b5760208510600081146139195761391286856137da565b8355613935565b8360ff191693508361392a84613665565b556001866002020183555b50613945565b6001856002020182555b5050505050565b805461395781613022565b8084111561396c5761396b848284866138d6565b5b808410156139815761398084828486613827565b5b50505050565b818110156139a55761399a600082613781565b600181019050613987565b5050565b6139b460008261394c565b50565b600082146139c8576139c7613539565b5b6139d1816139a9565b5050565b5b818110156139f4576139e96000826139b7565b6001810190506139d6565b5050565b81831015613a3157613a0982613646565b613a1284613646565b613a1b8361365b565b818101838201613a2b81836139d5565b50505050505b505050565b68010000000000000000821115613a5057613a4f6130d1565b5b613a598161360c565b613a648382846139f8565b505050565b600060039050919050565b600082905092915050565b601f821115613ac057613a9181613665565b613a9a84613817565b81016020851015613aa9578190505b613abd613ab585613817565b830182613799565b50505b505050565b613acf8383613a74565b67ffffffffffffffff811115613ae857613ae76130d1565b5b613af28254613022565b613afd828285613a7f565b6000601f831160018114613b2c5760008415613b1a578287013590505b613b2485826137da565b865550613b8c565b601f198416613b3a86613665565b60005b82811015613b6257848901358255600182019150602085019450602081019050613b3d565b86831015613b7f5784890135613b7b601f8916826137bc565b8355505b6001600288020188555050505b50505050505050565b8115613ba457613ba3613539565b5b613baf848483613ac5565b50505050565b613bbe82613a69565b613bc88183613a36565b613bd18361359f565b613bda8361365b565b6000805b84811015613c1557613bf084886135a9565b613bfc81838688613b95565b6020860195506001850194505050600181019050613bde565b50505050505050565b613c288282613bb5565b5050565b60008135613c3981612a23565b80915050919050565b60008160001b9050919050565b60007fffffffffffffffffffffffffffffffffffffffffffffffffffffffffffffffff613c7b84613c42565b9350801983169250808416831791505092915050565b613c9a8261372b565b613cad613ca68261374d565b8354613c4f565b8255505050565b6000810160008301613cc68185613577565b613cd08184613c1e565b505050600381016020830180613ce581613c2c565b9050613cf18184613c91565b5050505050565b613d028282613cb4565b5050565b7f43616e6e6f74206e7564676520612068656c6420706f736974696f6e2e000000600082015250565b6000613d3c601d83613054565b9150613d4782613d06565b602082019050919050565b60006020820190508181036000830152613d6b81613d2f565b9050919050565b6000613d7d826129ef565b9150613d88836129ef565b9250827fffffffffffffffffffffffffffffffffffffffffffffffffffffffffffffffff03821115613dbd57613dbc613617565b5b828201905092915050565b7f4e487b7100000000000000000000000000000000000000000000000000000000600052601260045260246000fd5b6000613e02826129ef565b9150613e0d836129ef565b925082613e1d57613e1c613dc8565b5b828206905092915050565b6000613e33826129ef565b9150613e3e836129ef565b925082821015613e5157613e50613617565b5b828203905092915050565b7f4e487b7100000000000000000000000000000000000000000000000000000000600052603160045260246000fd5b6000604082019050613ea06000830185612cf3565b613ead60208301846129f9565b9392505050565b6000613ebf826129ef565b91507fffffffffffffffffffffffffffffffffffffffffffffffffffffffffffffffff821415613ef257613ef1613617565b5b600182019050919050565b7f596f7520686176652072616e206f7574206f6620686f6c64732e000000000000600082015250565b6000613f33601a83613054565b9150613f3e82613efd565b602082019050919050565b60006020820190508181036000830152613f6281613f26565b9050919050565b6000613f74826129ef565b91506000821415613f8857613f87613617565b5b600182039050919050565b7f596f7520686176652072616e206f7574206f66206e75646765732e0000000000600082015250565b6000613fc9601b83613054565b9150613fd482613f93565b602082019050919050565b60006020820190508181036000830152613ff881613fbc565b9050919050565b6000819050919050565b61401a614015826129ef565b613fff565b82525050565b600081519050919050565b600081905092915050565b600061404182614020565b61404b818561402b565b935061405b818560208601612785565b80840191505092915050565b60006140738285614009565b6020820191506140838284614036565b91508190509392505050565b600061409b8284614036565b915081905092915050565b6000819050919050565b6140b9816140a6565b81146140c457600080fd5b50565b6000815190506140d6816140b0565b92915050565b6000602082840312156140f2576140f161295a565b5b6000614100848285016140c7565b9150509291505056fea264697066735822122035122bce0dd5518d2052e3917d8d64ac897b20e9c0d97049e49287bae68efcb764736f6c634300080a0033",
  "immutableReferences": {},
  "source": "//SPDX-License-Identifier: MIT\r\npragma solidity ^0.8.0;\r\nimport \"@openzeppelin/contracts/token/ERC20/IERC20.sol\";\r\nimport \"@openzeppelin/contracts/access/Ownable.sol\";\r\nimport \"@openzeppelin/contracts/utils/Address.sol\";\r\nimport \"luk1529_solidity/contracts/utils/Random.sol\";\r\nimport \"./bankroll/CasinoGame.sol\";\r\n\r\ncontract Slots is Ownable, Random(\"slottywotty\"), CasinoGame {\r\n    using Address for address;\r\n\r\n    constructor(IBankroll Bankroll) CasinoGame(Bankroll) {\r\n    }\r\n    \r\n    \r\n    \r\n    //machine\r\n    string[][3] _reels;\r\n    uint _creditPrice;\r\n    uint _nudgesChance; uint _holdsChance; /* percentage chance to receive nudges and holds */\r\n    uint _nudgesMin; uint _nudgesMax; /* minimum and maximum nudges given */\r\n    uint _holdsMin; uint _holdsMax; /* minimum and maximum holds given */\r\n    \r\n    \r\n    \r\n    //events\r\n    event Spun(address indexed player);\r\n    event Nudged(address indexed player);\r\n    \r\n    \r\n    //player info\r\n    mapping(address => uint[3]) _positions;\r\n    mapping(address => bool[3]) _held;\r\n    mapping(address => uint) _holds;\r\n    mapping(address => uint) _nudges;\r\n    mapping(address => string[3][]) _historicalResults;\r\n    mapping(address => uint[]) _historicalWinnings;\r\n    \r\n\r\n\r\n    //payout info\r\n    struct PayLineData {\r\n        string[3] payLine;\r\n        uint payout;\r\n    }\r\n    PayLineData[] _payTable;\r\n\r\n    \r\n\r\n    //pay table\r\n    function addToPayTable(PayLineData calldata _payLineData) public onlyOwner {\r\n        _addToPayTable(_payLineData);\r\n    }\r\n\r\n    function removeFromPayTable(uint _index) public onlyOwner {\r\n        _removeFromPayTable(_payTable, _index);\r\n    }\r\n\r\n    function getPayTableLength() public view returns(uint) {\r\n        return _getPayTableLength();\r\n    }\r\n\r\n    function getPayLineData(uint _index) public view returns(PayLineData memory) {\r\n        return _getPayLineData(_index);\r\n    }\r\n\r\n\r\n\r\n    //holds and nudges\r\n    function holdsInfo() public view returns(uint chance, uint min, uint max) {\r\n        return _getHoldsInfo();\r\n    }\r\n\r\n    function nudgesInfo() public view returns(uint chance, uint min, uint max) {\r\n        return _getNudgesInfo();\r\n    }\r\n\r\n    function setHoldsInfo(uint _chance, uint _min, uint _max) public onlyOwner {\r\n        _setHoldsInfo(_chance, _min, _max);\r\n    }\r\n\r\n    function setnudgesInfo(uint _chance, uint _min, uint _max) public onlyOwner {\r\n        _setNudgesInfo(_chance, _min, _max);\r\n    }\r\n\r\n\r\n\r\n    //previous results\r\n    function getHistoricalResultsLengthOfPlayer(address _player) public view returns(uint) {\r\n        return _getHistoricalResultsLength(_player);\r\n    }\r\n\r\n    function getHistoricalResultOfPlayerByIndex(address _player, uint _index) public view returns(string[3] memory) {\r\n        return _getHistoricalResult(_player, _index);\r\n    }\r\n\r\n    function getHistoricalWinningsLengthOfPlayer(address _player) public view returns(uint) {\r\n        return _getHistoricalResultsLength(_player);\r\n    }\r\n\r\n    function getHistoricalWinningOfPlayerbyIndex(address _player, uint _index) public view returns(uint) {\r\n        return _getHistoricalWinning(_player, _index);\r\n    }\r\n\r\n\r\n\r\n    //reel data\r\n    function reels() public view returns(string[][3] memory ) {\r\n        return _getReels();\r\n    }\r\n\r\n    function setReels(string[][3] calldata _newReels) public onlyOwner {\r\n        _setReels(_newReels);\r\n    }\r\n\r\n    function positionsOf(address _player) public view returns(uint[3] memory) {\r\n        return _getPositions(_player);\r\n    }\r\n\r\n    //price per spin\r\n    function creditPrice() public view returns(uint) {\r\n        return _getCreditPrice();\r\n    }\r\n\r\n    function setCreditPrice(uint _price) public onlyOwner {\r\n        _setCreditPrice(_price);\r\n    }\r\n\r\n\r\n\r\n    //main game\r\n\r\n    function spin() public noContract {\r\n        address player = _msgSender();\r\n        _payForSpin(player);\r\n        _spin(player);\r\n        _payout(player);\r\n        _clearNudges(player);\r\n        _clearHolds(player);\r\n        _resetHeld(player);\r\n        _awardHolds(player);\r\n        _awardNudges(player);\r\n    }\r\n\r\n    function hold(uint _index) public {\r\n        address player = _msgSender();\r\n        _hold(player, _index);\r\n    }\r\n\r\n    function nudge(uint _index) public {\r\n        address player = _msgSender();\r\n        _nudge(player, _index);\r\n    }\r\n    function holdsOf(address _player) public view returns(uint) {\r\n        return _getHolds(_player);\r\n    }\r\n\r\n    function heldOf(address _player) public view returns(bool[3] memory) {\r\n        return _getHeld(_player);\r\n    }\r\n\r\n    function nudgesOf(address _player) public view returns(uint) {\r\n        return _getNudges(_player);\r\n    }\r\n\r\n\r\n\r\n\r\n\r\n    //behind the scenes\r\n    function _addToPayTable(PayLineData calldata _payLine) private {\r\n        _payTable.push(_payLine);\r\n    }\r\n\r\n    function _removeFromPayTable(PayLineData[] storage _table, uint _index) private {\r\n        _table[_index] = _table[_table.length - 1];\r\n        _table.pop();\r\n    }\r\n\r\n    function _getPayTable() private view returns(PayLineData[] storage) {\r\n        return _payTable;\r\n    }\r\n\r\n    function _getPayTableLength() private view returns(uint) {\r\n        return _getPayTable().length;\r\n    }\r\n\r\n    function _getPayLineData(uint _index) private view returns(PayLineData storage) {\r\n        return _getPayTable()[_index];\r\n    }\r\n\r\n    function _getCreditPrice() private view returns(uint) {\r\n        return _creditPrice;\r\n    }\r\n\r\n    function _setCreditPrice(uint _price) private {\r\n        _creditPrice = _price;\r\n    }\r\n    \r\n    function _getHistoricalResults(address _player) private view returns(string[3][] storage) {\r\n        return _historicalResults[_player];\r\n    } \r\n\r\n    function _getHistoricalResultsLength(address _player) private view returns(uint) {\r\n        return _getHistoricalResults(_player).length;\r\n    }\r\n\r\n    function _getHistoricalResult(address _player, uint _index) private view returns(string[3] storage) {\r\n        return _getHistoricalResults(_player)[_index];\r\n    }\r\n\r\n    function _getHistoricalWinnings(address _player) private view returns(uint[] storage) {\r\n        return _historicalWinnings[_player];\r\n    }\r\n\r\n    function _getHistoricalWinningsLength(address _player) private view returns(uint) {\r\n        return _getHistoricalWinnings(_player).length;\r\n    }\r\n\r\n    function _getHistoricalWinning(address _player, uint _index) private view returns(uint) {\r\n        return _getHistoricalWinnings(_player)[_index];\r\n    }\r\n\r\n\r\n\r\n    function _getHeld(address _player) private view returns(bool[3] storage) {\r\n        return _held[_player];\r\n    }\r\n\r\n    function _getPositions(address _player) private view returns(uint[3] storage) {\r\n        return _positions[_player];\r\n    }\r\n\r\n    function _getReels() private view returns(string[][3] storage) {\r\n        return _reels;\r\n    }\r\n\r\n    function _setReels(string[][3] memory _newReels) private {\r\n        _reels = _newReels;\r\n    }\r\n\r\n    function _getHolds(address _player) private view returns(uint) {\r\n        return _holds[_player];\r\n    }\r\n\r\n    function _getNudges(address _player) private view returns(uint) {\r\n        return _nudges[_player];\r\n    }\r\n    \r\n\r\n\r\n    function _resetHeld(address _player) private {\r\n        bool[3] storage held = _getHeld(_player);\r\n        for(uint i; i < 3; i ++) {\r\n            held[i] = false;\r\n        }\r\n    }\r\n\r\n    function _clearHolds(address _player) private {\r\n        _holds[_player] = 0;\r\n    }\r\n\r\n    function _clearNudges(address _player) private {\r\n        _nudges[_player] = 0;\r\n    }\r\n\r\n    function _addToHolds(address _player, uint _value) private {\r\n        _holds[_player] += _value;\r\n    }\r\n\r\n    function _addToNudges(address _player, uint _value) private {\r\n        _nudges[_player] += _value;\r\n    }\r\n\r\n    function _decrementHolds(address _player) private {\r\n        require(_holds[_player] > 0, \"You have ran out of holds.\");\r\n        _holds[_player] --;\r\n    }\r\n\r\n    function _decrementNudges(address _player) private {\r\n        require(_nudges[_player] > 0, \"You have ran out of nudges.\");\r\n        _nudges[_player] --;\r\n    }\r\n\r\n    function _payForSpin(address _player) private {\r\n        _Bankroll.playFrom(_player, _creditPrice);\r\n    }\r\n\r\n    function _awardHolds(address _player) private {\r\n        uint chance = _randomNumber(100);\r\n        if(chance < _holdsChance) {\r\n            uint holds = _randomNumber(_holdsMax - _holdsMin) + _holdsMin;\r\n            _addToHolds(_player, holds);\r\n        }\r\n    }\r\n\r\n    function _awardNudges(address _player) private {\r\n        uint chance = _randomNumber(100);\r\n        if(chance < _nudgesChance) {\r\n            uint nudges = _randomNumber(_nudgesMax - _nudgesMin) + _nudgesMin;\r\n            _addToNudges(_player, nudges);\r\n        }\r\n    }\r\n\r\n    \r\n\r\n\r\n    \r\n\r\n\r\n    function _spin(address _player) private {\r\n        string[][3] storage currentReels = _getReels();\r\n        uint[3] storage positions = _getPositions(_player);\r\n        bool[3] storage held = _getHeld(_player);\r\n        for(uint i; i < 3; i ++) {\r\n            if(!held[i]) {\r\n                uint pos = _randomNumber(currentReels[i].length);\r\n                positions[i] = pos;\r\n            }\r\n        }\r\n        emit Spun(_player);\r\n    }\r\n\r\n\r\n\r\n    function _nudge(address _player, uint _index) private {\r\n        string[][3] storage currentReels = _getReels();\r\n        uint[3] storage positions = _getPositions(_player);\r\n        bool[3] storage held = _getHeld(_player);\r\n        require(!held[_index], \"Cannot nudge a held position.\");\r\n        uint pos = positions[_index];\r\n        positions[_index] = (pos + 1) % currentReels[_index].length;\r\n        _decrementNudges(_player);\r\n        _payout(_player);\r\n        emit Nudged(_player);\r\n    }\r\n\r\n\r\n\r\n    function _hold(address _player, uint _index) private {\r\n        bool[3] storage held = _getHeld(_player);\r\n        require(!held[_index], \"Already held this position.\");\r\n        held[_index] = true;\r\n        _decrementHolds(_player);\r\n    }\r\n\r\n\r\n\r\n    function _payout(address _player) private {\r\n        string[][3] storage currentReels = _getReels();\r\n        uint[3] storage positions = _getPositions(_player);\r\n        string[3] memory result = [\r\n            currentReels[0][positions[0]], \r\n            currentReels[1][positions[1]],\r\n            currentReels[2][positions[2]]\r\n        ];\r\n        uint winnings;\r\n        for(uint i; i < _getPayTableLength(); i ++) {\r\n            PayLineData storage payLineData = _getPayLineData(i);\r\n            string[3] memory payLine = payLineData.payLine;\r\n            uint payout = payLineData.payout;\r\n            if(keccak256(abi.encode(payLine)) == keccak256(abi.encode(result))) {\r\n                _Bankroll.winTo(_player, payout);\r\n            }\r\n            winnings += payout;\r\n        }\r\n        _logHistoricalResults(_player, result);\r\n        _logHistoricalWinnings(_player, winnings);\r\n    }\r\n\r\n    function _getHoldsInfo() private view returns(uint chance, uint min, uint max) {\r\n        return(_holdsChance, _holdsMin, _holdsMax);\r\n    }\r\n\r\n    function _getNudgesInfo() private view returns(uint chance, uint min, uint max) {\r\n        return(_nudgesChance, _nudgesMin, _nudgesMax);\r\n    }\r\n\r\n    function _setHoldsInfo(uint _chance, uint _min, uint _max) private {\r\n        (_holdsChance, _holdsMin, _holdsMax) = (_chance, _min, _max);\r\n    }\r\n\r\n    function _setNudgesInfo(uint _chance, uint _min, uint _max) private {\r\n        (_nudgesChance, _nudgesMin, _nudgesMax) = (_chance, _min, _max);\r\n    }\r\n\r\n    function _logHistoricalResults(address _player, string[3] memory _result) private {\r\n        string[3][] storage historicalResults = _getHistoricalResults(_player);\r\n        historicalResults.push(_result);\r\n    }\r\n    function _logHistoricalWinnings(address _player, uint _winnings) private {\r\n        uint[] storage historicalWinnings = _getHistoricalWinnings(_player);\r\n        historicalWinnings.push(_winnings);\r\n    }\r\n\r\n    modifier noContract() {\r\n        address sender = _msgSender();\r\n        require(!sender.isContract(), \"Contracts may not play slots.\");\r\n        _;\r\n    }\r\n\r\n    function _getSalt() internal override pure returns(bytes memory) {\r\n        return \"slottywotty\";\r\n    }\r\n}\r\n",
  "sourcePath": "C:\\Users\\lukey\\Documents\\Blockchain\\XYA\\Casino\\contracts\\Slots.sol",
  "compiler": {
    "name": "solc",
    "version": "0.8.10+commit.fc410830.Emscripten.clang"
  },
  "schemaVersion": "3.4.3",
  "updatedAt": "2021-11-29T19:53:39.861Z",
  "devdoc": {
    "kind": "dev",
    "methods": {
      "owner()": {
        "details": "Returns the address of the current owner."
      },
      "renounceOwnership()": {
        "details": "Leaves the contract without owner. It will not be possible to call `onlyOwner` functions anymore. Can only be called by the current owner. NOTE: Renouncing ownership will leave the contract without an owner, thereby removing any functionality that is only available to the owner."
      },
      "transferOwnership(address)": {
        "details": "Transfers ownership of the contract to a new account (`newOwner`). Can only be called by the current owner."
      }
    },
    "version": 1
  },
  "userdoc": {
    "kind": "user",
    "methods": {},
    "version": 1
  }
}