{
  "contractName": "Slots",
  "abi": [
    {
      "inputs": [
        {
          "internalType": "contract IBankroll",
          "name": "Bankroll",
          "type": "address"
        }
      ],
      "stateMutability": "nonpayable",
      "type": "constructor"
    },
    {
      "anonymous": false,
      "inputs": [
        {
          "indexed": true,
          "internalType": "address",
          "name": "player",
          "type": "address"
        }
      ],
      "name": "Nudged",
      "type": "event"
    },
    {
      "anonymous": false,
      "inputs": [
        {
          "indexed": true,
          "internalType": "address",
          "name": "previousOwner",
          "type": "address"
        },
        {
          "indexed": true,
          "internalType": "address",
          "name": "newOwner",
          "type": "address"
        }
      ],
      "name": "OwnershipTransferred",
      "type": "event"
    },
    {
      "anonymous": false,
      "inputs": [
        {
          "indexed": true,
          "internalType": "address",
          "name": "player",
          "type": "address"
        }
      ],
      "name": "Spun",
      "type": "event"
    },
    {
      "inputs": [],
      "name": "owner",
      "outputs": [
        {
          "internalType": "address",
          "name": "",
          "type": "address"
        }
      ],
      "stateMutability": "view",
      "type": "function"
    },
    {
      "inputs": [],
      "name": "renounceOwnership",
      "outputs": [],
      "stateMutability": "nonpayable",
      "type": "function"
    },
    {
      "inputs": [
        {
          "internalType": "address",
          "name": "newOwner",
          "type": "address"
        }
      ],
      "name": "transferOwnership",
      "outputs": [],
      "stateMutability": "nonpayable",
      "type": "function"
    },
    {
      "inputs": [
        {
          "components": [
            {
              "internalType": "string[3]",
              "name": "payLine",
              "type": "string[3]"
            },
            {
              "internalType": "uint256",
              "name": "payout",
              "type": "uint256"
            }
          ],
          "internalType": "struct Slots.PayLineData",
          "name": "_payLineData",
          "type": "tuple"
        }
      ],
      "name": "addToPayTable",
      "outputs": [],
      "stateMutability": "nonpayable",
      "type": "function"
    },
    {
      "inputs": [
        {
          "internalType": "uint256",
          "name": "_index",
          "type": "uint256"
        }
      ],
      "name": "removeFromPayTable",
      "outputs": [],
      "stateMutability": "nonpayable",
      "type": "function"
    },
    {
      "inputs": [],
      "name": "getPayTableLength",
      "outputs": [
        {
          "internalType": "uint256",
          "name": "",
          "type": "uint256"
        }
      ],
      "stateMutability": "view",
      "type": "function"
    },
    {
      "inputs": [
        {
          "internalType": "uint256",
          "name": "_index",
          "type": "uint256"
        }
      ],
      "name": "getPayLineData",
      "outputs": [
        {
          "components": [
            {
              "internalType": "string[3]",
              "name": "payLine",
              "type": "string[3]"
            },
            {
              "internalType": "uint256",
              "name": "payout",
              "type": "uint256"
            }
          ],
          "internalType": "struct Slots.PayLineData",
          "name": "",
          "type": "tuple"
        }
      ],
      "stateMutability": "view",
      "type": "function"
    },
    {
      "inputs": [],
      "name": "holdsInfo",
      "outputs": [
        {
          "internalType": "uint256",
          "name": "chance",
          "type": "uint256"
        },
        {
          "internalType": "uint256",
          "name": "min",
          "type": "uint256"
        },
        {
          "internalType": "uint256",
          "name": "max",
          "type": "uint256"
        }
      ],
      "stateMutability": "view",
      "type": "function"
    },
    {
      "inputs": [],
      "name": "nudgesInfo",
      "outputs": [
        {
          "internalType": "uint256",
          "name": "chance",
          "type": "uint256"
        },
        {
          "internalType": "uint256",
          "name": "min",
          "type": "uint256"
        },
        {
          "internalType": "uint256",
          "name": "max",
          "type": "uint256"
        }
      ],
      "stateMutability": "view",
      "type": "function"
    },
    {
      "inputs": [
        {
          "internalType": "uint256",
          "name": "_chance",
          "type": "uint256"
        },
        {
          "internalType": "uint256",
          "name": "_min",
          "type": "uint256"
        },
        {
          "internalType": "uint256",
          "name": "_max",
          "type": "uint256"
        }
      ],
      "name": "setHoldsInfo",
      "outputs": [],
      "stateMutability": "nonpayable",
      "type": "function"
    },
    {
      "inputs": [
        {
          "internalType": "uint256",
          "name": "_chance",
          "type": "uint256"
        },
        {
          "internalType": "uint256",
          "name": "_min",
          "type": "uint256"
        },
        {
          "internalType": "uint256",
          "name": "_max",
          "type": "uint256"
        }
      ],
      "name": "setnudgesInfo",
      "outputs": [],
      "stateMutability": "nonpayable",
      "type": "function"
    },
    {
      "inputs": [
        {
          "internalType": "address",
          "name": "_player",
          "type": "address"
        }
      ],
      "name": "getHistoricalResultsLengthOfPlayer",
      "outputs": [
        {
          "internalType": "uint256",
          "name": "",
          "type": "uint256"
        }
      ],
      "stateMutability": "view",
      "type": "function"
    },
    {
      "inputs": [
        {
          "internalType": "address",
          "name": "_player",
          "type": "address"
        },
        {
          "internalType": "uint256",
          "name": "_index",
          "type": "uint256"
        }
      ],
      "name": "getHistoricalResultOfPlayerByIndex",
      "outputs": [
        {
          "internalType": "string[3]",
          "name": "",
          "type": "string[3]"
        }
      ],
      "stateMutability": "view",
      "type": "function"
    },
    {
      "inputs": [
        {
          "internalType": "address",
          "name": "_player",
          "type": "address"
        }
      ],
      "name": "getHistoricalWinningsLengthOfPlayer",
      "outputs": [
        {
          "internalType": "uint256",
          "name": "",
          "type": "uint256"
        }
      ],
      "stateMutability": "view",
      "type": "function"
    },
    {
      "inputs": [
        {
          "internalType": "address",
          "name": "_player",
          "type": "address"
        },
        {
          "internalType": "uint256",
          "name": "_index",
          "type": "uint256"
        }
      ],
      "name": "getHistoricalWinningOfPlayerbyIndex",
      "outputs": [
        {
          "internalType": "uint256",
          "name": "",
          "type": "uint256"
        }
      ],
      "stateMutability": "view",
      "type": "function"
    },
    {
      "inputs": [],
      "name": "reels",
      "outputs": [
        {
          "internalType": "string[][3]",
          "name": "",
          "type": "string[][3]"
        }
      ],
      "stateMutability": "view",
      "type": "function"
    },
    {
      "inputs": [
        {
          "internalType": "string[][3]",
          "name": "_newReels",
          "type": "string[][3]"
        }
      ],
      "name": "setReels",
      "outputs": [],
      "stateMutability": "nonpayable",
      "type": "function"
    },
    {
      "inputs": [
        {
          "internalType": "address",
          "name": "_player",
          "type": "address"
        }
      ],
      "name": "positionsOf",
      "outputs": [
        {
          "internalType": "uint256[3]",
          "name": "",
          "type": "uint256[3]"
        }
      ],
      "stateMutability": "view",
      "type": "function"
    },
    {
      "inputs": [],
      "name": "creditPrice",
      "outputs": [
        {
          "internalType": "uint256",
          "name": "",
          "type": "uint256"
        }
      ],
      "stateMutability": "view",
      "type": "function"
    },
    {
      "inputs": [
        {
          "internalType": "uint256",
          "name": "_price",
          "type": "uint256"
        }
      ],
      "name": "setCreditPrice",
      "outputs": [],
      "stateMutability": "nonpayable",
      "type": "function"
    },
    {
      "inputs": [],
      "name": "spin",
      "outputs": [],
      "stateMutability": "nonpayable",
      "type": "function"
    },
    {
      "inputs": [
        {
          "internalType": "uint256",
          "name": "_index",
          "type": "uint256"
        }
      ],
      "name": "hold",
      "outputs": [],
      "stateMutability": "nonpayable",
      "type": "function"
    },
    {
      "inputs": [
        {
          "internalType": "uint256",
          "name": "_index",
          "type": "uint256"
        }
      ],
      "name": "nudge",
      "outputs": [],
      "stateMutability": "nonpayable",
      "type": "function"
    },
    {
      "inputs": [
        {
          "internalType": "address",
          "name": "_player",
          "type": "address"
        }
      ],
      "name": "holdsOf",
      "outputs": [
        {
          "internalType": "uint256",
          "name": "",
          "type": "uint256"
        }
      ],
      "stateMutability": "view",
      "type": "function"
    },
    {
      "inputs": [
        {
          "internalType": "address",
          "name": "_player",
          "type": "address"
        }
      ],
      "name": "heldOf",
      "outputs": [
        {
          "internalType": "bool[3]",
          "name": "",
          "type": "bool[3]"
        }
      ],
      "stateMutability": "view",
      "type": "function"
    },
    {
      "inputs": [
        {
          "internalType": "address",
          "name": "_player",
          "type": "address"
        }
      ],
      "name": "nudgesOf",
      "outputs": [
        {
          "internalType": "uint256",
          "name": "",
          "type": "uint256"
        }
      ],
      "stateMutability": "view",
      "type": "function"
    }
  ],
  "bytecode": "0x60806040523480156200001157600080fd5b506040516200437a3803806200437a8339818101604052810190620000379190620002ff565b806040518060400160405280600b81526020017f736c6f747479776f7474790000000000000000000000000000000000000000008152506200008e62000082620000c160201b60201c565b620000c960201b60201c565b8060029080519060200190620000a6929190620001d1565b5050620000b9816200018d60201b60201c565b505062000396565b600033905090565b60008060009054906101000a900473ffffffffffffffffffffffffffffffffffffffff169050816000806101000a81548173ffffffffffffffffffffffffffffffffffffffff021916908373ffffffffffffffffffffffffffffffffffffffff1602179055508173ffffffffffffffffffffffffffffffffffffffff168173ffffffffffffffffffffffffffffffffffffffff167f8be0079c531659141344cd1fd0a4f28419497f9722a3daafe3b4186f6b6457e060405160405180910390a35050565b80600360006101000a81548173ffffffffffffffffffffffffffffffffffffffff021916908373ffffffffffffffffffffffffffffffffffffffff16021790555050565b828054620001df9062000360565b90600052602060002090601f0160209004810192826200020357600085556200024f565b82601f106200021e57805160ff19168380011785556200024f565b828001600101855582156200024f579182015b828111156200024e57825182559160200191906001019062000231565b5b5090506200025e919062000262565b5090565b5b808211156200027d57600081600090555060010162000263565b5090565b600080fd5b600073ffffffffffffffffffffffffffffffffffffffff82169050919050565b6000620002b38262000286565b9050919050565b6000620002c782620002a6565b9050919050565b620002d981620002ba565b8114620002e557600080fd5b50565b600081519050620002f981620002ce565b92915050565b60006020828403121562000318576200031762000281565b5b60006200032884828501620002e8565b91505092915050565b7f4e487b7100000000000000000000000000000000000000000000000000000000600052602260045260246000fd5b600060028204905060018216806200037957607f821691505b6020821081141562000390576200038f62000331565b5b50919050565b613fd480620003a66000396000f3fe608060405234801561001057600080fd5b506004361061018e5760003560e01c80639666ca4a116100de578063dfce1d2b11610097578063f0acd7d511610071578063f0acd7d514610485578063f2fde38b1461048f578063f750cc1c146104ab578063f867d46b146104db5761018e565b8063dfce1d2b14610407578063e0ec0b9914610437578063ed888633146104555761018e565b80639666ca4a146103355780639a7e18aa14610351578063ad17a0b31461036d578063be27a08414610389578063ca6358cd146103b9578063d2ac2d8a146103d75761018e565b80634e07255d1161014b578063715018a611610125578063715018a6146102d15780637fadb01c146102db5780638ce08009146102fb5780638da5cb5b146103175761018e565b80634e07255d1461027957806356f524a4146102955780637145ad4b146102b55761018e565b80630f378174146101935780632aa81584146101b1578063435fe45d146101e157806349c910c0146101fd5780634b5c4e37146102195780634c985aa614610249575b600080fd5b61019b61050b565b6040516101a8919061282e565b60405180910390f35b6101cb60048036038101906101c691906128c2565b610625565b6040516101d89190612908565b60405180910390f35b6101fb60048036038101906101f6919061294f565b610637565b005b610217600480360381019061021291906129a2565b6106c3565b005b610233600480360381019061022e91906129a2565b6106dd565b6040516102409190612abd565b60405180910390f35b610263600480360381019061025e91906128c2565b6107d1565b6040516102709190612908565b60405180910390f35b610293600480360381019061028e9190612b03565b6107e3565b005b61029d61086b565b6040516102ac93929190612b4c565b60405180910390f35b6102cf60048036038101906102ca91906129a2565b610883565b005b6102d961089d565b005b6102e3610925565b6040516102f293929190612b4c565b60405180910390f35b61031560048036038101906103109190612baa565b61093d565b005b61031f6109ce565b60405161032c9190612c02565b60405180910390f35b61034f600480360381019061034a91906129a2565b6109f7565b005b61036b6004803603810190610366919061294f565b610a81565b005b610387600480360381019061038291906129a2565b610b0d565b005b6103a3600480360381019061039e91906128c2565b610b95565b6040516103b09190612908565b60405180910390f35b6103c1610ba7565b6040516103ce9190612908565b60405180910390f35b6103f160048036038101906103ec91906128c2565b610bb6565b6040516103fe9190612cd4565b60405180910390f35b610421600480360381019061041c9190612cef565b610c2f565b60405161042e9190612908565b60405180910390f35b61043f610c43565b60405161044c9190612908565b60405180910390f35b61046f600480360381019061046a91906128c2565b610c52565b60405161047c9190612908565b60405180910390f35b61048d610c64565b005b6104a960048036038101906104a491906128c2565b610d27565b005b6104c560048036038101906104c09190612cef565b610e1f565b6040516104d29190612daf565b60405180910390f35b6104f560048036038101906104f091906128c2565b610ef7565b6040516105029190612e6d565b60405180910390f35b610513612206565b61051b610f4b565b600380602002604051908101604052809291906000905b8282101561061c57838201805480602002602001604051908101604052809291908181526020016000905b8282101561060957838290600052602060002001805461057c90612eb7565b80601f01602080910402602001604051908101604052809291908181526020018280546105a890612eb7565b80156105f55780601f106105ca576101008083540402835291602001916105f5565b820191906000526020600020905b8154815290600101906020018083116105d857829003601f168201915b50505050508152602001906001019061055d565b5050505081526020019060010190610532565b50505050905090565b600061063082610f54565b9050919050565b61063f610f6a565b73ffffffffffffffffffffffffffffffffffffffff1661065d6109ce565b73ffffffffffffffffffffffffffffffffffffffff16146106b3576040517f08c379a00000000000000000000000000000000000000000000000000000000081526004016106aa90612f46565b60405180910390fd5b6106be838383610f72565b505050565b60006106cd610f6a565b90506106d98183610f98565b5050565b6106e561222d565b6106ee82611050565b60405180604001604052908160008201600380602002604051908101604052809291906000905b828210156107b857838201805461072b90612eb7565b80601f016020809104026020016040519081016040528092919081815260200182805461075790612eb7565b80156107a45780601f10610779576101008083540402835291602001916107a4565b820191906000526020600020905b81548152906001019060200180831161078757829003601f168201915b505050505081526020019060010190610715565b5050505081526020016003820154815250509050919050565b60006107dc82611081565b9050919050565b6107eb610f6a565b73ffffffffffffffffffffffffffffffffffffffff166108096109ce565b73ffffffffffffffffffffffffffffffffffffffff161461085f576040517f08c379a000000000000000000000000000000000000000000000000000000000815260040161085690612f46565b60405180910390fd5b610868816110ca565b50565b6000806000610878611107565b925092509250909192565b600061088d610f6a565b90506108998183611120565b5050565b6108a5610f6a565b73ffffffffffffffffffffffffffffffffffffffff166108c36109ce565b73ffffffffffffffffffffffffffffffffffffffff1614610919576040517f08c379a000000000000000000000000000000000000000000000000000000000815260040161091090612f46565b60405180910390fd5b610923600061126c565b565b6000806000610932611330565b925092509250909192565b610945610f6a565b73ffffffffffffffffffffffffffffffffffffffff166109636109ce565b73ffffffffffffffffffffffffffffffffffffffff16146109b9576040517f08c379a00000000000000000000000000000000000000000000000000000000081526004016109b090612f46565b60405180910390fd5b6109cb816109c690613220565b611349565b50565b60008060009054906101000a900473ffffffffffffffffffffffffffffffffffffffff16905090565b6109ff610f6a565b73ffffffffffffffffffffffffffffffffffffffff16610a1d6109ce565b73ffffffffffffffffffffffffffffffffffffffff1614610a73576040517f08c379a0000000000000000000000000000000000000000000000000000000008152600401610a6a90612f46565b60405180910390fd5b610a7e60148261135e565b50565b610a89610f6a565b73ffffffffffffffffffffffffffffffffffffffff16610aa76109ce565b73ffffffffffffffffffffffffffffffffffffffff1614610afd576040517f08c379a0000000000000000000000000000000000000000000000000000000008152600401610af490612f46565b60405180910390fd5b610b0883838361141a565b505050565b610b15610f6a565b73ffffffffffffffffffffffffffffffffffffffff16610b336109ce565b73ffffffffffffffffffffffffffffffffffffffff1614610b89576040517f08c379a0000000000000000000000000000000000000000000000000000000008152600401610b8090612f46565b60405180910390fd5b610b9281611440565b50565b6000610ba08261144a565b9050919050565b6000610bb1611493565b905090565b610bbe61224d565b610bc78261149d565b600380602002604051908101604052809291908260038015610c23576020028201916000905b82829054906101000a900460ff16151581526020019060010190602082600001049283019260010382029150808411610bed5790505b50505050509050919050565b6000610c3b83836114e5565b905092915050565b6000610c4d611515565b905090565b6000610c5d82610f54565b9050919050565b6000610c6e610f6a565b9050610c8f8173ffffffffffffffffffffffffffffffffffffffff16611528565b15610ccf576040517f08c379a0000000000000000000000000000000000000000000000000000000008152600401610cc690613281565b60405180910390fd5b6000610cd9610f6a565b9050610ce48161153b565b610ced816115b4565b610cf6816116af565b610cff81611b49565b610d0881611b91565b610d1181611bd9565b610d1a81611c3e565b610d2381611c8f565b5050565b610d2f610f6a565b73ffffffffffffffffffffffffffffffffffffffff16610d4d6109ce565b73ffffffffffffffffffffffffffffffffffffffff1614610da3576040517f08c379a0000000000000000000000000000000000000000000000000000000008152600401610d9a90612f46565b60405180910390fd5b600073ffffffffffffffffffffffffffffffffffffffff168173ffffffffffffffffffffffffffffffffffffffff161415610e13576040517f08c379a0000000000000000000000000000000000000000000000000000000008152600401610e0a90613313565b60405180910390fd5b610e1c8161126c565b50565b610e2761226f565b610e318383611ce0565b600380602002604051908101604052809291906000905b82821015610eeb578382018054610e5e90612eb7565b80601f0160208091040260200160405190810160405280929190818152602001828054610e8a90612eb7565b8015610ed75780601f10610eac57610100808354040283529160200191610ed7565b820191906000526020600020905b815481529060010190602001808311610eba57829003601f168201915b505050505081526020019060010190610e48565b50505050905092915050565b610eff612296565b610f0882611d13565b600380602002604051908101604052809291908260038015610f3f576020028201915b815481526020019060010190808311610f2b575b50505050509050919050565b60006004905090565b6000610f5f82611d5b565b805490509050919050565b600033905090565b82828260096000600c6000600d6000869190505585919050558491905055505050505050565b6000610fa38361149d565b9050808260038110610fb857610fb7613333565b5b602091828204019190069054906101000a900460ff161561100e576040517f08c379a0000000000000000000000000000000000000000000000000000000008152600401611005906133ae565b60405180910390fd5b600181836003811061102357611022613333565b5b602091828204019190066101000a81548160ff02191690831515021790555061104b83611da3565b505050565b600061105a611e7d565b828154811061106c5761106b613333565b5b90600052602060002090600402019050919050565b6000601060008373ffffffffffffffffffffffffffffffffffffffff1673ffffffffffffffffffffffffffffffffffffffff168152602001908152602001600020549050919050565b601481908060018154018082558091505060019003906000526020600020906004020160009091909190915081816111029190613b8d565b505050565b6000806000600954600c54600d54925092509250909192565b600061112a610f4b565b9050600061113784611d13565b905060006111448561149d565b905080846003811061115957611158613333565b5b602091828204019190069054906101000a900460ff16156111af576040517f08c379a00000000000000000000000000000000000000000000000000000000081526004016111a690613be7565b60405180910390fd5b60008285600381106111c4576111c3613333565b5b015490508385600381106111db576111da613333565b5b01805490506001826111ed9190613c07565b6111f79190613c8c565b83866003811061120a57611209613333565b5b018190555061121886611e86565b611221866116af565b8573ffffffffffffffffffffffffffffffffffffffff167f3d2724b95926d2d67ef957b98a14fb473b9264a6f8f74840d8cb08c6e4613d5a60405160405180910390a2505050505050565b60008060009054906101000a900473ffffffffffffffffffffffffffffffffffffffff169050816000806101000a81548173ffffffffffffffffffffffffffffffffffffffff021916908373ffffffffffffffffffffffffffffffffffffffff1602179055508173ffffffffffffffffffffffffffffffffffffffff168173ffffffffffffffffffffffffffffffffffffffff167f8be0079c531659141344cd1fd0a4f28419497f9722a3daafe3b4186f6b6457e060405160405180910390a35050565b6000806000600854600a54600b54925092509250909192565b80600490600361135a9291906122b8565b5050565b81600183805490506113709190613cbd565b8154811061138157611380613333565b5b90600052602060002090600402018282815481106113a2576113a1613333565b5b906000526020600020906004020160008201816000019060036113c692919061230b565b5060038201548160030155905050818054806113e5576113e4613cf1565b5b60019003818190600052602060002090600402016000808201600061140a919061235e565b6003820160009055505090555050565b82828260086000600a6000600b6000869190505585919050558491905055505050505050565b8060078190555050565b6000601160008373ffffffffffffffffffffffffffffffffffffffff1673ffffffffffffffffffffffffffffffffffffffff168152602001908152602001600020549050919050565b6000600754905090565b6000600f60008373ffffffffffffffffffffffffffffffffffffffff1673ffffffffffffffffffffffffffffffffffffffff1681526020019081526020016000209050919050565b60006114f083611f60565b828154811061150257611501613333565b5b9060005260206000200154905092915050565b600061151f611e7d565b80549050905090565b600080823b905060008111915050919050565b611543611fa8565b73ffffffffffffffffffffffffffffffffffffffff1663a6bb4664826007546040518363ffffffff1660e01b815260040161157f929190613d20565b600060405180830381600087803b15801561159957600080fd5b505af11580156115ad573d6000803e3d6000fd5b5050505050565b60006115be610f4b565b905060006115cb83611d13565b905060006115d88461149d565b905060005b6003811015611665578181600381106115f9576115f8613333565b5b602091828204019190069054906101000a900460ff1661165257600061163585836003811061162b5761162a613333565b5b0180549050611fb7565b90508084836003811061164b5761164a613333565b5b0181905550505b808061165d90613d49565b9150506115dd565b508373ffffffffffffffffffffffffffffffffffffffff167f805ba4f5a2d0edb125aac77d9404ce5b38a130c3a5f30ca89ffbe0d2109e563d60405160405180910390a250505050565b60006116b9610f4b565b905060006116c683611d13565b905060006040518060600160405280846000600381106116e9576116e8613333565b5b01846000600381106116fe576116fd613333565b5b01548154811061171157611710613333565b5b90600052602060002001805461172690612eb7565b80601f016020809104026020016040519081016040528092919081815260200182805461175290612eb7565b801561179f5780601f106117745761010080835404028352916020019161179f565b820191906000526020600020905b81548152906001019060200180831161178257829003601f168201915b50505050508152602001846001600381106117bd576117bc613333565b5b01846001600381106117d2576117d1613333565b5b0154815481106117e5576117e4613333565b5b9060005260206000200180546117fa90612eb7565b80601f016020809104026020016040519081016040528092919081815260200182805461182690612eb7565b80156118735780601f1061184857610100808354040283529160200191611873565b820191906000526020600020905b81548152906001019060200180831161185657829003601f168201915b505050505081526020018460026003811061189157611890613333565b5b01846002600381106118a6576118a5613333565b5b0154815481106118b9576118b8613333565b5b9060005260206000200180546118ce90612eb7565b80601f01602080910402602001604051908101604052809291908181526020018280546118fa90612eb7565b80156119475780601f1061191c57610100808354040283529160200191611947565b820191906000526020600020905b81548152906001019060200180831161192a57829003601f168201915b505050505081525090506000805b61195d611515565b811015611b2d57600061196f82611050565b9050600081600001600380602002604051908101604052809291906000905b82821015611a315783820180546119a490612eb7565b80601f01602080910402602001604051908101604052809291908181526020018280546119d090612eb7565b8015611a1d5780601f106119f257610100808354040283529160200191611a1d565b820191906000526020600020905b815481529060010190602001808311611a0057829003601f168201915b50505050508152602001906001019061198e565b50505050905060008260030154905085604051602001611a519190612daf565b6040516020818303038152906040528051906020012082604051602001611a789190612daf565b604051602081830303815290604052805190602001201415611b0957611a9c611fa8565b73ffffffffffffffffffffffffffffffffffffffff16638d0c3bd48a836040518363ffffffff1660e01b8152600401611ad6929190613d20565b600060405180830381600087803b158015611af057600080fd5b505af1158015611b04573d6000803e3d6000fd5b505050505b8085611b159190613c07565b94505050508080611b2590613d49565b915050611955565b50611b388583612065565b611b4285826120b1565b5050505050565b6000601160008373ffffffffffffffffffffffffffffffffffffffff1673ffffffffffffffffffffffffffffffffffffffff1681526020019081526020016000208190555050565b6000601060008373ffffffffffffffffffffffffffffffffffffffff1673ffffffffffffffffffffffffffffffffffffffff1681526020019081526020016000208190555050565b6000611be48261149d565b905060005b6003811015611c39576000828260038110611c0757611c06613333565b5b602091828204019190066101000a81548160ff0219169083151502179055508080611c3190613d49565b915050611be9565b505050565b6000611c4a6064611fb7565b9050600954811015611c8b576000600c54611c73600c54600d54611c6e9190613cbd565b611fb7565b611c7d9190613c07565b9050611c8983826120eb565b505b5050565b6000611c9b6064611fb7565b9050600854811015611cdc576000600a54611cc4600a54600b54611cbf9190613cbd565b611fb7565b611cce9190613c07565b9050611cda8382612145565b505b5050565b6000611ceb83611d5b565b8281548110611cfd57611cfc613333565b5b9060005260206000209060030201905092915050565b6000600e60008373ffffffffffffffffffffffffffffffffffffffff1673ffffffffffffffffffffffffffffffffffffffff1681526020019081526020016000209050919050565b6000601260008373ffffffffffffffffffffffffffffffffffffffff1673ffffffffffffffffffffffffffffffffffffffff1681526020019081526020016000209050919050565b6000601060008373ffffffffffffffffffffffffffffffffffffffff1673ffffffffffffffffffffffffffffffffffffffff1681526020019081526020016000205411611e25576040517f08c379a0000000000000000000000000000000000000000000000000000000008152600401611e1c90613dde565b60405180910390fd5b601060008273ffffffffffffffffffffffffffffffffffffffff1673ffffffffffffffffffffffffffffffffffffffff1681526020019081526020016000206000815480929190611e7590613dfe565b919050555050565b60006014905090565b6000601160008373ffffffffffffffffffffffffffffffffffffffff1673ffffffffffffffffffffffffffffffffffffffff1681526020019081526020016000205411611f08576040517f08c379a0000000000000000000000000000000000000000000000000000000008152600401611eff90613e74565b60405180910390fd5b601160008273ffffffffffffffffffffffffffffffffffffffff1673ffffffffffffffffffffffffffffffffffffffff1681526020019081526020016000206000815480929190611f5890613dfe565b919050555050565b6000601360008373ffffffffffffffffffffffffffffffffffffffff1673ffffffffffffffffffffffffffffffffffffffff1681526020019081526020016000209050919050565b6000611fb261219f565b905090565b6000806002600154611fc76121c9565b604051602001611fd8929190613efc565b604051602081830303815290604052604051611ff49190613f24565b602060405180830381855afa158015612011573d6000803e3d6000fd5b5050506040513d601f19601f820116820180604052508101906120349190613f71565b60001c905082816120459190613c8c565b91506001600081548092919061205a90613d49565b919050555050919050565b600061207083611d5b565b9050808290806001815401808255809150506001900390600052602060002090600302016000909190919091509060036120ab929190612391565b50505050565b60006120bc83611f60565b905080829080600181540180825580915050600190039060005260206000200160009091909190915055505050565b80601060008473ffffffffffffffffffffffffffffffffffffffff1673ffffffffffffffffffffffffffffffffffffffff168152602001908152602001600020600082825461213a9190613c07565b925050819055505050565b80601160008473ffffffffffffffffffffffffffffffffffffffff1673ffffffffffffffffffffffffffffffffffffffff16815260200190815260200160002060008282546121949190613c07565b925050819055505050565b6000600360009054906101000a900473ffffffffffffffffffffffffffffffffffffffff16905090565b60606040518060400160405280600b81526020017f736c6f747479776f747479000000000000000000000000000000000000000000815250905090565b60405180606001604052806003905b60608152602001906001900390816122155790505090565b604051806040016040528061224061226f565b8152602001600081525090565b6040518060600160405280600390602082028036833780820191505090505090565b60405180606001604052806003905b606081526020019060019003908161227e5790505090565b6040518060600160405280600390602082028036833780820191505090505090565b82600381019282156122fa579160200282015b828111156122f95782518290805190602001906122e99291906123e4565b50916020019190600101906122cb565b5b5090506123079190612444565b5090565b826003810192821561234d579182015b8281111561234c57828290805461233190612eb7565b61233c929190612468565b509160010191906001019061231b565b5b50905061235a91906124f5565b5090565b506000818161236d9190612519565b506001016000818161237f9190612519565b50600101600061238f9190612519565b565b82600381019282156123d3579160200282015b828111156123d25782518290805190602001906123c2929190612559565b50916020019190600101906123a4565b5b5090506123e091906124f5565b5090565b828054828255906000526020600020908101928215612433579160200282015b82811115612432578251829080519060200190612422929190612559565b5091602001919060010190612404565b5b50905061244091906124f5565b5090565b5b80821115612464576000818161245b91906125df565b50600101612445565b5090565b82805461247490612eb7565b90600052602060002090601f01602090048101928261249657600085556124e4565b82601f106124a757805485556124e4565b828001600101855582156124e457600052602060002091601f016020900482015b828111156124e35782548255916001019190600101906124c8565b5b5090506124f19190612600565b5090565b5b80821115612515576000818161250c9190612519565b506001016124f6565b5090565b50805461252590612eb7565b6000825580601f106125375750612556565b601f0160209004906000526020600020908101906125559190612600565b5b50565b82805461256590612eb7565b90600052602060002090601f01602090048101928261258757600085556125ce565b82601f106125a057805160ff19168380011785556125ce565b828001600101855582156125ce579182015b828111156125cd5782518255916020019190600101906125b2565b5b5090506125db9190612600565b5090565b50805460008255906000526020600020908101906125fd91906124f5565b50565b5b80821115612619576000816000905550600101612601565b5090565b600060039050919050565b600081905092915050565b6000819050919050565b600081519050919050565b600082825260208201905092915050565b6000819050602082019050919050565b600081519050919050565b600082825260208201905092915050565b60005b838110156126a3578082015181840152602081019050612688565b838111156126b2576000848401525b50505050565b6000601f19601f8301169050919050565b60006126d482612669565b6126de8185612674565b93506126ee818560208601612685565b6126f7816126b8565b840191505092915050565b600061270e83836126c9565b905092915050565b6000602082019050919050565b600061272e8261263d565b6127388185612648565b93508360208202850161274a85612659565b8060005b8581101561278657848403895281516127678582612702565b945061277283612716565b925060208a0199505060018101905061274e565b50829750879550505050505092915050565b60006127a48383612723565b905092915050565b6000602082019050919050565b60006127c48261261d565b6127ce8185612628565b9350836020820285016127e085612633565b8060005b8581101561281c57848403895281516127fd8582612798565b9450612808836127ac565b925060208a019950506001810190506127e4565b50829750879550505050505092915050565b6000602082019050818103600083015261284881846127b9565b905092915050565b6000604051905090565b600080fd5b600080fd5b600073ffffffffffffffffffffffffffffffffffffffff82169050919050565b600061288f82612864565b9050919050565b61289f81612884565b81146128aa57600080fd5b50565b6000813590506128bc81612896565b92915050565b6000602082840312156128d8576128d761285a565b5b60006128e6848285016128ad565b91505092915050565b6000819050919050565b612902816128ef565b82525050565b600060208201905061291d60008301846128f9565b92915050565b61292c816128ef565b811461293757600080fd5b50565b60008135905061294981612923565b92915050565b6000806000606084860312156129685761296761285a565b5b60006129768682870161293a565b93505060206129878682870161293a565b92505060406129988682870161293a565b9150509250925092565b6000602082840312156129b8576129b761285a565b5b60006129c68482850161293a565b91505092915050565b600060039050919050565b600081905092915050565b6000819050919050565b6000602082019050919050565b6000612a07826129cf565b612a1181856129da565b935083602082028501612a23856129e5565b8060005b85811015612a5f5784840389528151612a408582612702565b9450612a4b836129ef565b925060208a01995050600181019050612a27565b50829750879550505050505092915050565b612a7a816128ef565b82525050565b60006040830160008301518482036000860152612a9d82826129fc565b9150506020830151612ab26020860182612a71565b508091505092915050565b60006020820190508181036000830152612ad78184612a80565b905092915050565b600080fd5b600060408284031215612afa57612af9612adf565b5b81905092915050565b600060208284031215612b1957612b1861285a565b5b600082013567ffffffffffffffff811115612b3757612b3661285f565b5b612b4384828501612ae4565b91505092915050565b6000606082019050612b6160008301866128f9565b612b6e60208301856128f9565b612b7b60408301846128f9565b949350505050565b600080fd5b600081905082602060030282011115612ba457612ba3612b83565b5b92915050565b600060208284031215612bc057612bbf61285a565b5b600082013567ffffffffffffffff811115612bde57612bdd61285f565b5b612bea84828501612b88565b91505092915050565b612bfc81612884565b82525050565b6000602082019050612c176000830184612bf3565b92915050565b600060039050919050565b600081905092915050565b6000819050919050565b60008115159050919050565b612c5281612c3d565b82525050565b6000612c648383612c49565b60208301905092915050565b6000602082019050919050565b612c8681612c1d565b612c908184612c28565b9250612c9b82612c33565b8060005b83811015612ccc578151612cb38782612c58565b9650612cbe83612c70565b925050600181019050612c9f565b505050505050565b6000606082019050612ce96000830184612c7d565b92915050565b60008060408385031215612d0657612d0561285a565b5b6000612d14858286016128ad565b9250506020612d258582860161293a565b9150509250929050565b600081905092915050565b6000612d45826129cf565b612d4f8185612d2f565b935083602082028501612d61856129e5565b8060005b85811015612d9d5784840389528151612d7e8582612702565b9450612d89836129ef565b925060208a01995050600181019050612d65565b50829750879550505050505092915050565b60006020820190508181036000830152612dc98184612d3a565b905092915050565b600060039050919050565b600081905092915050565b6000819050919050565b6000612dfd8383612a71565b60208301905092915050565b6000602082019050919050565b612e1f81612dd1565b612e298184612ddc565b9250612e3482612de7565b8060005b83811015612e65578151612e4c8782612df1565b9650612e5783612e09565b925050600181019050612e38565b505050505050565b6000606082019050612e826000830184612e16565b92915050565b7f4e487b7100000000000000000000000000000000000000000000000000000000600052602260045260246000fd5b60006002820490506001821680612ecf57607f821691505b60208210811415612ee357612ee2612e88565b5b50919050565b600082825260208201905092915050565b7f4f776e61626c653a2063616c6c6572206973206e6f7420746865206f776e6572600082015250565b6000612f30602083612ee9565b9150612f3b82612efa565b602082019050919050565b60006020820190508181036000830152612f5f81612f23565b9050919050565b7f4e487b7100000000000000000000000000000000000000000000000000000000600052604160045260246000fd5b612f9e826126b8565b810181811067ffffffffffffffff82111715612fbd57612fbc612f66565b5b80604052505050565b6000612fd0612850565b9050612fdc8282612f95565b919050565b600067ffffffffffffffff821115612ffc57612ffb612f66565b5b602082029050919050565b600080fd5b600067ffffffffffffffff82111561302757613026612f66565b5b602082029050602081019050919050565b600080fd5b600067ffffffffffffffff82111561305857613057612f66565b5b613061826126b8565b9050602081019050919050565b82818337600083830152505050565b600061309061308b8461303d565b612fc6565b9050828152602081018484840111156130ac576130ab613038565b5b6130b784828561306e565b509392505050565b600082601f8301126130d4576130d3613007565b5b81356130e484826020860161307d565b91505092915050565b60006131006130fb8461300c565b612fc6565b9050808382526020820190506020840283018581111561312357613122612b83565b5b835b8181101561316a57803567ffffffffffffffff81111561314857613147613007565b5b80860161315589826130bf565b85526020850194505050602081019050613125565b5050509392505050565b600082601f83011261318957613188613007565b5b81356131998482602086016130ed565b91505092915050565b60006131b56131b084612fe1565b612fc6565b905080602084028301858111156131cf576131ce612b83565b5b835b8181101561321657803567ffffffffffffffff8111156131f4576131f3613007565b5b8086016132018982613174565b855260208501945050506020810190506131d1565b5050509392505050565b600061322e366003846131a2565b9050919050565b7f436f6e747261637473206d6179206e6f7420706c617920736c6f74732e000000600082015250565b600061326b601d83612ee9565b915061327682613235565b602082019050919050565b6000602082019050818103600083015261329a8161325e565b9050919050565b7f4f776e61626c653a206e6577206f776e657220697320746865207a65726f206160008201527f6464726573730000000000000000000000000000000000000000000000000000602082015250565b60006132fd602683612ee9565b9150613308826132a1565b604082019050919050565b6000602082019050818103600083015261332c816132f0565b9050919050565b7f4e487b7100000000000000000000000000000000000000000000000000000000600052603260045260246000fd5b7f416c72656164792068656c64207468697320706f736974696f6e2e0000000000600082015250565b6000613398601b83612ee9565b91506133a382613362565b602082019050919050565b600060208201905081810360008301526133c78161338b565b9050919050565b7f4e487b7100000000000000000000000000000000000000000000000000000000600052600060045260246000fd5b600080fd5b600080fd5b600080fd5b600082356001606003833603038112613428576134276133fd565b5b80830191505092915050565b6000819050919050565b6000808335600160200384360303811261345b5761345a6133fd565b5b80840192508235915067ffffffffffffffff82111561347d5761347c613402565b5b60208301925060018202360383131561349957613498613407565b5b509250929050565b600060039050919050565b7f4e487b7100000000000000000000000000000000000000000000000000000000600052601160045260246000fd5b60008190506001806001038301049050919050565b6000819050919050565b60008190508160005260206000209050919050565b600082821c905092915050565b61354c7fffffffffffffffffffffffffffffffffffffffffffffffffffffffffffffffff8360200360080261350f565b815481168255505050565b600082821b905092915050565b6000600883026135947fffffffffffffffffffffffffffffffffffffffffffffffffffffffffffffffff82613557565b61359e8683613557565b95508019841693508086168417925050509392505050565b6000819050919050565b60006135db6135d66135d1846128ef565b6135b6565b6128ef565b9050919050565b6000819050919050565b6135f5836135c0565b613609613601826135e2565b848454613564565b825550505050565b600090565b61361e613611565b6136298184846135ec565b505050565b5b8181101561364d57613642600082613616565b60018101905061362f565b5050565b60006136626000198460080261350f565b1980831691505092915050565b600061367b8383613651565b9150826002028217905092915050565b613694816134fa565b61369f83825461366f565b8083556000825550505050565b60006020601f8301049050919050565b602084106000811461371757601f8411600181146136e5576136de868561366f565b8355613711565b6136ee836134fa565b6137056136fa876136ac565b82016001830161362e565b61370f878561368b565b505b50613764565b613720826134fa565b613729866136ac565b8101601f8716801561374357613742816001840361351c565b5b61375761374f886136ac565b84018361362e565b6001886002021785555050505b5050505050565b6801000000000000000084111561378557613784612f66565b5b60208310600081146137d05760208510600081146137ae576137a7868561366f565b83556137ca565b8360ff19169350836137bf846134fa565b556001866002020183555b506137da565b6001856002020182555b5050505050565b80546137ec81612eb7565b80841115613801576138008482848661376b565b5b8084101561381657613815848284866136bc565b5b50505050565b8181101561383a5761382f600082613616565b60018101905061381c565b5050565b6138496000826137e1565b50565b6000821461385d5761385c6133ce565b5b6138668161383e565b5050565b5b818110156138895761387e60008261384c565b60018101905061386b565b5050565b818310156138c65761389e826134db565b6138a7846134db565b6138b0836134f0565b8181018382016138c0818361386a565b50505050505b505050565b680100000000000000008211156138e5576138e4612f66565b5b6138ee816134a1565b6138f983828461388d565b505050565b600060039050919050565b600082905092915050565b601f82111561395557613926816134fa565b61392f846136ac565b8101602085101561393e578190505b61395261394a856136ac565b83018261362e565b50505b505050565b6139648383613909565b67ffffffffffffffff81111561397d5761397c612f66565b5b6139878254612eb7565b613992828285613914565b6000601f8311600181146139c157600084156139af578287013590505b6139b9858261366f565b865550613a21565b601f1984166139cf866134fa565b60005b828110156139f7578489013582556001820191506020850194506020810190506139d2565b86831015613a145784890135613a10601f891682613651565b8355505b6001600288020188555050505b50505050505050565b8115613a3957613a386133ce565b5b613a4484848361395a565b50505050565b613a53826138fe565b613a5d81836138cb565b613a6683613434565b613a6f836134f0565b6000805b84811015613aaa57613a85848861343e565b613a9181838688613a2a565b6020860195506001850194505050600181019050613a73565b50505050505050565b613abd8282613a4a565b5050565b60008135613ace81612923565b80915050919050565b60008160001b9050919050565b60007fffffffffffffffffffffffffffffffffffffffffffffffffffffffffffffffff613b1084613ad7565b9350801983169250808416831791505092915050565b613b2f826135c0565b613b42613b3b826135e2565b8354613ae4565b8255505050565b6000810160008301613b5b818561340c565b613b658184613ab3565b505050600381016020830180613b7a81613ac1565b9050613b868184613b26565b5050505050565b613b978282613b49565b5050565b7f43616e6e6f74206e7564676520612068656c6420706f736974696f6e2e000000600082015250565b6000613bd1601d83612ee9565b9150613bdc82613b9b565b602082019050919050565b60006020820190508181036000830152613c0081613bc4565b9050919050565b6000613c12826128ef565b9150613c1d836128ef565b9250827fffffffffffffffffffffffffffffffffffffffffffffffffffffffffffffffff03821115613c5257613c516134ac565b5b828201905092915050565b7f4e487b7100000000000000000000000000000000000000000000000000000000600052601260045260246000fd5b6000613c97826128ef565b9150613ca2836128ef565b925082613cb257613cb1613c5d565b5b828206905092915050565b6000613cc8826128ef565b9150613cd3836128ef565b925082821015613ce657613ce56134ac565b5b828203905092915050565b7f4e487b7100000000000000000000000000000000000000000000000000000000600052603160045260246000fd5b6000604082019050613d356000830185612bf3565b613d4260208301846128f9565b9392505050565b6000613d54826128ef565b91507fffffffffffffffffffffffffffffffffffffffffffffffffffffffffffffffff821415613d8757613d866134ac565b5b600182019050919050565b7f596f7520686176652072616e206f7574206f6620686f6c64732e000000000000600082015250565b6000613dc8601a83612ee9565b9150613dd382613d92565b602082019050919050565b60006020820190508181036000830152613df781613dbb565b9050919050565b6000613e09826128ef565b91506000821415613e1d57613e1c6134ac565b5b600182039050919050565b7f596f7520686176652072616e206f7574206f66206e75646765732e0000000000600082015250565b6000613e5e601b83612ee9565b9150613e6982613e28565b602082019050919050565b60006020820190508181036000830152613e8d81613e51565b9050919050565b6000819050919050565b613eaf613eaa826128ef565b613e94565b82525050565b600081519050919050565b600081905092915050565b6000613ed682613eb5565b613ee08185613ec0565b9350613ef0818560208601612685565b80840191505092915050565b6000613f088285613e9e565b602082019150613f188284613ecb565b91508190509392505050565b6000613f308284613ecb565b915081905092915050565b6000819050919050565b613f4e81613f3b565b8114613f5957600080fd5b50565b600081519050613f6b81613f45565b92915050565b600060208284031215613f8757613f8661285a565b5b6000613f9584828501613f5c565b9150509291505056fea2646970667358221220b55b44499fcec879e886e89acb8f3187f733e56da8e7e823a3970a2680efa8d764736f6c634300080a0033",
  "immutableReferences": {},
  "source": "//SPDX-License-Identifier: MIT\r\npragma solidity ^0.8.0;\r\nimport \"@openzeppelin/contracts/token/ERC20/IERC20.sol\";\r\nimport \"@openzeppelin/contracts/access/Ownable.sol\";\r\nimport \"@openzeppelin/contracts/utils/Address.sol\";\r\nimport \"luk1529_solidity/contracts/utils/Random.sol\";\r\nimport \"./bankroll/CasinoGame.sol\";\r\n\r\ncontract Slots is Ownable, Random(\"slottywotty\"), CasinoGame {\r\n    using Address for address;\r\n\r\n    constructor(IBankroll Bankroll) CasinoGame(Bankroll) {\r\n    }\r\n    \r\n    \r\n    \r\n    //machine\r\n    string[][3] _reels;\r\n    uint _creditPrice;\r\n    uint _nudgesChance; uint _holdsChance; /* percentage chance to receive nudges and holds */\r\n    uint _nudgesMin; uint _nudgesMax; /* minimum and maximum nudges given */\r\n    uint _holdsMin; uint _holdsMax; /* minimum and maximum holds given */\r\n    \r\n    \r\n    \r\n    //events\r\n    event Spun(address indexed player);\r\n    event Nudged(address indexed player);\r\n    \r\n    \r\n    //player info\r\n    mapping(address => uint[3]) _positions;\r\n    mapping(address => bool[3]) _held;\r\n    mapping(address => uint) _holds;\r\n    mapping(address => uint) _nudges;\r\n    mapping(address => string[3][]) _historicalResults;\r\n    mapping(address => uint[]) _historicalWinnings;\r\n    \r\n\r\n\r\n    //payout info\r\n    struct PayLineData {\r\n        string[3] payLine;\r\n        uint payout;\r\n    }\r\n    PayLineData[] _payTable;\r\n\r\n    \r\n\r\n    //pay table\r\n    function addToPayTable(PayLineData calldata _payLineData) public onlyOwner {\r\n        _addToPayTable(_payLineData);\r\n    }\r\n\r\n    function removeFromPayTable(uint _index) public onlyOwner {\r\n        _removeFromPayTable(_payTable, _index);\r\n    }\r\n\r\n    function getPayTableLength() public view returns(uint) {\r\n        return _getPayTableLength();\r\n    }\r\n\r\n    function getPayLineData(uint _index) public view returns(PayLineData memory) {\r\n        return _getPayLineData(_index);\r\n    }\r\n\r\n\r\n\r\n    //holds and nudges\r\n    function holdsInfo() public view returns(uint chance, uint min, uint max) {\r\n        return _getHoldsInfo();\r\n    }\r\n\r\n    function nudgesInfo() public view returns(uint chance, uint min, uint max) {\r\n        return _getNudgesInfo();\r\n    }\r\n\r\n    function setHoldsInfo(uint _chance, uint _min, uint _max) public onlyOwner {\r\n        _setHoldsInfo(_chance, _min, _max);\r\n    }\r\n\r\n    function setnudgesInfo(uint _chance, uint _min, uint _max) public onlyOwner {\r\n        _setNudgesInfo(_chance, _min, _max);\r\n    }\r\n\r\n\r\n\r\n    //previous results\r\n    function getHistoricalResultsLengthOfPlayer(address _player) public view returns(uint) {\r\n        return _getHistoricalResultsLength(_player);\r\n    }\r\n\r\n    function getHistoricalResultOfPlayerByIndex(address _player, uint _index) public view returns(string[3] memory) {\r\n        return _getHistoricalResult(_player, _index);\r\n    }\r\n\r\n    function getHistoricalWinningsLengthOfPlayer(address _player) public view returns(uint) {\r\n        return _getHistoricalResultsLength(_player);\r\n    }\r\n\r\n    function getHistoricalWinningOfPlayerbyIndex(address _player, uint _index) public view returns(uint) {\r\n        return _getHistoricalWinning(_player, _index);\r\n    }\r\n\r\n\r\n\r\n    //reel data\r\n    function reels() public view returns(string[][3] memory ) {\r\n        return _getReels();\r\n    }\r\n\r\n    function setReels(string[][3] calldata _newReels) public onlyOwner {\r\n        _setReels(_newReels);\r\n    }\r\n\r\n    function positionsOf(address _player) public view returns(uint[3] memory) {\r\n        return _getPositions(_player);\r\n    }\r\n\r\n    //price per spin\r\n    function creditPrice() public view returns(uint) {\r\n        return _getCreditPrice();\r\n    }\r\n\r\n    function setCreditPrice(uint _price) public onlyOwner {\r\n        _setCreditPrice(_price);\r\n    }\r\n\r\n\r\n\r\n    //main game\r\n\r\n    function spin() public noContract {\r\n        address player = _msgSender();\r\n        _payForSpin(player);\r\n        _spin(player);\r\n        _payout(player);\r\n        _clearNudges(player);\r\n        _clearHolds(player);\r\n        _resetHeld(player);\r\n        _awardHolds(player);\r\n        _awardNudges(player);\r\n    }\r\n\r\n    function hold(uint _index) public {\r\n        address player = _msgSender();\r\n        _hold(player, _index);\r\n    }\r\n\r\n    function nudge(uint _index) public {\r\n        address player = _msgSender();\r\n        _nudge(player, _index);\r\n    }\r\n    function holdsOf(address _player) public view returns(uint) {\r\n        return _getHolds(_player);\r\n    }\r\n\r\n    function heldOf(address _player) public view returns(bool[3] memory) {\r\n        return _getHeld(_player);\r\n    }\r\n\r\n    function nudgesOf(address _player) public view returns(uint) {\r\n        return _getNudges(_player);\r\n    }\r\n\r\n\r\n\r\n\r\n\r\n    //behind the scenes\r\n    function _addToPayTable(PayLineData calldata _payLine) private {\r\n        _payTable.push(_payLine);\r\n    }\r\n\r\n    function _removeFromPayTable(PayLineData[] storage _table, uint _index) private {\r\n        _table[_index] = _table[_table.length - 1];\r\n        _table.pop();\r\n    }\r\n\r\n    function _getPayTable() private view returns(PayLineData[] storage) {\r\n        return _payTable;\r\n    }\r\n\r\n    function _getPayTableLength() private view returns(uint) {\r\n        return _getPayTable().length;\r\n    }\r\n\r\n    function _getPayLineData(uint _index) private view returns(PayLineData storage) {\r\n        return _getPayTable()[_index];\r\n    }\r\n\r\n    function _getCreditPrice() private view returns(uint) {\r\n        return _creditPrice;\r\n    }\r\n\r\n    function _setCreditPrice(uint _price) private {\r\n        _creditPrice = _price;\r\n    }\r\n    \r\n    function _getHistoricalResults(address _player) private view returns(string[3][] storage) {\r\n        return _historicalResults[_player];\r\n    } \r\n\r\n    function _getHistoricalResultsLength(address _player) private view returns(uint) {\r\n        return _getHistoricalResults(_player).length;\r\n    }\r\n\r\n    function _getHistoricalResult(address _player, uint _index) private view returns(string[3] storage) {\r\n        return _getHistoricalResults(_player)[_index];\r\n    }\r\n\r\n    function _getHistoricalWinnings(address _player) private view returns(uint[] storage) {\r\n        return _historicalWinnings[_player];\r\n    }\r\n\r\n    function _getHistoricalWinningsLength(address _player) private view returns(uint) {\r\n        return _getHistoricalWinnings(_player).length;\r\n    }\r\n\r\n    function _getHistoricalWinning(address _player, uint _index) private view returns(uint) {\r\n        return _getHistoricalWinnings(_player)[_index];\r\n    }\r\n\r\n\r\n\r\n    function _getHeld(address _player) private view returns(bool[3] storage) {\r\n        return _held[_player];\r\n    }\r\n\r\n    function _getPositions(address _player) private view returns(uint[3] storage) {\r\n        return _positions[_player];\r\n    }\r\n\r\n    function _getReels() private view returns(string[][3] storage) {\r\n        return _reels;\r\n    }\r\n\r\n    function _setReels(string[][3] memory _newReels) private {\r\n        _reels = _newReels;\r\n    }\r\n\r\n    function _getHolds(address _player) private view returns(uint) {\r\n        return _holds[_player];\r\n    }\r\n\r\n    function _getNudges(address _player) private view returns(uint) {\r\n        return _nudges[_player];\r\n    }\r\n    \r\n\r\n\r\n    function _resetHeld(address _player) private {\r\n        bool[3] storage held = _getHeld(_player);\r\n        for(uint i; i < 3; i ++) {\r\n            held[i] = false;\r\n        }\r\n    }\r\n\r\n    function _clearHolds(address _player) private {\r\n        _holds[_player] = 0;\r\n    }\r\n\r\n    function _clearNudges(address _player) private {\r\n        _nudges[_player] = 0;\r\n    }\r\n\r\n    function _addToHolds(address _player, uint _value) private {\r\n        _holds[_player] += _value;\r\n    }\r\n\r\n    function _addToNudges(address _player, uint _value) private {\r\n        _nudges[_player] += _value;\r\n    }\r\n\r\n    function _decrementHolds(address _player) private {\r\n        require(_holds[_player] > 0, \"You have ran out of holds.\");\r\n        _holds[_player] --;\r\n    }\r\n\r\n    function _decrementNudges(address _player) private {\r\n        require(_nudges[_player] > 0, \"You have ran out of nudges.\");\r\n        _nudges[_player] --;\r\n    }\r\n\r\n    function _payForSpin(address _player) private {\r\n        _bankrollContract().playFrom(_player, _creditPrice);\r\n    }\r\n\r\n    function _awardHolds(address _player) private {\r\n        uint chance = _randomNumber(100);\r\n        if(chance < _holdsChance) {\r\n            uint holds = _randomNumber(_holdsMax - _holdsMin) + _holdsMin;\r\n            _addToHolds(_player, holds);\r\n        }\r\n    }\r\n\r\n    function _awardNudges(address _player) private {\r\n        uint chance = _randomNumber(100);\r\n        if(chance < _nudgesChance) {\r\n            uint nudges = _randomNumber(_nudgesMax - _nudgesMin) + _nudgesMin;\r\n            _addToNudges(_player, nudges);\r\n        }\r\n    }\r\n\r\n    \r\n\r\n\r\n    \r\n\r\n\r\n    function _spin(address _player) private {\r\n        string[][3] storage currentReels = _getReels();\r\n        uint[3] storage positions = _getPositions(_player);\r\n        bool[3] storage held = _getHeld(_player);\r\n        for(uint i; i < 3; i ++) {\r\n            if(!held[i]) {\r\n                uint pos = _randomNumber(currentReels[i].length);\r\n                positions[i] = pos;\r\n            }\r\n        }\r\n        emit Spun(_player);\r\n    }\r\n\r\n\r\n\r\n    function _nudge(address _player, uint _index) private {\r\n        string[][3] storage currentReels = _getReels();\r\n        uint[3] storage positions = _getPositions(_player);\r\n        bool[3] storage held = _getHeld(_player);\r\n        require(!held[_index], \"Cannot nudge a held position.\");\r\n        uint pos = positions[_index];\r\n        positions[_index] = (pos + 1) % currentReels[_index].length;\r\n        _decrementNudges(_player);\r\n        _payout(_player);\r\n        emit Nudged(_player);\r\n    }\r\n\r\n\r\n\r\n    function _hold(address _player, uint _index) private {\r\n        bool[3] storage held = _getHeld(_player);\r\n        require(!held[_index], \"Already held this position.\");\r\n        held[_index] = true;\r\n        _decrementHolds(_player);\r\n    }\r\n\r\n\r\n\r\n    function _payout(address _player) private {\r\n        string[][3] storage currentReels = _getReels();\r\n        uint[3] storage positions = _getPositions(_player);\r\n        string[3] memory result = [\r\n            currentReels[0][positions[0]], \r\n            currentReels[1][positions[1]],\r\n            currentReels[2][positions[2]]\r\n        ];\r\n        uint winnings;\r\n        for(uint i; i < _getPayTableLength(); i ++) {\r\n            PayLineData storage payLineData = _getPayLineData(i);\r\n            string[3] memory payLine = payLineData.payLine;\r\n            uint payout = payLineData.payout;\r\n            if(keccak256(abi.encode(payLine)) == keccak256(abi.encode(result))) {\r\n                _bankrollContract().winTo(_player, payout);\r\n            }\r\n            winnings += payout;\r\n        }\r\n        _logHistoricalResults(_player, result);\r\n        _logHistoricalWinnings(_player, winnings);\r\n    }\r\n\r\n    function _getHoldsInfo() private view returns(uint chance, uint min, uint max) {\r\n        return(_holdsChance, _holdsMin, _holdsMax);\r\n    }\r\n\r\n    function _getNudgesInfo() private view returns(uint chance, uint min, uint max) {\r\n        return(_nudgesChance, _nudgesMin, _nudgesMax);\r\n    }\r\n\r\n    function _setHoldsInfo(uint _chance, uint _min, uint _max) private {\r\n        (_holdsChance, _holdsMin, _holdsMax) = (_chance, _min, _max);\r\n    }\r\n\r\n    function _setNudgesInfo(uint _chance, uint _min, uint _max) private {\r\n        (_nudgesChance, _nudgesMin, _nudgesMax) = (_chance, _min, _max);\r\n    }\r\n\r\n    function _logHistoricalResults(address _player, string[3] memory _result) private {\r\n        string[3][] storage historicalResults = _getHistoricalResults(_player);\r\n        historicalResults.push(_result);\r\n    }\r\n    function _logHistoricalWinnings(address _player, uint _winnings) private {\r\n        uint[] storage historicalWinnings = _getHistoricalWinnings(_player);\r\n        historicalWinnings.push(_winnings);\r\n    }\r\n\r\n    function _bankrollContract() private view returns(IBankroll) {\r\n        return _getBankroll();\r\n    }\r\n\r\n    modifier noContract() {\r\n        address sender = _msgSender();\r\n        require(!sender.isContract(), \"Contracts may not play slots.\");\r\n        _;\r\n    }\r\n\r\n    function _getSalt() internal override pure returns(bytes memory) {\r\n        return \"slottywotty\";\r\n    }\r\n}\r\n",
  "sourcePath": "C:\\Users\\lukey\\Documents\\Blockchain\\XYA\\Casino\\contracts\\Slots.sol",
  "compiler": {
    "name": "solc",
    "version": "0.8.10+commit.fc410830.Emscripten.clang"
  },
  "schemaVersion": "3.4.3",
  "updatedAt": "2021-11-29T20:05:16.182Z",
  "devdoc": {
    "kind": "dev",
    "methods": {
      "owner()": {
        "details": "Returns the address of the current owner."
      },
      "renounceOwnership()": {
        "details": "Leaves the contract without owner. It will not be possible to call `onlyOwner` functions anymore. Can only be called by the current owner. NOTE: Renouncing ownership will leave the contract without an owner, thereby removing any functionality that is only available to the owner."
      },
      "transferOwnership(address)": {
        "details": "Transfers ownership of the contract to a new account (`newOwner`). Can only be called by the current owner."
      }
    },
    "version": 1
  },
  "userdoc": {
    "kind": "user",
    "methods": {},
    "version": 1
  }
}