{
  "contractName": "Slots",
  "abi": [
    {
      "inputs": [
        {
          "internalType": "contract IERC20",
          "name": "_XYA",
          "type": "address"
        }
      ],
      "stateMutability": "nonpayable",
      "type": "constructor"
    },
    {
      "anonymous": false,
      "inputs": [
        {
          "indexed": true,
          "internalType": "address",
          "name": "player",
          "type": "address"
        },
        {
          "indexed": false,
          "internalType": "uint256",
          "name": "amount",
          "type": "uint256"
        }
      ],
      "name": "Deposit",
      "type": "event"
    },
    {
      "anonymous": false,
      "inputs": [
        {
          "indexed": true,
          "internalType": "address",
          "name": "previousOwner",
          "type": "address"
        },
        {
          "indexed": true,
          "internalType": "address",
          "name": "newOwner",
          "type": "address"
        }
      ],
      "name": "OwnershipTransferred",
      "type": "event"
    },
    {
      "anonymous": false,
      "inputs": [
        {
          "indexed": true,
          "internalType": "address",
          "name": "player",
          "type": "address"
        }
      ],
      "name": "Spun",
      "type": "event"
    },
    {
      "anonymous": false,
      "inputs": [
        {
          "indexed": true,
          "internalType": "address",
          "name": "player",
          "type": "address"
        },
        {
          "indexed": false,
          "internalType": "uint256",
          "name": "amount",
          "type": "uint256"
        }
      ],
      "name": "Withdraw",
      "type": "event"
    },
    {
      "anonymous": false,
      "inputs": [
        {
          "indexed": true,
          "internalType": "address",
          "name": "player",
          "type": "address"
        },
        {
          "indexed": false,
          "internalType": "uint256",
          "name": "winnings",
          "type": "uint256"
        }
      ],
      "name": "Won",
      "type": "event"
    },
    {
      "inputs": [],
      "name": "owner",
      "outputs": [
        {
          "internalType": "address",
          "name": "",
          "type": "address"
        }
      ],
      "stateMutability": "view",
      "type": "function"
    },
    {
      "inputs": [],
      "name": "renounceOwnership",
      "outputs": [],
      "stateMutability": "nonpayable",
      "type": "function"
    },
    {
      "inputs": [
        {
          "internalType": "address",
          "name": "newOwner",
          "type": "address"
        }
      ],
      "name": "transferOwnership",
      "outputs": [],
      "stateMutability": "nonpayable",
      "type": "function"
    },
    {
      "inputs": [
        {
          "components": [
            {
              "internalType": "string[3]",
              "name": "payLine",
              "type": "string[3]"
            },
            {
              "internalType": "uint256",
              "name": "payout",
              "type": "uint256"
            }
          ],
          "internalType": "struct Slots.PayLineData",
          "name": "_payLineData",
          "type": "tuple"
        }
      ],
      "name": "addToPayTable",
      "outputs": [],
      "stateMutability": "nonpayable",
      "type": "function"
    },
    {
      "inputs": [
        {
          "internalType": "uint256",
          "name": "_index",
          "type": "uint256"
        }
      ],
      "name": "removeFromPayTable",
      "outputs": [],
      "stateMutability": "nonpayable",
      "type": "function"
    },
    {
      "inputs": [],
      "name": "getPayTableLength",
      "outputs": [
        {
          "internalType": "uint256",
          "name": "",
          "type": "uint256"
        }
      ],
      "stateMutability": "view",
      "type": "function"
    },
    {
      "inputs": [
        {
          "internalType": "uint256",
          "name": "_index",
          "type": "uint256"
        }
      ],
      "name": "getPayLineData",
      "outputs": [
        {
          "components": [
            {
              "internalType": "string[3]",
              "name": "payLine",
              "type": "string[3]"
            },
            {
              "internalType": "uint256",
              "name": "payout",
              "type": "uint256"
            }
          ],
          "internalType": "struct Slots.PayLineData",
          "name": "",
          "type": "tuple"
        }
      ],
      "stateMutability": "view",
      "type": "function"
    },
    {
      "inputs": [],
      "name": "holdsInfo",
      "outputs": [
        {
          "internalType": "uint256",
          "name": "chance",
          "type": "uint256"
        },
        {
          "internalType": "uint256",
          "name": "min",
          "type": "uint256"
        },
        {
          "internalType": "uint256",
          "name": "max",
          "type": "uint256"
        }
      ],
      "stateMutability": "view",
      "type": "function"
    },
    {
      "inputs": [],
      "name": "nudgesInfo",
      "outputs": [
        {
          "internalType": "uint256",
          "name": "chance",
          "type": "uint256"
        },
        {
          "internalType": "uint256",
          "name": "min",
          "type": "uint256"
        },
        {
          "internalType": "uint256",
          "name": "max",
          "type": "uint256"
        }
      ],
      "stateMutability": "view",
      "type": "function"
    },
    {
      "inputs": [
        {
          "internalType": "uint256",
          "name": "_chance",
          "type": "uint256"
        },
        {
          "internalType": "uint256",
          "name": "_min",
          "type": "uint256"
        },
        {
          "internalType": "uint256",
          "name": "_max",
          "type": "uint256"
        }
      ],
      "name": "setHoldsInfo",
      "outputs": [],
      "stateMutability": "nonpayable",
      "type": "function"
    },
    {
      "inputs": [
        {
          "internalType": "uint256",
          "name": "_chance",
          "type": "uint256"
        },
        {
          "internalType": "uint256",
          "name": "_min",
          "type": "uint256"
        },
        {
          "internalType": "uint256",
          "name": "_max",
          "type": "uint256"
        }
      ],
      "name": "setnudgesInfo",
      "outputs": [],
      "stateMutability": "nonpayable",
      "type": "function"
    },
    {
      "inputs": [
        {
          "internalType": "address",
          "name": "_player",
          "type": "address"
        }
      ],
      "name": "getHistoricalResultsLengthOfPlayer",
      "outputs": [
        {
          "internalType": "uint256",
          "name": "",
          "type": "uint256"
        }
      ],
      "stateMutability": "view",
      "type": "function"
    },
    {
      "inputs": [
        {
          "internalType": "address",
          "name": "_player",
          "type": "address"
        },
        {
          "internalType": "uint256",
          "name": "_index",
          "type": "uint256"
        }
      ],
      "name": "getHistoricalResultOfPlayerByIndex",
      "outputs": [
        {
          "internalType": "string[3]",
          "name": "",
          "type": "string[3]"
        }
      ],
      "stateMutability": "view",
      "type": "function"
    },
    {
      "inputs": [
        {
          "internalType": "address",
          "name": "_player",
          "type": "address"
        }
      ],
      "name": "getHistoricalWinningsLengthOfPlayer",
      "outputs": [
        {
          "internalType": "uint256",
          "name": "",
          "type": "uint256"
        }
      ],
      "stateMutability": "view",
      "type": "function"
    },
    {
      "inputs": [
        {
          "internalType": "address",
          "name": "_player",
          "type": "address"
        },
        {
          "internalType": "uint256",
          "name": "_index",
          "type": "uint256"
        }
      ],
      "name": "getHistoricalWinningOfPlayerbyIndex",
      "outputs": [
        {
          "internalType": "uint256",
          "name": "",
          "type": "uint256"
        }
      ],
      "stateMutability": "view",
      "type": "function"
    },
    {
      "inputs": [],
      "name": "reels",
      "outputs": [
        {
          "internalType": "string[][3]",
          "name": "",
          "type": "string[][3]"
        }
      ],
      "stateMutability": "view",
      "type": "function"
    },
    {
      "inputs": [
        {
          "internalType": "string[][3]",
          "name": "_newReels",
          "type": "string[][3]"
        }
      ],
      "name": "setReels",
      "outputs": [],
      "stateMutability": "nonpayable",
      "type": "function"
    },
    {
      "inputs": [
        {
          "internalType": "address",
          "name": "_player",
          "type": "address"
        }
      ],
      "name": "positionsOf",
      "outputs": [
        {
          "internalType": "uint256[3]",
          "name": "",
          "type": "uint256[3]"
        }
      ],
      "stateMutability": "view",
      "type": "function"
    },
    {
      "inputs": [
        {
          "internalType": "uint256",
          "name": "_value",
          "type": "uint256"
        }
      ],
      "name": "withdraw",
      "outputs": [],
      "stateMutability": "nonpayable",
      "type": "function"
    },
    {
      "inputs": [],
      "name": "creditPrice",
      "outputs": [
        {
          "internalType": "uint256",
          "name": "",
          "type": "uint256"
        }
      ],
      "stateMutability": "view",
      "type": "function"
    },
    {
      "inputs": [
        {
          "internalType": "uint256",
          "name": "_price",
          "type": "uint256"
        }
      ],
      "name": "setCreditPrice",
      "outputs": [],
      "stateMutability": "nonpayable",
      "type": "function"
    },
    {
      "inputs": [
        {
          "internalType": "uint256",
          "name": "_value",
          "type": "uint256"
        }
      ],
      "name": "deposit",
      "outputs": [],
      "stateMutability": "nonpayable",
      "type": "function"
    },
    {
      "inputs": [],
      "name": "withdrawBank",
      "outputs": [],
      "stateMutability": "nonpayable",
      "type": "function"
    },
    {
      "inputs": [],
      "name": "spin",
      "outputs": [],
      "stateMutability": "nonpayable",
      "type": "function"
    },
    {
      "inputs": [
        {
          "internalType": "uint256",
          "name": "_index",
          "type": "uint256"
        }
      ],
      "name": "hold",
      "outputs": [],
      "stateMutability": "nonpayable",
      "type": "function"
    },
    {
      "inputs": [
        {
          "internalType": "uint256",
          "name": "_index",
          "type": "uint256"
        }
      ],
      "name": "nudge",
      "outputs": [],
      "stateMutability": "nonpayable",
      "type": "function"
    },
    {
      "inputs": [
        {
          "internalType": "address",
          "name": "_player",
          "type": "address"
        }
      ],
      "name": "bankOf",
      "outputs": [
        {
          "internalType": "uint256",
          "name": "",
          "type": "uint256"
        }
      ],
      "stateMutability": "view",
      "type": "function"
    },
    {
      "inputs": [
        {
          "internalType": "address",
          "name": "_player",
          "type": "address"
        }
      ],
      "name": "creditBalanceOf",
      "outputs": [
        {
          "internalType": "uint256",
          "name": "",
          "type": "uint256"
        }
      ],
      "stateMutability": "view",
      "type": "function"
    },
    {
      "inputs": [
        {
          "internalType": "address",
          "name": "_player",
          "type": "address"
        }
      ],
      "name": "holdsOf",
      "outputs": [
        {
          "internalType": "uint256",
          "name": "",
          "type": "uint256"
        }
      ],
      "stateMutability": "view",
      "type": "function"
    },
    {
      "inputs": [
        {
          "internalType": "address",
          "name": "_player",
          "type": "address"
        }
      ],
      "name": "heldOf",
      "outputs": [
        {
          "internalType": "bool[3]",
          "name": "",
          "type": "bool[3]"
        }
      ],
      "stateMutability": "view",
      "type": "function"
    },
    {
      "inputs": [
        {
          "internalType": "address",
          "name": "_player",
          "type": "address"
        }
      ],
      "name": "nudgesOf",
      "outputs": [
        {
          "internalType": "uint256",
          "name": "",
          "type": "uint256"
        }
      ],
      "stateMutability": "view",
      "type": "function"
    }
  ],
  "bytecode": "0x60806040523480156200001157600080fd5b5060405162004915380380620049158339818101604052810190620000379190620001e9565b620000576200004b6200009f60201b60201c565b620000a760201b60201c565b80600260006101000a81548173ffffffffffffffffffffffffffffffffffffffff021916908373ffffffffffffffffffffffffffffffffffffffff160217905550506200021b565b600033905090565b60008060009054906101000a900473ffffffffffffffffffffffffffffffffffffffff169050816000806101000a81548173ffffffffffffffffffffffffffffffffffffffff021916908373ffffffffffffffffffffffffffffffffffffffff1602179055508173ffffffffffffffffffffffffffffffffffffffff168173ffffffffffffffffffffffffffffffffffffffff167f8be0079c531659141344cd1fd0a4f28419497f9722a3daafe3b4186f6b6457e060405160405180910390a35050565b600080fd5b600073ffffffffffffffffffffffffffffffffffffffff82169050919050565b60006200019d8262000170565b9050919050565b6000620001b18262000190565b9050919050565b620001c381620001a4565b8114620001cf57600080fd5b50565b600081519050620001e381620001b8565b92915050565b6000602082840312156200020257620002016200016b565b5b60006200021284828501620001d2565b91505092915050565b6146ea806200022b6000396000f3fe608060405234801561001057600080fd5b50600436106101e55760003560e01c80638da5cb5b1161010f578063dfce1d2b116100a2578063f2fde38b11610071578063f2fde38b1461057e578063f750cc1c1461059a578063f867d46b146105ca578063ff7f0cf9146105fa576101e5565b8063dfce1d2b146104f6578063e0ec0b9914610526578063ed88863314610544578063f0acd7d514610574576101e5565b8063b6b55f25116100de578063b6b55f251461045c578063be27a08414610478578063ca6358cd146104a8578063d2ac2d8a146104c6576101e5565b80638da5cb5b146103ea5780639666ca4a146104085780639a7e18aa14610424578063ad17a0b314610440576101e5565b80634b5c4e37116101875780637145ad4b116101565780637145ad4b14610388578063715018a6146103a45780637fadb01c146103ae5780638ce08009146103ce576101e5565b80634b5c4e37146102ec5780634c985aa61461031c5780634e07255d1461034c57806356f524a414610368576101e5565b806330e804a2116101c357806330e804a21461025457806332a9222914610284578063435fe45d146102b457806349c910c0146102d0576101e5565b80630f378174146101ea5780632aa81584146102085780632e1a7d4d14610238575b600080fd5b6101f2610604565b6040516101ff9190612e11565b60405180910390f35b610222600480360381019061021d9190612ea5565b61071e565b60405161022f9190612eeb565b60405180910390f35b610252600480360381019061024d9190612f32565b610730565b005b61026e60048036038101906102699190612ea5565b6107c0565b60405161027b9190612eeb565b60405180910390f35b61029e60048036038101906102999190612ea5565b6107d2565b6040516102ab9190612eeb565b60405180910390f35b6102ce60048036038101906102c99190612f5f565b6107e4565b005b6102ea60048036038101906102e59190612f32565b610870565b005b61030660048036038101906103019190612f32565b61088a565b60405161031391906130a0565b60405180910390f35b61033660048036038101906103319190612ea5565b61097e565b6040516103439190612eeb565b60405180910390f35b610366600480360381019061036191906130e6565b610990565b005b610370610a18565b60405161037f9392919061312f565b60405180910390f35b6103a2600480360381019061039d9190612f32565b610a30565b005b6103ac610a4a565b005b6103b6610ad2565b6040516103c59392919061312f565b60405180910390f35b6103e860048036038101906103e3919061318d565b610aea565b005b6103f2610b7b565b6040516103ff91906131e5565b60405180910390f35b610422600480360381019061041d9190612f32565b610ba4565b005b61043e60048036038101906104399190612f5f565b610c2e565b005b61045a60048036038101906104559190612f32565b610cba565b005b61047660048036038101906104719190612f32565b610d42565b005b610492600480360381019061048d9190612ea5565b610dff565b60405161049f9190612eeb565b60405180910390f35b6104b0610e11565b6040516104bd9190612eeb565b60405180910390f35b6104e060048036038101906104db9190612ea5565b610e20565b6040516104ed91906132b7565b60405180910390f35b610510600480360381019061050b91906132d2565b610e99565b60405161051d9190612eeb565b60405180910390f35b61052e610ead565b60405161053b9190612eeb565b60405180910390f35b61055e60048036038101906105599190612ea5565b610ebc565b60405161056b9190612eeb565b60405180910390f35b61057c610ece565b005b61059860048036038101906105939190612ea5565b610f91565b005b6105b460048036038101906105af91906132d2565b611089565b6040516105c19190613392565b60405180910390f35b6105e460048036038101906105df9190612ea5565b611161565b6040516105f19190613450565b60405180910390f35b6106026111b5565b005b61060c6127e9565b61061461127d565b600380602002604051908101604052809291906000905b8282101561071557838201805480602002602001604051908101604052809291908181526020016000905b828210156107025783829060005260206000200180546106759061349a565b80601f01602080910402602001604051908101604052809291908181526020018280546106a19061349a565b80156106ee5780601f106106c3576101008083540402835291602001916106ee565b820191906000526020600020905b8154815290600101906020018083116106d157829003601f168201915b505050505081526020019060010190610656565b505050508152602001906001019061062b565b50505050905090565b600061072982611286565b9050919050565b61073861129c565b73ffffffffffffffffffffffffffffffffffffffff16610756610b7b565b73ffffffffffffffffffffffffffffffffffffffff16146107ac576040517f08c379a00000000000000000000000000000000000000000000000000000000081526004016107a390613529565b60405180910390fd5b6107bd6107b761129c565b826112a4565b50565b60006107cb82611349565b9050919050565b60006107dd82611392565b9050919050565b6107ec61129c565b73ffffffffffffffffffffffffffffffffffffffff1661080a610b7b565b73ffffffffffffffffffffffffffffffffffffffff1614610860576040517f08c379a000000000000000000000000000000000000000000000000000000000815260040161085790613529565b60405180910390fd5b61086b8383836113db565b505050565b600061087a61129c565b90506108868183611401565b5050565b610892612810565b61089b826114b9565b60405180604001604052908160008201600380602002604051908101604052809291906000905b828210156109655783820180546108d89061349a565b80601f01602080910402602001604051908101604052809291908181526020018280546109049061349a565b80156109515780601f1061092657610100808354040283529160200191610951565b820191906000526020600020905b81548152906001019060200180831161093457829003601f168201915b5050505050815260200190600101906108c2565b5050505081526020016003820154815250509050919050565b6000610989826114ea565b9050919050565b61099861129c565b73ffffffffffffffffffffffffffffffffffffffff166109b6610b7b565b73ffffffffffffffffffffffffffffffffffffffff1614610a0c576040517f08c379a0000000000000000000000000000000000000000000000000000000008152600401610a0390613529565b60405180910390fd5b610a1581611533565b50565b6000806000610a25611570565b925092509250909192565b6000610a3a61129c565b9050610a468183611589565b5050565b610a5261129c565b73ffffffffffffffffffffffffffffffffffffffff16610a70610b7b565b73ffffffffffffffffffffffffffffffffffffffff1614610ac6576040517f08c379a0000000000000000000000000000000000000000000000000000000008152600401610abd90613529565b60405180910390fd5b610ad06000611692565b565b6000806000610adf611756565b925092509250909192565b610af261129c565b73ffffffffffffffffffffffffffffffffffffffff16610b10610b7b565b73ffffffffffffffffffffffffffffffffffffffff1614610b66576040517f08c379a0000000000000000000000000000000000000000000000000000000008152600401610b5d90613529565b60405180910390fd5b610b7881610b7390613803565b61176f565b50565b60008060009054906101000a900473ffffffffffffffffffffffffffffffffffffffff16905090565b610bac61129c565b73ffffffffffffffffffffffffffffffffffffffff16610bca610b7b565b73ffffffffffffffffffffffffffffffffffffffff1614610c20576040517f08c379a0000000000000000000000000000000000000000000000000000000008152600401610c1790613529565b60405180910390fd5b610c2b601582611784565b50565b610c3661129c565b73ffffffffffffffffffffffffffffffffffffffff16610c54610b7b565b73ffffffffffffffffffffffffffffffffffffffff1614610caa576040517f08c379a0000000000000000000000000000000000000000000000000000000008152600401610ca190613529565b60405180910390fd5b610cb5838383611840565b505050565b610cc261129c565b73ffffffffffffffffffffffffffffffffffffffff16610ce0610b7b565b73ffffffffffffffffffffffffffffffffffffffff1614610d36576040517f08c379a0000000000000000000000000000000000000000000000000000000008152600401610d2d90613529565b60405180910390fd5b610d3f81611866565b50565b6000610d4c61129c565b9050600260009054906101000a900473ffffffffffffffffffffffffffffffffffffffff1673ffffffffffffffffffffffffffffffffffffffff166323b872dd8230856040518463ffffffff1660e01b8152600401610dad93929190613818565b6020604051808303816000875af1158015610dcc573d6000803e3d6000fd5b505050506040513d601f19601f82011682018060405250810190610df0919061387b565b50610dfb8183611870565b5050565b6000610e0a82611918565b9050919050565b6000610e1b611961565b905090565b610e28612830565b610e318261196b565b600380602002604051908101604052809291908260038015610e8d576020028201916000905b82829054906101000a900460ff16151581526020019060010190602082600001049283019260010382029150808411610e575790505b50505050509050919050565b6000610ea583836119b3565b905092915050565b6000610eb76119e3565b905090565b6000610ec782611286565b9050919050565b6000610ed861129c565b9050610ef98173ffffffffffffffffffffffffffffffffffffffff166119f6565b15610f39576040517f08c379a0000000000000000000000000000000000000000000000000000000008152600401610f30906138f4565b60405180910390fd5b6000610f4361129c565b9050610f4e81611a09565b610f5781611a18565b610f6081611ad0565b610f6981611f00565b610f7281611f48565b610f7b81611f90565b610f8481611ff5565b610f8d81612046565b5050565b610f9961129c565b73ffffffffffffffffffffffffffffffffffffffff16610fb7610b7b565b73ffffffffffffffffffffffffffffffffffffffff161461100d576040517f08c379a000000000000000000000000000000000000000000000000000000000815260040161100490613529565b60405180910390fd5b600073ffffffffffffffffffffffffffffffffffffffff168173ffffffffffffffffffffffffffffffffffffffff16141561107d576040517f08c379a000000000000000000000000000000000000000000000000000000000815260040161107490613986565b60405180910390fd5b61108681611692565b50565b611091612852565b61109b8383612097565b600380602002604051908101604052809291906000905b828210156111555783820180546110c89061349a565b80601f01602080910402602001604051908101604052809291908181526020018280546110f49061349a565b80156111415780601f1061111657610100808354040283529160200191611141565b820191906000526020600020905b81548152906001019060200180831161112457829003601f168201915b5050505050815260200190600101906110b2565b50505050905092915050565b611169612879565b611172826120ca565b6003806020026040519081016040528092919082600380156111a9576020028201915b815481526020019060010190808311611195575b50505050509050919050565b60006111bf61129c565b905060006111cc82611349565b9050600260009054906101000a900473ffffffffffffffffffffffffffffffffffffffff1673ffffffffffffffffffffffffffffffffffffffff1663a9059cbb83836040518363ffffffff1660e01b815260040161122b9291906139a6565b6020604051808303816000875af115801561124a573d6000803e3d6000fd5b505050506040513d601f19601f8201168201806040525081019061126e919061387b565b506112798282612112565b5050565b60006003905090565b60006112918261223c565b805490509050919050565b600033905090565b600260009054906101000a900473ffffffffffffffffffffffffffffffffffffffff1673ffffffffffffffffffffffffffffffffffffffff1663a9059cbb83836040518363ffffffff1660e01b81526004016113019291906139a6565b6020604051808303816000875af1158015611320573d6000803e3d6000fd5b505050506040513d601f19601f82011682018060405250810190611344919061387b565b505050565b6000601260008373ffffffffffffffffffffffffffffffffffffffff1673ffffffffffffffffffffffffffffffffffffffff168152602001908152602001600020549050919050565b6000601160008373ffffffffffffffffffffffffffffffffffffffff1673ffffffffffffffffffffffffffffffffffffffff168152602001908152602001600020549050919050565b82828260086000600b6000600c6000869190505585919050558491905055505050505050565b600061140c8361196b565b9050808260038110611421576114206139cf565b5b602091828204019190069054906101000a900460ff1615611477576040517f08c379a000000000000000000000000000000000000000000000000000000000815260040161146e90613a4a565b60405180910390fd5b600181836003811061148c5761148b6139cf565b5b602091828204019190066101000a81548160ff0219169083151502179055506114b483612284565b505050565b60006114c361235e565b82815481106114d5576114d46139cf565b5b90600052602060002090600402019050919050565b6000600f60008373ffffffffffffffffffffffffffffffffffffffff1673ffffffffffffffffffffffffffffffffffffffff168152602001908152602001600020549050919050565b6015819080600181540180825580915050600190039060005260206000209060040201600090919091909150818161156b9190614229565b505050565b6000806000600854600b54600c54925092509250909192565b600061159361127d565b905060006115a0846120ca565b905060006115ad8561196b565b90508084600381106115c2576115c16139cf565b5b602091828204019190069054906101000a900460ff1615611618576040517f08c379a000000000000000000000000000000000000000000000000000000000815260040161160f90614283565b60405180910390fd5b600082856003811061162d5761162c6139cf565b5b01549050838560038110611644576116436139cf565b5b018054905060018261165691906142a3565b6116609190614328565b838660038110611673576116726139cf565b5b018190555061168186612367565b61168a86611ad0565b505050505050565b60008060009054906101000a900473ffffffffffffffffffffffffffffffffffffffff169050816000806101000a81548173ffffffffffffffffffffffffffffffffffffffff021916908373ffffffffffffffffffffffffffffffffffffffff1602179055508173ffffffffffffffffffffffffffffffffffffffff168173ffffffffffffffffffffffffffffffffffffffff167f8be0079c531659141344cd1fd0a4f28419497f9722a3daafe3b4186f6b6457e060405160405180910390a35050565b6000806000600754600954600a54925092509250909192565b80600390600361178092919061289b565b5050565b81600183805490506117969190614359565b815481106117a7576117a66139cf565b5b90600052602060002090600402018282815481106117c8576117c76139cf565b5b906000526020600020906004020160008201816000019060036117ec9291906128ee565b50600382015481600301559050508180548061180b5761180a61438d565b5b6001900381819060005260206000209060040201600080820160006118309190612941565b6003820160009055505090555050565b8282826007600060096000600a6000869190505585919050558491905055505050505050565b8060068190555050565b80601160008473ffffffffffffffffffffffffffffffffffffffff1673ffffffffffffffffffffffffffffffffffffffff16815260200190815260200160002060008282546118bf91906142a3565b925050819055508173ffffffffffffffffffffffffffffffffffffffff167fe1fffcc4923d04b559f4d29a8bfc6cda04eb5b0d3c460751c2402c5c5cc9109c8260405161190c9190612eeb565b60405180910390a25050565b6000601060008373ffffffffffffffffffffffffffffffffffffffff1673ffffffffffffffffffffffffffffffffffffffff168152602001908152602001600020549050919050565b6000600654905090565b6000600e60008373ffffffffffffffffffffffffffffffffffffffff1673ffffffffffffffffffffffffffffffffffffffff1681526020019081526020016000209050919050565b60006119be83612441565b82815481106119d0576119cf6139cf565b5b9060005260206000200154905092915050565b60006119ed61235e565b80549050905090565b600080823b905060008111915050919050565b611a1581600654612489565b50565b6000611a2261127d565b90506000611a2f836120ca565b90506000611a3c8461196b565b905060005b6003811015611ac957818160038110611a5d57611a5c6139cf565b5b602091828204019190069054906101000a900460ff16611ab6576000611a99858360038110611a8f57611a8e6139cf565b5b01805490506125a8565b905080848360038110611aaf57611aae6139cf565b5b0181905550505b8080611ac1906143bc565b915050611a41565b5050505050565b6000611ada61127d565b90506000611ae7836120ca565b90506000604051806060016040528084600060038110611b0a57611b096139cf565b5b0184600060038110611b1f57611b1e6139cf565b5b015481548110611b3257611b316139cf565b5b906000526020600020018054611b479061349a565b80601f0160208091040260200160405190810160405280929190818152602001828054611b739061349a565b8015611bc05780601f10611b9557610100808354040283529160200191611bc0565b820191906000526020600020905b815481529060010190602001808311611ba357829003601f168201915b5050505050815260200184600160038110611bde57611bdd6139cf565b5b0184600160038110611bf357611bf26139cf565b5b015481548110611c0657611c056139cf565b5b906000526020600020018054611c1b9061349a565b80601f0160208091040260200160405190810160405280929190818152602001828054611c479061349a565b8015611c945780601f10611c6957610100808354040283529160200191611c94565b820191906000526020600020905b815481529060010190602001808311611c7757829003601f168201915b5050505050815260200184600260038110611cb257611cb16139cf565b5b0184600260038110611cc757611cc66139cf565b5b015481548110611cda57611cd96139cf565b5b906000526020600020018054611cef9061349a565b80601f0160208091040260200160405190810160405280929190818152602001828054611d1b9061349a565b8015611d685780601f10611d3d57610100808354040283529160200191611d68565b820191906000526020600020905b815481529060010190602001808311611d4b57829003601f168201915b505050505081525090506000805b611d7e6119e3565b811015611ee4576000611d90826114b9565b9050600081600001600380602002604051908101604052809291906000905b82821015611e52578382018054611dc59061349a565b80601f0160208091040260200160405190810160405280929190818152602001828054611df19061349a565b8015611e3e5780601f10611e1357610100808354040283529160200191611e3e565b820191906000526020600020905b815481529060010190602001808311611e2157829003601f168201915b505050505081526020019060010190611daf565b50505050905060008260030154905085604051602001611e729190613392565b6040516020818303038152906040528051906020012082604051602001611e999190613392565b604051602081830303815290604052805190602001201415611ec057611ebf8982612607565b5b8085611ecc91906142a3565b94505050508080611edc906143bc565b915050611d76565b50611eef85836126af565b611ef985826126fb565b5050505050565b6000601060008373ffffffffffffffffffffffffffffffffffffffff1673ffffffffffffffffffffffffffffffffffffffff1681526020019081526020016000208190555050565b6000600f60008373ffffffffffffffffffffffffffffffffffffffff1673ffffffffffffffffffffffffffffffffffffffff1681526020019081526020016000208190555050565b6000611f9b8261196b565b905060005b6003811015611ff0576000828260038110611fbe57611fbd6139cf565b5b602091828204019190066101000a81548160ff0219169083151502179055508080611fe8906143bc565b915050611fa0565b505050565b600061200160646125a8565b9050600854811015612042576000600b5461202a600b54600c546120259190614359565b6125a8565b61203491906142a3565b90506120408382612735565b505b5050565b600061205260646125a8565b905060075481101561209357600060095461207b600954600a546120769190614359565b6125a8565b61208591906142a3565b9050612091838261278f565b505b5050565b60006120a28361223c565b82815481106120b4576120b36139cf565b5b9060005260206000209060030201905092915050565b6000600d60008373ffffffffffffffffffffffffffffffffffffffff1673ffffffffffffffffffffffffffffffffffffffff1681526020019081526020016000209050919050565b80601260008473ffffffffffffffffffffffffffffffffffffffff1673ffffffffffffffffffffffffffffffffffffffff168152602001908152602001600020541015612194576040517f08c379a000000000000000000000000000000000000000000000000000000000815260040161218b90614477565b60405180910390fd5b80601260008473ffffffffffffffffffffffffffffffffffffffff1673ffffffffffffffffffffffffffffffffffffffff16815260200190815260200160002060008282546121e39190614359565b925050819055508173ffffffffffffffffffffffffffffffffffffffff167f884edad9ce6fa2440d8a54cc123490eb96d2768479d49ff9c7366125a9424364826040516122309190612eeb565b60405180910390a25050565b6000601360008373ffffffffffffffffffffffffffffffffffffffff1673ffffffffffffffffffffffffffffffffffffffff1681526020019081526020016000209050919050565b6000600f60008373ffffffffffffffffffffffffffffffffffffffff1673ffffffffffffffffffffffffffffffffffffffff1681526020019081526020016000205411612306576040517f08c379a00000000000000000000000000000000000000000000000000000000081526004016122fd906144e3565b60405180910390fd5b600f60008273ffffffffffffffffffffffffffffffffffffffff1673ffffffffffffffffffffffffffffffffffffffff168152602001908152602001600020600081548092919061235690614503565b919050555050565b60006015905090565b6000601060008373ffffffffffffffffffffffffffffffffffffffff1673ffffffffffffffffffffffffffffffffffffffff16815260200190815260200160002054116123e9576040517f08c379a00000000000000000000000000000000000000000000000000000000081526004016123e090614579565b60405180910390fd5b601060008273ffffffffffffffffffffffffffffffffffffffff1673ffffffffffffffffffffffffffffffffffffffff168152602001908152602001600020600081548092919061243990614503565b919050555050565b6000601460008373ffffffffffffffffffffffffffffffffffffffff1673ffffffffffffffffffffffffffffffffffffffff1681526020019081526020016000209050919050565b80601160008473ffffffffffffffffffffffffffffffffffffffff1673ffffffffffffffffffffffffffffffffffffffff16815260200190815260200160002054101561250b576040517f08c379a0000000000000000000000000000000000000000000000000000000008152600401612502906145e5565b60405180910390fd5b80601160008473ffffffffffffffffffffffffffffffffffffffff1673ffffffffffffffffffffffffffffffffffffffff168152602001908152602001600020600082825461255a9190614359565b925050819055508173ffffffffffffffffffffffffffffffffffffffff167f805ba4f5a2d0edb125aac77d9404ce5b38a130c3a5f30ca89ffbe0d2109e563d60405160405180910390a25050565b600080426001546040516020016125c092919061467d565b6040516020818303038152906040528051906020012060001c905082816125e79190614328565b9150600160008154809291906125fc906143bc565b919050555050919050565b80601260008473ffffffffffffffffffffffffffffffffffffffff1673ffffffffffffffffffffffffffffffffffffffff168152602001908152602001600020600082825461265691906142a3565b925050819055508173ffffffffffffffffffffffffffffffffffffffff167f8b01f9dd0400d6a1e84369a5fb8f6033934856ffa8ebadd707dca302ab551695826040516126a39190612eeb565b60405180910390a25050565b60006126ba8361223c565b9050808290806001815401808255809150506001900390600052602060002090600302016000909190919091509060036126f5929190612974565b50505050565b600061270683612441565b905080829080600181540180825580915050600190039060005260206000200160009091909190915055505050565b80600f60008473ffffffffffffffffffffffffffffffffffffffff1673ffffffffffffffffffffffffffffffffffffffff168152602001908152602001600020600082825461278491906142a3565b925050819055505050565b80601060008473ffffffffffffffffffffffffffffffffffffffff1673ffffffffffffffffffffffffffffffffffffffff16815260200190815260200160002060008282546127de91906142a3565b925050819055505050565b60405180606001604052806003905b60608152602001906001900390816127f85790505090565b6040518060400160405280612823612852565b8152602001600081525090565b6040518060600160405280600390602082028036833780820191505090505090565b60405180606001604052806003905b60608152602001906001900390816128615790505090565b6040518060600160405280600390602082028036833780820191505090505090565b82600381019282156128dd579160200282015b828111156128dc5782518290805190602001906128cc9291906129c7565b50916020019190600101906128ae565b5b5090506128ea9190612a27565b5090565b8260038101928215612930579182015b8281111561292f5782829080546129149061349a565b61291f929190612a4b565b50916001019190600101906128fe565b5b50905061293d9190612ad8565b5090565b50600081816129509190612afc565b50600101600081816129629190612afc565b5060010160006129729190612afc565b565b82600381019282156129b6579160200282015b828111156129b55782518290805190602001906129a5929190612b3c565b5091602001919060010190612987565b5b5090506129c39190612ad8565b5090565b828054828255906000526020600020908101928215612a16579160200282015b82811115612a15578251829080519060200190612a05929190612b3c565b50916020019190600101906129e7565b5b509050612a239190612ad8565b5090565b5b80821115612a475760008181612a3e9190612bc2565b50600101612a28565b5090565b828054612a579061349a565b90600052602060002090601f016020900481019282612a795760008555612ac7565b82601f10612a8a5780548555612ac7565b82800160010185558215612ac757600052602060002091601f016020900482015b82811115612ac6578254825591600101919060010190612aab565b5b509050612ad49190612be3565b5090565b5b80821115612af85760008181612aef9190612afc565b50600101612ad9565b5090565b508054612b089061349a565b6000825580601f10612b1a5750612b39565b601f016020900490600052602060002090810190612b389190612be3565b5b50565b828054612b489061349a565b90600052602060002090601f016020900481019282612b6a5760008555612bb1565b82601f10612b8357805160ff1916838001178555612bb1565b82800160010185558215612bb1579182015b82811115612bb0578251825591602001919060010190612b95565b5b509050612bbe9190612be3565b5090565b5080546000825590600052602060002090810190612be09190612ad8565b50565b5b80821115612bfc576000816000905550600101612be4565b5090565b600060039050919050565b600081905092915050565b6000819050919050565b600081519050919050565b600082825260208201905092915050565b6000819050602082019050919050565b600081519050919050565b600082825260208201905092915050565b60005b83811015612c86578082015181840152602081019050612c6b565b83811115612c95576000848401525b50505050565b6000601f19601f8301169050919050565b6000612cb782612c4c565b612cc18185612c57565b9350612cd1818560208601612c68565b612cda81612c9b565b840191505092915050565b6000612cf18383612cac565b905092915050565b6000602082019050919050565b6000612d1182612c20565b612d1b8185612c2b565b935083602082028501612d2d85612c3c565b8060005b85811015612d695784840389528151612d4a8582612ce5565b9450612d5583612cf9565b925060208a01995050600181019050612d31565b50829750879550505050505092915050565b6000612d878383612d06565b905092915050565b6000602082019050919050565b6000612da782612c00565b612db18185612c0b565b935083602082028501612dc385612c16565b8060005b85811015612dff5784840389528151612de08582612d7b565b9450612deb83612d8f565b925060208a01995050600181019050612dc7565b50829750879550505050505092915050565b60006020820190508181036000830152612e2b8184612d9c565b905092915050565b6000604051905090565b600080fd5b600080fd5b600073ffffffffffffffffffffffffffffffffffffffff82169050919050565b6000612e7282612e47565b9050919050565b612e8281612e67565b8114612e8d57600080fd5b50565b600081359050612e9f81612e79565b92915050565b600060208284031215612ebb57612eba612e3d565b5b6000612ec984828501612e90565b91505092915050565b6000819050919050565b612ee581612ed2565b82525050565b6000602082019050612f006000830184612edc565b92915050565b612f0f81612ed2565b8114612f1a57600080fd5b50565b600081359050612f2c81612f06565b92915050565b600060208284031215612f4857612f47612e3d565b5b6000612f5684828501612f1d565b91505092915050565b600080600060608486031215612f7857612f77612e3d565b5b6000612f8686828701612f1d565b9350506020612f9786828701612f1d565b9250506040612fa886828701612f1d565b9150509250925092565b600060039050919050565b600081905092915050565b6000819050919050565b6000602082019050919050565b6000612fea82612fb2565b612ff48185612fbd565b93508360208202850161300685612fc8565b8060005b8581101561304257848403895281516130238582612ce5565b945061302e83612fd2565b925060208a0199505060018101905061300a565b50829750879550505050505092915050565b61305d81612ed2565b82525050565b600060408301600083015184820360008601526130808282612fdf565b91505060208301516130956020860182613054565b508091505092915050565b600060208201905081810360008301526130ba8184613063565b905092915050565b600080fd5b6000604082840312156130dd576130dc6130c2565b5b81905092915050565b6000602082840312156130fc576130fb612e3d565b5b600082013567ffffffffffffffff81111561311a57613119612e42565b5b613126848285016130c7565b91505092915050565b60006060820190506131446000830186612edc565b6131516020830185612edc565b61315e6040830184612edc565b949350505050565b600080fd5b60008190508260206003028201111561318757613186613166565b5b92915050565b6000602082840312156131a3576131a2612e3d565b5b600082013567ffffffffffffffff8111156131c1576131c0612e42565b5b6131cd8482850161316b565b91505092915050565b6131df81612e67565b82525050565b60006020820190506131fa60008301846131d6565b92915050565b600060039050919050565b600081905092915050565b6000819050919050565b60008115159050919050565b61323581613220565b82525050565b6000613247838361322c565b60208301905092915050565b6000602082019050919050565b61326981613200565b613273818461320b565b925061327e82613216565b8060005b838110156132af578151613296878261323b565b96506132a183613253565b925050600181019050613282565b505050505050565b60006060820190506132cc6000830184613260565b92915050565b600080604083850312156132e9576132e8612e3d565b5b60006132f785828601612e90565b925050602061330885828601612f1d565b9150509250929050565b600081905092915050565b600061332882612fb2565b6133328185613312565b93508360208202850161334485612fc8565b8060005b8581101561338057848403895281516133618582612ce5565b945061336c83612fd2565b925060208a01995050600181019050613348565b50829750879550505050505092915050565b600060208201905081810360008301526133ac818461331d565b905092915050565b600060039050919050565b600081905092915050565b6000819050919050565b60006133e08383613054565b60208301905092915050565b6000602082019050919050565b613402816133b4565b61340c81846133bf565b9250613417826133ca565b8060005b8381101561344857815161342f87826133d4565b965061343a836133ec565b92505060018101905061341b565b505050505050565b600060608201905061346560008301846133f9565b92915050565b7f4e487b7100000000000000000000000000000000000000000000000000000000600052602260045260246000fd5b600060028204905060018216806134b257607f821691505b602082108114156134c6576134c561346b565b5b50919050565b600082825260208201905092915050565b7f4f776e61626c653a2063616c6c6572206973206e6f7420746865206f776e6572600082015250565b60006135136020836134cc565b915061351e826134dd565b602082019050919050565b6000602082019050818103600083015261354281613506565b9050919050565b7f4e487b7100000000000000000000000000000000000000000000000000000000600052604160045260246000fd5b61358182612c9b565b810181811067ffffffffffffffff821117156135a05761359f613549565b5b80604052505050565b60006135b3612e33565b90506135bf8282613578565b919050565b600067ffffffffffffffff8211156135df576135de613549565b5b602082029050919050565b600080fd5b600067ffffffffffffffff82111561360a57613609613549565b5b602082029050602081019050919050565b600080fd5b600067ffffffffffffffff82111561363b5761363a613549565b5b61364482612c9b565b9050602081019050919050565b82818337600083830152505050565b600061367361366e84613620565b6135a9565b90508281526020810184848401111561368f5761368e61361b565b5b61369a848285613651565b509392505050565b600082601f8301126136b7576136b66135ea565b5b81356136c7848260208601613660565b91505092915050565b60006136e36136de846135ef565b6135a9565b9050808382526020820190506020840283018581111561370657613705613166565b5b835b8181101561374d57803567ffffffffffffffff81111561372b5761372a6135ea565b5b80860161373889826136a2565b85526020850194505050602081019050613708565b5050509392505050565b600082601f83011261376c5761376b6135ea565b5b813561377c8482602086016136d0565b91505092915050565b6000613798613793846135c4565b6135a9565b905080602084028301858111156137b2576137b1613166565b5b835b818110156137f957803567ffffffffffffffff8111156137d7576137d66135ea565b5b8086016137e48982613757565b855260208501945050506020810190506137b4565b5050509392505050565b600061381136600384613785565b9050919050565b600060608201905061382d60008301866131d6565b61383a60208301856131d6565b6138476040830184612edc565b949350505050565b61385881613220565b811461386357600080fd5b50565b6000815190506138758161384f565b92915050565b60006020828403121561389157613890612e3d565b5b600061389f84828501613866565b91505092915050565b7f436f6e747261637473206d6179206e6f7420706c617920736c6f74732e000000600082015250565b60006138de601d836134cc565b91506138e9826138a8565b602082019050919050565b6000602082019050818103600083015261390d816138d1565b9050919050565b7f4f776e61626c653a206e6577206f776e657220697320746865207a65726f206160008201527f6464726573730000000000000000000000000000000000000000000000000000602082015250565b60006139706026836134cc565b915061397b82613914565b604082019050919050565b6000602082019050818103600083015261399f81613963565b9050919050565b60006040820190506139bb60008301856131d6565b6139c86020830184612edc565b9392505050565b7f4e487b7100000000000000000000000000000000000000000000000000000000600052603260045260246000fd5b7f416c72656164792068656c64207468697320706f736974696f6e2e0000000000600082015250565b6000613a34601b836134cc565b9150613a3f826139fe565b602082019050919050565b60006020820190508181036000830152613a6381613a27565b9050919050565b7f4e487b7100000000000000000000000000000000000000000000000000000000600052600060045260246000fd5b600080fd5b600080fd5b600080fd5b600082356001606003833603038112613ac457613ac3613a99565b5b80830191505092915050565b6000819050919050565b60008083356001602003843603038112613af757613af6613a99565b5b80840192508235915067ffffffffffffffff821115613b1957613b18613a9e565b5b602083019250600182023603831315613b3557613b34613aa3565b5b509250929050565b600060039050919050565b7f4e487b7100000000000000000000000000000000000000000000000000000000600052601160045260246000fd5b60008190506001806001038301049050919050565b6000819050919050565b60008190508160005260206000209050919050565b600082821c905092915050565b613be87fffffffffffffffffffffffffffffffffffffffffffffffffffffffffffffffff83602003600802613bab565b815481168255505050565b600082821b905092915050565b600060088302613c307fffffffffffffffffffffffffffffffffffffffffffffffffffffffffffffffff82613bf3565b613c3a8683613bf3565b95508019841693508086168417925050509392505050565b6000819050919050565b6000613c77613c72613c6d84612ed2565b613c52565b612ed2565b9050919050565b6000819050919050565b613c9183613c5c565b613ca5613c9d82613c7e565b848454613c00565b825550505050565b600090565b613cba613cad565b613cc5818484613c88565b505050565b5b81811015613ce957613cde600082613cb2565b600181019050613ccb565b5050565b6000613cfe60001984600802613bab565b1980831691505092915050565b6000613d178383613ced565b9150826002028217905092915050565b613d3081613b96565b613d3b838254613d0b565b8083556000825550505050565b60006020601f8301049050919050565b6020841060008114613db357601f841160018114613d8157613d7a8685613d0b565b8355613dad565b613d8a83613b96565b613da1613d9687613d48565b820160018301613cca565b613dab8785613d27565b505b50613e00565b613dbc82613b96565b613dc586613d48565b8101601f87168015613ddf57613dde8160018403613bb8565b5b613df3613deb88613d48565b840183613cca565b6001886002021785555050505b5050505050565b68010000000000000000841115613e2157613e20613549565b5b6020831060008114613e6c576020851060008114613e4a57613e438685613d0b565b8355613e66565b8360ff1916935083613e5b84613b96565b556001866002020183555b50613e76565b6001856002020182555b5050505050565b8054613e888161349a565b80841115613e9d57613e9c84828486613e07565b5b80841015613eb257613eb184828486613d58565b5b50505050565b81811015613ed657613ecb600082613cb2565b600181019050613eb8565b5050565b613ee5600082613e7d565b50565b60008214613ef957613ef8613a6a565b5b613f0281613eda565b5050565b5b81811015613f2557613f1a600082613ee8565b600181019050613f07565b5050565b81831015613f6257613f3a82613b77565b613f4384613b77565b613f4c83613b8c565b818101838201613f5c8183613f06565b50505050505b505050565b68010000000000000000821115613f8157613f80613549565b5b613f8a81613b3d565b613f95838284613f29565b505050565b600060039050919050565b600082905092915050565b601f821115613ff157613fc281613b96565b613fcb84613d48565b81016020851015613fda578190505b613fee613fe685613d48565b830182613cca565b50505b505050565b6140008383613fa5565b67ffffffffffffffff81111561401957614018613549565b5b614023825461349a565b61402e828285613fb0565b6000601f83116001811461405d576000841561404b578287013590505b6140558582613d0b565b8655506140bd565b601f19841661406b86613b96565b60005b828110156140935784890135825560018201915060208501945060208101905061406e565b868310156140b057848901356140ac601f891682613ced565b8355505b6001600288020188555050505b50505050505050565b81156140d5576140d4613a6a565b5b6140e0848483613ff6565b50505050565b6140ef82613f9a565b6140f98183613f67565b61410283613ad0565b61410b83613b8c565b6000805b84811015614146576141218488613ada565b61412d818386886140c6565b602086019550600185019450505060018101905061410f565b50505050505050565b61415982826140e6565b5050565b6000813561416a81612f06565b80915050919050565b60008160001b9050919050565b60007fffffffffffffffffffffffffffffffffffffffffffffffffffffffffffffffff6141ac84614173565b9350801983169250808416831791505092915050565b6141cb82613c5c565b6141de6141d782613c7e565b8354614180565b8255505050565b60008101600083016141f78185613aa8565b614201818461414f565b5050506003810160208301806142168161415d565b905061422281846141c2565b5050505050565b61423382826141e5565b5050565b7f43616e6e6f74206e7564676520612068656c6420706f736974696f6e2e000000600082015250565b600061426d601d836134cc565b915061427882614237565b602082019050919050565b6000602082019050818103600083015261429c81614260565b9050919050565b60006142ae82612ed2565b91506142b983612ed2565b9250827fffffffffffffffffffffffffffffffffffffffffffffffffffffffffffffffff038211156142ee576142ed613b48565b5b828201905092915050565b7f4e487b7100000000000000000000000000000000000000000000000000000000600052601260045260246000fd5b600061433382612ed2565b915061433e83612ed2565b92508261434e5761434d6142f9565b5b828206905092915050565b600061436482612ed2565b915061436f83612ed2565b92508282101561438257614381613b48565b5b828203905092915050565b7f4e487b7100000000000000000000000000000000000000000000000000000000600052603160045260246000fd5b60006143c782612ed2565b91507fffffffffffffffffffffffffffffffffffffffffffffffffffffffffffffffff8214156143fa576143f9613b48565b5b600182019050919050565b7f596f75722062616e6b2062616c616e636520697320746f6f206c6f7720746f2060008201527f7769746864726177207468697320616d6f756e742e0000000000000000000000602082015250565b60006144616035836134cc565b915061446c82614405565b604082019050919050565b6000602082019050818103600083015261449081614454565b9050919050565b7f596f7520686176652072616e206f7574206f6620686f6c64732e000000000000600082015250565b60006144cd601a836134cc565b91506144d882614497565b602082019050919050565b600060208201905081810360008301526144fc816144c0565b9050919050565b600061450e82612ed2565b9150600082141561452257614521613b48565b5b600182039050919050565b7f596f7520686176652072616e206f7574206f66206e75646765732e0000000000600082015250565b6000614563601b836134cc565b915061456e8261452d565b602082019050919050565b6000602082019050818103600083015261459281614556565b9050919050565b7f596f7520686176652072616e206f7574206f6620637265646974732e00000000600082015250565b60006145cf601c836134cc565b91506145da82614599565b602082019050919050565b600060208201905081810360008301526145fe816145c2565b9050919050565b6000819050919050565b61462061461b82612ed2565b614605565b82525050565b600081905092915050565b7f7461696c6368696e6b7261000000000000000000000000000000000000000000600082015250565b6000614667600b83614626565b915061467282614631565b600b82019050919050565b6000614689828561460f565b6020820191506146988261465a565b91506146a4828461460f565b602082019150819050939250505056fea2646970667358221220b5c2916671bb4592fac2000a2b685675572c25c532c58483896131a156afd92164736f6c634300080a0033",
  "immutableReferences": {},
  "source": "pragma solidity ^0.8.0;\r\nimport \"@openzeppelin/contracts/token/ERC20/IERC20.sol\";\r\nimport \"@openzeppelin/contracts/access/Ownable.sol\";\r\nimport \"@openzeppelin/contracts/utils/Address.sol\";\r\ncontract Random {\r\n    uint nonce;\r\n    function _randomNumber(uint _upTo) internal returns(uint number) {\r\n        uint res = uint(keccak256(abi.encodePacked(block.timestamp, \"tailchinkra\", nonce)));\r\n        number = res % _upTo;\r\n        nonce ++;\r\n    }\r\n}\r\ncontract Slots is Ownable, Random {\r\n    using Address for address;\r\n\r\n    constructor(IERC20 _XYA) {\r\n        XYA = _XYA;\r\n    }\r\n    \r\n    \r\n    \r\n    //XYA\r\n    IERC20 XYA;\r\n    \r\n    \r\n    \r\n    //machine\r\n    string[][3] _reels;\r\n    uint _creditPrice;\r\n    uint _nudgesChance; uint _holdsChance; /* percentage chance to receive nudges and holds */\r\n    uint _nudgesMin; uint _nudgesMax; /* minimum and maximum nudges given */\r\n    uint _holdsMin; uint _holdsMax; /* minimum and maximum holds given */\r\n    \r\n    \r\n    \r\n    //events\r\n    event Won(address indexed player, uint winnings);\r\n    event Spun(address indexed player);\r\n    event Deposit(address indexed player, uint amount);\r\n    event Withdraw(address indexed player, uint amount);\r\n    \r\n    \r\n    \r\n    //player info\r\n    mapping(address => uint[3]) _positions;\r\n    mapping(address => bool[3]) _held;\r\n    mapping(address => uint) _holds;\r\n    mapping(address => uint) _nudges;\r\n    mapping(address => uint) _credits;\r\n    mapping(address => uint) _bank;\r\n    mapping(address => string[3][]) _historicalResults;\r\n    mapping(address => uint[]) _historicalWinnings;\r\n    \r\n\r\n\r\n    //payout info\r\n    struct PayLineData {\r\n        string[3] payLine;\r\n        uint payout;\r\n    }\r\n    PayLineData[] _payTable;\r\n\r\n\r\n\r\n    //pay table\r\n    function addToPayTable(PayLineData calldata _payLineData) public onlyOwner {\r\n        _addToPayTable(_payLineData);\r\n    }\r\n\r\n    function removeFromPayTable(uint _index) public onlyOwner {\r\n        _removeFromPayTable(_payTable, _index);\r\n    }\r\n\r\n    function getPayTableLength() public view returns(uint) {\r\n        return _getPayTableLength();\r\n    }\r\n\r\n    function getPayLineData(uint _index) public view returns(PayLineData memory) {\r\n        return _getPayLineData(_index);\r\n    }\r\n\r\n\r\n\r\n    //holds and nudges\r\n    function holdsInfo() public view returns(uint chance, uint min, uint max) {\r\n        return _getHoldsInfo();\r\n    }\r\n\r\n    function nudgesInfo() public view returns(uint chance, uint min, uint max) {\r\n        return _getNudgesInfo();\r\n    }\r\n\r\n    function setHoldsInfo(uint _chance, uint _min, uint _max) public onlyOwner {\r\n        _setHoldsInfo(_chance, _min, _max);\r\n    }\r\n\r\n    function setnudgesInfo(uint _chance, uint _min, uint _max) public onlyOwner {\r\n        _setNudgesInfo(_chance, _min, _max);\r\n    }\r\n\r\n\r\n\r\n    //previous results\r\n    function getHistoricalResultsLengthOfPlayer(address _player) public view returns(uint) {\r\n        return _getHistoricalResultsLength(_player);\r\n    }\r\n\r\n    function getHistoricalResultOfPlayerByIndex(address _player, uint _index) public view returns(string[3] memory) {\r\n        return _getHistoricalResult(_player, _index);\r\n    }\r\n\r\n    function getHistoricalWinningsLengthOfPlayer(address _player) public view returns(uint) {\r\n        return _getHistoricalResultsLength(_player);\r\n    }\r\n\r\n    function getHistoricalWinningOfPlayerbyIndex(address _player, uint _index) public view returns(uint) {\r\n        return _getHistoricalWinning(_player, _index);\r\n    }\r\n\r\n\r\n\r\n    //reel data\r\n    function reels() public view returns(string[][3] memory ) {\r\n        return _getReels();\r\n    }\r\n\r\n    function setReels(string[][3] calldata _newReels) public onlyOwner {\r\n        _setReels(_newReels);\r\n    }\r\n\r\n    function positionsOf(address _player) public view returns(uint[3] memory) {\r\n        return _getPositions(_player);\r\n    }\r\n\r\n    //admin withdraw\r\n    function withdraw(uint _value) public onlyOwner {\r\n        _withdraw(_msgSender(), _value);\r\n    }\r\n\r\n\r\n\r\n    //price per spin\r\n    function creditPrice() public view returns(uint) {\r\n        return _getCreditPrice();\r\n    }\r\n\r\n    function setCreditPrice(uint _price) public onlyOwner {\r\n        _setCreditPrice(_price);\r\n    }\r\n\r\n\r\n\r\n    //main game\r\n    function deposit(uint _value) public {\r\n        address player = _msgSender();\r\n        XYA.transferFrom(player, address(this), _value);\r\n        _addToCredits(player, _value);\r\n    }\r\n\r\n    function withdrawBank() public {\r\n        address player = _msgSender();\r\n        uint bank = _getBank(player);\r\n        XYA.transfer(player, bank);\r\n        _takeFromBank(player, bank);\r\n    }\r\n\r\n    function spin() public noContract {\r\n        address player = _msgSender();\r\n        _payForSpin(player);\r\n        _spin(player);\r\n        _payout(player);\r\n        _clearNudges(player);\r\n        _clearHolds(player);\r\n        _resetHeld(player);\r\n        _awardHolds(player);\r\n        _awardNudges(player);\r\n    }\r\n\r\n    function hold(uint _index) public {\r\n        address player = _msgSender();\r\n        _hold(player, _index);\r\n    }\r\n\r\n    function nudge(uint _index) public {\r\n        address player = _msgSender();\r\n        _nudge(player, _index);\r\n    }\r\n\r\n    function bankOf(address _player) public view returns(uint) {\r\n        return _getBank(_player);\r\n    }\r\n\r\n    function creditBalanceOf(address _player) public view returns(uint) {\r\n        return _getCredits(_player);\r\n    }\r\n\r\n    function holdsOf(address _player) public view returns(uint) {\r\n        return _getHolds(_player);\r\n    }\r\n\r\n    function heldOf(address _player) public view returns(bool[3] memory) {\r\n        return _getHeld(_player);\r\n    }\r\n\r\n    function nudgesOf(address _player) public view returns(uint) {\r\n        return _getNudges(_player);\r\n    }\r\n\r\n\r\n\r\n\r\n\r\n    //behind the scenes\r\n    function _addToPayTable(PayLineData calldata _payLine) private {\r\n        _payTable.push(_payLine);\r\n    }\r\n\r\n    function _removeFromPayTable(PayLineData[] storage _table, uint _index) private {\r\n        _table[_index] = _table[_table.length - 1];\r\n        _table.pop();\r\n    }\r\n\r\n    function _getPayTable() private view returns(PayLineData[] storage) {\r\n        return _payTable;\r\n    }\r\n\r\n    function _getPayTableLength() private view returns(uint) {\r\n        return _getPayTable().length;\r\n    }\r\n\r\n    function _getPayLineData(uint _index) private view returns(PayLineData storage) {\r\n        return _getPayTable()[_index];\r\n    }\r\n\r\n    function _getCreditPrice() private view returns(uint) {\r\n        return _creditPrice;\r\n    }\r\n\r\n    function _setCreditPrice(uint _price) private {\r\n        _creditPrice = _price;\r\n    }\r\n    \r\n    function _getHistoricalResults(address _player) private view returns(string[3][] storage) {\r\n        return _historicalResults[_player];\r\n    } \r\n\r\n    function _getHistoricalResultsLength(address _player) private view returns(uint) {\r\n        return _getHistoricalResults(_player).length;\r\n    }\r\n\r\n    function _getHistoricalResult(address _player, uint _index) private view returns(string[3] storage) {\r\n        return _getHistoricalResults(_player)[_index];\r\n    }\r\n\r\n    function _getHistoricalWinnings(address _player) private view returns(uint[] storage) {\r\n        return _historicalWinnings[_player];\r\n    }\r\n\r\n    function _getHistoricalWinningsLength(address _player) private view returns(uint) {\r\n        return _getHistoricalWinnings(_player).length;\r\n    }\r\n\r\n    function _getHistoricalWinning(address _player, uint _index) private view returns(uint) {\r\n        return _getHistoricalWinnings(_player)[_index];\r\n    }\r\n\r\n\r\n\r\n    function _getHeld(address _player) private view returns(bool[3] storage) {\r\n        return _held[_player];\r\n    }\r\n\r\n    function _getPositions(address _player) private view returns(uint[3] storage) {\r\n        return _positions[_player];\r\n    }\r\n\r\n    function _getReels() private view returns(string[][3] storage) {\r\n        return _reels;\r\n    }\r\n\r\n    function _setReels(string[][3] memory _newReels) private {\r\n        _reels = _newReels;\r\n    }\r\n\r\n    function _getBank(address _player) private view returns(uint) {\r\n        return _bank[_player];\r\n    }\r\n\r\n    function _getCredits(address _player) private view returns(uint) {\r\n        return _credits[_player];\r\n    }\r\n\r\n    function _getHolds(address _player) private view returns(uint) {\r\n        return _holds[_player];\r\n    }\r\n\r\n    function _getNudges(address _player) private view returns(uint) {\r\n        return _nudges[_player];\r\n    }\r\n    \r\n\r\n\r\n    function _resetHeld(address _player) private {\r\n        bool[3] storage held = _getHeld(_player);\r\n        for(uint i; i < 3; i ++) {\r\n            held[i] = false;\r\n        }\r\n    }\r\n\r\n    function _clearHolds(address _player) private {\r\n        _holds[_player] = 0;\r\n    }\r\n\r\n    function _clearNudges(address _player) private {\r\n        _nudges[_player] = 0;\r\n    }\r\n\r\n    function _addToHolds(address _player, uint _value) private {\r\n        _holds[_player] += _value;\r\n    }\r\n\r\n    function _addToNudges(address _player, uint _value) private {\r\n        _nudges[_player] += _value;\r\n    }\r\n\r\n    function _decrementHolds(address _player) private {\r\n        require(_holds[_player] > 0, \"You have ran out of holds.\");\r\n        _holds[_player] --;\r\n    }\r\n\r\n    function _decrementNudges(address _player) private {\r\n        require(_nudges[_player] > 0, \"You have ran out of nudges.\");\r\n        _nudges[_player] --;\r\n    }\r\n\r\n    function _takeFromCredits(address _player, uint _value) private {\r\n        require(_credits[_player] >= _value, \"You have ran out of credits.\");\r\n        _credits[_player] -= _value;\r\n        emit Spun(_player);\r\n    }\r\n\r\n    function _addToCredits(address _player, uint _value) private {\r\n        _credits[_player] += _value;\r\n        emit Deposit(_player, _value);\r\n    }\r\n\r\n    function _takeFromBank(address _player, uint _value) private {\r\n        require(_bank[_player] >= _value, \"Your bank balance is too low to withdraw this amount.\");\r\n        _bank[_player] -= _value;\r\n        emit Withdraw(_player, _value);\r\n    }\r\n\r\n    function _addToBank(address _player, uint _value) private {\r\n        _bank[_player] += _value;\r\n        emit Won(_player, _value);\r\n    }\r\n\r\n    function _payForSpin(address _player) private {\r\n        _takeFromCredits(_player, _creditPrice);\r\n    }\r\n\r\n    function _awardHolds(address _player) private {\r\n        uint chance = _randomNumber(100);\r\n        if(chance < _holdsChance) {\r\n            uint holds = _randomNumber(_holdsMax - _holdsMin) + _holdsMin;\r\n            _addToHolds(_player, holds);\r\n        }\r\n    }\r\n\r\n    function _awardNudges(address _player) private {\r\n        uint chance = _randomNumber(100);\r\n        if(chance < _nudgesChance) {\r\n            uint nudges = _randomNumber(_nudgesMax - _nudgesMin) + _nudgesMin;\r\n            _addToNudges(_player, nudges);\r\n        }\r\n    }\r\n\r\n    \r\n\r\n\r\n    \r\n\r\n\r\n    function _spin(address _player) private {\r\n        string[][3] storage reels = _getReels();\r\n        uint[3] storage positions = _getPositions(_player);\r\n        bool[3] storage held = _getHeld(_player);\r\n        for(uint i; i < 3; i ++) {\r\n            if(!held[i]) {\r\n                uint pos = _randomNumber(reels[i].length);\r\n                positions[i] = pos;\r\n            }\r\n        }\r\n    }\r\n\r\n\r\n\r\n    function _nudge(address _player, uint _index) private {\r\n        string[][3] storage reels = _getReels();\r\n        uint[3] storage positions = _getPositions(_player);\r\n        bool[3] storage held = _getHeld(_player);\r\n        require(!held[_index], \"Cannot nudge a held position.\");\r\n        uint pos = positions[_index];\r\n        positions[_index] = (pos + 1) % reels[_index].length;\r\n        _decrementNudges(_player);\r\n        _payout(_player);\r\n    }\r\n\r\n\r\n\r\n    function _hold(address _player, uint _index) private {\r\n        bool[3] storage held = _getHeld(_player);\r\n        require(!held[_index], \"Already held this position.\");\r\n        held[_index] = true;\r\n        _decrementHolds(_player);\r\n    }\r\n\r\n\r\n\r\n    function _payout(address _player) private {\r\n        string[][3] storage reels = _getReels();\r\n        uint[3] storage positions = _getPositions(_player);\r\n        string[3] memory result = [\r\n            reels[0][positions[0]], \r\n            reels[1][positions[1]],\r\n            reels[2][positions[2]]\r\n        ];\r\n        uint winnings;\r\n        for(uint i; i < _getPayTableLength(); i ++) {\r\n            PayLineData storage payLineData = _getPayLineData(i);\r\n            string[3] memory payLine = payLineData.payLine;\r\n            uint payout = payLineData.payout;\r\n            if(keccak256(abi.encode(payLine)) == keccak256(abi.encode(result))) {\r\n                _addToBank(_player, payout);\r\n            }\r\n            winnings += payout;\r\n        }\r\n        _logHistoricalResults(_player, result);\r\n        _logHistoricalWinnings(_player, winnings);\r\n    }\r\n\r\n    function _getHoldsInfo() private view returns(uint chance, uint min, uint max) {\r\n        return(_holdsChance, _holdsMin, _holdsMax);\r\n    }\r\n\r\n    function _getNudgesInfo() private view returns(uint chance, uint min, uint max) {\r\n        return(_nudgesChance, _nudgesMin, _nudgesMax);\r\n    }\r\n\r\n    function _setHoldsInfo(uint _chance, uint _min, uint _max) private {\r\n        (_holdsChance, _holdsMin, _holdsMax) = (_chance, _min, _max);\r\n    }\r\n\r\n    function _setNudgesInfo(uint _chance, uint _min, uint _max) private {\r\n        (_nudgesChance, _nudgesMin, _nudgesMax) = (_chance, _min, _max);\r\n    }\r\n\r\n    function _logHistoricalResults(address _player, string[3] memory _result) private {\r\n        string[3][] storage historicalResults = _getHistoricalResults(_player);\r\n        historicalResults.push(_result);\r\n    }\r\n    function _logHistoricalWinnings(address _player, uint _winnings) private {\r\n        uint[] storage historicalWinnings = _getHistoricalWinnings(_player);\r\n        historicalWinnings.push(_winnings);\r\n    }\r\n\r\n    modifier noContract() {\r\n        address sender = _msgSender();\r\n        require(!sender.isContract(), \"Contracts may not play slots.\");\r\n        _;\r\n    }\r\n\r\n    function _withdraw(address _to, uint _value) private {\r\n        XYA.transfer(_to, _value);\r\n    }\r\n}\r\n",
  "sourcePath": "C:\\Users\\lukey\\Documents\\vscode\\projects\\XYA\\Casino\\contracts\\slots.sol",
  "compiler": {
    "name": "solc",
    "version": "0.8.10+commit.fc410830.Emscripten.clang"
  },
  "schemaVersion": "3.4.3",
  "updatedAt": "2021-11-16T18:34:28.078Z",
  "devdoc": {
    "kind": "dev",
    "methods": {
      "owner()": {
        "details": "Returns the address of the current owner."
      },
      "renounceOwnership()": {
        "details": "Leaves the contract without owner. It will not be possible to call `onlyOwner` functions anymore. Can only be called by the current owner. NOTE: Renouncing ownership will leave the contract without an owner, thereby removing any functionality that is only available to the owner."
      },
      "transferOwnership(address)": {
        "details": "Transfers ownership of the contract to a new account (`newOwner`). Can only be called by the current owner."
      }
    },
    "version": 1
  },
  "userdoc": {
    "kind": "user",
    "methods": {},
    "version": 1
  }
}